:1000000015C1000043C1000041C100003FC1000014
:100010003DC100003BC1000039C1000037C10000F4
:1000200035C1000033C1000031C100002FC1000004
:100030002DC10000D6C7000029C1000027C1000063
:1000400025C1000023C1000021C100001FC1000024
:100050001DC100001BC1000019C1000078C70000CD
:1000600015C1000080C6000055C600000FC1000089
:100070000DC100000BC1000009C1000007C1000054
:1000800005C1000003C1000001C10000FFC0000065
:1000900018C60000EDC50000F9C00000F7C0000060
:1000A000F5C00000F3C00000F1C00000EFC0000088
:1000B000EDC00000EBC00000E9C00000E7C0000098
:1000C000E5C00000E3C00000E1C00000DFC00000A8
:1000D000DDC00000DBC00000D9C00000D7C00000B8
:1000E000D5C00000D805DB05CA05CE05D40512062B
:1000F000DF05E305E905ED05F105F705FB05FF055E
:100100001206050609060D0600002100240027003E
:100110002A002D0030003300010100000401070116
:100120000A0100002200250028002B002E003100CB
:10013000340002010000050108010B01000020004D
:100140002300260029002C002F00320000010000AF
:10015000030106010901050505050705080808084A
:10016000020202020A0A080804040404010101014F
:10017000010101010303030303030303040707074A
:100180000C0C0C0C0C0C0C0C0202020206060606EF
:10019000060606060B0B0B0B0B0B0B0B01021020BC
:1001A00020080810204010204080020102010804AD
:1001B0000201010204081020408080402010080441
:1001C000020180040201804020100804020108049A
:1001D00002010102040810204080010204081020DE
:1001E000408000000A0B02090C0D0E0807030401F1
:1001F00000000000000000000000000000000000FF
:1002000000000000000000000000000000001211CB
:1002100010000000000000000000000000000000CE
:1002200000000000000000009010F61011241FBE16
:10023000CFEFD1E2DEBFCDBF00E00CBF26E0AAEEDB
:10024000B3E001C01D92A132B207E1F713E0A0E0D4
:10025000B2E0E4ECFBE200E00BBF02C007900D92BD
:10026000AA3EB107D9F711E0C5E1D1E000E006C030
:1002700021970109802FFE010E946413C431D10728
:1002800080E00807A9F7D5D70C94D115B9CE089509
:10029000DC01ED91FC910190F081E02D1994CF9259
:1002A000DF92EF92FF920F931F93CF93DF936C0136
:1002B0007A018B01C0E0D0E0CE15DF0589F0D801CE
:1002C0006D918D01D601ED91FC910190F081E02DB1
:1002D000C6011995892B11F47E0102C02196ECCF3D
:1002E000C701DF91CF911F910F91FF90EF90DF90A9
:1002F000CF9008950E94B415FC01A089B18982E0D5
:100300008C93A485B5851C92A685B78580E18C93D6
:10031000108EA489B58986E08C93A289B3898C91CB
:1003200080618C93A289B3898C9188608C93A28917
:10033000B3898C9180688C930288F389E02D808149
:100340008F7D808308958F929F92AF92BF92CF92BC
:10035000DF92EF92FF920F931F93CF93DF93FC01F5
:10036000C081D1812091070430910804C217D307BE
:100370000CF048C09E01220F331FE0910504F0915C
:100380000604E20FF31F80809180C170DD27F1E049
:10039000CF27209719F404E610E002C00CE91FEF04
:1003A0007A015B016C01040F151FB801C401BBD6B3
:1003B000892B89F40E0D1F1DB801C401B4D6892BF9
:1003C00069F4B8016E0D7F1DC401ADD6892BE9F02B
:1003D00023E030E005C021E030E002C022E030E060
:1003E000F501808191810196821793073CF0F50118
:1003F00011821082F6018081918101969183808320
:10040000CE0105C081E090E002C08FEF9FEFDF9149
:10041000CF911F910F91FF90EF90DF90CF90BF9001
:10042000AF909F908F9008952FB7F8948091F70325
:100430009091F803A091F903B091FA032FBF809334
:10044000110490931204A0931304B0931404E09148
:100450000904F0910A040284F385E02D89E094E018
:10046000199597FF26C02FB7F8948091F7039091C4
:10047000F803A091F903B091FA032FBF4091110442
:10048000509112046091130470911404841B950B15
:10049000A60BB70B40910D0450910E0460910F0410
:1004A0007091100484179507A607B70780F28FEFA5
:1004B0009FEF08950F931F93CF93DF93EC018881F3
:1004C0009981009729F02A813B812617370788F404
:1004D0008B016F5F7F4F0E94D014009761F099836A
:1004E00088831B830A832C813D81232B11F4FC011B
:1004F000108281E001C080E0DF91CF911F910F91C8
:100500000895EF92FF920F931F93CF93DF93EC0127
:100510007B018A01BA01CEDF2881398181110DC0AA
:100520002115310519F0C9010E9438141982188269
:100530001D821C821B821A8206C01D830C83B70198
:10054000C9010E94CA15CE01DF91CF911F910F9171
:10055000FF90EF9008954F925F926F927F92EF928B
:10056000FF920F931F93CF93DF93CDB7DEB7A19781
:100570000FB6F894DEBF0FBECDBF7C01FA01CB01F0
:1005800019A2223008F42AE08E010F5D1F4F422E7F
:10059000512C612C712CBF01A30192010E944213C6
:1005A000F901CA01015011096A3014F4605D01C0FB
:1005B000695CD8016C93232B242B252B61F7B801A0
:1005C000C70122D6A1960FB6F894DEBF0FBECDBFED
:1005D000DF91CF911F910F91FF90EF907F906F90DF
:1005E0005F904F900895CF92DF92EF92FF92CF935A
:1005F000DF936C01990FEE08FF08F7FE14C06DE25F
:1006000086EA94E045DEEC0144275527BA014C19EF
:100610005D096E097F092AE086EA94E09CDF7C018F
:10062000EC0EFD1E07C02AE0B701A60186EA94E0A1
:1006300092DF7C0165E273E086EA94E0E5D58E0DF9
:100640009F1DDF91CF91FF90EF90DF90CF900895A5
:100650004F925F926F927F928F929F92AF92BF92D2
:10066000CF92DF92EF92FF92CF93DF93EC016A017A
:100670007B01B22E9A01AB01C701B6010E942F1374
:10068000882319F06DEB73E027C026013701E89449
:1006900077F82FEF3FEF4FE75FE7C301B2010E940A
:1006A0002F1381110DC02FEF3FEF4FE75FE7C3011D
:1006B000B2010E94FB1018161CF461EC73E00CC030
:1006C0002FEF3FEF4FE75FE4C701B6010E942B1306
:1006D000181694F465EC73E0CE01DF91CF91FF9092
:1006E000EF90DF90CF90BF90AF909F908F907F90D2
:1006F0006F905F904F9088C52FEF3FEF4FE75FEC13
:10070000C701B6010E94FB1087FDE4CF20E030E076
:10071000A901C701B6010E94FB1087FF09C06DE265
:10072000CE01B6DD4C01F7FAF094F7F8F09402C070
:10073000812C912CA12C60E070E080E09FE3AB1451
:1007400041F020E030E040E251E40E949212A39494
:10075000F6CF9B01AC01C701B6010E942E122B01FE
:100760003C010E94FF126B017C010E94FF109B0163
:10077000AC01C301B2010E942D122B013C012AE001
:10078000B701A601CE01E7DE7C01E80CF91CBB2015
:1007900029F06EE2CE017CDDE80EF91EDB2CDD20B7
:1007A00021F120E030E040E251E4C301B2010E94B7
:1007B00060112B013C010E94FF124B01A12CB12CB6
:1007C0002AE0B501A401CE01C6DEE80EF91EC5017E
:1007D000B4010E94FF109B01AC01C301B2010E9451
:1007E0002D122B013C01DA94DACFC701DF91CF91B2
:1007F000FF90EF90DF90CF90BF90AF909F908F9041
:100800007F906F905F904F9008950F931F93CF93B9
:10081000DF93EC01F9D48C0165E273E0CE01F4D4EE
:10082000800F911FDF91CF911F910F910895ECC41C
:10083000CF92DF92EF92FF921F93CF93DF9369ECF9
:1008400073E086EA94E0F3DF80E090E0CCDE6EECCB
:1008500073E086EA94E0EBDFC0900202D0900302DE
:100860000D2C000CEE08FF08F7FE0DC06DE286EAC5
:1008700094E00EDD44275527BA014C195D096E0935
:100880007F092AE003C02AE0B701A60186EA94E0C6
:1008900062DE63ED73E086EA94E0C9DF80910002D6
:1008A00090910102A0DE1091020261E0812FACD292
:1008B000C091000260E08C2FA7D2812F7DD2892BBE
:1008C00051F069ED73E086EA94E09FDF60E070E04C
:1008D00080E090E023C0D8E1C12CD12C760161E00A
:1008E0008C2F92D2CC0CDD1CEE1CFF1C60E08C2FF8
:1008F0008BD2812F61D2892B29F08FEFC81AD80AA9
:10090000E80AF80AD15059F761E08C2F7DD280E8CF
:10091000E82660E08C2F78D2B601C701DF91CF9135
:100920001F91FF90EF90DF90CF900895FC01A08978
:10093000B1898C91A689B78982FD0FC09C91818D68
:100940008F5F8F73228D821749F0218DDF01A20FF7
:10095000B11D5D969C93818F08958C9108950895A3
:1009600080E090E00895FC01538D448D252F30E008
:10097000842F90E0821B930B541710F0CF960895AC
:1009800001970895FC01918D828D981761F0828DF9
:10099000DF01A80FB11D5D968C91928D9F5F9F73B3
:1009A000928F90E008958FEF9FEF0895FC01918D55
:1009B000828D981731F0828DE80FF11D858D90E0C2
:1009C00008958FEF9FEF0895FC01918D228D892F5F
:1009D00090E0805C9F4F821B91098F739927089547
:1009E00089E094E0F1DF21E0892B09F420E0822FF7
:1009F000089586EA94E0E8DF21E0892B09F420E0FD
:100A0000822F0895FC01848DDF01A80FB11DA35A28
:100A1000BF4F2C91848D90E001968F739927848F1E
:100A2000A689B7892C93A089B1898C9180648C9315
:100A3000938D848D981306C00288F389E02D808100
:100A40008F7D80830895EF92FF920F931F93CF9332
:100A5000DF93EC0181E0888F9B8D8C8D981305C00E
:100A6000E889F989808185FD23C0F62E0B8D10E081
:100A70000F5F1F4F0F731127E02E8C8DE8120BC0F4
:100A80000FB607FCFACFE889F989808185FFF5CF99
:100A9000CE01B8DFF2CF8B8DFE01E80FF11DE35AD6
:100AA000FF4FF0820B8FEA89FB898081806207C04B
:100AB000EE89FF896083E889F98980818064808379
:100AC00081E090E0DF91CF911F910F91FF90EF9027
:100AD0000895CF93DF93EC01888D8823C1F0EA89D4
:100AE000FB89808185FD05C0A889B9898C9186FD27
:100AF0000EC00FB607FCF5CF808185FFF2CFA88925
:100B0000B9898C9185FFEDCFCE017CDFE8CFDF91F5
:100B1000CF91089580E090E0892B19F06ADF811170
:100B200020C080E090E0892B19F05ADF81111CC0B1
:100B300080E090E0892B41F080E090E0892B21F06B
:100B40000E940000811113C080E090E0892BA1F089
:100B500080E090E0892B81F00E94000081110AC0A2
:100B600008950E940000DDCF0E940000E1CF0E94A6
:100B70000000EACF0C940000089590E0FC0131974A
:100B8000E231F10508F04EC08827EE58FF4F8F4F35
:100B90000C946413809180008F7703C08091800053
:100BA0008F7D80938000089580918000877FF9CFAA
:100BB00084B58F7702C084B58F7D84BD0895809100
:100BC000B0008F7703C08091B0008F7D8093B0001C
:100BD0000895809190008F7707C0809190008F7D5D
:100BE00003C080919000877F80939000089580914A
:100BF000A0008F7707C08091A0008F7D03C08091F7
:100C0000A000877F8093A0000895809120018F77B6
:100C100007C0809120018F7D03C080912001877FD4
:100C20008093200108953FB7F89480911906909120
:100C30001A06A0911B06B0911C0626B5A89B05C0FC
:100C40002F3F19F00196A11DB11D3FBFBA2FA92F4B
:100C5000982F8827820F911DA11DB11DBC01CD01C8
:100C600042E0660F771F881F991F4A95D1F70895B4
:100C70001F920F920FB60F9211240BB60F922F9363
:100C80003F934F935F936F937F938F939F93AF9314
:100C9000BF93EF93FF9389E094E0B4DEFF91EF916F
:100CA000BF91AF919F918F917F916F915F914F9184
:100CB0003F912F910F900BBE0F900FBE0F901F9082
:100CC00018951F920F920FB60F9211240BB60F9228
:100CD0002F933F934F935F936F937F938F939F9344
:100CE000AF93BF93EF93FF9389E094E01FDEFF91F2
:100CF000EF91BF91AF919F918F917F916F915F9194
:100D00004F913F912F910F900BBE0F900FBE0F9000
:100D10001F9018951F920F920FB60F9211240BB6C9
:100D20000F922F933F934F935F936F937F938F9384
:100D30009F93AF93BF93EF93FF9386EA94E062DEB5
:100D4000FF91EF91BF91AF919F918F917F916F91A3
:100D50005F914F913F912F910F900BBE0F900FBE5F
:100D60000F901F9018951F920F920FB60F9211249B
:100D70000BB60F922F933F934F935F936F937F9395
:100D80008F939F93AF93BF93EF93FF9386EA94E083
:100D9000CDDDFF91EF91BF91AF919F918F917F91A9
:100DA0006F915F914F913F912F910F900BBE0F90DC
:100DB0000FBE0F901F901895CF93DF93282F30E030
:100DC000F901EE51FE4F8491F901E456FE4FD491A2
:100DD000F901EA5AFE4FC491CC2389F08111CDDE8E
:100DE000EC2FF0E0EE0FFF1FE45CFE4FA591B491F5
:100DF000EC91ED2381E090E021F480E002C080E0FE
:100E000090E0DF91CF9108951F93CF93DF93282F28
:100E100030E0F901EE51FE4F8491F901E456FE4FA6
:100E2000D491F901EA5AFE4FC491CC23C1F0162F98
:100E30008111A3DEEC2FF0E0EE0FFF1FEE5DFE4F01
:100E4000A591B4918FB7F894111105C09C91ED2F25
:100E5000E095E92302C0EC91ED2BEC938FBFDF917D
:100E6000CF911F910895CF93DF9390E0FC01E4565A
:100E7000FE4F2491FC01EA5AFE4F8491882361F1D0
:100E800090E0880F991FFC01E85FFE4FC591D49157
:100E9000FC01EE5DFE4FA591B491611109C09FB7B1
:100EA000F8948881209582238883EC912E230BC0AF
:100EB000623061F49FB7F8943881822F8095832344
:100EC0008883EC912E2B2C939FBF06C08FB7F8948C
:100ED000E8812E2B28838FBFDF91CF9108958F92C9
:100EE0009F92AF92BF92CF92DF92EF92FF926B01EF
:100EF0007C0199DE4B015C01C114D104E104F104D1
:100F0000E9F091DEDC01CB0188199909AA09BB0936
:100F1000883E9340A105B10578F321E0C21AD108BB
:100F2000E108F10888EE880E83E0981EA11CB11C30
:100F3000C114D104E104F10421F7DECFFF90EF905A
:100F4000DF90CF90BF90AF909F908F9008951F92A9
:100F50000F920FB60F9211242F933F938F939F936D
:100F6000AF93BF938091F7039091F803A091F90399
:100F7000B091FA033091180623E0230F2D3720F4A7
:100F80000196A11DB11D05C026E8230F0296A11DE3
:100F9000B11D209318068093F7039093F803A09354
:100FA000F903B093FA038091190690911A06A09163
:100FB0001B06B0911C060196A11DB11D8093190658
:100FC00090931A06A0931B06B0931C06BF91AF9195
:100FD0009F918F913F912F910F900FBE0F901F9077
:100FE00018951F920F920FB60F9211240BB60F9205
:100FF0002F933F934F935F936F937F938F939F9321
:10100000AF93BF93EF93FF9380914305D5DE20917B
:101010004605309147052F5F3F4F3093470520939A
:10102000460590911006943618F095E0909344058B
:10103000909144059330B9F018F4923039F057C0CC
:10104000943059F1953009F44CC051C081114FC012
:1010500020914605309147052436310508F443C0F8
:10106000109210061CC0813009F041C0E0911006BA
:1010700091E09E0F90931006F0E02091460530918C
:101080004705EE0FFF1FED5BFA4F36832583109265
:1010900047051092460594E021C0811117C0E091E8
:1010A000100691E09E0F90931006F0E02091460507
:1010B00030914705EE0FFF1FED5BFA4F3683258316
:1010C000109247051092460593E008C0209146050E
:1010D000309147052536310550F095E09093440551
:1010E00006C0811104C010924705109246059091E8
:1010F0004505992329F0811102C02F9A01C02F982C
:10110000FF91EF91BF91AF919F918F917F916F91DF
:101110005F914F913F912F910F900BBE0F900FBE9B
:101120000F901F901895CF92DF92EF92FF92CF937E
:10113000DF93EC01072E000C880B990B0E94011124
:101140006B017C0120E030E040E45FE30E9460112D
:1011500020E030E048E452E40E9492120E94FA1229
:10116000C617D707D4F020E030E040EA5FE3C701BC
:10117000B6010E94601120E030E048E452E40E9491
:10118000921220E030E040E85FE30E942E120E94BD
:10119000FA1221E06C177D070CF420E0822F90E01A
:1011A000DF91CF91FF90EF90DF90CF9008950F9354
:1011B0001F93CF93DF93EC0160E088E025DEC65FEC
:1011C000DC4F0881C7E0D0E010E0B8010C2E02C06F
:1011D000759567950A94E2F76170772789E014DEC8
:1011E00061E083E011DE60E083E00EDE219768F7C6
:1011F00061E088E009DE60E570E080E090E0DF918A
:10120000CF911F910F916BCE6115710579F0FB01A4
:1012100001900020E9F73197AF01461B570BDC0125
:10122000ED91FC910280F381E02D199480E090E033
:101230000895CF93DF93CDB7DEB760970FB6F894DC
:10124000DEBF0FBECDBF789484B5826084BD84B507
:10125000816084BD85B5826085BD85B5816085BDB1
:1012600080916E00816080936E0010928100809169
:1012700081008260809381008091810081608093F1
:101280008100809180008160809380008091B10016
:1012900084608093B1008091B00081608093B00041
:1012A0008091910082608093910080919100816093
:1012B0008093910080919000816080939000809154
:1012C000A10082608093A1008091A1008160809341
:1012D000A1008091A00081608093A00080912101F5
:1012E000826080932101809121018160809321019E
:1012F0008091200181608093200180917A00846038
:1013000080937A0080917A00826080937A00809145
:101310007A00816080937A0080917A00806880935F
:101320007A001092C10086EA94E00E947C0189E074
:1013300094E00E947C0164E670E080E090E0CFDD04
:1013400064E173E086EA94E072DA8091020290919F
:10135000030249D96AE173E086EA94E068DA81E041
:1013600090E041D961E0809100027DDD60E08091F4
:10137000020279DDF89482E08093B0008093B1009E
:1013800094E69093B3001092B2008093700078942A
:1013900080934405109210068091430560E063DD60
:1013A00061E088E060DD61E089E05DDD61E083E0CF
:1013B0005ADD61E08DE057DD68EE73E080E090E09B
:1013C0008EDD36DAAB01BC012AE086EA94E0C3D8B0
:1013D00065E273E086EA94E017DF61E08DE014DDFA
:1013E00068E273E086EA94E00FDF22242394312C34
:1013F00044244A94542C320128E435E03093060406
:10140000209305048091100690E090930804809347
:10141000070480914405853009F037C380914A055F
:1014200090914B05885891098D35910588F48091EC
:101430001006843041F480914C0590914D058097C1
:10144000479708F4DAC480911006843408F0BCC4CD
:10145000809110068A3108F44EC080914805909121
:101460004905843F914068F41092040410920304EB
:101470004092FF03509200046092010470920204B3
:1014800058C080914A0590914B0585974B9798F5E8
:10149000EEE4F5E082E090E0C12CD12C76012091C1
:1014A000100630E0AC014F5F5F4F4217530754F412
:1014B000DF0112972D913C912750310927303105DA
:1014C00008F4DFC401979595879590930404809361
:1014D00003040C972CF410920404109203040BC024
:1014E000C092FF03D0920004E0920104F092020443
:1014F00022E030E0DAC1809110068A3108F44BC056
:1015000080914805909149058032934008F4ACCF12
:1015100080914A0590914B05C697869708F4CEC4F2
:101520003AC0C092FF03D0920004E0920104F0920E
:10153000020489E090E044C22081318125523109C2
:101540002B31310508F0CAC4CC0CDD1CEE1CFF1C8D
:101550006894C0F8029634962091100630E0AC01F1
:101560004F5F5F4F421753074CF4DF0112972D91E5
:101570003C912C5031092B303105F0F201979595B3
:10158000879590930404809303040C9754F610926B
:1015900004041092030480911006823208F44DC0B6
:1015A00080914A0590914B050697079708F045C032
:1015B000EEE4F5E082E090E0C12CD12C76019C01B4
:1015C0002F5F3F4F4091100650E024173507E4F499
:1015D000DF0112974D915C9111974E51510947319E
:1015E000510508F088C4CC0CDD1CEE1CFF1C68946F
:1015F000C0F840815181349643505109453051051E
:1016000010F40296DCCFC9010197959587959093C8
:1016100004048093030440972CF410920404109265
:1016200003040BC0C092FF03D0920004E0920104B7
:10163000F09202048AE090E0C3C1809110068D30E0
:1016400048F48091070490910804181619060CF4C8
:1016500081C08BC038862F821A82198249E753E0F5
:10166000BE016F5F7F4FCE0107960E94A301892BB9
:1016700021F080E090E0DC0167C049E753E0BE0163
:101680006F5F7F4FCE0107960E94A301019789F7F4
:1016900049E753E0BE016F5F7F4FCE0107960E947E
:1016A000A301892B31F700E010E0812C912C54012B
:1016B0008091100690E02F8138852817390774F53E
:1016C00049E753E0BE016F5F7F4FCE0107960E944E
:1016D000A3017C0149E753E0BE016F5F7F4FCE015C
:1016E00007960E94A301E1E0EE16F10451F4892B64
:1016F00009F0BFCF880C991CAA1CBB1C689480F809
:101700000AC0EF2809F0B5CF019709F0B2CF880CD5
:10171000991CAA1CBB1C0F5F1F4FCACF1093040457
:10172000009303048092FF0390920004A0920104AE
:10173000B092020423E030E03093FC032093FB03DB
:1017400081E090E0A0E0B0E0892B8A2B8B2B09F0A0
:1017500068C177CF38862F82E0910504F0910604A6
:101760008281938189974E9720F080E090E0DC01A0
:101770004AC022E030E038872F83848195810B971F
:101780000A9798F783E090E098878F831A821982EE
:101790004CEB51E0BE016F5F7F4FCE0107960E9478
:1017A000A301892B11F74CEB51E0BE016F5F7F4F16
:1017B000CE0107960E94A3010197B9F600E010E060
:1017C000812C912C54012F813885809107049091B0
:1017D0000804281739070CF49BC3109304040093E2
:1017E00003048092FF0390920004A0920104B0923F
:1017F000020484E090E09093FC038093FB0381E07B
:1018000090E0A0E0B0E0892B8A2B8B2B09F009C176
:10181000C0900504D0900604F60182819381C6979A
:101820008697E8F4F601848195814B974597B8F443
:10183000D60116967601F6ECEF0EF11C20E030E0B2
:1018400040E050E060E070E080E090E00D911C919D
:101850001197095011090830110508F4B6C080919C
:101860001006823239F5F601828193810A97099731
:1018700008F520911006C601820F911D820F911D5F
:10188000DC0112978D919C910A97099798F4109218
:101890000404109203044092FF03509200046092EB
:1018A00001047092020428E030E03093FC0320939E
:1018B000FB03B7C0F6018281938189579109833573
:1018C000910508F4D1C320910704309108043C87A6
:1018D0002B87263031050CF4D3C086010A5F1F4FD9
:1018E00083E090E09A878987B5ECCB2EBDE9DB2EAB
:1018F000BCE1EB2EB1E8FB2EF801608171813497D9
:10190000A080B18080E090E07AD46D877E878F8759
:10191000988BB50180E090E072D44B015C012DEC16
:101920003CEC4CE45FE3CCD49B01AC016D857E853F
:101930008F85988960D487FD94C32DEC3CEC4CE4F2
:101940005FE36D857E858F859889BAD49B01AC0154
:10195000C501B40150D4E82F880FFF0BEE27FF0F0D
:10196000EE1FFF273196A701960163E971E080E041
:1019700091E079D66F01FF0FEE08FF08C626D72643
:10198000E826F92629853A852F5F3F4F3A87298730
:101990000E5F1F4F8B859C852817390709F0ACCF48
:1019A000C092FF03D0920004E0920104F09202047E
:1019B000E0E2F0E0F0930404E09303048FEF9FEF84
:1019C0009093FC038093FB032CC012960D911C9105
:1019D0001397015111090D30110508F0EAC201E019
:1019E0007BD621601496AE15BF0509F02FCF20934A
:1019F000FF0330930004409301045093020400E27B
:101A000086D62093FD033093FE0387E090E0909309
:101A1000FC038093FB0380E390E0909304048093A5
:101A200003044091FF035091000460910104709100
:101A3000020420E186EA94E00E94AB0265E273E0D2
:101A400086EA94E0E1DB8091FF0390910004A0918D
:101A50000104B09102048F3CE0E39E07EDEFAE0776
:101A6000B10509F0B3C268E373E086EA94E00E942E
:101A700005041092F6031092F50380E090E097DBE6
:101A800082E080934405109210068091F5039091B6
:101A9000F6038130910569F11CF4892B49F091C15D
:101AA0008230910509F495C0039709F480C189C17A
:101AB00086EA94E00E94E404892B51F086EA94E0DF
:101AC0000E94C204682F89E094E00E942305F0CFB1
:101AD00089E094E00E94E404892B09F472C189E052
:101AE00094E00E94C204682F86EA94E00E942305D5
:101AF000EFCF0E9418046093EA037093EB03809386
:101B0000EC039093ED037DD320910C0230910D02F4
:101B100040910E0250910F02A0D420910402309106
:101B200005024091060250910702FCD463D569D3A7
:101B3000609308027093090280930A0290930B024B
:101B400059D55FD36B017C016093EE037093EF0373
:101B50008093F0039093F10320E030E04AE754E4EF
:101B6000E1D42AED38E34EE850E4AAD3AB01BC013E
:101B700023E086EA94E00E94280364E573E086EAA5
:101B800094E00E94170466E273E086EA94E00E9403
:101B900017042AED38E34EE850E4C701B60190D3AC
:101BA000AB01BC0122E089E094E00E94280369E5D2
:101BB00073E089E094E00E9417046DE573E089E02A
:101BC00094E00E94050468EE73E080E090E087D91D
:101BD000F8C08091F403811128C08091F2039091A4
:101BE000F303892B11F564E773E086EA94E00E9421
:101BF000170462E873E089E094E00E94170468EE3D
:101C000073E080E090E06BD966E873E089E094E0EF
:101C10000E94170464E670E080E090E060D967EA13
:101C200073E089E094E00E9417048091F40381112D
:101C300015C08091F2039091F3030A977CF46FEA48
:101C400073E089E094E00E9405048091F203909192
:101C5000F30301969093F3038093F203DD24D3946E
:101C600089E094E00E94E404892B09F4AAC089E089
:101C700094E00E94C2047C0193E2E916F10409F0A9
:101C800090C01A8219821C821B821E821D8240E033
:101C900050E067E273E0CE0101960E9481020E944B
:101CA000140297FD1DC08B339105D1F08F831886E8
:101CB0000D811E810F5F1F4FB801CE0101960E945A
:101CC0005A02882361F329813A818D819E81BE0168
:101CD000695F7F4F820F931F5DD71E830D83DFCF18
:101CE00080911106909112060097B9F069817A816E
:101CF0006115710589F040911306509114062D81EC
:101D00003E814217530740F045D78D819E819093C5
:101D100016068093150617C0ABD589819A819093DA
:101D20001206809311068B819C81909314068093F8
:101D300013068D819E8190931606809315061A8254
:101D400019821C821B821E821D8289819A8190D5F4
:101D50004091150650911606609111067091120679
:101D600086EA94E00E944F0165E273E086EA94E01F
:101D70004BDA8091150690911606892B91F067EB4E
:101D800073E08091110690911206FBD6892B49F4DD
:101D9000D092F4033092F6032092F50381E090E0B4
:101DA00006DA6E2D86EA94E00E94230559CF8091D1
:101DB000F403882331F01092F4031092F30310928D
:101DC000F2030E948A0518CB80914C0590914D0535
:101DD000825491098E9708F03BCB80E090E040E080
:101DE00050E0BA01FC01E25BFA4F208131812950B9
:101DF000310929303105B0F02BCB80914E059091FF
:101E00004F050997099708F01ECB10920404109211
:101E100003044092FF035092000460920104709208
:101E200002041AC1FC01E05BFA4F20813181265186
:101E3000310921313105C0F4440F551F661F771F4A
:101E4000416004968038910569F680E290E09093B5
:101E50000404809303044093FF03509300046093B1
:101E6000010470930204F8C02081318126503109A9
:101E70002730310508F0ECCA440F551F661F771F45
:101E8000E0CF20813181235131092F30310548F4D1
:101E9000CC0CDD1CEE1CFF1C6894C0F80296349636
:101EA000FECA208131812A5031092930310508F0DC
:101EB00022CBCC0CDD1CEE1CFF1CF0CF80914C051E
:101EC00090914D05C697869708F065CBE0E5F5E063
:101ED00083E090E0C12CD12C76013ECB2081318172
:101EE0002C5031092A30310508F055CBCC0CDD1CC3
:101EF000EE1CFF1C2FCB4D915C914C5051094B3087
:101F0000510508F09ACBCC0CDD1CEE1CFF1C71CBEC
:101F10004CEB51E0BE016F5F7F4FCE0107960E94F0
:101F2000A3016C010330110571F04CEB51E0BE01CF
:101F30006F5F7F4FCE0107960E94A3017C010330A3
:101F40001105D9F40DC04CEB51E0BE016F5F7F4F1E
:101F5000CE0107960E94A301C816D90631F305CC1D
:101F60004CEB51E0BE016F5F7F4FCE0107960E94A0
:101F7000A301E816F90609F0F8CBC114D10459F40D
:101F8000EA94EF2809F0F1CB880C991CAA1CBB1C21
:101F9000689480F80BC0CA94CD2809F0E6CBEF28EE
:101FA00009F0E3CB880C991CAA1CBB1C0F5F1F4FC8
:101FB0000ACC12960D911C9113970450110905300B
:101FC000110508F04CCC01E087D30CCD803DF0E347
:101FD0009F07FDEFAF07B105B8F4873F9840AD4FBD
:101FE000B10569F46FE373E086EA94E00E940504AA
:101FF0003092F6032092F50381E090E040CD80918D
:10200000F5039091F6033BCD873B38E493073DEF12
:10201000A307B10569F46DE473E086EA94E00E94D9
:10202000050483E090E09093F6038093F50327CDB9
:1020300087379848AD4FB10511F766E473E086EA3B
:1020400094E00E94050422E030E03093F6032093F0
:10205000F50382E090E013CD3092FC032092FB0365
:10206000E0CCE0E0F0E07FCC80911006813208F413
:102070002ACCF60184819581CA97899708F023CCF0
:1020800096012A5F3F4F80E090E0DC0143E050E0A2
:10209000F901608171816A5071096930710508F038
:1020A00012CCF90162817381665171096131710548
:1020B00048F5880F991FAA1FBB1F81604E5F5F4FB5
:1020C0002C5F3F4F4332510519F796012A5B3F4F72
:1020D000F901208131812A5031092930310508F078
:1020E000F2CB20E130E0309304042093030480938A
:1020F000FF0390930004A0930104B093020488E0CE
:1021000090E05ECCF901628173816650710967309D
:10211000710508F0D8CB880F991FAA1FBB1FCECF1F
:10212000E9E0F4E01382128248EE53E060E070E0F0
:1021300044835583668377838AEF92E0918380831B
:102140002DEC30E0358724872CEC30E0378726876C
:1021500028EC30E0318B208B29EC30E0338B228B64
:102160002AEC30E0358B248B2EEC30E0378B268B3D
:10217000118E128E138E148EE6EAF4E01382128210
:1021800044835583668377839183808385EC90E0D5
:102190009587848784EC90E09787868780EC90E031
:1021A000918B808B81EC90E0938B828B82EC90E022
:1021B000958B848B86EC90E0978B868B118E128E9C
:1021C000138E148EE3E4F5E082E080831282E1E175
:1021D000F6E011821082138212821582148240E08E
:1021E00050E067E273E0CF010C9481028091110608
:1021F000909112063DC340D008F481E00895E89420
:1022000009C097FB3EF490958095709561957F4F3E
:102210008F4F9F4F9923A9F0F92F96E9BB279395EC
:10222000F695879577956795B795F111F8CFFAF4FC
:10223000BB0F11F460FF1BC06F5F7F4F8F4F9F4F2D
:1022400016C0882311F096E911C0772321F09EE88B
:10225000872F762F05C0662371F096E8862F70E0F1
:1022600060E02AF09A95660F771F881FDAF7880FCB
:102270009695879597F90895990F0008550FAA0B21
:10228000E0E8FEEF16161706E807F907C0F0121689
:102290001306E407F50798F0621B730B840B950B8C
:1022A00039F40A2661F0232B242B252B21F40895E1
:1022B0000A2609F4A140A6958FEF811D811D08957E
:1022C0000BD078C069D028F06ED018F0952309F0B3
:1022D0005AC05FC01124A2C07ED0A0F3959FD1F355
:1022E000950F50E0551F629FF001729FBB27F00DC4
:1022F000B11D639FAA27F00DB11DAA1F649F662719
:10230000B00DA11D661F829F2227B00DA11D621F67
:10231000739FB00DA11D621F839FA00D611D221F21
:10232000749F3327A00D611D231F849F600D211D05
:10233000822F762F6A2F11249F5750408AF0E1F0A8
:1023400088234AF0EE0FFF1FBB1F661F771F881FF1
:1023500091505040A9F79E3F510570F014C05EC0E7
:102360005F3FECF3983EDCF3869577956795B795DC
:10237000F795E7959F5FC1F7FE2B880F911D969506
:10238000879597F9089597F99F6780E870E060E076
:1023900008959FEF80EC089500240A9416161706FE
:1023A00018060906089500240A9412161306140646
:1023B00005060895092E0394000C11F4882352F0A9
:1023C000BB0F40F4BF2B11F460FF04C06F5F7F4F61
:1023D0008F4F9F4F089557FD9058440F551F59F048
:1023E0005F3F71F04795880F97FB991F61F09F3F02
:1023F00079F087950895121613061406551FF2CF2B
:102400004695F1DF08C0161617061806991FF1CF7A
:1024100086957105610508940895E894BB276627A1
:102420007727CB0197F9089509D0A59F900DB49F08
:10243000900DA49F800D911D11240895A29FB001BD
:10244000B39FC001A39F700D811D1124911DB29FE8
:10245000700D811D1124911D08955058BB27AA2786
:102460000ED0A8CF99DF30F09EDF20F031F49F3FEF
:1024700011F41EF48ECF0EF4E095E7FB84CFE92F24
:10248000AADF80F3BA17620773078407950718F06D
:1024900071F49EF5C2CF0EF4E0950B2EBA2FA02D4D
:1024A0000B01B90190010C01CA01A0011124FF2701
:1024B000591B99F0593F50F4503E68F11A16F040FC
:1024C000A22F232F342F4427585FF3CF46953795FB
:1024D0002795A795F0405395C9F77EF41F16BA0BC0
:1024E000620B730B840BBAF09150A1F0FF0FBB1F6E
:1024F000661F771F881FC2F70EC0BA0F621F731FB7
:10250000841F48F4879577956795B795F7959E3F13
:1025100008F0B3CF9395880F08F09927EE0F9795A1
:10252000879508950CD046CF3EDF40F035DF30F080
:1025300021F45F3F19F027CF511170CF2ACF4BDF25
:1025400098F39923C9F35523B1F3951B550BBB277A
:10255000AA2762177307840738F09F5F5F4F220F27
:10256000331F441FAA1FA9F333D00E2E3AF0E0E820
:1025700030D091505040E695001CCAF729D0FE2F6C
:1025800027D0660F771F881FBB1F261737074807FE
:10259000AB07B0E809F0BB0B802DBF01FF279358B4
:1025A0005F4F2AF09E3F510568F0EDCE37CF5F3F79
:1025B000ECF3983EDCF3869577956795B795F7959C
:1025C0009F5FC9F7880F911D9695879597F9089594
:1025D000E1E0660F771F881FBB1F62177307840730
:1025E000BA0720F0621B730B840BBA0BEE1F88F73F
:1025F000E095089504D06894B11110CF0895F3DEEA
:1026000088F09F5790F0B92F9927B751A0F0D1F0DB
:10261000660F771F881F991F1AF0BA95C9F712C065
:10262000B13081F0FADEB1E00895F7CE672F782F50
:102630008827B85F39F0B93FCCF3869577956795D1
:10264000B395D9F73EF490958095709561957F4F3D
:102650008F4F9F4F089510DE08F48FEF08950CDE22
:10266000880B990B0895DB018F939F93DDDEBF915B
:10267000AF91A29F800D911DA39F900DB29F900DD1
:1026800011240895A1E21A2EAA1BBB1BFD010DC047
:10269000AA1FBB1FEE1FFF1FA217B307E407F50712
:1026A00020F0A21BB30BE40BF50B661F771F881FEE
:1026B000991F1A9469F760957095809590959B0184
:1026C000AC01BD01CF010895EE0FFF1F881F8BBF26
:1026D0000790F691E02D19940F93083090F0982F01
:1026E000872F762F652F542F432F322F2227085004
:1026F000F4CF220F331F441F551F661F771F881FFB
:10270000991F0A95B2F70F91089597FB10F8169448
:1027100000080F93083098F00850232F342F452FCE
:10272000562F672F782F892F902DF4CF05949795EA
:1027300087957795679557954795379527950A9586
:10274000AAF70F910895CF93DF938230910510F48B
:1027500082E090E0E0911F06F091200620E030E05A
:10276000C0E0D0E0309711F14081518148175907FE
:10277000C0F04817590761F482819381209719F0BE
:102780009B838A832BC09093200680931F0626C0CC
:102790002115310519F04217530718F49A01BE01AB
:1027A000DF01EF010280F381E02DDCCF211531053F
:1027B00009F1281B390B2430310590F412968D91C4
:1027C0009C9113976115710521F0FB01938382831E
:1027D00004C09093200680931F06FD01329644C0EA
:1027E000FD01E20FF31F81939193225031092D9344
:1027F0003C933AC020911D0630911E06232B41F4D4
:102800002091F2023091F30230931E0620931D06B0
:102810002091F0023091F1022115310541F42DB7DC
:102820003EB74091F4025091F502241B350BE09124
:102830001D06F0911E06E217F307A0F42E1B3F0BB6
:102840002817390778F0AC014E5F5F4F2417350722
:1028500048F04E0F5F1F50931E0640931D06819354
:10286000919302C0E0E0F0E0CF01DF91CF910895B5
:102870000F931F93CF93DF93009709F48CC0FC0153
:1028800032971382128200911F06109120060115C3
:10289000110581F420813181820F931F20911D0643
:1028A00030911E062817390779F5F0931E06E0933C
:1028B0001D0671C0D80140E050E0AE17BF0750F4CC
:1028C00012962D913C911397AD012115310509F117
:1028D000D901F3CF9D01DA013383228360817181B5
:1028E000860F971F8217930769F4EC0128813981BD
:1028F000260F371F2E5F3F4F318320838A819B81B4
:1029000093838283452B29F4F0932006E0931F06DE
:1029100042C01396FC93EE931297ED0149915991A1
:102920009E01240F351FE217F30771F48081918116
:10293000840F951F029611969C938E9382819381AA
:1029400013969C938E931297E0E0F0E0D8011296D4
:102950008D919C911397009719F0F8018C01F6CF97
:102960008D919C9198012E5F3F4F820F931F209174
:102970001D0630911E062817390769F4309729F48F
:102980001092200610921F0602C01382128210932A
:102990001E0600931D06DF91CF911F910F910895A0
:1029A0006F927F928F929F92AF92BF92CF92DF925F
:1029B000EF92FF920F931F93CF93DF93EC01009759
:1029C00081F4CB01DF91CF911F910F91FF90EF9098
:1029D000DF90CF90BF90AF909F908F907F906F903F
:1029E000B2CEFC01E60FF71F9C0122503109E2171D
:1029F000F30708F4A8C0D9010D911C91119706178F
:102A00001707A8F00530110508F49BC0C80104970A
:102A10008617970708F495C002501109061B170B7B
:102A2000019311936D937C93CF0122DF8AC05B01E8
:102A3000A01AB10A4C01800E911EA0911F06B09100
:102A4000200640E050E0E12CF12C109709F44AC038
:102A5000A815B905D1F56D907C901197630182E0BE
:102A6000C80ED11CCA14DB0480F1A3014A195B090A
:102A70006A0182E0C80ED11C1296BC901297139680
:102A8000AC91B5E0CB16D10440F0B282A383518360
:102A90004083D9016D937C930AC00E5F1F4FC30121
:102AA000800F911FF90191838083EB2DFA2FE114A0
:102AB000F10431F0D7011396FC93EE93129741C0C5
:102AC000F0932006E0931F063CC08D919C911197D6
:102AD0004817590708F4AC017D0112960D90BC917E
:102AE000A02DB3CF80911D0690911E0688159905E3
:102AF000E1F446175707C8F48091F0029091F10273
:102B0000009741F48DB79EB74091F4025091F502C1
:102B1000841B950BE817F907B0F4F0931E06E093B9
:102B20001D06F901718360830CC0CB010CDE7C01B2
:102B3000009749F0A801BE011BD0CE0199DEC70164
:102B400004C0CE0102C080E090E0DF91CF911F91E0
:102B50000F91FF90EF90DF90CF90BF90AF909F903C
:102B60008F907F906F90089581E090E0F89419C065
:102B7000FB01DC0102C001900D9241505040D8F79A
:102B80000895FB01DC018D91019080190110D9F3AA
:102B9000990B0895FB01DC0101900D920020E1F7F3
:102BA000089511E0C5E1D1E000E005C0802FFE01ED
:102BB0008BDD2196011DC631D10780E00807B1F7F2
:042BC000F894FFCFB7
:102BC40029002B000000D743000000005585004B6E
:102BD40000000000000000000000000000000000F1
:102BE40000000000000000000000000000000000E1
:102BF40000000000000000000000000000000000D1
:102C040000000000000000000000000000000000C0
:102C140000000000000000000000000000000000B0
:102C240000000000000000000000000000000000A0
:102C34000000000000000000000000000000000090
:102C44000000000000000000000000000000000080
:102C54000000000000000000000000000000000070
:102C64000000000000000000000000000000000060
:102C74000000000000000000000000000000000050
:102C84000000000000000000000000000000000040
:102C94000000000000000000000000000000000030
:102CA4000000000000000000000000000000000020
:102CB4000000210680000000000023054F01B3043A
:102CC4006905E404C204D6040200C0F9A4B09992D0
:102CD40082F88090585844543D00696E697448588D
:102CE4003731313A000D0A0057656C636F6D65200A
:102CF400746F2075736521004D6F64653A30004D23
:102D04006F64653A31004D6F64653A32004D6F640B
:102D1400653A3300206B670A0020670A002A2A2AD2
:102D24002A2A2A2A2A2A2A2A2A2A2A2A2A2A2A2AFF
:102D34002A2A2A00424547494E20544350434F4EC5
:102D44004E002B2B2B0041542B544350434C4943EE
:102D54004F4E4E3D3139322E3136382E322E3139E6
:102D6400333A383038300041542B45584954002305
:102D74005443504F4B3F005443504F4B006E616ED1
:102D840000696E66006F7666004E554D3D003B440B
:102D9400543D003B53434B3D0048583731315F4469
:0A2DA40054203D2054525545000014
:00000001FF
