:1000000092C10000C1C10000BFC10000BDC100001D
:10001000BBC10000B9C10000B7C10000B5C10000FC
:10002000B3C10000B1C10000AFC10000ADC100000C
:10003000ABC1000005C50000A7C10000A5C10000BC
:10004000A3C10000A1C100009FC100009DC100002C
:100050009BC1000099C1000097C10000A7C4000027
:1000600093C10000D7C30000ACC300008DC10000E5
:100070008BC1000089C1000087C1000085C100005C
:1000800083C1000081C100007FC100007DC100006C
:100090006FC3000044C3000077C1000075C10000B9
:1000A00073C1000071C100006FC100006DC100008C
:1000B0006BC1000069C1000067C1000065C100009C
:1000C00063C1000061C100005FC100005DC10000AC
:1000D0005BC1000059C1000057C1000055C10000BC
:1000E00053C1000007030A03F902FD0203034103A1
:1000F0000E03120318031C03200326032A032E03F6
:100100004103340338033C0300407A10F35A00A043
:10011000724E18090010A5D4E80000E876481700D0
:1001200000E40B54020000CA9A3B000000E1F50510
:10013000000080969800000040420F000000A0865A
:1001400001000000102700000000E803000000008C
:100150006400000000000A00000000000100000030
:1001600000002C76D888DC674F0823DFC1DFAE594A
:10017000E1B1B796E5E3E453C63AE651997696E8DD
:10018000E6C28426EB898C9B62ED407C6FFCEFBC61
:100190009C9F40F2BAA56FA5F490055A2AF75C938C
:1001A0006B6CF9676DC11BFCE0E40D47FEF520E6C2
:1001B000B500D0ED902E0300943577050080841EA5
:1001C000080000204E0A000000C80C333333330F00
:1001D000986E12831141EF8D2114893BE65516CF9D
:1001E000FEE6DB18D1844B381BF77C1D901DA4BBA9
:1001F000E424203284725E228100C9F124ECA1E55E
:100200003D2700002100240027002A002D00300097
:10021000330001010000040107010A01000022006F
:10022000250028002B002E003100340002010000C0
:10023000050108010B010000200023002600290011
:100240002C002F003200000100000301060109010B
:1002500005050505070508080808020202020A0A42
:100260000808040404040101010101010101030360
:10027000030303030303040707070C0C0C0C0C0C0B
:100280000C0C0202020206060606060606060B0B08
:100290000B0B0B0B0B0B0102102020080810204049
:1002A000102040800201020108040201010204083A
:1002B00010204080804020100804020180040201C8
:1002C0008040201008040201080402010102040811
:1002D00010204080010204081020408000000A0B1A
:1002E00002090C0D0E0807030401000000000000C5
:1002F00000000000000000000000000000000000FE
:1003000000000000000000001211100000000000BA
:1003100000000000000000000000000000000000DD
:1003200000000610031011241FBECFEFD1E2DEBF84
:10033000CDBF00E00CBF25E0A8EBB3E001C01D92EB
:10034000A63EB207E1F713E0A0E0B2E0E2E3F0E39B
:1003500000E00BBF02C007900D92A83BB107D9F790
:1003600011E0C2E9D1E000E006C021970109802F29
:10037000FE010E949B15C139D10780E00807A9F74B
:100380000E94C9090C9408183BCEFC01A089B189D0
:100390008C91A689B78982FD0FC09C91818D8F5F5A
:1003A0008F73228D821749F0218DDF01A20FB11DBD
:1003B0005D969C93818F08958C910895089580E0B7
:1003C00090E00895FC01538D448D252F30E0842F5B
:1003D00090E0821B930B541710F0CF96089501976D
:1003E0000895FC01918D828D981761F0828DDF0157
:1003F000A80FB11D5D968C91928D9F5F9F73928F18
:1004000090E008958FEF9FEF0895FC01918D828D0C
:10041000981731F0828DE80FF11D858D90E00895D9
:100420008FEF9FEF0895FC01918D228D892F90E031
:10043000805C9F4F821B91098F739927089583EDEC
:1004400093E0F1DF21E0892B09F420E0822F089569
:1004500080E794E0E8DF21E0892B09F420E0822F97
:100460000895FC01848DDF01A80FB11DA35ABF4F71
:100470002C91848D90E001968F739927848FA689A3
:10048000B7892C93A089B1898C9180648C93938DCA
:10049000848D981306C00288F389E02D80818F7DBA
:1004A00080830895EF92FF920F931F93CF93DF9372
:1004B000EC0181E0888F9B8D8C8D981305C0E889B5
:1004C000F989808185FD23C0F62E0B8D10E00F5F2A
:1004D0001F4F0F731127E02E8C8DE8120BC00FB643
:1004E00007FCFACFE889F989808185FFF5CFCE0135
:1004F000B8DFF2CF8B8DFE01E80FF11DE35AFF4FFD
:10050000F0820B8FEA89FB898081806207C0EE89C7
:10051000FF896083E889F98980818064808381E034
:1005200090E0DF91CF911F910F91FF90EF90089590
:10053000CF93DF93EC01888D8823C1F0EA89FB8992
:10054000808185FD05C0A889B9898C9186FD0EC082
:100550000FB607FCF5CF808185FFF2CFA889B98956
:100560008C9185FFEDCFCE017CDFE8CFDF91CF917D
:10057000089580E090E0892B19F06ADF811120C096
:1005800080E090E0892B19F05ADF81111CC080E0D7
:1005900090E0892B41F080E090E0892B21F00E94CF
:1005A0000000811113C080E090E0892BA1F080E071
:1005B00090E0892B81F00E94000081110AC008950B
:1005C0000E940000DDCF0E940000E1CF0E940000E9
:1005D000EACF0C940000089590E0FC013197E231DD
:1005E000F10508F04EC08827EE58FF4F8F4F0C944E
:1005F0009B15809180008F7703C0809180008F7D54
:1006000080938000089580918000877FF9CF84B522
:100610008F7702C084B58F7D84BD08958091B0002E
:100620008F7703C08091B0008F7D8093B0000895D4
:10063000809190008F7707C0809190008F7D03C0DC
:1006400080919000877F8093900008958091A00012
:100650008F7707C08091A0008F7D03C08091A0009C
:10066000877F8093A0000895809120018F7707C035
:10067000809120018F7D03C080912001877F80932E
:1006800020010895CF93DF93282F30E0F901E45241
:10069000FD4F8491F901EA56FD4FD491F901E05BD9
:1006A000FD4FC491CC2389F0811196DFEC2FF0E04F
:1006B000EE0FFF1FEA5CFD4FA591B491EC91ED2385
:1006C00081E090E021F480E002C080E090E0DF91E2
:1006D000CF9108953FB7F8948091C1039091C203E0
:1006E000A091C303B091C40326B5A89B05C02F3FBA
:1006F00019F00196A11DB11D3FBFBA2FA92F982F48
:100700008827820F911DA11DB11DBC01CD0142E0C2
:10071000660F771F881F991F4A95D1F708951F927A
:100720000F920FB60F9211240BB60F922F933F9397
:100730004F935F936F937F938F939F93AF93BF93E9
:10074000EF93FF9383ED93E08CDEFF91EF91BF91E8
:10075000AF919F918F917F916F915F914F913F9159
:100760002F910F900BBE0F900FBE0F901F901895FA
:100770001F920F920FB60F9211240BB60F922F9368
:100780003F934F935F936F937F938F939F93AF9319
:10079000BF93EF93FF9383ED93E0F7DDFF91EF912C
:1007A000BF91AF919F918F917F916F915F914F9189
:1007B0003F912F910F900BBE0F900FBE0F901F9087
:1007C00018951F920F920FB60F9211240BB60F922D
:1007D0002F933F934F935F936F937F938F939F9349
:1007E000AF93BF93EF93FF9380E794E03ADEFF91DE
:1007F000EF91BF91AF919F918F917F916F915F9199
:100800004F913F912F910F900BBE0F900FBE0F9005
:100810001F9018951F920F920FB60F9211240BB6CE
:100820000F922F933F934F935F936F937F938F9389
:100830009F93AF93BF93EF93FF9380E794E0A5DD81
:10084000FF91EF91BF91AF919F918F917F916F91A8
:100850005F914F913F912F910F900BBE0F900FBE64
:100860000F901F9018951F93CF93DF93282F30E0A0
:10087000F901E452FD4F8491F901EA56FD4FD491FC
:10088000F901E05BFD4FC491CC23C1F0162F81111B
:10089000A3DEEC2FF0E0EE0FFF1FE45EFD4FA5910D
:1008A000B4918FB7F894111105C09C91ED2FE0958C
:1008B000E92302C0EC91ED2BEC938FBFDF91CF9138
:1008C0001F910895CF93DF9390E0FC01EA56FD4F0E
:1008D0002491FC01E05BFD4F8491882361F190E05D
:1008E000880F991FFC01EE5FFD4FC591D491FC016B
:1008F000E45EFD4FA591B491611109C09FB7F894D2
:100900008881209582238883EC912E230BC062304E
:1009100061F49FB7F8943881822F80958323888370
:10092000EC912E2B2C939FBF06C08FB7F894E881D3
:100930002E2B28838FBFDF91CF9108958F929F92A6
:10094000AF92BF92CF92DF92EF92FF926B017C0148
:10095000C1DE4B015C01C114D104E104F104E9F0F2
:10096000B9DEDC01CB0188199909AA09BB09883EC7
:100970009340A105B10578F321E0C21AD108E1083E
:10098000F10888EE880E83E0981EA11CB11CC114EA
:10099000D104E104F10421F7DECFFF90EF90DF9066
:1009A000CF90BF90AF909F908F9008951F920F921D
:1009B0000FB60F9211242F933F938F939F93AF9372
:1009C000BF938091BD039091BE03A091BF03B091EE
:1009D000C0033091BC0323E0230F2D3720F4019690
:1009E000A11DB11D05C026E8230F0296A11DB11D52
:1009F0002093BC038093BD039093BE03A093BF03D9
:100A0000B093C0038091C1039091C203A091C3032E
:100A1000B091C4030196A11DB11D8093C1039093B1
:100A2000C203A093C303B093C403BF91AF919F913E
:100A30008F913F912F910F900FBE0F901F9018959F
:100A40001F920F920FB60F9211240BB60F922F9395
:100A50003F934F935F936F937F938F939F93AF9346
:100A6000BF93EF93FF9380910D050CDE209110054D
:100A7000309111052F5F3F4F3093110520931005E2
:100A80009091DA05943618F095E090930E059091C8
:100A90000E059330B9F018F4923039F057C0943005
:100AA00059F1953009F44CC051C081114FC02091CB
:100AB0001005309111052436310508F443C0109219
:100AC000DA051CC0813009F041C0E091DA0591E0FF
:100AD0009E0F9093DA05F0E02091100530911105FA
:100AE000EE0FFF1FE35FFA4F368325831092110547
:100AF0001092100594E021C0811117C0E091DA0531
:100B000091E09E0F9093DA05F0E02091100530916E
:100B10001105EE0FFF1FE35FFA4F36832583109216
:100B200011051092100593E008C020911005309136
:100B300011052536310550F095E090930E0506C05D
:100B4000811104C0109211051092100590910F05AB
:100B5000992329F0811102C02F9A01C02F98FF918B
:100B6000EF91BF91AF919F918F917F916F915F9125
:100B70004F913F912F910F900BBE0F900FBE0F9092
:100B80001F901895CF92DF92EF92FF92CF93DF9351
:100B9000EC01072E000C880B990B0E9440136B018F
:100BA0007C0120E030E040E45FE30E949F1320E0FE
:100BB00030E048E452E40E94D1140E943915C6176F
:100BC000D707D4F020E030E040EA5FE3C701B60188
:100BD0000E949F1320E030E048E452E40E94D114C8
:100BE00020E030E040E85FE30E946D140E94391578
:100BF00021E06C177D070CF420E0822F90E0DF915C
:100C0000CF91FF90EF90DF90CF9008958F929F92B9
:100C1000BF92CF92DF92EF92FF920F931F93CF93E9
:100C2000DF938C0124E0000F111F2A95E1F7E80102
:100C3000C050DE4F61E08A8116DE60E0888113DEFD
:100C40008A8120DD892B59F088E693E0A4D187E2E0
:100C500093E0A1D160E070E080E090E02DC098E1E9
:100C6000B92EC12CD12C76014E0182E0880E911C48
:100C700061E08881F8DDCC0CDD1CEE1CFF1C60E01F
:100C80008881F1DDF4018081FDDC892B29F0FFEF03
:100C9000CF1ADF0AEF0AFF0ABA94B110E9CFE801D0
:100CA000C050DE4F61E08881DEDD80E8E82660E04C
:100CB0008881D9DDB601C701DF91CF911F910F91D6
:100CC000FF90EF90DF90CF90BF909F908F9008950E
:100CD0000F931F93CF93DF93EC0160E088E0C3DDB7
:100CE000C850DD4F0881C7E0D0E010E0B8010C2EFD
:100CF00002C0759567950A94E2F76170772789E0DD
:100D0000B2DD61E083E0AFDD60E083E0ACDD219740
:100D100068F761E088E0A7DD60E570E080E090E0E2
:100D2000DF91CF911F910F9109CE0F931F93CF9316
:100D3000DF9300D000D0CDB7DEB78C0168E773E059
:100D4000CE01019612D3B801CE01019683D2CE0115
:100D50000196CFD11093F1020093F002C801B8DFE1
:100D6000CE010196E4D226960FB6F894DEBF0FBEF0
:100D7000CDBFDF91CF911F910F910895EF92FF9218
:100D80000F931F93CF93DF93CDB7DEB76A970FB65C
:100D9000F894DEBF0FBECDBF62E873E0CE0145968A
:100DA000E4D26AE070E0CE01459654D269E873E07F
:100DB000CE0145967DD22FB7F8946091BD03709116
:100DC000BE038091BF039091C0032FBF2AE08E0124
:100DD0000F5F1F4FA8010E948B10F80101900020A7
:100DE000E9F73197AF01401B510BB801CE01459691
:100DF00004D263E973E0CE0145965AD26091F002C5
:100E00007091F102CE01459625D26CE973E0CE01D6
:100E100045964ED280E090E0F9DE6093B80370937F
:100E2000B9038093BA039093BB0320E0E22E22E043
:100E3000F22E0E944013F70124853585468557859B
:100E40000E946C14F70124813581468157810E94EC
:100E5000D1140E9439150E944013F70160877187F1
:100E60008287938762E873E0CE01459621D2F7012D
:100E700060817181CE014596EDD169EA73E0CE01C2
:100E8000459616D2F701608571858285938522E0AB
:100E900044E00E946210FC0101900020E9F73197C4
:100EA000AF01481B590BBC01CE014596A6D164EB9E
:100EB00073E0CE014596FCD1CE0145961AD180E76C
:100EC00094E036DB64EF71E080E090E037DDCE0146
:100ED00045962DD26A960FB6F894DEBF0FBECDBFF1
:100EE000DF91CF911F910F91FF90EF900895CF92D6
:100EF000DF92EF92FF920F931F93CF93DF936C01DA
:100F00007A018B01C0E0D0E0CE15DF0589F0D80171
:100F10006D918D01D601ED91FC910190F081E02D54
:100F2000C6011995892B11F47E0102C02196ECCFE0
:100F3000C701DF91CF911F910F91FF90EF90DF904C
:100F4000CF9008950E94EB170F931F93CF93DF93D9
:100F5000EC0188819981009729F02A813B8126172D
:100F6000370788F48B016F5F7F4F0E940717009748
:100F700061F0998388831B830A832C813D81232B15
:100F800011F4FC01108281E001C080E0DF91CF917B
:100F90001F910F910895009761F0FC0101900020CE
:100FA000E9F73197AF01481B590BBC0180E794E08A
:100FB0009ECF80E090E00895FC01A089B18982E095
:100FC0008C93A485B5851C92A685B78580E18C930A
:100FD000108EA489B58986E08C93A289B3898C91FF
:100FE00080618C93A289B3898C9188608C93A2894B
:100FF000B3898C9180688C930288F389E02D80817D
:101000008F7D808308958F929F92AF92BF920F93AE
:101010001F93CF93DF93CDB7DEB7A1970FB6F894A8
:10102000DEBF0FBECDBF19A2423008F44AE08E01E8
:101030000F5D1F4F842E912CA12CB12CA501940182
:101040000E947915E62FB901CA0101501109EA3051
:1010500014F4E05D01C0E95CD801EC93232B242B50
:10106000252B61F7C80197DFA1960FB6F894DEBF74
:101070000FBECDBFDF91CF911F910F91BF90AF9069
:101080009F908F900895CF92DF92EF92FF92CF932F
:10109000DF936C01990FEE08FF08F7FE19C0E0918D
:1010A0007004F09171040190F081E02D6DE280E711
:1010B00094E01995EC0166277727CB016C197D091F
:1010C0008E099F094AE09FDF7C01EC0EFD1E05C0E2
:1010D0004AE0C701B60197DF7C0187E293E05BDF5E
:1010E0008E0D9F1DDF91CF91FF90EF90DF90CF90FD
:1010F0000895CF93DF93FC01448155816081718114
:1011000080E794E0F4DEEC0187E293E044DF8C0FAB
:101110009D1FDF91CF9108958F929F92AF92BF92C2
:10112000CF92DF92EF92FF920F931F93CF93DF93B3
:10113000FC01C081D1812091D1033091D203C2172B
:10114000D3070CF048C09E01220F331FE091CF035C
:10115000F091D003E20FF31F80809180C170DD27F2
:10116000F1E0CF27209719F404E610E002C00CE963
:101170001FEF7A015B016C01040F151FB801C40158
:1011800001DD892B89F40E0D1F1DB801C401FADCA5
:10119000892B69F4B8016E0D7F1DC401F3DC892B26
:1011A000E9F023E030E005C021E030E002C022E0B9
:1011B00030E0F501808191810196821793073CF020
:1011C000F50111821082F60180819181019691834F
:1011D0008083CE0105C081E090E002C08FEF9FEFD9
:1011E000DF91CF911F910F91FF90EF90DF90CF9003
:1011F000BF90AF909F908F900895EF92FF920F93C2
:101200001F93CF93DF93FC01248135816115710514
:1012100011F480E018C041155105A1F07B01EC01EB
:101220008A01020F131FB8018FDE882391F32881F2
:1012300039818C819D81B701820F931F0E94011813
:101240001D830C8381E0DF91CF911F910F91FF905F
:10125000EF900895EF92FF920F931F93CF93DF9338
:10126000CDB7DEB728970FB6F894DEBF0FBECDBF5F
:101270007C01CB014AE08E010F5F1F4FB80141D7BF
:10128000F80101900020E9F73197AF01401B510BA5
:10129000B801C701B2DF28960FB6F894DEBF0FBEC3
:1012A000CDBFDF91CF911F910F91FF90EF900895E7
:1012B0006115710549F0FB0101900020E9F73197B4
:1012C000AF01461B570B99CF80E00895CF93DF9372
:1012D000EC0188819981009711F00E946F161982A4
:1012E00018821D821C821B821A82DF91CF91089581
:1012F000EF92FF920F931F93CF93DF93EC017B014B
:101300008A01BA0121DE811103C0CE01DFDF07C0EF
:101310001D830C83B701888199810E940118CE0139
:10132000DF91CF911F910F91FF90EF900895FC01F5
:10133000808191810C946F16FB01DC0111961C9247
:101340001E9213961C921E92129715961C921E9234
:1013500014978617970741F06081718161157105B7
:1013600019F044815581C4CF0895FC011182108287
:1013700013821282158214826115710549F0FB01F6
:1013800001900020E9F73197AF01461B570BB0CF12
:101390000895CF93DF93CDB7DEB762970FB6F89479
:1013A000DEBF0FBECDBF789484B5826084BD84B5A6
:1013B000816084BD85B5826085BD85B5816085BD50
:1013C00080916E00816080936E0010928100809108
:1013D0008100826080938100809181008160809390
:1013E0008100809180008160809380008091B100B5
:1013F00084608093B1008091B00081608093B000E0
:101400008091910082608093910080919100816031
:1014100080939100809190008160809390008091F2
:10142000A10082608093A1008091A10081608093DF
:10143000A1008091A00081608093A0008091210193
:10144000826080932101809121018160809321013C
:101450008091200181608093200180917A008460D6
:1014600080937A0080917A00826080937A008091E4
:101470007A00816080937A0080917A0080688093FE
:101480007A001092C10080E794E096DD83ED93E04E
:1014900093DD64E670E080E090E050DA86E193E06E
:1014A0007ADD8091020290910302EDDD8CE193E000
:1014B00072DD81E090E0E7DD61E08091000202DA18
:1014C00060E080910202FED9F89482E08093B0003F
:1014D0008093B10094E69093B3001092B200809391
:1014E0007000789480930E051092DA0580910D05B6
:1014F00060E0E8D961E088E0E5D961E089E0E2D91F
:1015000061E083E0DFD961E08DE0DCD964E670E082
:1015100080E090E013DA80E090E078DB4AE073DD71
:1015200087E293E038DD61E08DE09DD98AE293E0C7
:1015300032DD44244A94542C320180E794E00E9426
:101540001302892B09F481C080E794E00E94F10125
:10155000839799F741E050E06AE373E08BED95E003
:10156000C7DE07E010E080E794E00E94F101898384
:101570001A8241E050E0BE016F5F7F4F8BED95E036
:101580003CDE0150110979F78091DF059091E0056B
:10159000892B91F16CE373E08091DB059091DC0580
:1015A0000E94F817892B41F585E493E0F4DC87E28B
:1015B00093E0F1DC6EE473E0CE010196D6DE40915B
:1015C000DF055091E0056091DB057091DC05CE01EF
:1015D000019613DE811103C0CE01019677DEBE01B4
:1015E0006F5F7F4FCE010796A7DECE0101969FDE8B
:1015F000CE0107967EDD25C06BE573E0CE01019636
:10160000B4DE4091DF055091E0056091DB057091FB
:10161000DC05CE010196F1DD811103C0CE010196FA
:1016200055DEBE016F5F7F4FCE01079685DECE018E
:1016300001967DDE4B855C856F81788580E794E03F
:1016400056DCCE01079673DE78CF65E070E080E06F
:1016500090E074D982E195E09093D0038093CF031A
:101660008091DA0590E09093D2038093D10380912A
:101670000E05853009F074C280911405909115050E
:10168000885891098D35910588F48091DA05843068
:1016900041F480911605909117058097479708F4BB
:1016A0008FC28091DA05843408F071C28091DA0526
:1016B0008A3108F44EC08091120590911305843F41
:1016C000914068F41092CE031092CD034092C9036A
:1016D0005092CA036092CB037092CC0358C08091A1
:1016E00014059091150585974B9798F5E8E1F5E07D
:1016F00082E090E0C12CD12C76012091DA0530E017
:10170000AC014F5F5F4F4217530754F4DF0112974C
:101710002D913C91275031092730310508F494C2AE
:101720000197959587959093CE038093CD030C9761
:101730002CF41092CE031092CD030BC0C092C903BB
:10174000D092CA03E092CB03F092CC0382E090E007
:1017500047C38091DA058A3108F44BC080911205A5
:10176000909113058032934008F4ACCF809114051A
:1017700090911505C697869708F483C23AC0C09227
:10178000C903D092CA03E092CB03F092CC0389E064
:1017900090E026C320813181255231092B3131055A
:1017A00008F07FC2CC0CDD1CEE1CFF1C6894C0F856
:1017B000029634962091DA0530E0AC014F5F5F4F1E
:1017C000421753074CF4DF0112972D913C912C5096
:1017D00031092B303105F0F201979595879590935B
:1017E000CE038093CD030C9754F61092CE03109243
:1017F000CD038091DA05823208F44DC08091140542
:10180000909115050697079708F045C0E8E1F5E0C7
:1018100082E090E0C12CD12C76019C012F5F3F4FDC
:101820004091DA0550E024173507E4F4DF01129700
:101830004D915C9111974E5151094731510508F076
:101840003DC2CC0CDD1CEE1CFF1C6894C0F840812E
:1018500051813496435051094530510510F4029698
:10186000DCCFC9010197959587959093CE0380931E
:10187000CD0340972CF41092CE031092CD030BC0F1
:10188000C092C903D092CA03E092CB03F092CC037A
:101890008AE090E0A5C28091DA058D3048F480910D
:1018A000D1039091D203181619060CF47EC08AC099
:1018B00081E090E098878F831A82198249E753E08C
:1018C000BE016F5F7F4FCE01079626DC892B21F08A
:1018D00080E090E0DC0163C049E753E0BE016F5F48
:1018E0007F4FCE01079618DC019791F749E753E047
:1018F000BE016F5F7F4FCE0107960EDC892B41F74B
:1019000000E010E0812C912C54018091DA0590E0E8
:101910002F8138852817390764F549E753E0BE0160
:101920006F5F7F4FCE010796F7DB7C0149E753E0FD
:10193000BE016F5F7F4FCE010796EEDBF1E0EF1641
:10194000F10451F4892B09F0C3CF880C991CAA1C0F
:10195000BB1C689480F80AC0EF2809F0B9CF019742
:1019600009F0B6CF880C991CAA1CBB1C0F5F1F4F37
:10197000CCCF1093CE030093CD038092C9039092F5
:10198000CA03A092CB03B092CC0383E090E0909383
:10199000C6038093C50381E090E0A0E0B0E0892B0E
:1019A0008A2B8B2B09F0B7C07ACF81E090E0988723
:1019B0008F83E091CF03F091D00382819381899747
:1019C0004E9720F080E090E0DC0148C082E090E09B
:1019D00098878F83848195810B970A9798F783E086
:1019E00090E098878F831A8219824CEB51E0BE01F8
:1019F0006F5F7F4FCE0107968FDB892B19F74CEB7A
:101A000051E0BE016F5F7F4FCE01079685DB0197E6
:101A1000C9F600E010E0812C912C54012F8138850B
:101A20008091D1039091D203281739070CF453C148
:101A30001093CE030093CD038092C9039092CA0302
:101A4000A092CB03B092CC0384E090E09093C603C5
:101A50008093C50381E090E0A0E0B0E0892B8A2B61
:101A60008B2B09F058C0E091CF03F091D003828115
:101A70009381C697869708F0B8C1848195814B976A
:101A8000459708F0B2C1DF0116967F0196ECE90E8A
:101A9000F11C20E030E040E050E060E070E080E0E9
:101AA00090E0CD90DC90119719E0C11AD10818E0B0
:101AB000C116D10408F099C11296CD90DC9013970D
:101AC00011E1C11AD1081DE0C116D10408F050C1BE
:101AD00001E00E94A31521601496AE15BF0509F719
:101AE0002093C9033093CA034093CB035093CC0394
:101AF00000E20E94BE152093C7033093C80387E01D
:101B000090E09093C6038093C50380E390E09093A8
:101B1000CE038093CD036091C9037091CA03809175
:101B2000CB039091CC0340E16EDA87E293E033DAA5
:101B30008091C9039091CA03A091CB03B091CC03CB
:101B40008F3CF0E39F07FDEFAF07B10509F01EC121
:101B500080E090E0EAD882E080930E051092DA05EA
:101B60008091F0029091F1028130910529F083304B
:101B7000910521F0892B41F401D906C065E070E0A0
:101B800080E090E00E949E040E94B902D6CC809131
:101B9000160590911705825491098E9708F086CD0D
:101BA00080E090E040E050E0BA01FC01E85EFA4FCE
:101BB000208131812950310929303105B0F076CDAD
:101BC00080911805909119050997099708F069CD3A
:101BD0001092CE031092CD034092C9035092CA03D3
:101BE0006092CB037092CC03F9C0FC01E65EFA4F21
:101BF000208131812651310921313105C0F4440F52
:101C0000551F661F771F416004968038910569F65D
:101C1000A0E2B0E0B093CE03A093CD034093C903FC
:101C20005093CA036093CB037093CC03D7C0208139
:101C30003181265031092730310508F037CD440F66
:101C4000551F661F771FE0CF208131812351310955
:101C50002F30310548F4CC0CDD1CEE1CFF1C6894C1
:101C6000C0F80296349649CD208131812A5031093D
:101C70002930310508F06DCDCC0CDD1CEE1CFF1CAD
:101C8000F0CF8091160590911705C697869708F0BA
:101C9000B0CDEAE1F5E083E090E0C12CD12C7601F3
:101CA00089CD208131812C5031092A30310508F04D
:101CB000A0CDCC0CDD1CEE1CFF1C7ACD4D915C91AF
:101CC0004C5051094B30510508F0E5CDCC0CDD1CD2
:101CD000EE1CFF1CBCCD4CEB51E0BE016F5F7F4F93
:101CE000CE01079619DA6C010330110569F04CEB4F
:101CF00051E0BE016F5F7F4FCE0107960DDA7C0188
:101D000003301105C9F40CC04CEB51E0BE016F5F0C
:101D10007F4FCE01079600DAC816D90641F352CE9E
:101D20004CEB51E0BE016F5F7F4FCE010796F4D9B7
:101D3000E816F90609F046CEC114D10459F4EA9424
:101D4000EF2809F03FCE880C991CAA1CBB1C689494
:101D500080F80BC0CA94CD2809F034CEEF2809F0E2
:101D600031CE880C991CAA1CBB1C0F5F1F4F56CE8E
:101D70001296CD90DC90139714E0C11AD10815E0AB
:101D8000C116D10490F501E0DED6A6CE803D10E369
:101D900091071DEFA107B10578F4873F9840AD4F3B
:101DA000B10519F481E090E0D5CE8091F0029091D8
:101DB000F1020E946806CFCE873BE8E49E07EDEF74
:101DC000AE07B10519F483E090E0C4CE8737984898
:101DD000AD4FB10551F782E090E0BCCE81E090E0DC
:101DE0009093C6038093C50396CE8091DA05823224
:101DF00031F4828193810A97099708F49EC0828109
:101E000093818957910983359105D0F48091DA0542
:101E10008132B0F084819581CA97899788F49F01B7
:101E20002A5F3F4FC12CD12C760143E050E0D9010D
:101E30006D917C916A5071096930710508F499C0FF
:101E40008091D1039091D2039E878D8706970CF4E1
:101E500082CE8F010A5F1F4FB5ECCB2EBDE9DB2E82
:101E6000BCE1EB2EB1E8FB2E83E0282E312CD8010B
:101E70006D917C91F8013497A080B18080E090E072
:101E8000FDD36F87788B898B9A8BB50180E090E0CA
:101E9000F5D34B015C012DEC3CEC4CE45FE34FD4FB
:101EA0009B01AC016F85788989899A89E3D387FD85
:101EB00017C02DEC3CEC4CE45FE36F857889898991
:101EC0009A893DD49B01AC01C501B401D3D3E82F5D
:101ED000880FFF0BEE27FF0FEE1FFF27319602C082
:101EE000E0E0F0E0A701960163E971E080E091E0B5
:101EF000F1D56F01FF0FEE08FF08C626D726E826AA
:101F0000F926BFEF2B1A3B0A0E5F1F4FED85FE85AA
:101F10002E163F0609F0ABCFC092C903D092CA0378
:101F2000E092CB03F092CC0380E290E09093CE035A
:101F30008093CD038FEF9FEF53CF2091DA05CF0130
:101F4000820F911D820F911DDC0112978D919C9142
:101F50000A97099708F053CF1092CE031092CD0341
:101F60004092C9035092CA036092CB037092CC0393
:101F700047C0D90112966D917C91139766517109F2
:101F80006131710568F5D701C601880F991FAA1F35
:101F9000BB1F6C017D016894C0F84E5F5F4F2C5FE2
:101FA0003F4F4332510509F042CF9F012A5B3F4F1B
:101FB000D9012D913C912A5031092930310508F081
:101FC0003FCFE0E1F0E0F093CE03E093CD03C09289
:101FD000C903D092CA03E092CB03F092CC0310C0A5
:101FE000D90112966D917C911397665071096730F3
:101FF000710508F025CFCC0CDD1CEE1CFF1CCDCFED
:1020000088E090E0EDCE8BED95E091C9E3EDF3E053
:102010001382128248EE53E060E070E044835583FF
:102020006683778386E093E0918380832DEC30E0B4
:10203000358724872CEC30E03787268728EC30E082
:10204000318B208B29EC30E0338B228B2AEC30E073
:10205000358B248B2EEC30E0378B268B118E128E35
:10206000138E148EE0E7F4E01382128244835583CA
:10207000668377839183808385EC90E0958784875E
:1020800084EC90E09787868780EC90E0918B808B42
:1020900081EC90E0938B828B82EC90E0958B848B2B
:1020A00086EC90E0978B868B118E128E138E148E99
:1020B000EDE0F5E082E08083128269E273E08BED6F
:1020C00095E053C9EF920F931F93CF93DF93E801ED
:1020D00047FD02C034E001C034E1E42F440FFF0BA0
:1020E000F7FF03C0F195E195F109E32E022F2E2FA2
:1020F000AE014BD0CE01DF91CF911F910F91EF90A8
:102100000895BB274A3031F4992322F4BDE290951B
:1021100081959F4F22C0BB27FA01A62F6217710538
:1021200081059105330B30FB66F0AA27660F771FF8
:10213000881F991FAA1FA21710F0A21B6395385081
:10214000A9F7A05DAA3308F0A95DA19336F7B111F4
:10215000B1931082CA017EC2BB27FB015527AA2773
:10216000880F991FAA1FA41710F0A41B8395505124
:10217000B9F7A05DAA3308F0A95DA193009779F79C
:10218000B111B1931192CB0165C24F925F926F92E0
:102190007F929F92AF92BF92CF92DF92EF92FF9287
:1021A0000F931F93CF93DF93CDB7DEB729970FB669
:1021B000F894DEBF0FBECDBF6A01122FB02E2BE305
:1021C000201720F0FF24F394F00E02C0BCE3FB2E96
:1021D0000F2D27E0AE014F5F5F4F64D1AC018981C5
:1021E000982F9970913031F0E1FC06C0E0FE06C0F6
:1021F00090E205C09DE203C09BE201C090E0EE2D9D
:10220000E07183FF3CC0911102C083E001C084E013
:10221000811718F4212F281B01C020E0E1110BC009
:10222000F601822F30E2882319F031938150FBCFE1
:10223000C20ED11C20E0992329F0D6019C93F6010F
:1022400031966F01C6010396E2FE0AC03EE4D60154
:102250003C9341E411964C93119712963C9306C01F
:102260003EE6F601308341E641833283FC01322FA2
:1022700040E2332309F442C041933150FACF82FF48
:1022800044C0911102C083E001C084E0811718F4BA
:10229000212F281B01C020E0E1110BC0F601822F85
:1022A00030E2882319F031938150FBCFC20ED11C4C
:1022B00020E0992329F0D6019C93F60131966F0115
:1022C000C6010396E2FE0BC039E4D6013C933EE41E
:1022D00011963C93119736E412963C9307C039E669
:1022E000F60130833EE6318336E63283FC01322F3D
:1022F00040E2332319F041933150FBCFFC01E20F50
:10230000F11D10828EEF9FEFB7C0F1E0911101C077
:10231000F0E06F2F70E01416150624F49A012F5F79
:102320003F4F02C021E030E0260F371FBB2029F0CD
:102330006B2D70E06F5F7F4F02C060E070E0260F92
:10234000371F612F70E0261737071CF4121B212F4F
:1023500001C020E03E2D387159F4D601322F60E2E1
:10236000332319F06D933150FBCFC20ED11C20E006
:10237000FF2331F0D6019C93B6016F5F7F4F6B0155
:10238000E1110BC0F601922F30E3992319F031933C
:102390009150FBCFC20ED11C20E09F2D940F3A81AB
:1023A000782F7071A72E84FF03C0313309F4915048
:1023B000191624F4993018F098E001C091E0E42F48
:1023C000852F57FF02C0E0E080E06E2F782FE0E01D
:1023D000F0E0AEE29A2E3A01691A71082A01461A13
:1023E000570A0B2D10E01195019511096F3F8FEFE2
:1023F000780729F4D6019C92C60101966C01461714
:10240000570784F0661677066CF47F01E40CF51C20
:10241000A1E0B0E0AC0FBD1FEA0EFB1ED701119684
:10242000BC9002C090E3B92E615071093196C6018B
:1024300001967C016017710724F0D601BC926C01F3
:10244000D5CF6417750741F4363320F4353321F4C2
:10245000A11002C081E3B82EF601B082F701822FED
:1024600090E2882319F091938150FBCFF701E20F9E
:10247000F11D108280E090E029960FB6F894DEBF3F
:102480000FBECDBFDF91CF911F910F91FF90EF90C5
:10249000DF90CF90BF90AF909F907F906F905F90B4
:1024A0004F900895283008F027E03327DA01990F7C
:1024B000311D87FD916000966105710539F4326028
:1024C0002E5F3D9330E32A95E1F708959F3F30F06A
:1024D00080387105610509F03C5F3C5F3D939130A8
:1024E00008F08068911DDF93CF931F930F93FF92A5
:1024F000EF92192F987F9695E92F96959695E90F6B
:10250000FF27EE59FE4F99273327EE24FF24A7011A
:10251000E70105900894079428F4360FE71EF81E8B
:10252000491F511D660F771F881F991F0694A1F739
:102530000590079428F4E70EF81E491F561FC11D89
:10254000770F881F991F661F0694A1F705900794BF
:1025500028F4F80E491F561FC71FD11D880F991F59
:10256000661F771F0694A1F70590079420F4490F82
:10257000561FC71FD81F990F661F771F881F069405
:10258000A9F784911095177041F0D695C795579586
:102590004795F794E7941A95C1F7E8E0F1E068945D
:1025A0001590159135916591959105907FE2739500
:1025B000E118F10A430B560BC90BD009C0F7E10C27
:1025C000F11E431F561FC91FD01D7EF4703311F436
:1025D0008A95E6CFE894015030F0080F0AF40027FE
:1025E000021708F4202F2395022F7A3328F079E37D
:1025F0007D932A95E9F710C07D932A9589F6069474
:1026000097956795379517951794E118F10A430B3D
:10261000560BC90BD00998F023957E9173957A33A8
:1026200008F070E37C932013B8F77E9170617D937E
:1026300030F0839571E37D9370E32A95E1F71124DF
:10264000EF90FF900F911F91CF91DF91992787FD18
:1026500090950895DC01FC01672F71917723E1F7D4
:10266000329704C07C916D9370836291AE17BF075F
:10267000C8F3089540D008F481E00895E89409C0B3
:1026800097FB3EF490958095709561957F4F8F4FA5
:102690009F4F9923A9F0F92F96E9BB279395F695BB
:1026A000879577956795B795F111F8CFFAF4BB0F39
:1026B00011F460FF1BC06F5F7F4F8F4F9F4F16C09D
:1026C000882311F096E911C0772321F09EE8872F27
:1026D000762F05C0662371F096E8862F70E060E0E3
:1026E0002AF09A95660F771F881FDAF7880F96955C
:1026F000879597F90895990F0008550FAA0BE0E800
:10270000FEEF16161706E807F907C0F012161306B3
:10271000E407F50798F0621B730B840B950B39F4F3
:102720000A2661F0232B242B252B21F408950A2659
:1027300009F4A140A6958FEF811D811D08950BD04E
:1027400078C069D028F06ED018F0952309F05AC0EF
:102750005FC01124A2C07ED0A0F3959FD1F3950F46
:1027600050E0551F629FF001729FBB27F00DB11D15
:10277000639FAA27F00DB11DAA1F649F6627B00DA5
:10278000A11D661F829F2227B00DA11D621F739F8E
:10279000B00DA11D621F839FA00D611D221F749F9C
:1027A0003327A00D611D231F849F600D211D822FE3
:1027B000762F6A2F11249F5750408AF0E1F088232A
:1027C0004AF0EE0FFF1FBB1F661F771F881F915037
:1027D0005040A9F79E3F510570F014C05EC05F3FA6
:1027E000ECF3983EDCF3869577956795B795F7956A
:1027F000E7959F5FC1F7FE2B880F911D96958795F2
:1028000097F9089597F99F6780E870E060E0089570
:102810009FEF80EC089500240A94161617061806F8
:102820000906089500240A941216130614060506D4
:102830000895092E0394000C11F4882352F0BB0F65
:1028400040F4BF2B11F460FF04C06F5F7F4F8F4FC8
:102850009F4F089557FD9058440F551F59F05F3F03
:1028600071F04795880F97FB991F61F09F3F79F0B2
:1028700087950895121613061406551FF2CF469534
:10288000F1DF08C0161617061806991FF1CF8695B6
:102890007105610508940895E894BB27662777279A
:1028A000CB0197F9089509D0A59F900DB49F900D85
:1028B000A49F800D911D11240895A29FB001B39F84
:1028C000C001A39F700D811D1124911DB29F700D39
:1028D000811D1124911D08955058BB27AA270ED0A1
:1028E000A8CF99DF30F09EDF20F031F49F3F11F444
:1028F0001EF48ECF0EF4E095E7FB84CFE92FAADF1C
:1029000080F3BA17620773078407950718F071F40C
:102910009EF5C2CF0EF4E0950B2EBA2FA02D0B0121
:10292000B90190010C01CA01A0011124FF27591B14
:1029300099F0593F50F4503E68F11A16F040A22F1A
:10294000232F342F4427585FF3CF4695379527958B
:10295000A795F0405395C9F77EF41F16BA0B620B8A
:10296000730B840BBAF09150A1F0FF0FBB1F661FD1
:10297000771F881FC2F70EC0BA0F621F731F841F14
:1029800048F4879577956795B795F7959E3F08F03A
:10299000B3CF9395880F08F09927EE0F97958795F9
:1029A00008950CD046CF3EDF40F035DF30F021F403
:1029B0005F3F19F027CF511170CF2ACF4BDF98F32B
:1029C0009923C9F35523B1F3951B550BBB27AA27B0
:1029D00062177307840738F09F5F5F4F220F331F22
:1029E000441FAA1FA9F333D00E2E3AF0E0E830D0EE
:1029F00091505040E695001CCAF729D0FE2F27D0F1
:102A0000660F771F881FBB1F261737074807AB07BE
:102A1000B0E809F0BB0B802DBF01FF2793585F4F33
:102A20002AF09E3F510568F0EDCE37CF5F3FECF3C3
:102A3000983EDCF3869577956795B795F7959F5FF8
:102A4000C9F7880F911D9695879597F90895E1E04C
:102A5000660F771F881FBB1F621773078407BA07AB
:102A600020F0621B730B840BBA0BEE1F88F7E09506
:102A7000089504D06894B11110CF0895F3DE88F062
:102A80009F5790F0B92F9927B751A0F0D1F0660F5A
:102A9000771F881F991F1AF0BA95C9F712C0B13075
:102AA00081F0FADEB1E00895F7CE672F782F8827FE
:102AB000B85F39F0B93FCCF3869577956795B395B4
:102AC000D9F73EF490958095709561957F4F8F4F23
:102AD0009F4F0895DB018F939F93E5DEBF91AF91E8
:102AE000A29F800D911DA39F900DB29F900D112468
:102AF0000895A1E21A2EAA1BBB1BFD010DC0AA1F3F
:102B0000BB1FEE1FFF1FA217B307E407F50720F056
:102B1000A21BB30BE40BF50B661F771F881F991FD1
:102B20001A9469F760957095809590959B01AC011A
:102B3000BD01CF010895EE0FFF1F881F8BBF0790C7
:102B4000F691E02D19940F93083090F0982F872F6D
:102B5000762F652F542F432F322F22270850F4CF82
:102B6000220F331F441F551F661F771F881F991F91
:102B70000A95B2F70F91089597FB10F81694000884
:102B80000F93083098F00850232F342F452F562FDD
:102B9000672F782F892F902DF4CF059497958795DF
:102BA0007795679557954795379527950A95AAF78D
:102BB0000F910895CF93DF938230910510F482E056
:102BC00090E0E091E405F091E50520E030E0C0E020
:102BD000D0E0309711F14081518148175907C0F07A
:102BE0004817590761F482819381209719F09B83DC
:102BF0008A832BC09093E5058093E40526C02115B8
:102C0000310519F04217530718F49A01BE01DF018C
:102C1000EF010280F381E02DDCCF2115310509F1B0
:102C2000281B390B2430310590F412968D919C911C
:102C300013976115710521F0FB019383828304C012
:102C40009093E5058093E405FD01329644C0FD01B3
:102C5000E20FF31F81939193225031092D933C93FE
:102C60003AC02091E2053091E305232B41F42091F5
:102C7000F4023091F5023093E3052093E2052091B0
:102C8000F2023091F3022115310541F42DB73EB720
:102C90004091F6025091F702241B350BE091E205BA
:102CA000F091E305E217F307A0F42E1B3F0B281762
:102CB000390778F0AC014E5F5F4F2417350748F0B5
:102CC0004E0F5F1F5093E3054093E205819391936C
:102CD00002C0E0E0F0E0CF01DF91CF9108950F93C3
:102CE0001F93CF93DF93009709F48CC0FC013297B8
:102CF000138212820091E4051091E505011511057A
:102D000081F420813181820F931F2091E20530915F
:102D1000E3052817390779F5F093E305E093E20519
:102D200071C0D80140E050E0AE17BF0750F41296D2
:102D30002D913C911397AD012115310509F1D90170
:102D4000F3CF9D01DA013383228360817181860F85
:102D5000971F8217930769F4EC0128813981260FA8
:102D6000371F2E5F3F4F318320838A819B8193835E
:102D70008283452B29F4F093E505E093E40542C0F6
:102D80001396FC93EE931297ED01499159919E0190
:102D9000240F351FE217F30771F480819181840FAE
:102DA000951F029611969C938E9382819381139620
:102DB0009C938E931297E0E0F0E0D80112968D91EB
:102DC0009C911397009719F0F8018C01F6CF8D9123
:102DD0009C9198012E5F3F4F820F931F2091E20537
:102DE0003091E3052817390769F4309729F41092D8
:102DF000E5051092E40502C0138212821093E305E8
:102E00000093E205DF91CF911F910F9108956F928A
:102E10007F928F929F92AF92BF92CF92DF92EF926A
:102E2000FF920F931F93CF93DF93EC01009781F4F0
:102E3000CB01DF91CF911F910F91FF90EF90DF9029
:102E4000CF90BF90AF909F908F907F906F90B2CEB9
:102E5000FC01E60FF71F9C0122503109E217F3072E
:102E600008F4A8C0D9010D911C91119706171707F6
:102E7000A8F00530110508F49BC0C8010497861717
:102E8000970708F495C002501109061B170B019310
:102E900011936D937C93CF0122DF8AC05B01A01A4E
:102EA000B10A4C01800E911EA091E405B091E50598
:102EB00040E050E0E12CF12C109709F44AC0A8152D
:102EC000B905D1F56D907C901197630182E0C80E31
:102ED000D11CCA14DB0480F1A3014A195B096A0101
:102EE00082E0C80ED11C1296BC9012971396AC913A
:102EF000B5E0CB16D10440F0B282A3835183408366
:102F0000D9016D937C930AC00E5F1F4FC301800FE0
:102F1000911FF90191838083EB2DFA2FE114F104C5
:102F200031F0D7011396FC93EE93129741C0F093C2
:102F3000E505E093E4053CC08D919C9111974817FD
:102F4000590708F4AC017D0112960D90BC91A02D9B
:102F5000B3CF8091E2059091E30588159905E1F4DE
:102F600046175707C8F48091F2029091F302009738
:102F700041F48DB79EB74091F6025091F702841B41
:102F8000950BE817F907B0F4F093E305E093E20539
:102F9000F901718360830CC0CB010CDE7C010097CA
:102FA00049F0A801BE011BD0CE0199DEC70104C0C3
:102FB000CE0102C080E090E0DF91CF911F910F9190
:102FC000FF90EF90DF90CF90BF90AF909F908F9049
:102FD0007F906F90089581E090E0F89419C0FB0114
:102FE000DC0102C001900D9241505040D8F7089585
:102FF000FB01DC018D91019080190110D9F3990B2F
:103000000895FB01DC0101900D920020E1F7089585
:1030100011E0C2E9D1E000E005C0802FFE018BDDA8
:103020002196011DC339D10780E00807B1F7F89454
:02303000FFCFD0
:1030320029002B000000D743000000005585004BFB
:10304200000000000000000000000000000000007E
:10305200000000000000000000000000000000006E
:10306200000000000000000000000000000000005E
:10307200000000000000000000000000000000004E
:10308200000000000000000000000000000000003E
:10309200000000000000000000000000000000002E
:1030A200000000000000000000000000000000001E
:1030B200000000000000000000000000000000000E
:1030C20000000000000000000000000000000000FE
:1030D20000000000000000000000000000000000EE
:1030E20000000000000000000000000000000000DE
:1030F20000000000000000000000000000000000CE
:1031020000000000000000000000000000000000BD
:1031120000000000000000000000000000000000AD
:1031220001000000E6058000C0F9A4B0999282F87F
:1031320080900000000052027707E2019802130219
:10314200F10105020200585844543D00696E697449
:1031520048583731313A000D0A0057656C636F6D7C
:103162006520746F2075736521002300235443503A
:10317200434F4E4E0023544350444F4E4500413A74
:103182005249474854434F4D4D3D00413A455252F2
:103192004F52434F4D4D3D0048583731315F4454F3
:1031A200203D20545255450023544F4D4F4445581D
:1031B2003D007B224944223A002C224D696C6C73FB
:1031C200223A002C224D6F6465223A002C2253656C
:1031D2006E736F7273223A5B002C22526573756CA8
:0831E20074223A007D5D7D00BE
:00000001FF
