:1000000015C1000043C1000041C100003FC1000014
:100010003DC100003BC1000039C1000037C10000F4
:1000200035C1000033C1000031C100002FC1000004
:100030002DC10000B7C7000029C1000027C1000082
:1000400025C1000023C1000021C100001FC1000024
:100050001DC100001BC1000019C1000059C70000EC
:1000600015C1000061C6000036C600000FC10000C7
:100070000DC100000BC1000009C1000007C1000054
:1000800005C1000003C1000001C10000FFC0000065
:10009000F9C50000CEC50000F9C00000F7C000009F
:1000A000F5C00000F3C00000F1C00000EFC0000088
:1000B000EDC00000EBC00000E9C00000E7C0000098
:1000C000E5C00000E3C00000E1C00000DFC00000A8
:1000D000DDC00000DBC00000D9C00000D7C00000B8
:1000E000D5C00000B905BC05AB05AF05B505F305E6
:1000F000C005C405CA05CE05D205D805DC05E00556
:10010000F305E605EA05EE050000210024002700BE
:100110002A002D0030003300010100000401070116
:100120000A0100002200250028002B002E003100CB
:10013000340002010000050108010B01000020004D
:100140002300260029002C002F00320000010000AF
:10015000030106010901050505050705080808084A
:10016000020202020A0A080804040404010101014F
:10017000010101010303030303030303040707074A
:100180000C0C0C0C0C0C0C0C0202020206060606EF
:10019000060606060B0B0B0B0B0B0B0B01021020BC
:1001A00020080810204010204080020102010804AD
:1001B0000201010204081020408080402010080441
:1001C000020180040201804020100804020108049A
:1001D00002010102040810204080010204081020DE
:1001E000408000000A0B02090C0D0E0807030401F1
:1001F00000000000000000000000000000000000FF
:1002000000000000000000000000000000001211CB
:1002100010000000000000000000000000000000CE
:1002200000000000000000006510CB1011241FBE6C
:10023000CFEFD1E2DEBFCDBF00E00CBF26E0AAEEDB
:10024000B3E001C01D92A932B207E1F713E0A0E0CC
:10025000B2E0EEE6FBE200E00BBF02C007900D92B9
:10026000AA3EB107D9F711E0C5E1D1E000E006C030
:1002700021970109802FFE010E943913C431D10753
:1002800080E00807A9F7B6D70C94A615B9CE089553
:10029000DC01ED91FC910190F081E02D1994CF9259
:1002A000DF92EF92FF920F931F93CF93DF936C0136
:1002B0007A018B01C0E0D0E0CE15DF0589F0D801CE
:1002C0006D918D01D601ED91FC910190F081E02DB1
:1002D000C6011995892B11F47E0102C02196ECCF3D
:1002E000C701DF91CF911F910F91FF90EF90DF90A9
:1002F000CF9008950E948915FC01A089B18982E000
:100300008C93A485B5851C92A685B78580E18C93D6
:10031000108EA489B58986E08C93A289B3898C91CB
:1003200080618C93A289B3898C9188608C93A28917
:10033000B3898C9180688C930288F389E02D808149
:100340008F7D808308958F929F92AF92BF92CF92BC
:10035000DF92EF92FF920F931F93CF93DF93FC01F5
:10036000C081D18120910F0430911004C217D307AE
:100370000CF048C09E01220F331FE0910D04F09154
:100380000E04E20FF31F80809180C170DD27F1E041
:10039000CF27209719F404E610E002C00CE91FEF04
:1003A0007A015B016C01040F151FB801C4019CD6D2
:1003B000892B89F40E0D1F1DB801C40195D6892B18
:1003C00069F4B8016E0D7F1DC4018ED6892BE9F04A
:1003D00023E030E005C021E030E002C022E030E060
:1003E000F501808191810196821793073CF0F50118
:1003F00011821082F6018081918101969183808320
:10040000CE0105C081E090E002C08FEF9FEFDF9149
:10041000CF911F910F91FF90EF90DF90CF90BF9001
:10042000AF909F908F9008952FB7F8948091FF031D
:1004300090910004A0910104B09102042FBF809319
:10044000190490931A04A0931B04B0931C04E09128
:100450001104F09112040284F385E02D81E194E00F
:10046000199597FF26C02FB7F8948091FF039091BC
:100470000004A0910104B09102042FBF409119041F
:1004800050911A0460911B0470911C04841B950BFD
:10049000A60BB70B409115045091160460911704F8
:1004A0007091180484179507A607B70780F28FEF9D
:1004B0009FEF08950F931F93CF93DF93EC018881F3
:1004C0009981009729F02A813B812617370788F404
:1004D0008B016F5F7F4F0E94A514009761F0998395
:1004E00088831B830A832C813D81232B11F4FC011B
:1004F000108281E001C080E0DF91CF911F910F91C8
:100500000895EF92FF920F931F93CF93DF93EC0127
:100510007B018A01BA01CEDF2881398181110DC0AA
:100520002115310519F0C9010E940D141982188294
:100530001D821C821B821A8206C01D830C83B70198
:10054000C9010E949F15CE01DF91CF911F910F919C
:10055000FF90EF9008954F925F926F927F92EF928B
:10056000FF920F931F93CF93DF93CDB7DEB7A19781
:100570000FB6F894DEBF0FBECDBF7C01FA01CB01F0
:1005800019A2223008F42AE08E010F5D1F4F422E7F
:10059000512C612C712CBF01A30192010E941713F1
:1005A000F901CA01015011096A3014F4605D01C0FB
:1005B000695CD8016C93232B242B252B61F7B801A0
:1005C000C70103D6A1960FB6F894DEBF0FBECDBF0C
:1005D000DF91CF911F910F91FF90EF907F906F90DF
:1005E0005F904F900895CF92DF92EF92FF92CF935A
:1005F000DF936C01990FEE08FF08F7FE14C06DE25F
:100600008EEA94E045DEEC0144275527BA014C19E7
:100610005D096E097F092AE08EEA94E09CDF7C0187
:10062000EC0EFD1E07C02AE0B701A6018EEA94E099
:1006300092DF7C0164EB73E08EEA94E0C6D58E0D08
:100640009F1DDF91CF91FF90EF90DF90CF900895A5
:100650004F925F926F927F928F929F92AF92BF92D2
:10066000CF92DF92EF92FF92CF93DF93EC016A017A
:100670007B01B22E9A01AB01C701B6010E9404139F
:10068000882319F06DEB73E027C026013701E89449
:1006900077F82FEF3FEF4FE75FE7C301B2010E940A
:1006A000041381110DC02FEF3FEF4FE75FE7C30148
:1006B000B2010E94D01018161CF461EC73E00CC05B
:1006C0002FEF3FEF4FE75FE4C701B6010E94001331
:1006D000181694F465EC73E0CE01DF91CF91FF9092
:1006E000EF90DF90CF90BF90AF909F908F907F90D2
:1006F0006F905F904F9069C52FEF3FEF4FE75FEC32
:10070000C701B6010E94D01087FDE4CF20E030E0A1
:10071000A901C701B6010E94D01087FF09C06DE290
:10072000CE01B6DD4C01F7FAF094F7F8F09402C070
:10073000812C912CA12C60E070E080E09FE3AB1451
:1007400041F020E030E040E251E40E946712A394BF
:10075000F6CF9B01AC01C701B6010E9403122B0129
:100760003C010E94D4126B017C010E94D4109B01B9
:10077000AC01C301B2010E9402122B013C012AE02C
:10078000B701A601CE01E7DE7C01E80CF91CBB2015
:1007900029F06EE2CE017CDDE80EF91EDB2CDD20B7
:1007A00021F120E030E040E251E4C301B2010E94B7
:1007B00035112B013C010E94D4124B01A12CB12C0C
:1007C0002AE0B501A401CE01C6DEE80EF91EC5017E
:1007D000B4010E94D4109B01AC01C301B2010E947C
:1007E00002122B013C01DA94DACFC701DF91CF91DD
:1007F000FF90EF90DF90CF90BF90AF909F908F9041
:100800007F906F905F904F9008950F931F93CF93B9
:10081000DF93EC01DAD48C0164EB73E0CE01D5D424
:10082000800F911FDF91CF911F910F910895CDC43B
:10083000CF92DF92EF92FF92CF9369EC73E08EEA52
:1008400094E0F5DF80E090E0CEDE6EEC73E08EEABF
:1008500094E0EDDF2AE04BE250E060E070E08EEAE9
:1008600094E079DE63ED73E08EEA94E0E0DF89E204
:1008700090E0B9DE61E08BE2A8D260E089E2A5D227
:100880008BE27BD2892B51F069ED73E08EEA94E024
:10089000BCDF60E070E080E090E023C0C8E1C12CE4
:1008A000D12C760161E089E290D2CC0CDD1CEE1CEB
:1008B000FF1C60E089E289D28BE25FD2892B29F0AC
:1008C0008FEFC81AD80AE80AF80AC15059F761E050
:1008D00089E27BD280E8E82660E089E276D2B60140
:1008E000C701CF91FF90EF90DF90CF900895FC016A
:1008F000A089B1898C91A689B78982FD0FC09C918E
:10090000818D8F5F8F73228D821749F0218DDF01DA
:10091000A20FB11D5D969C93818F08958C910895CF
:10092000089580E090E00895FC01538D448D252FBB
:1009300030E0842F90E0821B930B541710F0CF9679
:10094000089501970895FC01918D828D981761F0AB
:10095000828DDF01A80FB11D5D968C91928D9F5FF6
:100960009F73928F90E008958FEF9FEF0895FC01A1
:10097000918D828D981731F0828DE80FF11D858D54
:1009800090E008958FEF9FEF0895FC01918D228DE7
:10099000892F90E0805C9F4F821B91098F7399276C
:1009A000089581E194E0F1DF21E0892B09F420E052
:1009B000822F08958EEA94E0E8DF21E0892B09F484
:1009C00020E0822F0895FC01848DDF01A80FB11D66
:1009D000A35ABF4F2C91848D90E001968F73992775
:1009E000848FA689B7892C93A089B1898C91806462
:1009F0008C93938D848D981306C00288F389E02D23
:100A000080818F7D80830895EF92FF920F931F93D3
:100A1000CF93DF93EC0181E0888F9B8D8C8D9813B1
:100A200005C0E889F989808185FD23C0F62E0B8DEC
:100A300010E00F5F1F4F0F731127E02E8C8DE8120F
:100A40000BC00FB607FCFACFE889F989808185FFD2
:100A5000F5CFCE01B8DFF2CF8B8DFE01E80FF11D8F
:100A6000E35AFF4FF0820B8FEA89FB898081806215
:100A700007C0EE89FF896083E889F98980818064F5
:100A8000808381E090E0DF91CF911F910F91FF90E3
:100A9000EF900895CF93DF93EC01888D8823C1F008
:100AA000EA89FB89808185FD05C0A889B9898C9177
:100AB00086FD0EC00FB607FCF5CF808185FFF2CF13
:100AC000A889B9898C9185FFEDCFCE017CDFE8CF75
:100AD000DF91CF91089580E090E0892B19F06ADFD3
:100AE000811120C080E090E0892B19F05ADF81113C
:100AF0001CC080E090E0892B41F080E090E0892BE1
:100B000021F00E940000811113C080E090E0892B49
:100B1000A1F080E090E0892B81F00E94000081111B
:100B20000AC008950E940000DDCF0E940000E1CFBE
:100B30000E940000EACF0C940000089590E0FC01B0
:100B40003197E231F10508F04EC08827EE58FF4F8B
:100B50008F4F0C943913809180008F7703C0809160
:100B600080008F7D80938000089580918000877F32
:100B7000F9CF84B58F7702C084B58F7D84BD089589
:100B80008091B0008F7703C08091B0008F7D8093FB
:100B9000B0000895809190008F7707C080919000F9
:100BA0008F7D03C080919000877F8093900008958F
:100BB0008091A0008F7707C08091A0008F7D03C037
:100BC0008091A000877F8093A000089580912001EC
:100BD0008F7707C0809120018F7D03C08091200115
:100BE000877F8093200108953FB7F8948091210674
:100BF00090912206A0912306B091240626B5A89BC9
:100C000005C02F3F19F00196A11DB11D3FBFBA2F9E
:100C1000A92F982F8827820F911DA11DB11DBC01FE
:100C2000CD0142E0660F771F881F991F4A95D1F7C3
:100C300008951F920F920FB60F9211240BB60F92C8
:100C40002F933F934F935F936F937F938F939F93D4
:100C5000AF93BF93EF93FF9381E194E0B4DEFF91F4
:100C6000EF91BF91AF919F918F917F916F915F9124
:100C70004F913F912F910F900BBE0F900FBE0F9091
:100C80001F9018951F920F920FB60F9211240BB65A
:100C90000F922F933F934F935F936F937F938F9315
:100CA0009F93AF93BF93EF93FF9381E194E01FDE97
:100CB000FF91EF91BF91AF919F918F917F916F9134
:100CC0005F914F913F912F910F900BBE0F900FBEF0
:100CD0000F901F9018951F920F920FB60F9211242C
:100CE0000BB60F922F933F934F935F936F937F9326
:100CF0008F939F93AF93BF93EF93FF938EEA94E00C
:100D000062DEFF91EF91BF91AF919F918F917F91A3
:100D10006F915F914F913F912F910F900BBE0F906C
:100D20000FBE0F901F9018951F920F920FB60F9243
:100D300011240BB60F922F933F934F935F936F93B2
:100D40007F938F939F93AF93BF93EF93FF938EEA1D
:100D500094E0CDDDFF91EF91BF91AF919F918F9185
:100D60007F916F915F914F913F912F910F900BBEAB
:100D70000F900FBE0F901F901895CF93DF93282FE1
:100D800030E0F901EE51FE4F8491F901E456FE4F37
:100D9000D491F901EA5AFE4FC491CC2389F0811114
:100DA000CDDEEC2FF0E0EE0FFF1FE45CFE4FA591CF
:100DB000B491EC91ED2381E090E021F480E002C059
:100DC00080E090E0DF91CF9108951F93CF93DF9360
:100DD000282F30E0F901EE51FE4F8491F901E456DD
:100DE000FE4FD491F901EA5AFE4FC491CC23C1F0D1
:100DF000162F8111A3DEEC2FF0E0EE0FFF1FEE5D4A
:100E0000FE4FA591B4918FB7F894111105C09C9134
:100E1000ED2FE095E92302C0EC91ED2BEC938FBF11
:100E2000DF91CF911F910895CF93DF9390E0FC0164
:100E3000E456FE4F2491FC01EA5AFE4F8491882328
:100E400061F190E0880F991FFC01E85FFE4FC591AA
:100E5000D491FC01EE5DFE4FA591B491611109C0E2
:100E60009FB7F8948881209582238883EC912E2364
:100E70000BC0623061F49FB7F8943881822F80955F
:100E800083238883EC912E2B2C939FBF06C08FB7B2
:100E9000F894E8812E2B28838FBFDF91CF9108959E
:100EA0008F929F92AF92BF92CF92DF92EF92FF927A
:100EB0006B017C0199DE4B015C01C114D104E1049A
:100EC000F104E9F091DEDC01CB0188199909AA0946
:100ED000BB09883E9340A105B10578F321E0C21A11
:100EE000D108E108F10888EE880E83E0981EA11C65
:100EF000B11CC114D104E104F10421F7DECFFF904D
:100F0000EF90DF90CF90BF90AF909F908F9008951B
:100F10001F920F920FB60F9211242F933F938F932E
:100F20009F93AF93BF938091FF0390910004A09192
:100F30000104B09102043091200623E0230F2D37E5
:100F400020F40196A11DB11D05C026E8230F0296CD
:100F5000A11DB11D209320068093FF0390930004F0
:100F6000A0930104B093020480912106909122067F
:100F7000A0912306B09124060196A11DB11D809376
:100F8000210690932206A0932306B0932406BF91D6
:100F9000AF919F918F913F912F910F900FBE0F9026
:100FA0001F9018951F920F920FB60F9211240BB637
:100FB0000F922F933F934F935F936F937F938F93F2
:100FC0009F93AF93BF93EF93FF9380914B05D5DE33
:100FD00020914E0530914F052F5F3F4F30934F05C5
:100FE00020934E0590911806943618F095E0909352
:100FF0004C0590914C059330B9F018F4923039F0CB
:1010000057C0943059F1953009F44CC051C081114A
:101010004FC020914E0530914F052436310508F41C
:1010200043C0109218061CC0813009F041C0E09105
:10103000180691E09E0F90931806F0E020914E055F
:1010400030914F05EE0FFF1FE55BFA4F3683258386
:1010500010924F0510924E0594E021C0811117C0E7
:10106000E091180691E09E0F90931806F0E0209111
:101070004E0530914F05EE0FFF1FE55BFA4F3683AB
:10108000258310924F0510924E0593E008C02091E1
:101090004E0530914F052536310550F095E090937F
:1010A0004C0506C0811104C010924F0510924E05E8
:1010B00090914D05992329F0811102C02F9A01C00A
:1010C0002F98FF91EF91BF91AF919F918F917F9159
:1010D0006F915F914F913F912F910F900BBE0F90A9
:1010E0000FBE0F901F901895CF92DF92EF92FF9254
:1010F000CF93DF93EC01072E000C880B990B0E9415
:10110000D6106B017C0120E030E040E45FE30E94F8
:10111000351120E030E048E452E40E9467120E945A
:10112000CF12C617D707D4F020E030E040EA5FE3E3
:10113000C701B6010E94351120E030E048E452E4D6
:101140000E94671220E030E040E85FE30E94031253
:101150000E94CF1221E06C177D070CF420E0822F53
:1011600090E0DF91CF91FF90EF90DF90CF900895C6
:101170000F931F93CF93DF93EC0160E088E025DEAF
:10118000C65FDC4F0881C7E0D0E010E0B8010C2E4C
:1011900002C0759567950A94E2F76170772789E038
:1011A00014DE61E083E011DE60E083E00EDE219773
:1011B00068F761E088E009DE60E570E080E090E0DB
:1011C000DF91CF911F910F916BCE6115710579F071
:1011D000FB0101900020E9F73197AF01461B570B47
:1011E000DC01ED91FC910280F381E02D199480E007
:1011F00090E00895CF93DF93CDB7DEB760970FB639
:10120000F894DEBF0FBECDBF789484B5826084BDF4
:1012100084B5816084BD85B5826085BD85B58160FA
:1012200085BD80916E00816080936E001092810078
:101230008091810082608093810080918100816033
:1012400080938100809180008160809380008091F4
:10125000B10084608093B1008091B0008160809380
:10126000B000809191008260809391008091910004
:1012700081608093910080919000816080939000C4
:101280008091A10082608093A1008091A100816083
:101290008093A1008091A00081608093A000809144
:1012A00021018260809321018091210181608093DE
:1012B00021018091200181608093200180917A003A
:1012C000846080937A0080917A00826080937A00B3
:1012D00080917A00816080937A0080917A008068A2
:1012E00080937A001092C1008EEA94E005D881E1E3
:1012F00094E002D864E670E080E090E0D1DD64E143
:1013000073E08EEA94E093DA8BE290E06CD96AE1C4
:1013100073E08EEA94E08BDA81E090E064D961E0DA
:1013200089E282DD60E08BE27FDDF89482E08093E9
:10133000B0008093B10094E69093B3001092B20095
:1013400080937000789480934C05109218068091D9
:101350004B0560E069DD61E088E066DD61E089E021
:1013600063DD61E083E060DD61E08DE05DDD68EE1E
:1013700073E080E090E094DD5BDA6093EA037093C1
:10138000EB038093EC039093ED0361E08DE01DDDB2
:1013900065E273E08EEA94E018DF22242394312C76
:1013A00044244A94542C320120E535E030930E0455
:1013B00020930D048091180690E090931004809380
:1013C0000F0480914C05853009F037C38091520598
:1013D00090915305885891098D35910588F4809135
:1013E0001806843041F480915405909155058097FA
:1013F000479708F4D7C480911806843408F0B9C41C
:10140000809118068A3108F44EC080915005909161
:101410005105843F914068F410920C0410920B0423
:1014200040920704509208046092090470920A04E2
:1014300058C0809152059091530585974B9798F528
:10144000E6E5F5E082E090E0C12CD12C7601209118
:10145000180630E0AC014F5F5F4F4217530754F45A
:10146000DF0112972D913C9127503109273031052A
:1014700008F4DCC401979595879590930C048093AC
:101480000B040C972CF410920C0410920B040BC05C
:10149000C0920704D0920804E0920904F0920A0472
:1014A00022E030E0DAC1809118068A3108F44BC09E
:1014B00080915005909151058032934008F4ACCF53
:1014C0008091520590915305C697869708F4CBC436
:1014D0003AC0C0920704D0920804E0920904F09246
:1014E0000A0489E090E044C220813181255231090B
:1014F0002B31310508F0C7C4CC0CDD1CEE1CFF1CE1
:101500006894C0F8029634962091180630E0AC0139
:101510004F5F5F4F421753074CF4DF0112972D9135
:101520003C912C5031092B303105F0F20197959503
:10153000879590930C0480930B040C9754F61092AB
:101540000C0410920B0480911806823208F44DC0EE
:1015500080915205909153050697079708F045C072
:10156000E6E5F5E082E090E0C12CD12C76019C010B
:101570002F5F3F4F4091180650E024173507E4F4E1
:10158000DF0112974D915C9111974E5151094731EE
:10159000510508F085C4CC0CDD1CEE1CFF1C6894C2
:1015A000C0F840815181349643505109453051056E
:1015B00010F40296DCCFC901019795958795909319
:1015C0000C0480930B0440972CF410920C0410929E
:1015D0000B040BC0C0920704D0920804E0920904E7
:1015E000F0920A048AE090E0C3C1809118068D3021
:1015F00048F480910F0490911004181619060CF409
:1016000081C08BC038862F821A82198249E753E045
:10161000BE016F5F7F4FCE0107960E94A301892B09
:1016200021F080E090E0DC0167C049E753E0BE01B3
:101630006F5F7F4FCE0107960E94A301019789F744
:1016400049E753E0BE016F5F7F4FCE0107960E94CE
:10165000A301892B31F700E010E0812C912C54017B
:101660008091180690E02F8138852817390774F586
:1016700049E753E0BE016F5F7F4FCE0107960E949E
:10168000A3017C0149E753E0BE016F5F7F4FCE01AC
:1016900007960E94A301E1E0EE16F10451F4892BB4
:1016A00009F0BFCF880C991CAA1CBB1C689480F859
:1016B0000AC0EF2809F0B5CF019709F0B2CF880C26
:1016C000991CAA1CBB1C0F5F1F4FCACF10930C04A0
:1016D00000930B048092070490920804A0920904DE
:1016E000B0920A0423E030E0309304042093030412
:1016F00081E090E0A0E0B0E0892B8A2B8B2B09F0F1
:1017000068C177CF38862F82E0910D04F0910E04E6
:101710008281938189974E9720F080E090E0DC01F0
:101720004AC022E030E038872F83848195810B976F
:101730000A9798F783E090E098878F831A8219823E
:101740004CEB51E0BE016F5F7F4FCE0107960E94C8
:10175000A301892B11F74CEB51E0BE016F5F7F4F66
:10176000CE0107960E94A3010197B9F600E010E0B0
:10177000812C912C54012F81388580910F049091F8
:101780001004281739070CF498C310930C04009325
:101790000B048092070490920804A0920904B0926E
:1017A0000A0484E090E0909304048093030481E0B1
:1017B00090E0A0E0B0E0892B8A2B8B2B09F009C1C7
:1017C000C0900D04D0900E04F60182819381C697DB
:1017D0008697E8F4F601848195814B974597B8F494
:1017E000D60116967601F6ECEF0EF11C20E030E003
:1017F00040E050E060E070E080E090E00D911C91EE
:101800001197095011090830110508F4B6C08091EC
:101810001806823239F5F601828193810A97099779
:1018200008F520911806C601820F911D820F911DA7
:10183000DC0112978D919C910A97099798F4109268
:101840000C0410920B04409207045092080460921A
:10185000090470920A0428E030E0309304042093D5
:101860000304B7C0F60182819381895791098335BA
:10187000910508F4CEC320910F04309110043C87E9
:101880002B87263031050CF4D3C086010A5F1F4F29
:1018900083E090E09A878987B5ECCB2EBDE9DB2EFB
:1018A000BCE1EB2EB1E8FB2EF80160817181349729
:1018B000A080B18080E090E077D46D877E878F87AD
:1018C000988BB50180E090E06FD44B015C012DEC6A
:1018D0003CEC4CE45FE3C9D49B01AC016D857E8593
:1018E0008F8598895DD487FD91C32DEC3CEC4CE449
:1018F0005FE36D857E858F859889B7D49B01AC01A8
:10190000C501B4014DD4E82F880FFF0BEE27FF0F60
:10191000EE1FFF273196A701960163E971E080E091
:1019200091E076D66F01FF0FEE08FF08C626D72696
:10193000E826F92629853A852F5F3F4F3A87298780
:101940000E5F1F4F8B859C852817390709F0ACCF98
:10195000C0920704D0920804E0920904F0920A04AD
:10196000E0E2F0E0F0930C04E0930B048FEF9FEFC4
:1019700090930404809303042CC012960D911C9143
:101980001397015111090D30110508F0E7C201E06C
:1019900078D621601496AE15BF0509F02FCF20939D
:1019A0000704309308044093090450930A0400E2AA
:1019B00083D6209305043093060487E090E090934B
:1019C00004048093030480E390E090930C048093DC
:1019D0000B04409107045091080460910904709130
:1019E0000A0420E18EEA94E00E94AB0264EB73E00B
:1019F0008EEA94E0EADB8091070490910804A091BC
:101A00000904B0910A048F3CE0E39E07EDEFAE07B6
:101A1000B10509F0B0C265E373E08EEA94E00E947C
:101A200005041092FE031092FD0380E090E0A0DB1D
:101A300082E080934C05109218068091FD039091EE
:101A4000FE038130910569F11CF4892B49F08EC1A8
:101A50008230910509F492C0039709F47DC186C1D3
:101A60008EEA94E00E94C504892B51F08EEA94E03E
:101A70000E94A304682F81E194E00E940405F0CF46
:101A800081E194E00E94C504892B09F46FC181E1D2
:101A900094E00E94A304682F8EEA94E00E9404055B
:101AA000EFCF0E9418046093F2037093F3038093C6
:101AB000F4039093F5030091EA031091EB03209156
:101AC000EC033091ED03601B710B820B930B6ED313
:101AD00020E030E047ED53E4FAD461D56093EE03A3
:101AE0007093EF038093F0039093F1035FD36B0146
:101AF0007C016093F6037093F7038093F80390934F
:101B0000F90320E030E04AE754E4E1D42AED38E379
:101B10004EE850E4AAD3AB01BC0123E08EEA94E086
:101B20000E94280361E573E08EEA94E00E941704A6
:101B300065EB73E08EEA94E00E9417042AED38E327
:101B40004EE850E4C701B60190D3AB01BC0122E0DE
:101B500081E194E00E94280366E573E081E194E06E
:101B60000E9417046AE573E081E194E00E94050495
:101B700068EE73E080E090E093D9F8C08091FC03B8
:101B8000811128C08091FA039091FB03892B11F5F4
:101B900061E773E08EEA94E00E9417046FE773E058
:101BA00081E194E00E94170468EE73E080E090E029
:101BB00077D963E873E081E194E00E94170464E65A
:101BC00070E080E090E06CD964EA73E081E194E039
:101BD0000E9417048091FC03811115C08091FA03C3
:101BE0009091FB030A977CF46CEA73E081E194E046
:101BF0000E9405048091FA039091FB030196909353
:101C0000FB038093FA03DD24D39481E194E00E94E6
:101C1000C504892B09F4AAC081E194E00E94A304C1
:101C20007C0193E2E916F10409F090C01A8219824E
:101C30001C821B821E821D8240E050E066EB73E036
:101C4000CE0101960E9481020E94140297FD1DC0E0
:101C50008B339105D1F08F8318860D811E810F5F24
:101C60001F4FB801CE0101960E945A02882361F3EA
:101C700029813A818D819E81BE01695F7F4F820FEC
:101C8000931F5DD71E830D83DFCF8091190690913E
:101C90001A060097B9F069817A816115710589F09A
:101CA00040911B0650911C062D813E81421753071F
:101CB00040F045D78D819E8190931E0680931D062E
:101CC00017C0ABD589819A8190931A068093190623
:101CD0008B819C8190931C0680931B068D819E8135
:101CE00090931E0680931D061A8219821C821B8205
:101CF0001E821D8289819A8190D540911D06509146
:101D00001E066091190670911A068EEA94E00E94F0
:101D10004F0164EB73E08EEA94E057DA80911D0680
:101D200090911E06892B91F067EB73E08091190664
:101D300090911A06FBD6892B49F4D092FC0330927D
:101D4000FE032092FD0381E090E012DA6E2D8EEA10
:101D500094E00E94040559CF8091FC03882331F060
:101D60001092FC031092FB031092FA030E946B0581
:101D70001BCB8091540590915505825491098E9703
:101D800008F03ECB80E090E040E050E0BA01FC017A
:101D9000EA5AFA4F20813181295031092930310521
:101DA000B0F02ECB80915605909157050997099771
:101DB00008F021CB10920C0410920B0440920704FF
:101DC000509208046092090470920A041AC1FC013E
:101DD000E85AFA4F208131812651310921313105EC
:101DE000C0F4440F551F661F771F4160049680386A
:101DF000910569F680E290E090930C0480930B04C7
:101E000040930704509308046093090470930A04F4
:101E1000F8C020813181265031092730310508F082
:101E2000EFCA440F551F661F771FE0CF2081318115
:101E3000235131092F30310548F4CC0CDD1CEE1C48
:101E4000FF1C6894C0F80296349601CB2081318142
:101E50002A5031092930310508F025CBCC0CDD1C86
:101E6000EE1CFF1CF0CF8091540590915505C6974C
:101E7000869708F068CBE8E5F5E083E090E0C12CB8
:101E8000D12C760141CB208131812C5031092A306F
:101E9000310508F058CBCC0CDD1CEE1CFF1C32CBFE
:101EA0004D915C914C5051094B30510508F09DCB40
:101EB000CC0CDD1CEE1CFF1C74CB4CEB51E0BE01C6
:101EC0006F5F7F4FCE0107960E94A3016C01033024
:101ED000110571F04CEB51E0BE016F5F7F4FCE01F9
:101EE00007960E94A3017C0103301105D9F40DC0AF
:101EF0004CEB51E0BE016F5F7F4FCE0107960E9411
:101F0000A301C816D90631F308CC4CEB51E0BE0151
:101F10006F5F7F4FCE0107960E94A301E816F90676
:101F200009F0FBCBC114D10459F4EA94EF2809F06D
:101F3000F4CB880C991CAA1CBB1C689480F80BC0BD
:101F4000CA94CD2809F0E9CBEF2809F0E6CB880C3C
:101F5000991CAA1CBB1C0F5F1F4F0DCC12960D9134
:101F60001C911397045011090530110508F04FCC4E
:101F700001E087D30FCD803DF0E39F07FDEFAF0772
:101F8000B105B8F4873F9840AD4FB10569F46CE3F3
:101F900073E08EEA94E00E9405043092FE032092E2
:101FA000FD0381E090E043CD8091FD039091FE031D
:101FB0003ECD873B38E493073DEFA307B10569F4B5
:101FC0006AE473E08EEA94E00E94050483E090E006
:101FD0009093FE038093FD032ACD87379848AD4F39
:101FE000B10511F763E473E08EEA94E00E94050402
:101FF00022E030E03093FE032093FD0382E090E086
:1020000016CD3092040420920304E3CCE0E0F0E02B
:1020100082CC80911806813208F42DCCF60184819F
:102020009581CA97899708F026CC96012A5F3F4F81
:1020300080E090E0DC0143E050E0F90160817181D3
:102040006A5071096930710508F015CCF901628197
:102050007381665171096131710548F5880F991FC7
:10206000AA1FBB1F81604E5F5F4F2C5F3F4F433203
:10207000510519F796012A5B3F4FF9012081318103
:102080002A5031092930310508F0F5CB20E130E044
:1020900030930C0420930B0480930704909308045E
:1020A000A0930904B0930A0488E090E061CCF901A0
:1020B00062817381665071096730710508F0DBCB6E
:1020C000880F991FAA1FBB1FCECFE1E1F4E0138256
:1020D000128248EE53E060E070E0448355836683EB
:1020E00077838AEF92E0918380832DEC30E035870F
:1020F00024872CEC30E03787268728EC30E0318BC2
:10210000208B29EC30E0338B228B2AEC30E0358BAE
:10211000248B2EEC30E0378B268B118E128E138E93
:10212000148EEEEAF4E013821282448355836683B0
:1021300077839183808385EC90E09587848784EC16
:1021400090E09787868780EC90E0918B808B81EC84
:1021500090E0938B828B82EC90E0958B848B86EC65
:1021600090E0978B868B118E128E138E148EEBE47B
:10217000F5E082E080831282E9E1F6E011821082CC
:10218000138212821582148240E050E066EB73E005
:10219000CF010C9481028091190690911A063DC3DB
:1021A00040D008F481E00895E89409C097FB3EF41C
:1021B00090958095709561957F4F8F4F9F4F992394
:1021C000A9F0F92F96E9BB279395F6958795779512
:1021D0006795B795F111F8CFFAF4BB0F11F460FFD2
:1021E0001BC06F5F7F4F8F4F9F4F16C0882311F02A
:1021F00096E911C0772321F09EE8872F762F05C03E
:10220000662371F096E8862F70E060E02AF09A95D8
:10221000660F771F881FDAF7880F9695879597F9CD
:102220000895990F0008550FAA0BE0E8FEEF161667
:102230001706E807F907C0F012161306E407F507BA
:1022400098F0621B730B840B950B39F40A2661F02E
:10225000232B242B252B21F408950A2609F4A140D1
:10226000A6958FEF811D811D08950BD078C069D090
:1022700028F06ED018F0952309F05AC05FC01124E1
:10228000A2C07ED0A0F3959FD1F3950F50E0551FCB
:10229000629FF001729FBB27F00DB11D639FAA27BB
:1022A000F00DB11DAA1F649F6627B00DA11D661F0A
:1022B000829F2227B00DA11D621F739FB00DA11D2B
:1022C000621F839FA00D611D221F749F3327A00DE5
:1022D000611D231F849F600D211D822F762F6A2F81
:1022E00011249F5750408AF0E1F088234AF0EE0F06
:1022F000FF1FBB1F661F771F881F91505040A9F713
:102300009E3F510570F014C05EC05F3FECF3983EF5
:10231000DCF3869577956795B795F795E7959F5F79
:10232000C1F7FE2B880F911D9695879597F9089513
:1023300097F99F6780E870E060E008959FEF80EC78
:10234000089500240A94161617061806090608951B
:1023500000240A9412161306140605060895092E81
:102360000394000C11F4882352F0BB0F40F4BF2BF0
:1023700011F460FF04C06F5F7F4F8F4F9F4F089530
:1023800057FD9058440F551F59F05F3F71F0479526
:10239000880F97FB991F61F09F3F79F0879508950B
:1023A000121613061406551FF2CF4695F1DF08C02A
:1023B000161617061806991FF1CF86957105610547
:1023C00008940895E894BB2766277727CB0197F9EF
:1023D000089509D0A59F900DB49F900DA49F800DE6
:1023E000911D11240895A29FB001B39FC001A39F26
:1023F000700D811D1124911DB29F700D811D11243E
:10240000911D08955058BB27AA270ED0A8CF99DF59
:1024100030F09EDF20F031F49F3F11F41EF48ECF98
:102420000EF4E095E7FB84CFE92FAADF80F3BA171B
:10243000620773078407950718F071F49EF5C2CF01
:102440000EF4E0950B2EBA2FA02D0B01B9019001CF
:102450000C01CA01A0011124FF27591B99F0593F13
:1024600050F4503E68F11A16F040A22F232F342F5B
:102470004427585FF3CF469537952795A795F040A9
:102480005395C9F77EF41F16BA0B620B730B840BBE
:10249000BAF09150A1F0FF0FBB1F661F771F881F76
:1024A000C2F70EC0BA0F621F731F841F48F48795CE
:1024B00077956795B795F7959E3F08F0B3CF9395BD
:1024C000880F08F09927EE0F9795879508950CD0FF
:1024D00046CF3EDF40F035DF30F021F45F3F19F0AA
:1024E00027CF511170CF2ACF4BDF98F39923C9F32F
:1024F0005523B1F3951B550BBB27AA27621773070A
:10250000840738F09F5F5F4F220F331F441FAA1FBD
:10251000A9F333D00E2E3AF0E0E830D0915050407D
:10252000E695001CCAF729D0FE2F27D0660F771F2B
:10253000881FBB1F261737074807AB07B0E809F00D
:10254000BB0B802DBF01FF2793585F4F2AF09E3FA2
:10255000510568F0EDCE37CF5F3FECF3983EDCF3EA
:10256000869577956795B795F7959F5FC9F7880F1B
:10257000911D9695879597F90895E1E0660F771F6D
:10258000881FBB1F621773078407BA0720F0621BFE
:10259000730B840BBA0BEE1F88F7E095089504D0F7
:1025A0006894B11110CF0895F3DE88F09F5790F032
:1025B000B92F9927B751A0F0D1F0660F771F881F68
:1025C000991F1AF0BA95C9F712C0B13081F0FADE3E
:1025D000B1E00895F7CE672F782F8827B85F39F0DC
:1025E000B93FCCF3869577956795B395D9F73EF4C7
:1025F00090958095709561957F4F8F4F9F4F08956F
:1026000010DE08F48FEF08950CDE880B990B089507
:10261000DB018F939F93DDDEBF91AF91A29F800D71
:10262000911DA39F900DB29F900D11240895A1E2DA
:102630001A2EAA1BBB1BFD010DC0AA1FBB1FEE1F3C
:10264000FF1FA217B307E407F50720F0A21BB30B87
:10265000E40BF50B661F771F881F991F1A9469F703
:1026600060957095809590959B01AC01BD01CF015F
:102670000895EE0FFF1F881F8BBF0790F691E02D86
:1026800019940F93083090F0982F872F762F652F8D
:10269000542F432F322F22270850F4CF220F331FFD
:1026A000441F551F661F771F881F991F0A95B2F791
:1026B0000F91089597FB10F8169400080F930830B7
:1026C00098F00850232F342F452F562F672F782F3F
:1026D000892F902DF4CF05949795879577956795D9
:1026E00057954795379527950A95AAF70F9108951D
:1026F000CF93DF938230910510F482E090E0E09177
:102700002706F091280620E030E0C0E0D0E03097C6
:1027100011F14081518148175907C0F048175907F6
:1027200061F482819381209719F09B838A832BC067
:10273000909328068093270626C02115310519F0AD
:102740004217530718F49A01BE01DF01EF0102801E
:10275000F381E02DDCCF2115310509F1281B390B60
:102760002430310590F412968D919C911397611548
:10277000710521F0FB019383828304C090932806A6
:1027800080932706FD01329644C0FD01E20FF31F3E
:1027900081939193225031092D933C933AC020911B
:1027A000250630912606232B41F420910202309118
:1027B00003023093260620932506209100023091D3
:1027C00001022115310541F42DB73EB740910402B5
:1027D00050910502241B350BE0912506F091260649
:1027E000E217F307A0F42E1B3F0B2817390778F0E8
:1027F000AC014E5F5F4F2417350748F04E0F5F1F47
:1028000050932606409325068193919302C0E0E001
:10281000F0E0CF01DF91CF9108950F931F93CF93F5
:10282000DF93009709F48CC0FC0132971382128267
:1028300000912706109128060115110581F42081C9
:102840003181820F931F209125063091260628178B
:10285000390779F5F0932606E093250671C0D80173
:1028600040E050E0AE17BF0750F412962D913C9116
:102870001397AD012115310509F1D901F3CF9D0160
:10288000DA013383228360817181860F971F82175B
:10289000930769F4EC0128813981260F371F2E5FD9
:1028A0003F4F318320838A819B8193838283452B91
:1028B00029F4F0932806E093270642C01396FC9370
:1028C000EE931297ED01499159919E01240F351F06
:1028D000E217F30771F480819181840F951F0296AE
:1028E00011969C938E938281938113969C938E93E1
:1028F0001297E0E0F0E0D80112968D919C91139729
:10290000009719F0F8018C01F6CF8D919C919801F8
:102910002E5F3F4F820F931F209125063091260690
:102920002817390769F4309729F410922806109275
:10293000270602C0138212821093260600932506F2
:10294000DF91CF911F910F9108956F927F928F9297
:102950009F92AF92BF92CF92DF92EF92FF920F932E
:102960001F93CF93DF93EC01009781F4CB01DF91AC
:10297000CF911F910F91FF90EF90DF90CF90BF907C
:10298000AF909F908F907F906F90B2CEFC01E60F3A
:10299000F71F9C0122503109E217F30708F4A8C081
:1029A000D9010D911C91119706171707A8F0053052
:1029B000110508F49BC0C80104978617970708F40F
:1029C00095C002501109061B170B019311936D93CB
:1029D0007C93CF0122DF8AC05B01A01AB10A4C01AF
:1029E000800E911EA0912706B091280640E050E08D
:1029F000E12CF12C109709F44AC0A815B905D1F5BE
:102A00006D907C901197630182E0C80ED11CCA14AE
:102A1000DB0480F1A3014A195B096A0182E0C80E58
:102A2000D11C1296BC9012971396AC91B5E0CB16C0
:102A3000D10440F0B282A38351834083D9016D93C6
:102A40007C930AC00E5F1F4FC301800F911FF901D5
:102A500091838083EB2DFA2FE114F10431F0D7013B
:102A60001396FC93EE93129741C0F0932806E093DF
:102A700027063CC08D919C9111974817590708F47F
:102A8000AC017D0112960D90BC91A02DB3CF809129
:102A900025069091260688159905E1F446175707F3
:102AA000C8F48091000290910102009741F48DB723
:102AB0009EB74091040250910502841B950BE817C4
:102AC000F907B0F4F0932606E0932506F901718327
:102AD00060830CC0CB010CDE7C01009749F0A8019B
:102AE000BE011BD0CE0199DEC70104C0CE0102C0D9
:102AF00080E090E0DF91CF911F910F91FF90EF90D8
:102B0000DF90CF90BF90AF909F908F907F906F900D
:102B1000089581E090E0F89419C0FB01DC0102C047
:102B200001900D9241505040D8F70895FB01DC010F
:102B30008D91019080190110D9F3990B0895FB0133
:102B4000DC0101900D920020E1F7089511E0C5E14C
:102B5000D1E000E005C0802FFE018BDD2196011D34
:0E2B6000C631D10780E00807B1F7F894FFCF27
:102B6E0000002906800029002B000000D74300003A
:102B7E000000000000000000000000000000000047
:102B8E000000000000000000000000000000000037
:102B9E000000000000000000000000000000000027
:102BAE000000000000000000000000000000000017
:102BBE000000000000000000000000000000000007
:102BCE0000000000000000000000000000000000F7
:102BDE0000000000000000000000000000000000E7
:102BEE0000000000000000000000000000000000D7
:102BFE0000000000000000000000000000000000C7
:102C0E0000000000000000000000000000000000B6
:102C1E0000000000000000000000000000000000A6
:102C2E000000000000000000000000000000000096
:102C3E000000000000000000000000000000000086
:102C4E000000000000000000000000000000000076
:102C5E000000000000000000000004054F01940475
:102C6E004A05C504A304B7040200C0F9A4B09992A2
:102C7E0082F88090585844543D00696E69744858E3
:102C8E003731313A0057656C636F6D6520746F2074
:102C9E0075736521004D6F64653A30004D6F646544
:102CAE003A31004D6F64653A32004D6F64653A33C8
:102CBE0000206B670A0020670A002A2A2A2A2A2A7D
:102CCE002A2A2A2A2A2A2A2A2A2A2A2A2A2A2A2A56
:102CDE0000424547494E20544350434F4E4E002B21
:102CEE002B2B0041542B544350434C49434F4E4ED3
:102CFE003D3139322E3136382E322E3139333A3883
:102D0E003038300041542B45584954002354435019
:102D1E004F4B3F000D0A005443504F4B006E616EF7
:102D2E0000696E66006F7666004E554D3D003B4461
:102D3E00543D003B53434B3D0048583731315F44BF
:0A2D4E0054203D205452554500006A
:020000023000CC
:10E000000D9489F10D94B2F10D94B2F10D94B2F129
:10E010000D94B2F10D94B2F10D94B2F10D94B2F1F0
:10E020000D94B2F10D94B2F10D94B2F10D94B2F1E0
:10E030000D94B2F10D94B2F10D94B2F10D94B2F1D0
:10E040000D94B2F10D94B2F10D94B2F10D94B2F1C0
:10E050000D94B2F10D94B2F10D94B2F10D94B2F1B0
:10E060000D94B2F10D94B2F10D94B2F10D94B2F1A0
:10E070000D94B2F10D94B2F10D94B2F10D94B2F190
:10E080000D94B2F10D94B2F10D94B2F10D94B2F180
:10E090000D94B2F10D94B2F10D94B2F10D94B2F170
:10E0A0000D94B2F10D94B2F10D94B2F10D94B2F160
:10E0B0000D94B2F10D94B2F10D94B2F10D94B2F150
:10E0C0000D94B2F10D94B2F10D94B2F10D94B2F140
:10E0D0000D94B2F10D94B2F10D94B2F10D94B2F130
:10E0E0000D94B2F141546D656761323536300041AF
:10E0F000726475696E6F206578706C6F72657220DE
:10E1000073746B3530305632206279204D4C530099
:10E11000426F6F746C6F616465723E004875683F52
:10E1200000436F6D70696C6564206F6E203D200048
:10E130004350552054797065202020203D20005FF9
:10E140005F4156525F415243485F5F3D2000415658
:10E1500052204C696243205665723D20004743437C
:10E160002056657273696F6E203D20004350552024
:10E1700049442020202020203D20004C6F7720663D
:10E18000757365202020203D20004869676820665F
:10E190007573652020203D200045787420667573D6
:10E1A00065202020203D20004C6F636B2066757336
:10E1B000652020203D20004D617220203720323024
:10E1C000313300312E362E3800342E332E350056A2
:10E1D00023202020414444522020206F7020636F70
:10E1E00064652020202020696E73747275637469E1
:10E1F0006F6E2061646472202020496E74657272B3
:10E20000757074006E6F20766563746F7200726A49
:10E210006D702020006A6D70200057686174207056
:10E220006F72743A00506F7274206E6F7420737541
:10E2300070706F72746564004D7573742062652030
:10E2400061206C6574746572002000577269747483
:10E25000696E672045450052656164696E672045B7
:10E26000450045452065727220636E743D00504F35
:10E27000525400303D5A65726F2061646472003FF1
:10E280003D43505520737461747300403D454550C3
:10E29000524F4D207465737400423D426C696E6B41
:10E2A000204C454400453D44756D70204545505215
:10E2B0004F4D00463D44756D7020464C415348001B
:10E2C000483D48656C70004C3D4C69737420492F83
:10E2D0004F20506F72747300513D51756974005234
:10E2E0003D44756D702052414D00563D73686F7707
:10E2F00020696E7465727275707420566563746FF0
:10E30000727300593D506F727420626C696E6B00BD
:10E310002A0011241FBECFEFD1E2DEBFCDBF01E046
:10E320000CBF12E0A0E0B2E0EEE1FDEF03E00BBFB6
:10E3300002C007900D92A030B107D9F712E0A0E01B
:10E34000B2E001C01D92AE30B107E1F70F9460F367
:10E350000D948DFE01E20EBF0FEF0DBF11241FBE05
:10E360000D9460F30D9400F020E030E040ED57E0B4
:10E3700005C0FA013197F1F72F5F3F4F2817390792
:10E38000C0F308959C01260F311DC901A0E0B0E043
:10E390002F5F3F4FABBFFC018791882361F08093D3
:10E3A000C6008091C00086FFFCCF8091C0008064D1
:10E3B0008093C000EACF08958DE08093C6008091DD
:10E3C000C00086FFFCCF8091C00080648093C000B5
:10E3D0008AE08093C6008091C00086FFFCCF8091C8
:10E3E000C00080648093C00008950F94C2F10F9420
:10E3F000DCF10895FC019081992359F09093C600B7
:10E400008091C00086FFFCCF8091C0008064809323
:10E41000C0003196992379F70895282F982F929567
:10E420009F70892F805D8A3308F0895F8093C600D2
:10E430008091C00086FFFCCF8091C00080648093F3
:10E44000C000822F8F70982F905D9A3308F0995FEB
:10E450009093C6008091C00086FFFCCF8091C000E1
:10E4600080648093C00008959C01FB01853691056E
:10E470001CF46330710594F0C90164E670E00F94F8
:10E480002EFE605D7F4F6093C6008091C00086FFC6
:10E49000FCCF8091C00080648093C0002B30310598
:10E4A00014F43297B4F0C90164E670E00F942EFEC4
:10E4B0006AE070E00F942EFE605D7F4F6093C600AF
:10E4C0008091C00086FFFCCF8091C0008064809363
:10E4D000C000C9016AE070E00F942EFEC0968093E0
:10E4E000C6008091C00086FFFCCF8091C000806490
:10E4F0008093C00008951F93182F8EE692EE60E07F
:10E500000F94C2F11093C6008091C00086FFFCCF2B
:10E510008091C00080648093C0000F94DCF11F9153
:10E5200008952F923F924F925F926F927F928F92B7
:10E530009F92AF92BF92CF92DF92EF92FF920F9392
:10E540001F93DF93CF93CDB7DEB762970FB6F894E2
:10E55000DEBF0FBECDBF382E622ECA01DB015C01CB
:10E560006D01772420E2222E2E010894411C511CBB
:10E570008BC081E0A81680E0B80681E0C80680E084
:10E58000D80628F0C601AA27BB270F940DF2BB2797
:10E59000AD2D9C2D8B2D0F940DF28A2D0F940DF225
:10E5A0002092C6008091C00086FFFCCF8091C00001
:10E5B00080648093C0009DE29093C6008091C0006B
:10E5C00086FFFCCF8091C00080648093C0002092C1
:10E5D000C6008091C00086FFFCCF8091C00080649F
:10E5E0008093C00019828601750188249924A1E0D6
:10E5F0003A1651F03A1620F0B2E03B1661F409C029
:10E600000BBFF701779007C0C7010F9477FE782EF4
:10E6100002C0F7017080872D0F940DF22092C60082
:10E620008091C00086FFFCCF8091C0008064809301
:10E63000C000872D8052F401EF70F0708F3520F408
:10E64000E40DF51D708204C0E40DF51D8EE280839B
:10E650000894E11CF11C011D111D0894811C911CE2
:10E6600090E18916910409F0C2CF80E190E0A0E02A
:10E67000B0E0A80EB91ECA1EDB1E198AC2010F9493
:10E68000FAF10F94DCF16A94662009F072CF629679
:10E690000FB6F894DEBF0FBECDBFCF91DF911F91B3
:10E6A0000F91FF90EF90DF90CF90BF90AF909F9031
:10E6B0008F907F906F905F904F903F902F90089534
:10E6C0002F923F924F925F926F927F928F929F9282
:10E6D000AF92BF92CF92DF92EF92FF920F931F9370
:10E6E000DF93CF93CDB7DEB7CD53D1400FB6F894BB
:10E6F000DEBF0FBECDBF01E20EBF0FEF0DBF94B75F
:10E70000F894A89514BE80916000886180936000A1
:10E7100010926000789493FF05C0E0910002F091A0
:10E7200001021995279A2F9A8091C00082608093E8
:10E73000C00080E18093C40088E18093C1000000A4
:10E74000EE24FF24870144E0A42EB12CCC24DD2448
:10E7500024C0C5010197F1F70894E11CF11C011DCB
:10E76000111D21E2E2162EE4F20620E0020720E06D
:10E77000120718F031E0C32ED12CC801B70127ECE5
:10E780003BE140E050E00F9441FE611571058105C9
:10E79000910519F485B1805885B98091C00087FD35
:10E7A00003C0C114D104A9F2A6014F5F5F4FC25E3E
:10E7B000DE4F59834883CE51D140C25EDE4F8881FF
:10E7C0009981CE51D140019711F00D9410FEC05D9A
:10E7D000DE4F19821882C053D14060E0C15DDE4F28
:10E7E0001882CF52D14088249924C35DDE4F19820C
:10E7F0001882CD52D140C05EDE4F188219821A8233
:10E800001B82C052D140CE5CDE4F188219821A8220
:10E810001B82C253D140EE24FF2487010BBFF701B6
:10E8200007911691C45CDE4F19830883CC53D14005
:10E830000D940BFEC25EDE4F28813981CE51D1404E
:10E840002130310509F52091C600C25EDE4F1982E4
:10E850001882CE51D14022C02F5F3F4F4F4F5F4FA4
:10E86000213082E138078AE7480780E0580780F0C6
:10E87000C45CDE4FE881F981CC53D140EF5FFF4F9C
:10E8800019F0EE27FF27099420E030E040E050E047
:10E890008091C00087FFE0CF2091C600C35DDE4FAE
:10E8A00048815981CD52D1404F5F5F4FC35DDE4FEC
:10E8B00059834883CD52D140213209F063C64A3092
:10E8C000510508F05FC60894811C911C53E0851621
:10E8D000910409F059C600E010E018C081E280936D
:10E8E000C6008091C00086FFFCCF8091C00080648C
:10E8F0008093C0002F5F3F4F2931310579F70F9486
:10E90000DCF10F5F1F4F0530110519F020E030E0FA
:10E91000E5CF10920A0210920B0210920C02109294
:10E920000D02109206021092070210920802109235
:10E930000902109202021092030210920402109235
:10E9400005028FEE90EE60E00F94F5F180E191EE1C
:10E9500060E00F94C2F18091C00087FFFCCF9091DE
:10E96000C600903608F09F759032B8F09093C600BC
:10E970008091C00086FFFCCF8091C00080648093AE
:10E98000C000A0E2A093C6008091C00086FFFCCF2B
:10E990008091C00080648093C000983409F4D7C18E
:10E9A0009934B8F4923409F459C1933458F490333B
:10E9B00019F1903308F4E3C59F33A1F1903409F0C5
:10E9C000DEC5BDC0953409F470C1963409F0D7C5D1
:10E9D00098C1923509F42BC2933538F49C3409F46C
:10E9E000F5C1913509F0CBC518C2963509F445C279
:10E9F000993509F0C4C567C483E792EE62E00F94CD
:10EA0000F5F110920602109207021092080210927D
:10EA1000090210920A0210920B0210920C0210923C
:10EA20000D0213C18FE792EE62E00F94F5F18FEEC5
:10EA300090EE60E00F94F5F181E291EE60E00F94CA
:10EA4000C2F187EB91EE60E00F94F5F180E391EE77
:10EA500060E00F94C2F184EE90EE60E00F94F5F167
:10EA60008FE391EE60E00F94C2F186E090E061E008
:10EA700070E00F9434F20F94DCF18DE591EE60E0DC
:10EA80000F94C2F189EC91EE60E00F94F5F18EE401
:10EA900091EE60E00F94C2F183EC91EE60E00F9490
:10EAA000F5F18CE691EE60E00F94C2F18EE10F94E7
:10EAB0000DF288E90F940DF281E00F940DF20F949E
:10EAC000DCF18BE791EE60E00F94C2F119E0E0E039
:10EAD000F0E010935700E4918E2F0F940DF20F94F5
:10EAE000DCF18AE891EE60E00F94C2F1E3E0F0E03F
:10EAF00010935700E4918E2F0F940DF20F94DCF1D8
:10EB000089E991EE60E00F94C2F1E2E0F0E0109349
:10EB10005700E4918E2F0F940DF20F94DCF188EAE8
:10EB200091EE60E00F94C2F1E1E0F0E01093570045
:10EB30001491812F0F940DF20F94DCF107CF8BE825
:10EB400092EE62E00F94F5F18BE492EE60E00F94A8
:10EB5000F5F10F94DCF100E010E019C0C8016F2D51
:10EB60000F947FFEFF2031F489E492EE60E00F9471
:10EB7000C2F10BC0F092C6008091C00086FFFCCFAE
:10EB80008091C00080648093C0000F5F1F4FC80158
:10EB900081519F41A0E0B0E0ABBFFC01F790BAE229
:10EBA000FB1621F0E2E000301E07C1F60F94DCF105
:10EBB0000F94DCF187E592EE60E00F94F5F10F948D
:10EBC000DCF1CC24DD2400E010E01EC0C8010F946D
:10EBD00077FEF82E882331F489E492EE60E00F94FA
:10EBE000C2F10BC08093C6008091C00086FFFCCFAD
:10EBF0008091C00080648093C000FE1419F00894D6
:10EC0000C11CD11C0F5F1F4FC80181519F41A0E063
:10EC1000B0E0ABBFFC01E790FAE2EF1621F022E092
:10EC20000030120799F60F94DCF10F94DCF182E6C4
:10EC300092EE60E00F94C2F1C60161E070E00F94C3
:10EC400034F20F94DCF10F94DCF110920202109276
:10EC50000302109204021092050278CE89E992EE26
:10EC600062E00F94F5F1279A2F9A16C02F9880E052
:10EC700090E0E0EDF7E03197F1F7019684369105E9
:10EC8000C1F72F9A80E090E0E0EDF7E03197F1F7DF
:10EC9000019684369105C1F78091C00087FFE6CFC9
:10ECA0008091C00087FFFCCF64C485EA92EE62E0E9
:10ECB0000F94F5F140910202509103026091040219
:10ECC0007091050281E020E10F9491F2809102029F
:10ECD00090910302A0910402B091050280509F4FD1
:10ECE000AF4FBF4F8093020290930302A0930402A0
:10ECF000B093050280509041A040B04008F426CE69
:10ED0000A4CF83EB92EE62E00F94F5F140910602FE
:10ED100050910702609108027091090280E020E1A1
:10ED20000F9491F28091060290910702A09108023F
:10ED3000B091090280509F4FAF4FBF4F80930602A2
:10ED400090930702A0930802B0930902FFCD80ECD4
:10ED500092EE62E00F94F5F183E792EE60E00F949B
:10ED6000F5F18FE792EE60E00F94F5F18BE892EE0B
:10ED700060E00F94F5F189E992EE60E00F94F5F10F
:10ED800085EA92EE60E00F94F5F183EB92EE60E09D
:10ED90000F94F5F180EC92EE60E00F94F5F187ECC2
:10EDA00092EE60E00F94F5F188ED92EE60E00F9442
:10EDB000F5F18FED92EE60E00F94F5F18AEE92EEB0
:10EDC00060E00F94F5F183E093EEBDCD87EC92EE19
:10EDD00062E00F94F5F181E40F947BF282E40F94EA
:10EDE0007BF283E40F947BF284E40F947BF285E45E
:10EDF0000F947BF286E40F947BF287E40F947BF20E
:10EE000088E40F947BF28AE40F947BF28BE40F94F6
:10EE10007BF28CE40F947BF299CD88ED92EE62E068
:10EE20000F94F5F1772473948824992409C48FED05
:10EE300092EE62E00F94F5F140910A0250910B02BC
:10EE400060910C0270910D0282E020E10F9491F22A
:10EE500080910A0290910B02A0910C02B0910D02D8
:10EE600080509F4FAF4FBF4F80930A0290930B0289
:10EE7000A0930C02B0930D0269CD8AEE92EE62E08F
:10EE80000F94F5F184EE90EE60E00F94F5F18FECC5
:10EE900091EE60E00F94F5F1662477244301CC5D98
:10EEA000DE4F19821882C452D140D401C301B695F5
:10EEB000A79597958795CA5DDE4F88839983AA8326
:10EEC000BB83C652D140CC5DDE4FA881B981C4520C
:10EED000D1401196CC5DDE4FB983A883C452D14096
:10EEE000CD0162E070E00F9434F2B0E2B093C6005E
:10EEF0008091C00086FFFCCF8091C0008064809329
:10EF0000C000EDE2E093C6008091C00086FFFCCF18
:10EF10008091C00080648093C000F0E2F093C6004E
:10EF20008091C00086FFFCCF8091C00080648093F8
:10EF3000C000CA5DDE4FE880F9800A811B81C6529D
:10EF4000D140BB27A12F902F8F2D0F940DF2CA5DBA
:10EF5000DE4F8881C652D1400F940DF2B0E2FB2EF5
:10EF6000F092C6008091C00086FFFCCF8091C00067
:10EF700080648093C0000DE30093C6008091C000C0
:10EF800086FFFCCF8091C00080648093C00010E2B7
:10EF90001093C6008091C00086FFFCCF8091C00016
:10EFA00080648093C0008BBEF3012791C65DDE4F65
:10EFB0002883CA52D140A22EBB24CC24DD2408943D
:10EFC000611C711C811C911C8BBEF3018791282E42
:10EFD0003324442455240894611C711C811C911C09
:10EFE0008BBEF3013791C55DDE4F3883CB52D140E4
:10EFF0000894611C711C811C911C8BBEF30147910C
:10F00000C45DDE4F4883CC52D140ADEFEA2EAFEF66
:10F01000FA2EAFEF0A2FAFEF1A2F6E0C7F1C801E57
:10F02000911E142D032DF22CEE24EA0CFB1C0C1D5A
:10F030001D1D0F940DF220E22093C6008091C000A8
:10F0400086FFFCCF8091C00080648093C000C65DC5
:10F05000DE4F8881CA52D1400F940DF230E23093D6
:10F06000C6008091C00086FFFCCF8091C000806404
:10F070008093C000C45DDE4F8881CC52D1400F9494
:10F080000DF240E24093C6008091C00086FFFCCFA5
:10F090008091C00080648093C000C55DDE4F888190
:10F0A000CB52D1400F940DF250E25093C6008091A4
:10F0B000C00086FFFCCF8091C00080648093C000B8
:10F0C0008FEFE8168FEFF80680E0080780E018075A
:10F0D00031F484E092EE60E00F94C2F1DFC0D80119
:10F0E000C7018070907CA070B0708050904CA040A0
:10F0F000B040D1F52FEF3FE340E050E0E222F322B1
:10F1000004231523CA5DDE4FA880B980CA80DB8046
:10F11000C652D140AE0CBF1CC01ED11EAA0CBB1CD7
:10F12000CC1CDD1C8EE092EE60E00F94C2F1BB2798
:10F13000A12F902F8F2D0F940DF28E2D0F940DF285
:10F1400030E23093C6008091C00086FFFCCF8091F2
:10F15000C00080648093C0004EE34093C60080915D
:10F16000C00086FFFCCF87C08EE09EEFA0E0B0E03D
:10F17000E822F9220A231B239CE0E91694E9F90608
:10F1800090E0090790E0190709F088C0C45DDE4FE0
:10F19000A881CC52D140EA2EFF2400E010E0102FCD
:10F1A0000F2DFE2CEE24C55DDE4FB881CB52D14031
:10F1B000EB0EF11C011D111DD601C501817090706F
:10F1C000A070B070DC0199278827E80EF91E0A1F8D
:10F1D0001B1F20EF30E040E050E0A222B322C42207
:10F1E000D52241E1AA0CBB1CCC1CDD1C4A95D1F7F1
:10F1F000EA0CFB1C0C1D1D1D81E090E0A0E0B0E0BE
:10F20000282239224A225B2235E1220C331C441C7D
:10F21000551C3A95D1F7E20CF31C041D151D57013E
:10F220006801AA0CBB1CCC1CDD1C85E192EE60E0E1
:10F230000F94C2F1C801AA27BB270F940DF2BB2778
:10F24000A12F902F8F2D0F940DF28E2D0F940DF274
:10F2500090E29093C6008091C00086FFFCCF809121
:10F26000C00080648093C000AEE3A093C60080918C
:10F27000C00086FFFCCF8091C00080648093C000F6
:10F28000C601AA27BB270F940DF2BB27AD2D9C2DDD
:10F290008B2D0F940DF28A2D0F940DF20F94DCF14B
:10F2A000CC5DDE4FE881F981C452D140F99709F471
:10F2B0004DCBF4E0EF2EF12C012D112D6E0C7F1CA7
:10F2C000801E911EF2CD83E093EE62E00F94F5F183
:10F2D0008AE192EE60E00F94C2F18091C00087FF56
:10F2E000FCCF1091C6001F751093C6008091C0001E
:10F2F00086FFFCCF8091C00080648093C0000F9493
:10F30000DCF1812F81548A3108F036C1163409F4BA
:10F3100095C0173490F4133409F44EC0143430F40B
:10F320001134F1F0123409F01DC130C0143409F465
:10F3300059C0153409F016C16BC01A3409F4C4C0A1
:10F340001B3438F4173409F48FC0183409F00AC19B
:10F35000A1C01B3409F4D2C01C3409F003C1E8C0B9
:10F360008FEF81B90DC082B1809582B980E090E0C5
:10F37000E0EDF7E03197F1F70196883C9105C1F790
:10F380008091C00087FFEFCF12B8EFC08FEF84B934
:10F390000DC085B1809585B980E090E0E0EDF7E0A3
:10F3A0003197F1F70196883C9105C1F78091C00033
:10F3B00087FFEFCF15B8D9C08FEF87B90DC088B1DF
:10F3C000809588B980E090E0E0EDF7E03197F1F7C3
:10F3D0000196883C9105C1F78091C00087FFEFCF6F
:10F3E00018B8C3C08FEF8AB90DC08BB180958BB9A7
:10F3F00080E090E0E0EDF7E03197F1F70196883C8E
:10F400009105C1F78091C00087FFEFCF1BB8ADC059
:10F410008FEF8DB90DC08EB180958EB980E090E0F0
:10F42000E0EDF7E03197F1F70196883C9105C1F7DF
:10F430008091C00087FFEFCF1EB897C08FEF80BBD1
:10F440000DC081B3809581BB80E090E0E0EDF7E0F6
:10F450003197F1F70196883C9105C1F78091C00082
:10F4600087FFEFCF11BA81C08FEF83BB0DC084B38C
:10F47000809584BB80E090E0E0EDF7E03197F1F714
:10F480000196883C9105C1F78091C00087FFEFCFBE
:10F4900014BA6BC08FEF809301010FC080910201FD
:10F4A00080958093020180E090E0E0EDF7E03197F5
:10F4B000F1F70196883C9105C1F78091C00087FF64
:10F4C000EDCF1092020151C08FEF809304010FC065
:10F4D0008091050180958093050180E090E0E0ED4A
:10F4E000F7E03197F1F70196883C9105C1F78091DB
:10F4F000C00087FFEDCF1092050137C08FEF8093DA
:10F5000007010FC08091080180958093080180E079
:10F5100090E0E0EDF7E03197F1F70196883C910536
:10F52000C1F78091C00087FFEDCF109208011DC088
:10F530008FEF80930A010FC080910B01809580931B
:10F540000B0180E090E0E0EDF7E03197F1F70196F4
:10F55000883C9105C1F78091C00087FFEDCF1092E4
:10F560000B0103C085E292EEEEC98091C00087FFD7
:10F57000FCCF8091C600EAC988E392EEE4C98CE131
:10F5800091EEE1C988249924933011F1943028F444
:10F59000913089F09230B8F408C0953061F195301F
:10F5A000F0F0963009F048C043C02B3109F042C951
:10F5B00091E06BE13FC96227C15DDE4F2883CF52E6
:10F5C000D14092E037C9B22FA0E0622793E032C960
:10F5D000822F90E0A82BB92B622794E02BC92E3004
:10F5E00009F039C3622795E0C05DDE4F19821882A9
:10F5F000C053D1401FC9E1E0F0E0EC0FFD1FC05D3A
:10F60000DE4F08811981C053D140E00FF11F2083E4
:10F610000F5F1F4FC05DDE4F19830883C053D14079
:10F6200062270A171B0709F005C9D80196E002C92D
:10F63000261709F010C303C0973009F0FBC87724E0
:10F640009981933109F412C19431C8F4963009F4C8
:10F65000D8C0973050F4923009F406C1933009F4C1
:10F660006DC0913009F059C253C0913109F477C08F
:10F67000923108F0BBC0903109F04FC2F5C098310B
:10F6800009F487C0993150F4953109F4EFC09531F0
:10F6900008F4C6C1963109F040C2C2C19A3109F4DA
:10F6A0006CC09A3108F491C09B3109F45BC09D3164
:10F6B00009F033C29D81903359F48F81882311F46E
:10F6C0009EE11CC0813011F091E018C098E916C08D
:10F6D000892F807591F0903539F4E0E0F0E089E011
:10F6E0008093570094910AC0983539F4E3E0F0E034
:10F6F00089E080935700949101C090E01A821B82A8
:10F700008D818C831D829E831F8227E030E009C299
:10F710001A8288E08B8381E48C8386E58D8382E581
:10F720008E8389E48F8383E5888780E589878FE5E9
:10F730008A8782E38B872BE030E0F3C18A818139AD
:10F7400041F0823941F0803911F48FE005C080E04A
:10F7500003C082E001C08AE01A828B8344C0772410
:10F76000739482C08D81882311F48EE12CC0813086
:10F7700011F081E028C088E926C01A82E1E0F0E0BB
:10F7800089E08093570084918B831C8224E030E0D1
:10F79000C8C18B81803589F48C81883039F4E2E0EE
:10F7A000F0E089E08093570084910DC0E0E0F0E044
:10F7B00089E080935700849106C0E3E0F0E089E09F
:10F7C0008093570084911A82DFCF8D81836C99E0FA
:10F7D000E1E0F0E0082E90935700E89507B600FCB2
:10F7E000FDCF1A821B8223E030E09BC180EC8A832C
:10F7F000CE5CDE4F188219821A821B82C253D1401E
:10F800008EC18A8190E0A0E0B0E0582F44273327D2
:10F8100022278B8190E0A0E0B0E0DC0199278827C7
:10F82000282B392B4A2B5B2B8D8190E0A0E0B0E098
:10F83000282B392B4A2B5B2B8C8190E0A0E0B0E089
:10F84000BA2FA92F982F8827282B392B4A2B5B2BCF
:10F85000220F331F441F551FC05EDE4F288339839C
:10F860004A835B83C052D1401A8259C13A81C95C34
:10F87000DE4F3883C753D140CA5CDE4F1882C6536F
:10F88000D1408B81C82EDD24CA5CDE4F488159816E
:10F89000C653D140C42AD52A933109F082C0CE5C28
:10F8A000DE4F88819981AA81BB81C253D1408050AB
:10F8B000904CA340B04030F583E0CE5CDE4FE88052
:10F8C000F9800A811B81C253D140F70100935B008C
:10F8D00080935700E89507B600FCFDCFCE5CDE4F65
:10F8E000088119812A813B81C253D14000501F4FAA
:10F8F0002F4F3F4FCE5CDE4F088319832A833B8313
:10F90000C253D140C05EDE4F488159816A817B81FC
:10F91000C052D140DE011B9631E08C9111962C91A2
:10F9200011971296C75CDE4F2883C953D140C85C3B
:10F93000DE4F1882C853D14090E0C85CDE4FE881AA
:10F94000F981C853D1408E2B9F2B0C01FA01609393
:10F950005B0030935700E89511244E5F5F4F6F4F67
:10F960007F4F0EEFE02E0FEFF02ECE0CDF1CC114F8
:10F97000D10499F685E0C05EDE4F088119812A81A5
:10F980003B81C052D140F80120935B008093570027
:10F99000E89507B600FCFDCF81E180935700E8951C
:10F9A00035C0C05EDE4F88819981AA81BB81C0527B
:10F9B000D140B695A795979587957C018601ABE0D8
:10F9C000AA2EB12CAC0EBD1E0BC0D5016D915D01F0
:10F9D000C7010F947FFE0894E11CF11C01501040F8
:10F9E0000115110591F7A60160E070E0440F551F65
:10F9F000661F771FC05EDE4FE880F9800A811B8199
:10FA0000C052D1404E0D5F1D601F711F1A82C05E33
:10FA1000DE4F488359836A837B83C052D1407FC0C5
:10FA2000FA80C55CDE4FF882CB53D140C65CDE4F16
:10FA30001882CA53D1408B81C82EDD24C65CDE4FAC
:10FA400008811981CA53D140C02AD12A1A828981DA
:10FA5000BE016D5F7F4F843121F59601C05EDE4FA0
:10FA6000E880F9800A811B81C052D1400BBFF701A9
:10FA700087919691DB018C9311969C936E5F7F4FDB
:10FA8000D801C7010296A11DB11DC05EDE4F88835B
:10FA90009983AA83BB83C052D14022503040F1F6F3
:10FAA00036C0C05EDE4F288139814A815B81C052F9
:10FAB000D1400894C108D108760100E010E0089414
:10FAC000C11CD11C0894E11CF11C011D111DE20E8A
:10FAD000F31E041F151F21BDBB27A52F942F832FB5
:10FAE00082BD2F5F3F4F4F4F5F4FF89A80B5DB01CC
:10FAF0008D93BD012E153F054007510761F7C05E8C
:10FB0000DE4F288339834A835B83C052D1409601FC
:10FB10002D5F3F4FFB01108204C080EC8A8322E0FE
:10FB200030E08BE18093C6008091C00086FFFCCF5F
:10FB30008091C00080648093C000C15DDE4FF88179
:10FB4000CF52D140F093C6008091C00086FFFCCF19
:10FB50008091C00080648093C000432F3093C60022
:10FB60008091C00086FFFCCF8091C00080648093AC
:10FB7000C000922F2093C6008091C00086FFFCCF6A
:10FB80008091C00080648093C0008EE08093C600A6
:10FB90008091C00086FFFCCF8091C000806480937C
:10FBA000C00065E1C15DDE4FE880CF52D1406E25D7
:10FBB00069276427FE01319610C090819093C6009A
:10FBC0008091C00086FFFCCF31968091C000806498
:10FBD0008093C0006927215030402115310569F715
:10FBE0006093C6008091C00086FFFCCF8091C0006A
:10FBF00080648093C00085B1805885B9772081F4F6
:10FC0000C15DDE4F0881CF52D1400F5FC15DDE4F35
:10FC10000883CF52D14090E0A0E0B0E00D941AF4F8
:10FC200027982F9880E090E020ED37E0F901319798
:10FC3000F1F7019684369105C9F700008091C00064
:10FC40008D7F8093C00081E180935700E895EE2777
:10FC5000FF270994FFCF90E00D941AF497FB092E2B
:10FC600007260AD077FD04D02ED006D000201AF443
:10FC7000709561957F4F0895F6F7909581959F4F08
:10FC80000895A1E21A2EAA1BBB1BFD010DC0AA1FDD
:10FC9000BB1FEE1FFF1FA217B307E407F50720F0F5
:10FCA000A21BB30BE40BF50B661F771F881F991F70
:10FCB0001A9469F760957095809590959B01AC01B9
:10FCC000BD01CF010895AA1BBB1B51E107C0AA1FAC
:10FCD000BB1FA617B70710F0A61BB70B881F991FED
:10FCE0005A95A9F780959095BC01CD010895F99991
:10FCF000FECF92BD81BDF89A992780B50895262F31
:10FD0000F999FECF1FBA92BD81BD20BD0FB6F89400
:0EFD1000FA9AF99A0FBE01960895F894FFCF63
:040000033000E000E9
:00000001FF