:1000000092C10000C0C10000BEC10000BCC1000020
:10001000BAC10000B8C10000B6C10000B4C1000000
:10002000B2C10000B0C10000AEC10000ACC1000010
:10003000AAC1000004C50000A6C10000A4C10000C0
:10004000A2C10000A0C100009EC100009CC1000030
:100050009AC1000098C1000096C10000A6C400002B
:1000600092C10000D6C30000ABC300008CC10000E9
:100070008AC1000088C1000086C1000084C1000060
:1000800082C1000080C100007EC100007CC1000070
:100090006EC3000043C3000076C1000074C10000BD
:1000A00072C1000070C100006EC100006CC1000090
:1000B0006AC1000068C1000066C1000064C10000A0
:1000C00062C1000060C100005EC100005CC10000B0
:1000D0005AC1000058C1000056C1000054C10000C0
:1000E00052C1000006030903F802FC0202034003A8
:1000F0000D03110317031B031F03250329032D03FE
:100100004003330337033B0300407A10F35A00A047
:10011000724E18090010A5D4E80000E876481700D0
:1001200000E40B54020000CA9A3B000000E1F50510
:10013000000080969800000040420F000000A0865A
:1001400001000000102700000000E803000000008C
:100150006400000000000A00000000000100000030
:1001600000002C76D888DC674F0823DFC1DFAE594A
:10017000E1B1B796E5E3E453C63AE651997696E8DD
:10018000E6C28426EB898C9B62ED407C6FFCEFBC61
:100190009C9F40F2BAA56FA5F490055A2AF75C938C
:1001A0006B6CF9676DC11BFCE0E40D47FEF520E6C2
:1001B000B500D0ED902E0300943577050080841EA5
:1001C000080000204E0A000000C80C333333330F00
:1001D000986E12831141EF8D2114893BE65516CF9D
:1001E000FEE6DB18D1844B381BF77C1D901DA4BBA9
:1001F000E424203284725E228100C9F124ECA1E55E
:100200003D2700002100240027002A002D00300097
:10021000330001010000040107010A01000022006F
:10022000250028002B002E003100340002010000C0
:10023000050108010B010000200023002600290011
:100240002C002F003200000100000301060109010B
:1002500005050505070508080808020202020A0A42
:100260000808040404040101010101010101030360
:10027000030303030303040707070C0C0C0C0C0C0B
:100280000C0C0202020206060606060606060B0B08
:100290000B0B0B0B0B0B0102102020080810204049
:1002A000102040800201020108040201010204083A
:1002B00010204080804020100804020180040201C8
:1002C0008040201008040201080402010102040811
:1002D00010204080010204081020408000000A0B1A
:1002E00002090C0D0E0807030401000000000000C5
:1002F00000000000000000000000000000000000FE
:1003000000000000000000001211100000000000BA
:1003100000000000000000000000000000000000DD
:1003200000007C10771011241FBECFEFD1E2DEBF9A
:10033000CDBF00E00CBF26E0A8E3B4E001C01D92F1
:10034000AB36B207E1F714E0A0E0B2E0E2E3F1E39C
:1003500000E00BBF02C007900D92A833B107D9F798
:1003600011E0C2E9D1E000E006C021970109802F29
:10037000FE010E941B16C139D10780E00807A9F7CA
:1003800012D70C9488183CCEFC01A089B1898C91BD
:10039000A689B78982FD0FC09C91818D8F5F8F7375
:1003A000228D821749F0218DDF01A20FB11D5D96CC
:1003B0009C93818F08958C910895089580E090E03A
:1003C0000895FC01538D448D252F30E0842F90E05B
:1003D000821B930B541710F0CF9608950197089540
:1003E000FC01918D828D981761F0828DDF01A80F3D
:1003F000B11D5D968C91928D9F5F9F73928F90E05F
:1004000008958FEF9FEF0895FC01918D828D9817CD
:1004100031F0828DE80FF11D858D90E008958FEF0A
:100420009FEF0895FC01918D228D892F90E0805CD3
:100430009F4F821B91098F739927089588E594E057
:10044000F1DF21E0892B09F420E0822F089585EF68
:1004500094E0E8DF21E0892B09F420E0822F089561
:10046000FC01848DDF01A80FB11DA35ABF4F2C9151
:10047000848D90E001968F739927848FA689B78920
:100480002C93A089B1898C9180648C93938D848DF9
:10049000981306C00288F389E02D80818F7D8083C8
:1004A0000895EF92FF920F931F93CF93DF93EC0188
:1004B00081E0888F9B8D8C8D981305C0E889F98920
:1004C000808185FD23C0F62E0B8D10E00F5F1F4F3E
:1004D0000F731127E02E8C8DE8120BC00FB607FCAE
:1004E000FACFE889F989808185FFF5CFCE01B8DFA1
:1004F000F2CF8B8DFE01E80FF11DE35AFF4FF08222
:100500000B8FEA89FB898081806207C0EE89FF89B1
:100510006083E889F98980818064808381E090E04C
:10052000DF91CF911F910F91FF90EF900895CF939E
:10053000DF93EC01888D8823C1F0EA89FB898081F3
:1005400085FD05C0A889B9898C9186FD0EC00FB6BE
:1005500007FCF5CF808185FFF2CFA889B9898C91FE
:1005600085FFEDCFCE017CDFE8CFDF91CF910895FD
:1005700080E090E0892B19F06ADF811120C080E0D3
:1005800090E0892B19F05ADF81111CC080E090E0C7
:10059000892B41F080E090E0892B21F00E9400003F
:1005A000811113C080E090E0892BA1F080E090E001
:1005B000892B81F00E94000081110AC008950E94D9
:1005C0000000DDCF0E940000E1CF0E940000EACFD2
:1005D0000C940000089590E0FC013197E231F105A0
:1005E00008F04EC08827EE58FF4F8F4F0C941B1613
:1005F000809180008F7703C0809180008F7D8093F1
:100600008000089580918000877FF9CF84B58F772F
:1006100002C084B58F7D84BD08958091B0008F772E
:1006200003C08091B0008F7D8093B00008958091C9
:1006300090008F7707C0809190008F7D03C08091DC
:100640009000877F8093900008958091A0008F771D
:1006500007C08091A0008F7D03C08091A000877F9C
:100660008093A0000895809120018F7707C080912A
:1006700020018F7D03C080912001877F809320011E
:100680000895CF93DF93282F30E0F901E452FD4F16
:100690008491F901EA56FD4FD491F901E05BFD4FD9
:1006A000C491CC2389F0811196DFEC2FF0E0EE0F9E
:1006B000FF1FEA5CFD4FA591B491EC91ED2381E021
:1006C00090E021F480E002C080E090E0DF91CF91E3
:1006D00008953FB7F8948091460490914704A09103
:1006E0004804B091490426B5A89B05C02F3F19F0D6
:1006F0000196A11DB11D3FBFBA2FA92F982F8827A2
:10070000820F911DA11DB11DBC01CD0142E0660FFC
:10071000771F881F991F4A95D1F708951F920F924E
:100720000FB60F9211240BB60F922F933F934F9356
:100730005F936F937F938F939F93AF93BF93EF9349
:10074000FF9388E594E08CDEFF91EF91BF91AF912C
:100750009F918F917F916F915F914F913F912F91D9
:100760000F900BBE0F900FBE0F901F9018951F9209
:100770000F920FB60F9211240BB60F922F933F9347
:100780004F935F936F937F938F939F93AF93BF9399
:10079000EF93FF9388E594E0F7DDFF91EF91BF9130
:1007A000AF919F918F917F916F915F914F913F9109
:1007B0002F910F900BBE0F900FBE0F901F901895AA
:1007C0001F920F920FB60F9211240BB60F922F9318
:1007D0003F934F935F936F937F938F939F93AF93C9
:1007E000BF93EF93FF9385EF94E03ADEFF91EF9193
:1007F000BF91AF919F918F917F916F915F914F9139
:100800003F912F910F900BBE0F900FBE0F901F9036
:1008100018951F920F920FB60F9211240BB60F92DC
:100820002F933F934F935F936F937F938F939F93F8
:10083000AF93BF93EF93FF9385EF94E0A5DDFF9116
:10084000EF91BF91AF919F918F917F916F915F9148
:100850004F913F912F910F900BBE0F900FBE0F90B5
:100860001F9018951F93CF93DF93282F30E0F90145
:10087000E452FD4F8491F901EA56FD4FD491F901FC
:10088000E05BFD4FC491CC23C1F0162F8111A3DE94
:10089000EC2FF0E0EE0FFF1FE45EFD4FA591B49149
:1008A0008FB7F894111105C09C91ED2FE095E923C5
:1008B00002C0EC91ED2BEC938FBFDF91CF911F9194
:1008C0000895CF93DF9390E0FC01EA56FD4F249109
:1008D000FC01E05BFD4F8491882361F190E0880F7B
:1008E000991FFC01EE5FFD4FC591D491FC01E45EC0
:1008F000FD4FA591B491611109C09FB7F89488810B
:10090000209582238883EC912E230BC0623061F402
:100910009FB7F8943881822F809583238883EC9148
:100920002E2B2C939FBF06C08FB7F894E8812E2BF7
:1009300028838FBFDF91CF9108958F929F92AF92BE
:10094000BF92CF92DF92EF92FF926B017C01C1DEEA
:100950004B015C01C114D104E104F104E9F0B9DEFA
:10096000DC01CB0188199909AA09BB09883E93408B
:10097000A105B10578F321E0C21AD108E108F10818
:1009800088EE880E83E0981EA11CB11CC114D1040E
:10099000E104F10421F7DECFFF90EF90DF90CF90DC
:1009A000BF90AF909F908F9008951F920F920FB6B7
:1009B0000F9211242F933F938F939F93AF93BF93E5
:1009C0008091380490913904A0913A04B0913B048D
:1009D0003091450423E0230F2D3720F40196A11D0B
:1009E000B11D05C026E8230F0296A11DB11D20935D
:1009F00045048093380490933904A0933A04B0934B
:100A00003B048091460490914704A0914804B09122
:100A100049040196A11DB11D80934604909347049B
:100A2000A0934804B0934904BF91AF919F918F91D7
:100A30003F912F910F900FBE0F901F9018951F920E
:100A40000F920FB60F9211240BB60F922F933F9374
:100A50004F935F936F937F938F939F93AF93BF93C6
:100A6000EF93FF93809192050CDE209195053091D4
:100A700096052F5F3F4F30939605209395059091F3
:100A80005F06943618F095E0909393059091930546
:100A90009330B9F018F4923039F057C0943059F1CE
:100AA000953009F44CC051C081114FC0209195057B
:100AB000309196052436310508F443C010925F0644
:100AC0001CC0813009F041C0E0915F0691E09E0FAB
:100AD00090935F06F0E02091950530919605EE0F1A
:100AE000FF1FEE56FA4F368325831092960510921B
:100AF000950594E021C0811117C0E0915F0691E057
:100B00009E0F90935F06F0E0209195053091960539
:100B1000EE0FFF1FEE56FA4F36832583109296058F
:100B20001092950593E008C02091950530919605A7
:100B30002536310550F095E09093930506C081115C
:100B400004C01092960510929505909194059923F2
:100B500029F0811102C02F9A01C02F98FF91EF91C7
:100B6000BF91AF919F918F917F916F915F914F91C5
:100B70003F912F910F900BBE0F900FBE0F901F90C3
:100B80001895CF92DF92EF92FF92CF93DF93EC0113
:100B9000072E000C880B990B0E94C0136B017C017F
:100BA00020E030E040E45FE30E941F1420E030E0EA
:100BB00048E452E40E9451150E94B915C617D707A0
:100BC000D4F020E030E040EA5FE3C701B6010E94C4
:100BD0001F1420E030E048E452E40E94511520E068
:100BE00030E040E85FE30E94ED140E94B91521E077
:100BF0006C177D070CF420E0822F90E0DF91CF91FD
:100C0000FF90EF90DF90CF9008958F929F92BF92C8
:100C1000CF92DF92EF92FF920F931F93CF93DF93C8
:100C20008C0124E0000F111F2A95E1F7E801C05064
:100C3000DE4F61E08A8116DE60E0888113DE8A8102
:100C400020DD892B51F067E274E085EF94E07AD2E1
:100C500060E070E080E090E02DC098E1B92EC12CFA
:100C6000D12C76014E0182E0880E911C61E08881D2
:100C7000F9DDCC0CDD1CEE1CFF1C60E08881F2DD90
:100C8000F4018081FEDC892B29F0FFEFCF1ADF0A07
:100C9000EF0AFF0ABA94B110E9CFE801C050DE4F65
:100CA00061E08881DFDD80E8E82660E08881DADDC8
:100CB000B601C701DF91CF911F910F91FF90EF9087
:100CC000DF90CF90BF909F908F9008950F931F93C8
:100CD000CF93DF93EC0160E088E0C4DDCA50DD4FC4
:100CE0000881C7E0D0E010E0B8010C2E02C0759575
:100CF00067950A94E2F76170772789E0B3DD61E0D8
:100D000083E0B0DD60E083E0ADDD219768F761E06E
:100D100088E0A8DD60E570E080E090E0DF91CF91B1
:100D20001F910F910ACE6115710579F0FB010190B9
:100D30000020E9F73197AF01461B570BDC01ED911D
:100D4000FC910280F381E02D199480E090E00895F9
:100D5000CF92DF92EF92FF920F931F93CF93DF9387
:100D60006C017A018B01C0E0D0E0CE15DF0589F07F
:100D7000D8016D918D01D601ED91FC910190F0812A
:100D8000E02DC6011995892B11F47E0102C0219630
:100D9000ECCFC701DF91CF911F910F91FF90EF90A2
:100DA000DF90CF9008950E946B180F931F93CF93FD
:100DB000DF93EC0188819981009729F02A813B819A
:100DC0002617370788F48B016F5F7F4F0E948717C4
:100DD000009761F0998388831B830A832C813D816E
:100DE000232B11F4FC01108281E001C080E0DF912F
:100DF000CF911F910F910895FC01A089B18982E0E4
:100E00008C93A485B5851C92A685B78580E18C93CB
:100E1000108EA489B58986E08C93A289B3898C91C0
:100E200080618C93A289B3898C9188608C93A2890C
:100E3000B3898C9180688C930288F389E02D80813E
:100E40008F7D808308958F929F92AF92BF920F9370
:100E50001F93CF93DF93CDB7DEB7A1970FB6F8946A
:100E6000DEBF0FBECDBF19A2423008F44AE08E01AA
:100E70000F5D1F4F842E912CA12CB12CA501940144
:100E80000E94F915E62FB901CA0101501109EA3093
:100E900014F4E05D01C0E95CD801EC93232B242B12
:100EA000252B61F7B80185EF94E03DDFA1960FB6E1
:100EB000F894DEBF0FBECDBFDF91CF911F910F9190
:100EC000BF90AF909F908F900895CF92DF92EF9256
:100ED000FF92CF93DF936C01990FEE08FF08F7FEA6
:100EE00019C0E091F504F091F6040190F081E02D35
:100EF0006DE285EF94E01995EC0166277727CB0129
:100F00006C197D098E099F094AE09DDF7C01EC0E7A
:100F1000FD1E05C04AE0C701B60195DF7C0165E210
:100F200073E085EF94E0FFDE8E0D9F1DDF91CF9182
:100F3000FF90EF90DF90CF9008958F929F92AF92A5
:100F4000BF92CF92DF92EF92FF920F931F93CF93B6
:100F5000DF93FC01C081D181209156043091570468
:100F6000C217D3070CF048C09E01220F331FE09137
:100F70005404F0915504E20FF31F80809180C170FA
:100F8000DD27F1E0CF27209719F404E610E002C036
:100F90000CE91FEF7A015B016C01040F151FB8010A
:100FA000C401EFDD892B89F40E0D1F1DB801C401AA
:100FB000E8DD892B69F4B8016E0D7F1DC401E1DD08
:100FC000892BE9F023E030E005C021E030E002C0E9
:100FD00022E030E0F501808191810196821793072C
:100FE0003CF0F50111821082F60180819181019619
:100FF00091838083CE0105C081E090E002C08FEF35
:101000009FEFDF91CF911F910F91FF90EF90DF90B5
:10101000CF90BF90AF909F908F900895EF92FF92E6
:101020000F931F93CF93DF93FC01248135816115CA
:10103000710511F480E018C041155105A1F07B0144
:10104000EC018A01020F131FB801AFDE882391F370
:10105000288139818C819D81B701820F931F0E9465
:1010600081181D830C8381E0DF91CF911F910F9137
:10107000FF90EF900895EF92FF920F931F93CF93FD
:10108000DF93CDB7DEB728970FB6F894DEBF0FBE5B
:10109000CDBF7C01CB014AE08E010F5F1F4FB8012D
:1010A0000E940111F80101900020E9F73197AF018A
:1010B000401B510BB801C701B1DF28960FB6F89459
:1010C000DEBF0FBECDBFDF91CF911F910F91FF907B
:1010D000EF9008956115710549F0FB010190002022
:1010E000E9F73197AF01461B570B98CF80E0089581
:1010F000EF92FF920F931F93CF93DF93EC017B014D
:101100008A01BA0152DE2881398181110DC0211571
:10111000310519F0C9010E94EF16198218821D824B
:101120001C821B821A8206C01D830C83B701C90171
:101130000E948118CE01DF91CF911F910F91FF90F6
:10114000EF9008950F931F93CF93DF93EC01EBDDA6
:101150008C0165E273E0CE01E6DD800F911FDF9127
:10116000CF911F910F9108950F931F93CF93DF930A
:10117000EC01E881F981DB0114964D915C911597A2
:101180006D917C910280F381E02D19958C0165E2CF
:1011900073E0CE01C8DD800F911FDF91CF911F91C9
:1011A0000F910895C0CDCF93DF93CDB7DEB7A09751
:1011B0000FB6F894DEBF0FBECDBF789484B58260C1
:1011C00084BD84B5816084BD85B5826085BD85B5EB
:1011D000816085BD80916E00816080936E00109269
:1011E00081008091810082608093810080918100E4
:1011F0008160809381008091800081608093800075
:101200008091B10084608093B1008091B0008160D2
:101210008093B000809191008260809391008091D2
:101220009100816080939100809190008160809313
:1012300090008091A10082608093A1008091A10024
:1012400081608093A1008091A00081608093A000C4
:101250008091210182608093210180912101816030
:1012600080932101809120018160809320018091F1
:101270007A00846080937A0080917A008260809303
:101280007A0080917A00816080937A0080917A0060
:10129000806880937A001092C10085EF94E0ACDD05
:1012A00088E594E0A9DD64E670E080E090E045DB4D
:1012B00064E173E085EF94E075DF80910202909124
:1012C000030203DE6AE173E085EF94E06BDF81E007
:1012D00090E0FBDD61E080910002F3DA60E0809154
:1012E0000202EFDAF89482E08093B0008093B100BC
:1012F00094E69093B3001092B200809370007894BB
:101300008093930510925F068091920560E0D9DA90
:1013100061E088E0D6DA61E089E0D3DA61E083E079
:10132000D0DA61E08DE0CDDA68EE73E080E090E045
:1013300004DB80E090E069DC4AE085DD65E273E093
:1013400085EF94E0F0DC61E08DE08CDA68E273E038
:1013500085EF94E0E8DC22242394312C9E012F5F5A
:101360003F4F790187E995E09093550480935404A9
:1013700080915F0690E0909357048093560480918B
:101380009305853009F023C38091990590919A05C2
:10139000885891098D35910588F480915F068430D5
:1013A00041F480919B0590919C058097479708F4A4
:1013B00015C580915F06843408F0F7C480915F06FC
:1013C0008A3108F451C08091970590919805843F27
:1013D000914080F410925304109252048FEF9FEFCB
:1013E000DC0180934E0490934F04A0935004B0937B
:1013F000510458C08091990590919A0585974B9713
:1014000098F5EDE9F5E082E090E0812C912C540113
:1014100020915F0630E0AC014F5F5F4F42175307EA
:1014200054F4DF0112972D913C9127503109273058
:10143000310508F41AC50197959587959093530443
:10144000809352040C972CF410925304109252047F
:101450000BC080924E0490924F04A0925004B09220
:101460005104A2E0B0E0C7C180915F068A3108F460
:101470004BC080919705909198058032934008F475
:10148000A9CF8091990590919A05C697869708F4FF
:1014900009C53AC080924E0490924F04A092500425
:1014A000B092510489E090E02FC220813181255211
:1014B00031092B31310508F005C5880C991CAA1C8F
:1014C000BB1C689480F80296349620915F0630E049
:1014D000AC014F5F5F4F421753074CF4DF01129787
:1014E0002D913C912C5031092B303105F0F20197B0
:1014F0009595879590935304809352040C9754F6D6
:10150000109253041092520480915F06823208F4C4
:101510004AC08091990590919A050697079708F01F
:1015200042C0EDE9F5E022E030E040E050E0BA01F1
:10153000C9010196A0915F06B0E08A179B07CCF421
:10154000DF0112970D911C9111970E51110907316E
:10155000110508F0C4C4440F551F661F771F416072
:10156000A081B18134961397159720F42E5F3F4FD9
:10157000DFCFC90101979595879590935304809388
:10158000520440972CF410925304109252040BC052
:1015900040934E0450934F04609350047093510451
:1015A0008AE090E0B1C180915F068D3048F480916F
:1015B000560490915704181619060CF471C07BC09C
:1015C0003E8A2D8A1A82198249E753E0B701CE017B
:1015D0004596B3DC892B21F080E090E0DC015AC015
:1015E00049E753E0B701CE014596A7DC0197A1F783
:1015F00049E753E0B701CE0145969FDC892B61F79F
:1016000000E010E0812C912C540180915F0690E065
:101610002D893E89281739073CF549E753E0B70182
:10162000CE0145968ADC6C0149E753E0B701CE0153
:10163000459683DCE1E0CE16D10449F4892B61F6AE
:10164000880C991CAA1CBB1C689480F80AC0CD2881
:1016500009F0C2CF019709F0BFCF880C991CAA1CD2
:10166000BB1C0F5F1F4FD1CF109353040093520444
:1016700080924E0490924F04A0925004B092510474
:1016800023E030E030934B0420934A0481E090E063
:10169000A0E0B0E0892B8A2B8B2B09F068C187CFA3
:1016A0003E8A2D8AE0915404F09155048281938101
:1016B00089974E9720F080E090E0DC0144C022E062
:1016C00030E03E8B2D8B848195810B970A9798F79C
:1016D00083E090E09E8B8D8B1A8219824CEB51E057
:1016E000B701CE01459629DC892B29F74CEB51E057
:1016F000B701CE01459621DC0197E9F600E010E044
:10170000412C512C32012D893E89809156049091B3
:101710005704281739070CF4EEC3109353040093B1
:10172000520440924E0450924F04609250047092C2
:10173000510484E090E090934B0480934A0481E04C
:1017400090E0A0E0B0E0892B8A2B8B2B09F00FC131
:10175000A0905404B0905504D50112968D919C919F
:101760001397C6978697F0F4D50114968D919C91A6
:1017700015974B974597B0F416966501E6ECCE0E9B
:10178000D11C20E030E040E050E060E070E080E01C
:1017900090E00D911C911197095011090830110525
:1017A00008F4B7C080915F06823251F5F50182815D
:1017B00093810A97099720F520915F06C501820F52
:1017C000911D820F911DDC0112978D919C910A97BA
:1017D0000997B0F410925304109252048FEF9FEFC8
:1017E000DC0180934E0490934F04A0935004B09377
:1017F0005104A8E0B0E0B0934B04A0934A04B7C0F2
:10180000F50182819381895791098335910508F407
:1018100010C420915604309157043C8F2B8F2630F2
:1018200031050CF4CFC085010A5F1F4F85EC882E6F
:101830008DE9982E8CE1A82E81E8B82E93E0C92E70
:10184000D12CD8016D917C91F80134976080718022
:1018500080E090E093D76D8F7E8F8F8F98A3B30138
:1018600080E090E08BD72B013C012DEC3CEC4CE46C
:101870005FE3E5D79B01AC016D8D7E8D8F8D98A1C7
:1018800079D787FDD3C32DEC3CEC4CE45FE36D8D41
:101890007E8D8F8D98A1D3D79B01AC01C301B2017E
:1018A00069D7E82F880FFF0BEE27FF0FEE1FFF27EA
:1018B0003196A501940163E971E080E091E00E9416
:1018C000EA154F01FF0FAA08BB0886269726A8260F
:1018D000B926BFEFCB1ADB0A0E5F1F4FEB8DFC8DD5
:1018E000CE16DF0609F0ADCF80924E0490924F04E1
:1018F000A0925004B092510420E230E0309353049F
:10190000209352048FEF9FEF90934B0480934A04EF
:101910002EC012960D911C911397015111090D3093
:10192000110508F02EC301E00E94231621601496D1
:10193000AC15BD0509F02DCF20934E0430934F0414
:10194000409350045093510400E20E943E162093AD
:101950004C0430934D0487E090E090934B048093C7
:101960004A0480E390E09093530480935204609182
:101970004E0470914F04809150049091510440E1C5
:1019800062DA65E273E085EF94E0CDD980914E0490
:1019900090914F04A0915004B09151048F3CE0E32A
:1019A0009E07EDEFAE07B10509F0F8C268E373E0FA
:1019B00085EF94E0C7DB109244041092430480E06A
:1019C00090E084D982E08093930510925F06809125
:1019D0004304909144048130910569F11CF4892BF2
:1019E00049F0E0C18230910509F4DEC0039709F4A3
:1019F00099C1D8C185EF94E00E941202892B51F061
:101A000085EF94E00E94F001682F88E594E00E9441
:101A10005102F0CF88E594E00E941202892B09F46C
:101A2000C1C188E594E00E94F001682F85EF94E041
:101A30000E945102EFCF88E594E00E9497021E8A2F
:101A40001D8A188E1F8A1A8E198E46E050E060E6B5
:101A500073E0CE0145964CDB6AE070E0CE0145961E
:101A60000ADB67E673E0CE01459634DB2FB7F894C6
:101A7000609138047091390480913A0490913B044C
:101A80002FBF2AE0A701C7D3F70101900020E9F793
:101A90003197AF014E195F09B701CE014596BEDA05
:101AA00061E773E0CE01459615DB609143047091C8
:101AB0004404CE014596DFDA6AE773E0CE0145962D
:101AC00009DB80E090E0A1D860933C0470933D0472
:101AD00080933E0490933F0453D620910C023091A2
:101AE0000D0240910E0250910F0276D72091040210
:101AF000309105024091060250910702D2D70E9410
:101B0000B9153ED6609308027093090280930A02C9
:101B100090930B0260E673E0CE014596DBDA6091AC
:101B2000000270910102CE014596A5DA67E873E0E4
:101B3000CE014596CFDA609108027091090280913A
:101B40000A0290910B02870122E044E03BD3FC01A2
:101B500001900020E9F73197AF01481B590BBC01F8
:101B6000CE0145965BDA62E973E0CE014596B2DAC2
:101B700066E973E085EF94E015DBBE016B5E7F4F95
:101B800085EF94E0F1DABE016B5E7F4F88E594E06B
:101B9000EBDA68EE73E080E090E00E949D048D89AE
:101BA0009E890E94EF16FEC085EF94E00E94970286
:101BB00088E594E00E94970280914204811139C027
:101BC0006AE973E085EF94E0EDDA68EA73E088E5AE
:101BD00094E0E8DA68EE73E080E090E00E949D0413
:101BE0006CEA73E088E594E0DDDA68EE73E080E0AB
:101BF00090E00E949D046DEC73E088E594E0D2DAF9
:101C000068EE73E080E090E00E949D0465ED73E073
:101C100088E594E097DA64E670E080E090E00E9466
:101C20009D046DED73E088E594E08CDA81E08093AB
:101C300042048091400490914104883E9340ACF46A
:101C400060EE73E088E594E07DDA80914004909145
:101C500041040196909341048093400464E670E04F
:101C600080E090E00E949D0407C01092420469EE5B
:101C700073E085EF94E066DABB24B39488E594E0E2
:101C80000E941202892B09F48DC088E594E00E941D
:101C9000F0018C01839709F03FC041E050E068EF0C
:101CA00073E080E696E024DAA7E0CA2ED12C88E51E
:101CB00094E00E94F0018C0189831A8241E050E097
:101CC000B70180E696E0AAD9E1E0CE1AD10879F70B
:101CD0006AEF73E085EF94E065DA60E676E085EF21
:101CE00094E042DA8091640690916506892BA1F018
:101CF00065E074E080916006909161060E9478181A
:101D0000892B51F4B092420430924404209243044F
:101D100081E090E00E946606602F85EF94E00E94CB
:101D20005102ACCF80914204811106C080914004E1
:101D300090914104892BB1F185EF94E00E949702C4
:101D400088E594E00E9497021092420410924104A8
:101D50001092400468EA73E088E594E023DA68EEC4
:101D600073E080E090E00E949D046EE074E088E5FE
:101D700094E018DA68EE73E080E090E00E949D0441
:101D80006DEC73E088E594E00DDA68E174E085EFCE
:101D900094E0D8D985EF94E00E94970288E594E01A
:101DA0000E9497020E94B802DDCA80919B05909123
:101DB0009C05825491098E9708F000CB80E090E05A
:101DC00040E050E0BA01FC01E356FA4F2081318136
:101DD0002950310929303105C8F0F0CA80919D059C
:101DE00090919E050997099708F0E3CA1092530451
:101DF000109252048FEF9FEFDC0180934E0490937A
:101E00004F04A0935004B09351040BC1FC01E15660
:101E1000FA4F208131812651310921313105C0F439
:101E2000440F551F661F771F416004968038910547
:101E300051F6A0E2B0E0B0935304A0935204409353
:101E40004E0450934F046093500470935104E9C0C2
:101E500020813181265031092730310508F0AECA82
:101E6000440F551F661F771FE0CF2081318123511A
:101E700031092F30310548F4880C991CAA1CBB1C71
:101E8000689480F802963496C3CA208131812A5022
:101E900031092930310508F0E7CA880C991CAA1CC1
:101EA000BB1CF0CF80919B0590919C05C6978697AF
:101EB00008F02ACBEFE9F5E083E090E0812C912C4B
:101EC000540103CB208131812C5031092A30310556
:101ED00008F01ACB880C991CAA1CBB1CF4CA0D90E4
:101EE000BC91A02D1C971B9708F05DCB440F551F8C
:101EF000661F771F35CB4CEB51E0B701CE014596FD
:101F00001CD85C010330110559F04CEB51E0B701CE
:101F1000CE01459612D86C0103301105B1F40AC008
:101F20004CEB51E0B701CE01459607D8A816B9068B
:101F300061F3C1CB4CEB51E0B701CE0145960E9455
:101F40009D07C816D90609F0B6CBA114B10459F4FF
:101F5000CA94CD2809F0AFCB440C551C661C771CE5
:101F6000689440F80BC0AA94AB2809F0A4CBCD2804
:101F700009F0A1CB440C551C661C771C0F5F1F4F4A
:101F8000C2CB12960D911C91139704501109053084
:101F9000110508F007CC01E056D6C9CC803DF0E32E
:101FA0009F07FDEFAF07B105B0F4873F9840AD4FF5
:101FB000B10561F462E473E085EF94E0C3D8309238
:101FC00044042092430481E090E0FBCC80914304E0
:101FD00090914404F6CC873B38E493073DEFA30788
:101FE000B10571F466E573E085EF94E0ABD8A3E04A
:101FF000B0E0B0934404A093430483E090E0E1CCCC
:1020000087379848AD4FB10509F76CE473E085EF69
:1020100094E098D882E090E0909344048093430445
:10202000D0CC30924B0420924A04A1CCE0E0F0E006
:1020300040CC80915F06813208F4EBCBD501149639
:102040008D919C911597CA97899708F0E2CB9501DD
:102050002A5F3F4F80E090E0DC0143E050E0F9016F
:10206000608171816A5071096930710508F0D1CBC6
:10207000F90162817381665171096131710548F519
:10208000880F991FAA1FBB1F81604E5F5F4F2C5F97
:102090003F4F4332510519F795012A5B3F4FF90134
:1020A000208131812A5031092930310508F0B1CB26
:1020B00020E130E0309353042093520480934E0487
:1020C00090934F04A0935004B093510488E090E0A3
:1020D0001BCCF9016281738166507109673071050B
:1020E00008F097CB880F991FAA1FBB1FCECF8091F6
:1020F00060069091610673C6E8E5F4E013821282EF
:1021000048EE53E060E070E0448355836683778354
:1021100084E093E0918380832DEC30E03587248741
:102120002CEC30E03787268728EC30E0318B208B91
:1021300029EC30E0338B228B2AEC30E0358B248B7A
:102140002EEC30E0378B268B118E128E138E148E70
:10215000E5EFF4E01382128244835583668377832C
:102160009183808385EC90E09587848784EC90E070
:102170009787868780EC90E0918B808B81EC90E054
:10218000938B828B82EC90E0958B848B86EC90E035
:10219000978B868B118E128E138E148EE2E9F5E0EA
:1021A00082E080831282E0E6F6E0118210821382E0
:1021B00012821582148240E050E067E273E0CF01A2
:1021C0000C947808EF920F931F93CF93DF93E8015D
:1021D00047FD02C034E001C034E1E42F440FFF0B9F
:1021E000F7FF03C0F195E195F109E32E022F2E2FA1
:1021F000AE014BD0CE01DF91CF911F910F91EF90A7
:102200000895BB274A3031F4992322F4BDE290951A
:1022100081959F4F22C0BB27FA01A62F6217710537
:1022200081059105330B30FB66F0AA27660F771FF7
:10223000881F991FAA1FA21710F0A21B6395385080
:10224000A9F7A05DAA3308F0A95DA19336F7B111F3
:10225000B1931082CA017EC2BB27FB015527AA2772
:10226000880F991FAA1FA41710F0A41B8395505123
:10227000B9F7A05DAA3308F0A95DA193009779F79B
:10228000B111B1931192CB0165C24F925F926F92DF
:102290007F929F92AF92BF92CF92DF92EF92FF9286
:1022A0000F931F93CF93DF93CDB7DEB729970FB668
:1022B000F894DEBF0FBECDBF6A01122FB02E2BE304
:1022C000201720F0FF24F394F00E02C0BCE3FB2E95
:1022D0000F2D27E0AE014F5F5F4F64D1AC018981C4
:1022E000982F9970913031F0E1FC06C0E0FE06C0F5
:1022F00090E205C09DE203C09BE201C090E0EE2D9C
:10230000E07183FF3CC0911102C083E001C084E012
:10231000811718F4212F281B01C020E0E1110BC008
:10232000F601822F30E2882319F031938150FBCFE0
:10233000C20ED11C20E0992329F0D6019C93F6010E
:1023400031966F01C6010396E2FE0AC03EE4D60153
:102350003C9341E411964C93119712963C9306C01E
:102360003EE6F601308341E641833283FC01322FA1
:1023700040E2332309F442C041933150FACF82FF47
:1023800044C0911102C083E001C084E0811718F4B9
:10239000212F281B01C020E0E1110BC0F601822F84
:1023A00030E2882319F031938150FBCFC20ED11C4B
:1023B00020E0992329F0D6019C93F60131966F0114
:1023C000C6010396E2FE0BC039E4D6013C933EE41D
:1023D00011963C93119736E412963C9307C039E668
:1023E000F60130833EE6318336E63283FC01322F3C
:1023F00040E2332319F041933150FBCFFC01E20F4F
:10240000F11D10828EEF9FEFB7C0F1E0911101C076
:10241000F0E06F2F70E01416150624F49A012F5F78
:102420003F4F02C021E030E0260F371FBB2029F0CC
:102430006B2D70E06F5F7F4F02C060E070E0260F91
:10244000371F612F70E0261737071CF4121B212F4E
:1024500001C020E03E2D387159F4D601322F60E2E0
:10246000332319F06D933150FBCFC20ED11C20E005
:10247000FF2331F0D6019C93B6016F5F7F4F6B0154
:10248000E1110BC0F601922F30E3992319F031933B
:102490009150FBCFC20ED11C20E09F2D940F3A81AA
:1024A000782F7071A72E84FF03C0313309F4915047
:1024B000191624F4993018F098E001C091E0E42F47
:1024C000852F57FF02C0E0E080E06E2F782FE0E01C
:1024D000F0E0AEE29A2E3A01691A71082A01461A12
:1024E000570A0B2D10E01195019511096F3F8FEFE1
:1024F000780729F4D6019C92C60101966C01461713
:10250000570784F0661677066CF47F01E40CF51C1F
:10251000A1E0B0E0AC0FBD1FEA0EFB1ED701119683
:10252000BC9002C090E3B92E615071093196C6018A
:1025300001967C016017710724F0D601BC926C01F2
:10254000D5CF6417750741F4363320F4353321F4C1
:10255000A11002C081E3B82EF601B082F701822FEC
:1025600090E2882319F091938150FBCFF701E20F9D
:10257000F11D108280E090E029960FB6F894DEBF3E
:102580000FBECDBFDF91CF911F910F91FF90EF90C4
:10259000DF90CF90BF90AF909F907F906F905F90B3
:1025A0004F900895283008F027E03327DA01990F7B
:1025B000311D87FD916000966105710539F4326027
:1025C0002E5F3D9330E32A95E1F708959F3F30F069
:1025D00080387105610509F03C5F3C5F3D939130A7
:1025E00008F08068911DDF93CF931F930F93FF92A4
:1025F000EF92192F987F9695E92F96959695E90F6A
:10260000FF27EE59FE4F99273327EE24FF24A70119
:10261000E70105900894079428F4360FE71EF81E8A
:10262000491F511D660F771F881F991F0694A1F738
:102630000590079428F4E70EF81E491F561FC11D88
:10264000770F881F991F661F0694A1F705900794BE
:1026500028F4F80E491F561FC71FD11D880F991F58
:10266000661F771F0694A1F70590079420F4490F81
:10267000561FC71FD81F990F661F771F881F069404
:10268000A9F784911095177041F0D695C795579585
:102690004795F794E7941A95C1F7E8E0F1E068945C
:1026A0001590159135916591959105907FE27395FF
:1026B000E118F10A430B560BC90BD009C0F7E10C26
:1026C000F11E431F561FC91FD01D7EF4703311F435
:1026D0008A95E6CFE894015030F0080F0AF40027FD
:1026E000021708F4202F2395022F7A3328F079E37C
:1026F0007D932A95E9F710C07D932A9589F6069473
:1027000097956795379517951794E118F10A430B3C
:10271000560BC90BD00998F023957E9173957A33A7
:1027200008F070E37C932013B8F77E9170617D937D
:1027300030F0839571E37D9370E32A95E1F71124DE
:10274000EF90FF900F911F91CF91DF91992787FD17
:1027500090950895DC01FC01672F71917723E1F7D3
:10276000329704C07C916D9370836291AE17BF075E
:10277000C8F3089540D008F481E00895E89409C0B2
:1027800097FB3EF490958095709561957F4F8F4FA4
:102790009F4F9923A9F0F92F96E9BB279395F695BA
:1027A000879577956795B795F111F8CFFAF4BB0F38
:1027B00011F460FF1BC06F5F7F4F8F4F9F4F16C09C
:1027C000882311F096E911C0772321F09EE8872F26
:1027D000762F05C0662371F096E8862F70E060E0E2
:1027E0002AF09A95660F771F881FDAF7880F96955B
:1027F000879597F90895990F0008550FAA0BE0E8FF
:10280000FEEF16161706E807F907C0F012161306B2
:10281000E407F50798F0621B730B840B950B39F4F2
:102820000A2661F0232B242B252B21F408950A2658
:1028300009F4A140A6958FEF811D811D08950BD04D
:1028400078C069D028F06ED018F0952309F05AC0EE
:102850005FC01124A2C07ED0A0F3959FD1F3950F45
:1028600050E0551F629FF001729FBB27F00DB11D14
:10287000639FAA27F00DB11DAA1F649F6627B00DA4
:10288000A11D661F829F2227B00DA11D621F739F8D
:10289000B00DA11D621F839FA00D611D221F749F9B
:1028A0003327A00D611D231F849F600D211D822FE2
:1028B000762F6A2F11249F5750408AF0E1F0882329
:1028C0004AF0EE0FFF1FBB1F661F771F881F915036
:1028D0005040A9F79E3F510570F014C05EC05F3FA5
:1028E000ECF3983EDCF3869577956795B795F79569
:1028F000E7959F5FC1F7FE2B880F911D96958795F1
:1029000097F9089597F99F6780E870E060E008956F
:102910009FEF80EC089500240A94161617061806F7
:102920000906089500240A941216130614060506D3
:102930000895092E0394000C11F4882352F0BB0F64
:1029400040F4BF2B11F460FF04C06F5F7F4F8F4FC7
:102950009F4F089557FD9058440F551F59F05F3F02
:1029600071F04795880F97FB991F61F09F3F79F0B1
:1029700087950895121613061406551FF2CF469533
:10298000F1DF08C0161617061806991FF1CF8695B5
:102990007105610508940895E894BB276627772799
:1029A000CB0197F9089509D0A59F900DB49F900D84
:1029B000A49F800D911D11240895A29FB001B39F83
:1029C000C001A39F700D811D1124911DB29F700D38
:1029D000811D1124911D08955058BB27AA270ED0A0
:1029E000A8CF99DF30F09EDF20F031F49F3F11F443
:1029F0001EF48ECF0EF4E095E7FB84CFE92FAADF1B
:102A000080F3BA17620773078407950718F071F40B
:102A10009EF5C2CF0EF4E0950B2EBA2FA02D0B0120
:102A2000B90190010C01CA01A0011124FF27591B13
:102A300099F0593F50F4503E68F11A16F040A22F19
:102A4000232F342F4427585FF3CF4695379527958A
:102A5000A795F0405395C9F77EF41F16BA0B620B89
:102A6000730B840BBAF09150A1F0FF0FBB1F661FD0
:102A7000771F881FC2F70EC0BA0F621F731F841F13
:102A800048F4879577956795B795F7959E3F08F039
:102A9000B3CF9395880F08F09927EE0F97958795F8
:102AA00008950CD046CF3EDF40F035DF30F021F402
:102AB0005F3F19F027CF511170CF2ACF4BDF98F32A
:102AC0009923C9F35523B1F3951B550BBB27AA27AF
:102AD00062177307840738F09F5F5F4F220F331F21
:102AE000441FAA1FA9F333D00E2E3AF0E0E830D0ED
:102AF00091505040E695001CCAF729D0FE2F27D0F0
:102B0000660F771F881FBB1F261737074807AB07BD
:102B1000B0E809F0BB0B802DBF01FF2793585F4F32
:102B20002AF09E3F510568F0EDCE37CF5F3FECF3C2
:102B3000983EDCF3869577956795B795F7959F5FF7
:102B4000C9F7880F911D9695879597F90895E1E04B
:102B5000660F771F881FBB1F621773078407BA07AA
:102B600020F0621B730B840BBA0BEE1F88F7E09505
:102B7000089504D06894B11110CF0895F3DE88F061
:102B80009F5790F0B92F9927B751A0F0D1F0660F59
:102B9000771F881F991F1AF0BA95C9F712C0B13074
:102BA00081F0FADEB1E00895F7CE672F782F8827FD
:102BB000B85F39F0B93FCCF3869577956795B395B3
:102BC000D9F73EF490958095709561957F4F8F4F22
:102BD0009F4F0895DB018F939F93E5DEBF91AF91E7
:102BE000A29F800D911DA39F900DB29F900D112467
:102BF0000895A1E21A2EAA1BBB1BFD010DC0AA1F3E
:102C0000BB1FEE1FFF1FA217B307E407F50720F055
:102C1000A21BB30BE40BF50B661F771F881F991FD0
:102C20001A9469F760957095809590959B01AC0119
:102C3000BD01CF010895EE0FFF1F881F8BBF0790C6
:102C4000F691E02D19940F93083090F0982F872F6C
:102C5000762F652F542F432F322F22270850F4CF81
:102C6000220F331F441F551F661F771F881F991F90
:102C70000A95B2F70F91089597FB10F81694000883
:102C80000F93083098F00850232F342F452F562FDC
:102C9000672F782F892F902DF4CF059497958795DE
:102CA0007795679557954795379527950A95AAF78C
:102CB0000F910895CF93DF938230910510F482E055
:102CC00090E0E0916906F0916A0620E030E0C0E013
:102CD000D0E0309711F14081518148175907C0F079
:102CE0004817590761F482819381209719F09B83DB
:102CF0008A832BC090936A068093690626C02115AB
:102D0000310519F04217530718F49A01BE01DF018B
:102D1000EF010280F381E02DDCCF2115310509F1AF
:102D2000281B390B2430310590F412968D919C911B
:102D300013976115710521F0FB019383828304C011
:102D400090936A0680936906FD01329644C0FD01A6
:102D5000E20FF31F81939193225031092D933C93FD
:102D60003AC02091670630916806232B41F42091E8
:102D7000F2023091F30230936806209367062091A7
:102D8000F0023091F1022115310541F42DB73EB723
:102D90004091F4025091F502241B350BE091670637
:102DA000F0916806E217F307A0F42E1B3F0B2817DB
:102DB000390778F0AC014E5F5F4F2417350748F0B4
:102DC0004E0F5F1F5093680640936706819391935F
:102DD00002C0E0E0F0E0CF01DF91CF9108950F93C2
:102DE0001F93CF93DF93009709F48CC0FC013297B7
:102DF000138212820091690610916A06011511056D
:102E000081F420813181820F931F209167063091D8
:102E100068062817390779F5F0936806E093670686
:102E200071C0D80140E050E0AE17BF0750F41296D1
:102E30002D913C911397AD012115310509F1D9016F
:102E4000F3CF9D01DA013383228360817181860F84
:102E5000971F8217930769F4EC0128813981260FA7
:102E6000371F2E5F3F4F318320838A819B8193835D
:102E70008283452B29F4F0936A06E093690642C0E9
:102E80001396FC93EE931297ED01499159919E018F
:102E9000240F351FE217F30771F480819181840FAD
:102EA000951F029611969C938E938281938113961F
:102EB0009C938E931297E0E0F0E0D80112968D91EA
:102EC0009C911397009719F0F8018C01F6CF8D9122
:102ED0009C9198012E5F3F4F820F931F20916706B0
:102EE000309168062817390769F4309729F4109251
:102EF0006A061092690602C0138212821093680655
:102F000000936706DF91CF911F910F9108956F9203
:102F10007F928F929F92AF92BF92CF92DF92EF9269
:102F2000FF920F931F93CF93DF93EC01009781F4EF
:102F3000CB01DF91CF911F910F91FF90EF90DF9028
:102F4000CF90BF90AF909F908F907F906F90B2CEB8
:102F5000FC01E60FF71F9C0122503109E217F3072D
:102F600008F4A8C0D9010D911C91119706171707F5
:102F7000A8F00530110508F49BC0C8010497861716
:102F8000970708F495C002501109061B170B01930F
:102F900011936D937C93CF0122DF8AC05B01A01A4D
:102FA000B10A4C01800E911EA0916906B0916A068B
:102FB00040E050E0E12CF12C109709F44AC0A8152C
:102FC000B905D1F56D907C901197630182E0C80E30
:102FD000D11CCA14DB0480F1A3014A195B096A0100
:102FE00082E0C80ED11C1296BC9012971396AC9139
:102FF000B5E0CB16D10440F0B282A3835183408365
:10300000D9016D937C930AC00E5F1F4FC301800FDF
:10301000911FF90191838083EB2DFA2FE114F104C4
:1030200031F0D7011396FC93EE93129741C0F093C1
:103030006A06E09369063CC08D919C9111974817F0
:10304000590708F4AC017D0112960D90BC91A02D9A
:10305000B3CF809167069091680688159905E1F4D1
:1030600046175707C8F48091F0029091F10200973B
:1030700041F48DB79EB74091F4025091F502841B44
:10308000950BE817F907B0F4F0936806E09367062C
:10309000F901718360830CC0CB010CDE7C010097C9
:1030A00049F0A801BE011BD0CE0199DEC70104C0C2
:1030B000CE0102C080E090E0DF91CF911F910F918F
:1030C000FF90EF90DF90CF90BF90AF909F908F9048
:1030D0007F906F90089581E090E0F89419C0FB0113
:1030E000DC0102C001900D9241505040D8F7089584
:1030F000FB01DC018D91019080190110D9F3990B2E
:103100000895FB01DC0101900D920020E1F7089584
:1031100011E0C2E9D1E000E005C0802FFE018BDDA7
:103120002196011DC339D10780E00807B1F7F89453
:02313000FFCFCF
:1031320029002B000000D743000000005585004BFA
:10314200000000000000000000000000000000007D
:10315200000000000000000000000000000000006D
:10316200000000000000000000000000000000005D
:10317200000000000000000000000000000000004D
:10318200000000000000000000000000000000003D
:10319200000000000000000000000000000000002D
:1031A200000000000000000000000000000000001D
:1031B200000000000000000000000000000000000D
:1031C20000000000000000000000000000000000FD
:1031D20000000000000000000000000000000000ED
:1031E20000000000000000000000000000000000DD
:1031F20000000000000000000000000000000000CD
:1032020000000000000000000000000000000000BC
:1032120000000000000000000000000000000000AC
:1032220000006B068000C0F9A4B0999282F88090E9
:10323200000000005102A806E10197021202F0010B
:1032420004020200585844543D00696E697448589B
:103252003731313A000D0A0057656C636F6D652096
:10326200746F207573652100546F204D6F64653A49
:103272003000546F204D6F64653A3100546F204D19
:103282006F64653A3200546F204D6F64653A3300C3
:103292007B224944223A002C224D696C6C73223AFB
:1032A200002C224D6F6465223A002C2253656E7306
:1032B2006F7273223A5B002C22526573756C742212
:1032C2003A007D5D7D0053303A00424547494E2029
:1032D200544350434F4E4E002B2B2B0041542B5442
:1032E2004350434C49434F4E4E3D3139322E3136D5
:1032F200382E322E3139333A383038300041542B9F
:103302004558495400235443504F4B3F00585800EE
:1033120023544350434F4E4E0054435020434F4E8C
:10332200275420434F4E4E002300636F6D6D73741C
:1033320072203D2000235443504F4B2A2A0041540F
:103342002B5245424F4F54005265736574204172AF
:103352006475696E6F210048583731315F445420DB
:083362003D20545255450000C6
:00000001FF
