:1000000092C10000C1C10000BFC10000BDC100001D
:10001000BBC10000B9C10000B7C10000B5C10000FC
:10002000B3C10000B1C10000AFC10000ADC100000C
:10003000ABC1000071C50000A7C10000A5C1000050
:10004000A3C10000A1C100009FC100009DC100002C
:100050009BC1000099C1000097C10000D6C40000F8
:1000600093C10000FAC30000CFC300008DC100009F
:100070008BC1000089C1000087C1000085C100005C
:1000800083C1000081C100007FC100007DC100006C
:1000900092C3000067C3000077C1000075C1000073
:1000A00073C1000071C100006FC100006DC100008C
:1000B0006BC1000069C1000067C1000065C100009C
:1000C00063C1000061C100005FC100005DC10000AC
:1000D0005BC1000059C1000057C1000055C10000BC
:1000E00053C10000D402D702C602CA02D0020E03D6
:1000F000DB02DF02E502E902ED02F302F702FB0296
:100100000E0301030503090300407A10F35A00A00F
:10011000724E18090010A5D4E80000E876481700D0
:1001200000E40B54020000CA9A3B000000E1F50510
:10013000000080969800000040420F000000A0865A
:1001400001000000102700000000E803000000008C
:100150006400000000000A00000000000100000030
:1001600000002C76D888DC674F0823DFC1DFAE594A
:10017000E1B1B796E5E3E453C63AE651997696E8DD
:10018000E6C28426EB898C9B62ED407C6FFCEFBC61
:100190009C9F40F2BAA56FA5F490055A2AF75C938C
:1001A0006B6CF9676DC11BFCE0E40D47FEF520E6C2
:1001B000B500D0ED902E0300943577050080841EA5
:1001C000080000204E0A000000C80C333333330F00
:1001D000986E12831141EF8D2114893BE65516CF9D
:1001E000FEE6DB18D1844B381BF77C1D901DA4BBA9
:1001F000E424203284725E228100C9F124ECA1E55E
:100200003D2700002100240027002A002D00300097
:10021000330001010000040107010A01000022006F
:10022000250028002B002E003100340002010000C0
:10023000050108010B010000200023002600290011
:100240002C002F003200000100000301060109010B
:1002500005050505070508080808020202020A0A42
:100260000808040404040101010101010101030360
:10027000030303030303040707070C0C0C0C0C0C0B
:100280000C0C0202020206060606060606060B0B08
:100290000B0B0B0B0B0B0102102020080810204049
:1002A000102040800201020108040201010204083A
:1002B00010204080804020100804020180040201C8
:1002C0008040201008040201080402010102040811
:1002D00010204080010204081020408000000A0B1A
:1002E00002090C0D0E0807030401000000000000C5
:1002F00000000000000000000000000000000000FE
:1003000000000000000000001211100000000000BA
:1003100000000000000000000000000000000000DD
:10032000000044123C1211241FBECFEFD1E2DEBF09
:10033000CDBF00E00CBF26E0AAE2B4E001C01D92F0
:10034000A838B207E1F714E0A0E0B2E0E6E5F5E393
:1003500000E00BBF02C007900D92AA32B107D9F797
:1003600011E0C2E9D1E000E006C021970109802F29
:10037000FE010E941F18C139D10780E00807A9F7C4
:100380000E945D0A0C949A1A3BCEFC01A089B189A7
:100390008C91A689B78982FD0FC09C91818D8F5F5A
:1003A0008F73228D821749F0218DDF01A20FB11DBD
:1003B0005D969C93818F08958C910895089580E0B7
:1003C00090E00895FC01538D448D252F30E0842F5B
:1003D00090E0821B930B541710F0CF96089501976D
:1003E0000895FC01918D828D981761F0828DDF0157
:1003F000A80FB11D5D968C91928D9F5F9F73928F18
:1004000090E008958FEF9FEF0895FC01918D828D0C
:10041000981731F0828DE80FF11D858D90E00895D9
:100420008FEF9FEF0895FC01918D228D892F90E031
:10043000805C9F4F821B91098F739927089587E4F1
:1004400094E0F1DF21E0892B09F420E0822F089568
:1004500084EE94E0E8DF21E0892B09F420E0822F8C
:100460000895FC01848DDF01A80FB11DA35ABF4F71
:100470002C91848D90E001968F739927848FA689A3
:10048000B7892C93A089B1898C9180648C93938DCA
:10049000848D981306C00288F389E02D80818F7DBA
:1004A00080830895EF92FF920F931F93CF93DF9372
:1004B000EC0181E0888F9B8D8C8D981305C0E889B5
:1004C000F989808185FD23C0F62E0B8D10E00F5F2A
:1004D0001F4F0F731127E02E8C8DE8120BC00FB643
:1004E00007FCFACFE889F989808185FFF5CFCE0135
:1004F000B8DFF2CF8B8DFE01E80FF11DE35AFF4FFD
:10050000F0820B8FEA89FB898081806207C0EE89C7
:10051000FF896083E889F98980818064808381E034
:1005200090E0DF91CF911F910F91FF90EF90089590
:10053000CF93DF93EC01888D8823C1F0EA89FB8992
:10054000808185FD05C0A889B9898C9186FD0EC082
:100550000FB607FCF5CF808185FFF2CFA889B98956
:100560008C9185FFEDCFCE017CDFE8CFDF91CF917D
:10057000089590E0FC013197E231F10508F04EC09A
:100580008827EE58FF4F8F4F0C941F1880918000E2
:100590008F7703C0809180008F7D809380000895C5
:1005A00080918000877FF9CF84B58F7702C084B5B2
:1005B0008F7D84BD08958091B0008F7703C08091B6
:1005C000B0008F7D8093B0000895809190008F7768
:1005D00007C0809190008F7D03C080919000877F3D
:1005E0008093900008958091A0008F7707C080913C
:1005F000A0008F7D03C08091A000877F8093A00022
:100600000895809120018F7707C0809120018F7D10
:1006100003C080912001877F809320010895CF93AC
:10062000DF93282F30E0F901E452FD4F8491F90166
:10063000EA56FD4FD491F901E05BFD4FC491CC2304
:1006400089F0811196DFEC2FF0E0EE0FFF1FEA5CDE
:10065000FD4FA591B491EC91ED2381E090E021F460
:1006600080E002C080E090E0DF91CF9108953FB735
:10067000F8948091350490913604A0913704B0919C
:10068000380426B5A89B05C02F3F19F00196A11D7F
:10069000B11D3FBFBA2FA92F982F8827820F911D18
:1006A000A11DB11DBC01CD0142E0660F771F881F5F
:1006B000991F4A95D1F708950F931F93CF93DF9316
:1006C0001F921F92CDB7DEB701E084EE94E0ABDE5F
:1006D000892B99F084EE94E084DE182F89831A82A6
:1006E00041E050E0BE016F5F7F4F8DE796E061D53E
:1006F0001A3059F700932A04E8CF0F900F90DF913A
:10070000CF911F910F910895A3DE811120C080E049
:1007100090E0892B19F093DE81111BC080E090E0FE
:10072000892B41F080E090E0892B21F00E940000AD
:10073000811112C080E090E0892B99F080E090E078
:10074000892B79F00E940000811109C00895B4DF5F
:10075000DECF0E940000E2CF0E940000EBCF0C949D
:10076000000008951F920F920FB60F9211240BB63E
:100770000F922F933F934F935F936F937F938F933A
:100780009F93AF93BF93EF93FF9387E494E069DE69
:10079000FF91EF91BF91AF919F918F917F916F9159
:1007A0005F914F913F912F910F900BBE0F900FBE15
:1007B0000F901F9018951F920F920FB60F92112451
:1007C0000BB60F922F933F934F935F936F937F934B
:1007D0008F939F93AF93BF93EF93FF9387E494E03E
:1007E000D4DDFF91EF91BF91AF919F918F917F9158
:1007F0006F915F914F913F912F910F900BBE0F9092
:100800000FBE0F901F9018951F920F920FB60F9268
:1008100011240BB60F922F933F934F935F936F93D7
:100820007F938F939F93AF93BF93EF93FF9384EE48
:1008300094E017DEFF91EF91BF91AF919F918F915F
:100840007F916F915F914F913F912F910F900BBED0
:100850000F900FBE0F901F9018951F920F920FB61A
:100860000F9211240BB60F922F933F934F935F93E8
:100870006F937F938F939F93AF93BF93EF93FF9368
:1008800084EE94E082DDFF91EF91BF91AF919F9153
:100890008F917F916F915F914F913F912F910F9029
:1008A0000BBE0F900FBE0F901F9018951F93CF9304
:1008B000DF93282F30E0F901E452FD4F8491F901D4
:1008C000EA56FD4FD491F901E05BFD4FC491CC2372
:1008D000C1F0162F81114DDEEC2FF0E0EE0FFF1F5F
:1008E000E45EFD4FA591B4918FB7F894111105C046
:1008F0009C91ED2FE095E92302C0EC91ED2BEC9358
:100900008FBFDF91CF911F910895CF93DF9390E038
:10091000FC01EA56FD4F2491FC01E05BFD4F849100
:10092000882361F190E0880F991FFC01EE5FFD4F75
:10093000C591D491FC01E45EFD4FA591B491611184
:1009400009C09FB7F8948881209582238883EC9111
:100950002E230BC0623061F49FB7F8943881822F48
:10096000809583238883EC912E2B2C939FBF06C008
:100970008FB7F894E8812E2B28838FBFDF91CF911A
:1009800008958F929F92AF92BF92CF92DF92EF9293
:10099000FF926B017C016BDE4B015C01C114D10441
:1009A000E104F104E9F063DEDC01CB018819990967
:1009B000AA09BB09883E9340A105B10578F321E05F
:1009C000C21AD108E108F10888EE880E83E0981E6B
:1009D000A11CB11CC114D104E104F10421F7DECF44
:1009E000FF90EF90DF90CF90BF90AF909F908F904F
:1009F00008952FB7F894609131047091320480917A
:100A00003304909134042FBF08951F920F920FB6B4
:100A10000F9211242F933F938F939F93AF93BF9384
:100A20008091310490913204A0913304B091340448
:100A30003091300423E0230F2D3720F40196A11DBF
:100A4000B11D05C026E8230F0296A11DB11D2093FC
:100A500030048093310490933204A0933304B09314
:100A600034048091350490913604A0913704B091FC
:100A700038040196A11DB11D80933504909336046E
:100A8000A0933704B0933804BF91AF919F918F9199
:100A90003F912F910F900FBE0F901F901895CF92FE
:100AA000DF92EF92FF920F931F93CF93DF93EC01AE
:100AB000A0DFCC80DD80EE80FF80C114D104E10492
:100AC000F10429F4688379838A839B8319C00881A0
:100AD00019812A813B81DC01CB01801B910BA20B88
:100AE000B30B8C159D05AE05BF0560F0B901A801DB
:100AF0004C0D5D1D6E1D7F1D488359836A837B836A
:100B000081E001C080E0DF91CF911F910F91FF90B4
:100B1000EF90DF90CF9008951F920F920FB60F9233
:100B200011240BB60F922F933F934F935F936F93C4
:100B30007F938F939F93AF93BF93EF93FF93809196
:100B400081056DDD20918405309185052F5F3F4F34
:100B5000309385052093840590914E06943618F0C5
:100B600095E090938205909182059330B9F018F446
:100B7000923039F057C0943059F1953009F44CC097
:100B800051C081114FC020918405309185052436D4
:100B9000310508F443C010924E061CC0813009F0A4
:100BA00041C0E0914E0691E09E0F90934E06F0E01A
:100BB0002091840530918505EE0FFF1FEF57FA4F06
:100BC00036832583109285051092840594E021C018
:100BD000811117C0E0914E0691E09E0F90934E0652
:100BE000F0E02091840530918505EE0FFF1FEF574F
:100BF000FA4F36832583109285051092840593E081
:100C000008C020918405309185052536310550F0C6
:100C100095E09093820506C0811104C0109285056D
:100C20001092840590918305992329F0811102C0C7
:100C30002F9A01C02F98FF91EF91BF91AF919F9193
:100C40008F917F916F915F914F913F912F910F9075
:100C50000BBE0F900FBE0F901F901895CF92DF9292
:100C6000EF92FF92CF93DF93EC01072E000C880BDD
:100C7000990B0E94C4156B017C0120E030E040E438
:100C80005FE30E94231620E030E048E452E40E9433
:100C900055170E94BD17C617D707D4F020E030E0E3
:100CA00040EA5FE3C701B6010E94231620E030E06E
:100CB00048E452E40E94551720E030E040E85FE34A
:100CC0000E94F1160E94BD1721E06C177D070CF4FD
:100CD00020E0822F90E0DF91CF91FF90EF90DF90A6
:100CE000CF9008958F929F92BF92CF92DF92EF9212
:100CF000FF920F931F93CF93DF938C0124E0000F9B
:100D0000111F2A95E1F7E801C050DE4F61E08A81AA
:100D1000CDDD60E08881CADD8A8181DC892B59F0D4
:100D200085E094E0EDD08FE293E0EAD060E070E0FF
:100D300080E090E02DC098E1B92EC12CD12C760135
:100D40004E0182E0880E911C61E08881AFDDCC0C01
:100D5000DD1CEE1CFF1C60E08881A8DDF4018081B1
:100D60005EDC892B29F0FFEFCF1ADF0AEF0AFF0ABA
:100D7000BA94B110E9CFE801C050DE4F61E088813C
:100D800095DD80E8E82660E0888190DDB601C70146
:100D9000DF91CF911F910F91FF90EF90DF90CF9057
:100DA000BF909F908F9008950F931F93CF93DF93E1
:100DB000EC0160E088E07ADDC850DD4F0881C7E0D3
:100DC000D0E010E0B8010C2E02C0759567950A942A
:100DD000E2F76170772789E069DD61E083E066DD35
:100DE00060E083E063DD219768F761E088E0DF91F0
:100DF000CF911F910F915ACD0F931F93CF93DF93F4
:100E000000D000D0CDB7DEB78C0165E174E0CE0133
:100E10000196DAD2B801CE01019658D2CE010196E0
:100E20001DD11093F1020093F002C801BDDFE1DD96
:100E300060936F06709370068093710690937206AC
:100E4000D8DD60935F06709360068093610690938F
:100E50006206CFDD60934F06709350068093510673
:100E600090935206C6DD6093670670936806809380
:100E7000690690936A06BDDD609357067093580625
:100E80008093590690935A06CE01019698D22696E1
:100E90000FB6F894DEBF0FBECDBFDF91CF911F918B
:100EA0000F9108950895CF92DF92EF92FF920F93E2
:100EB0001F93CF93DF936C017A018B01C0E0D0E0E8
:100EC000CE15DF0589F0D8016D918D01D601ED9128
:100ED000FC910190F081E02DC6011995892B11F448
:100EE0007E0102C02196ECCFC701DF91CF911F9107
:100EF0000F91FF90EF90DF90CF9008950E946F1AAE
:100F0000009761F0FC0101900020E9F73197AF01F3
:100F1000481B590BBC0184EE94E0C5CF80E090E003
:100F20000895FC01A089B18982E08C93A485B585E0
:100F30001C92A685B78580E18C93108EA489B58913
:100F400086E08C93A289B3898C9180618C93A2896D
:100F5000B3898C9188608C93A289B3898C918068C5
:100F60008C930288F389E02D80818F7D80830895A2
:100F70008F929F92AF92BF920F931F93CF93DF9365
:100F8000CDB7DEB7A1970FB6F894DEBF0FBECDBFC9
:100F900019A2423008F44AE08E010F5D1F4F842EE3
:100FA000912CA12CB12CA50194010E94FD17E62FD4
:100FB000B901CA0101501109EA3014F4E05D01C021
:100FC000E95CD801EC93232B242B252B61F7C80176
:100FD00097DFA1960FB6F894DEBF0FBECDBFDF91AD
:100FE000CF911F910F91BF90AF909F908F900895D8
:100FF000CF92DF92EF92FF92CF93DF936C01990F24
:10100000EE08FF08F7FE19C0E091E404F091E50452
:101010000190F081E02D6DE284EE94E01995EC01F1
:1010200066277727CB016C197D098E099F094AE055
:101030009FDF7C01EC0EFD1E05C04AE0C701B60132
:1010400097DF7C018FE293E05BDF8E0D9F1DDF91C8
:10105000CF91FF90EF90DF90CF900895CF93DF93E3
:10106000FC01448155816081718184EE94E01BDF35
:10107000EC018FE293E044DF8C0F9D1FDF91CF9155
:1010800008958F929F92AF92BF92CF92DF92EF928C
:10109000FF920F931F93CF93DF93FC01C081D18107
:1010A0002091450430914604C217D3070CF048C084
:1010B0009E01220F331FE0914304F0914404E20F9C
:1010C000F31F80809180C170DD27F1E0CF2720974A
:1010D00019F404E610E002C00CE91FEF7A015B018D
:1010E0006C01040F151FB801C401B8DD892B89F408
:1010F0000E0D1F1DB801C401B1DD892B69F4B801C3
:101100006E0D7F1DC401AADD892BE9F023E030E0DC
:1011100005C021E030E002C022E030E0F50180812E
:1011200091810196821793073CF0F501118210829C
:10113000F60180819181019691838083CE0105C063
:1011400081E090E002C08FEF9FEFDF91CF911F9180
:101150000F91FF90EF90DF90CF90BF90AF909F9056
:101160008F9008950F931F93CF93DF93EC018881A5
:101170009981009729F02A813B812617370788F447
:101180008B016F5F7F4F0E948B19009761F09983ED
:1011900088831B830A832C813D81232B11F4FC015E
:1011A000108281E001C080E0DF91CF911F910F910B
:1011B0000895EF92FF920F931F93CF93DF93FC015B
:1011C000248135816115710511F480E018C0411545
:1011D0005105A1F07B01EC018A01020F131FB80138
:1011E000C1DF882391F3288139818C819D81B701EA
:1011F000820F931F0E94851A1D830C8381E0DF916B
:10120000CF911F910F91FF90EF900895EF92FF9271
:101210000F931F93CF93DF93CDB7DEB764970FB6CD
:10122000F894DEBF0FBECDBF7C01CB01BA018E01A9
:101230000F5F1F4F22E044E00E94E612BC01FC0158
:1012400001900020E9F73197AF01481B590BC70106
:10125000B0DF64960FB6F894DEBF0FBECDBFDF914E
:10126000CF911F910F91FF90EF900895EF92FF9211
:101270000F931F93CF93DF93CDB7DEB72D970FB6A4
:10128000F894DEBF0FBECDBF7C01CB01BA012AE0CE
:101290008E010F5F1F4FA8010E940F13F8010190EC
:1012A0000020E9F73197AF01401B510BB801C7018E
:1012B00080DF2D960FB6F894DEBF0FBECDBFDF9155
:1012C000CF911F910F91FF90EF900895EF92FF92B1
:1012D0000F931F93CF93DF93CDB7DEB728970FB649
:1012E000F894DEBF0FBECDBF7C01CB014AE08E017A
:1012F0000F5F1F4FB8010E940513F80101900020F5
:10130000E9F73197AF01401B510BB801C70151DF1D
:1013100028960FB6F894DEBF0FBECDBFDF91CF91F8
:101320001F910F91FF90EF9008956115710549F09D
:10133000FB0101900020E9F73197AF01461B570BE5
:1013400038CF80E00895CF93DF93EC0188819981B5
:10135000009711F00E94F318198218821D821C82D6
:101360001B821A82DF91CF910895EF92FF920F9323
:101370001F93CF93DF938C017B016115710561F0A1
:10138000FB0101900020E9F73197EF01C61BD70B55
:10139000BE01E8DE811103C0C801D5DF08C0F80135
:1013A000D583C483B701808191810E94851AC801C9
:1013B000DF91CF911F910F91FF90EF900895FC0165
:1013C000808191810C94F318EF92FF920F931F93F9
:1013D000CF93DF93EC01198218821B821A821D823F
:1013E0001C826115710511F18B01FB010190002038
:1013F000E9F731977F01E61AF70AB701B3DE8111E9
:1014000008C0CE01DF91CF911F910F91FF90EF9017
:101410009ACFFD82EC82B80188819981DF91CF91CA
:101420001F910F91FF90EF900C94851ADF91CF914F
:101430001F910F91FF90EF900895DF92EF92FF922E
:101440000F931F93CF93DF937C018B01EA01461723
:10145000570720F4812F8A01C62FD82F61E373E04C
:10146000C701B2DF809181069091820608171907A3
:10147000D8F48C179D0708F4EC01E0917D06F091FB
:101480007E06EC0FFD1FD080108260917D0670916A
:101490007E06600F711FC70168DFE0917D06F09145
:1014A0007E06EC0FFD1FD082C701DF91CF911F9107
:1014B0000F91FF90EF90DF900895CF93DF93CDB71A
:1014C000DEB768970FB6F894DEBF0FBECDBF789435
:1014D00084B5826084BD84B5816084BD85B5826039
:1014E00085BD85B5816085BD80916E0081608093EA
:1014F0006E00109281008091810082608093810053
:101500008091810081608093810080918000816062
:10151000809380008091B10084608093B1008091BD
:10152000B00081608093B0008091910082608093D0
:101530009100809191008160809391008091900052
:101540008160809390008091A10082608093A100CF
:101550008091A10081608093A1008091A0008160B2
:101560008093A0008091210182608093210180916D
:10157000210181608093210180912001816080930D
:10158000200180917A00846080937A0080917A00B3
:10159000826080937A0080917A00816080937A00E3
:1015A00080917A00806880937A001092C10084EE66
:1015B00094E0B7DC87E494E0B4DC86E193E0A0DC5F
:1015C000809102029091030213DD84E293E098DCA3
:1015D00081E090E00DDD61E08091000296D960E04D
:1015E0008091020292D9F89482E08093B0008093B7
:1015F000B10094E69093B3001092B2008093700013
:1016000078948093820510924E068091810560E067
:101610007CD961E088E079D961E089E076D961E040
:1016200083E073D961E08DE070D964E670E080E01A
:1016300090E0A7D980E090E055DB4AE099DC8FE2AA
:1016400093E05EDC68EC70E08DE796E08BDD82E392
:1016500093E056DC44244A94542C320180912A04AD
:10166000882309F45CC16FE373E0CE010196ACDE20
:101670004D815E8180918106909182068417950745
:1016800080F080917D0690917E06009751F06981EF
:101690007A816115710529F00E948C1A11E0892B5D
:1016A00009F010E0CE0101968ADE112309F430C161
:1016B00048E050E060E070E0CE010D96BEDE61E3F0
:1016C00073E0CE01079680DE61E473E0CE010196FF
:1016D0007BDE49895A896D857E85CE01019669DD5B
:1016E000811103C0CE0101962EDECE010196B6DC3B
:1016F000CE01019664DE4091810650918206493008
:10170000510508F44AC069E070E0CE01019695DE0B
:101710008F8198850097A9F069817A81611571059B
:1017200071F049855A852D813E814217530738F063
:101730000E94851A8D819E819C878B8712C00E9492
:10174000F31889819A8198878F838B819C819A87EE
:1017500089878D819E819C878B871A8219821C8242
:101760001B821E821D82CE01019629DE6AE473E08F
:10177000CE01019629DE4B855C856F817885CE018F
:10178000019617DD811103C0CE010196DCDDCE018B
:10179000019664DCCE01019612DE89899A89892B33
:1017A00009F4B0C00D851E8562E573E0C8010E9492
:1017B0007C1A892B39F48BE593E0A2DB8FE293E06E
:1017C0009FDBA0C064E673E0C8010E947C1A892BED
:1017D00009F098C06DE673E0CE010196F5DD64ED89
:1017E00073E0CE010196A1DD69EE73E0CE010196B2
:1017F0006DDD68E773E0CE01019697DD40917B06D1
:1018000050917C066091770670917806CE01019622
:10181000D0DC60E873E0CE01019687DDEAD8AB0149
:10182000BC01CE01019622DD69E873E0CE0101968C
:101830007CDD6091F0027091F102CE01019646DDEF
:1018400061E973E0CE01019670DD6CE070E0CE01DD
:1018500001963CDD68E973E0CE01019666DD60EA41
:1018600073E0CE01019661DD609102027091030286
:10187000CE0101962BDD67EA73E0CE01019655DDBE
:101880006091000270910102CE0101961FDD6FEAA6
:1018900073E0CE01019649DD40910C0250910D029A
:1018A00060910E0270910F02CE010196AFDC67EBE2
:1018B00073E0CE01019639DD40910402509105029A
:1018C0006091060270910702CE0101969FDC6EEBDB
:1018D00073E0CE01019629DD409108025091090282
:1018E00060910A0270910B02CE0101968FDC66ECCA
:1018F00073E0CE01019619DDCE010196AFDBCE017A
:1019000001965DDDCE0107965ADDCE010D9657DDBD
:1019100061E373E08DE796E028DD10922A0486E803
:1019200095E0909344048093430480914E0690E0A8
:10193000909346048093450480918205853009F098
:101940007BC28091880590918905885891098D35D1
:10195000910588F480914E06843041F480918A0587
:1019600090918B058097479708F456C380914E0657
:10197000843408F038C380914E068A3108F44EC092
:101980008091860590918705843F914068F410927C
:1019900042041092410440923D0450923E046092F1
:1019A0003F047092400458C0809188059091890549
:1019B00085974B9798F5ECE8F5E082E090E0C12C34
:1019C000D12C760120914E0630E0AC014F5F5F4F85
:1019D0004217530754F4DF0112972D913C91275081
:1019E00031092730310508F45BC301979595879538
:1019F00090934204809341040C972CF4109242047B
:101A0000109241040BC0C0923D04D0923E04E0927B
:101A10003F04F092400482E090E017C480914E06AB
:101A20008A3108F44BC080918605909187058032F9
:101A3000934008F4ACCF8091880590918905C697B2
:101A4000869708F44AC33AC0C0923D04D0923E043F
:101A5000E0923F04F092400489E090E0F6C32081D8
:101A60003181255231092B31310508F046C3CC0CA8
:101A7000DD1CEE1CFF1C6894C0F802963496209181
:101A80004E0630E0AC014F5F5F4F421753074CF4F6
:101A9000DF0112972D913C912C5031092B303105EB
:101AA000F0F20197959587959093420480934104B5
:101AB0000C9754F6109242041092410480914E0605
:101AC000823208F44DC0809188059091890506976F
:101AD000079708F045C0ECE8F5E022E030E0C12CC3
:101AE000D12C7601C901019640914E0650E0841731
:101AF0009507E4F4DF0112974D915C9111974E51D7
:101B000051094731510508F005C3CC0CDD1CEE1C12
:101B1000FF1C6894C0F840815181349643505109AC
:101B20004530510520F42E5F3F4FDCCFC9010197AE
:101B300095958795909342048093410440972CF4A7
:101B400010924204109241040BC0C0923D04D09206
:101B50003E04E0923F04F09240048AE090E075C3B6
:101B600080914E068D3048F4809145049091460452
:101B7000181619060CF47EC08AC081E090E09887A0
:101B80008F831A82198249E753E0BE016F5F7F4F4E
:101B9000CE01079676DA892B21F080E090E0DC0117
:101BA00063C049E753E0BE016F5F7F4FCE010796E8
:101BB00068DA019791F749E753E0BE016F5F7F4F05
:101BC000CE0107965EDA892B41F700E010E0812C08
:101BD000912C540180914E0690E02F813885281772
:101BE000390764F549E753E0BE016F5F7F4FCE01CF
:101BF000079647DA7C0149E753E0BE016F5F7F4FEC
:101C0000CE0107963EDAF1E0EF16F10451F4892B8C
:101C100009F0C3CF880C991CAA1CBB1C689480F8DF
:101C20000AC0EF2809F0B9CF019709F0B6CF880CA8
:101C3000991CAA1CBB1C0F5F1F4FCCCF10934204F2
:101C40000093410480923D0490923E04A0923F0490
:101C5000B092400483E090E090933A04809339047A
:101C600081E090E0A0E0B0E0892B8A2B8B2B09F07B
:101C7000B7C07ACF81E090E098878F83E0914304EA
:101C8000F09144048281938189974E9720F080E0FF
:101C900090E0DC0148C082E090E098878F838481E7
:101CA00095810B970A9798F783E090E098878F8348
:101CB0001A8219824CEB51E0BE016F5F7F4FCE015B
:101CC0000796DFD9892B19F74CEB51E0BE016F5F06
:101CD0007F4FCE010796D5D90197C9F600E010E0F5
:101CE000812C912C54012F8138858091450490914D
:101CF0004604281739070CF41AC2109342040093C3
:101D0000410480923D0490923E04A0923F04B09220
:101D1000400484E090E090933A048093390481E099
:101D200090E0A0E0B0E0892B8A2B8B2B09F058C003
:101D3000E0914304F091440482819381C697869791
:101D400008F088C2848195814B97459708F082C23C
:101D5000DF0116967F0116ECE10EF11C20E030E069
:101D600040E050E060E070E080E090E0CD90DC90FA
:101D7000119719E0C11AD10818E0C116D10408F072
:101D800069C21296CD90DC90139711E1C11AD10867
:101D90001DE0C116D10408F01BC201E00E94271803
:101DA00021601496AE15BF0509F720933D043093CA
:101DB0003E0440933F045093400400E20E944218C6
:101DC00020933B0430933C0487E090E090933A04E6
:101DD0008093390480E390E090934204809341041F
:101DE00060913D0470913E0480913F0490914004C5
:101DF00040E1BED88FE293E083D840913D045091FA
:101E00003E0460913F04709140048091F0029091F3
:101E1000F1024F3CF0E35F07FDEF6F07710509F03A
:101E2000E5C1892B21F080E090E00E94FC0682E071
:101E30008093820510924E068091F0029091F102FB
:101E400081309105C1F18330910509F4BDC0892B22
:101E500009F0C6C084EE94E00E941302892B51F071
:101E600084EE94E00E94F101682F87E494E00E94E0
:101E70005202F0CF87E494E00E941302892B51F0C4
:101E800087E494E00E94F101682F84EE94E00E94C0
:101E90005202F0CF8FE596E00E944F05882309F4A7
:101EA0009FC060912F0481E0682760932F048DE02C
:101EB0000E94560495C08FE696E00E944F05882345
:101EC00009F48EC06AEC73E0CE0101967DDA69EE0A
:101ED00073E0CE010196FAD96AED73E0CE01019666
:101EE00024DA0E94F904AB01BC01CE010196BED9EF
:101EF00064EE73E0CE01019618DA6091F002709101
:101F0000F102CE010196E2D96DEE73E0CE010196A9
:101F10000CDA80E090E00E94720660932B047093CC
:101F20002C0480932D0490932E042ED620910C0225
:101F300030910D0240910E0250910F0251D7209125
:101F40000402309105024091060250910702ADD77C
:101F50000E94BD1719D660930802709309028093FE
:101F60000A0290930B0263ED73E0CE010196DDD976
:101F70006091000270910102CE010196A7D96AEF2B
:101F800073E0CE010196D1D9409108025091090227
:101F900060910A0270910B02CE01019637D966EC6E
:101FA00073E0CE010196C1D9CE01019657D8609158
:101FB0002F0481E0682760932F048DE00E9456046F
:101FC000CE010196FCD90CC087E596E00E944F0532
:101FD000882331F065E070E080E090E00E94C10469
:101FE0000E9484033BCB80918A0590918B0582549B
:101FF00091098E9708F0BFCC80E090E040E050E07F
:10200000BA01FC01E457FA4F20813181295031098E
:1020100029303105B0F0AFCC80918C0590918D05C1
:102020000997099708F0A2CC10924204109241043B
:1020300040923D0450923E0460923F0470924004EE
:1020400002C1FC01E257FA4F20813181265131094A
:1020500021313105C0F4440F551F661F771F4160C1
:1020600004968038910569F6A0E2B0E0B09342048E
:10207000A093410440933D0450933E0460933F0479
:1020800070934004E0C0208131812650310927300F
:10209000310508F070CC440F551F661F771FE0CF45
:1020A00020813181235131092F30310548F4CC0C86
:1020B000DD1CEE1CFF1C6894C0F80296349682CC9E
:1020C000208131812A5031092930310508F0A6CC10
:1020D000CC0CDD1CEE1CFF1CF0CF80918A0590918A
:1020E0008B05C697869708F0E9CCEEE8F5E083E02B
:1020F00090E0C12CD12C7601C2CC208131812C50B2
:1021000031092A30310508F0D9CCCC0CDD1CEE1C8D
:10211000FF1CB3CC4D915C914C5051094B30510593
:1021200008F01ECDCC0CDD1CEE1CFF1CF4CC4CEBDF
:1021300051E0BE016F5F7F4FCE0107960E944108BC
:102140006C010330110571F04CEB51E0BE016F5F83
:102150007F4FCE0107960E9441087C010330110594
:10216000D9F40DC04CEB51E0BE016F5F7F4FCE0143
:1021700007960E944108C816D90631F388CD4CEB6A
:1021800051E0BE016F5F7F4FCE0107960E9441086C
:10219000E816F90609F07BCDC114D10459F4EA948C
:1021A000EF2809F074CD880C991CAA1CBB1C6894FC
:1021B00080F80BC0CA94CD2809F069CDEF2809F04A
:1021C00066CD880C991CAA1CBB1C0F5F1F4F8BCDC2
:1021D0001296CD90DC90139714E0C11AD10815E047
:1021E000C116D104B8F501E032D7DBCD403D10E394
:1021F00051071DEF6107710558F4473F58406D4F77
:10220000710591F4019709F412CE81E090E00DCEB2
:10221000473BA8E45A07ADEF6A07710541F047371D
:1022200058486D4F710549F00E94D40600CE0397BF
:1022300009F4FDCD83E090E0F8CD029709F4F7CDE5
:1022400082E090E0F2CD81E090E090933A048093B8
:102250003904C6CD80914E06823231F48281938159
:102260000A97099708F4A2C082819381895791093E
:1022700083359105D0F480914E068132B0F084818F
:102280009581CA97899788F49F012A5F3F4FC12C97
:10229000D12C760143E050E0D9016D917C916A50D8
:1022A00071096930710508F49DC0809145049091D1
:1022B00046049C8B8B8B06970CF4B9CD8F010A5F7B
:1022C0001F4FB5ECCB2EBDE9DB2EBCE1EB2EB1E808
:1022D000FB2E83E0282E312CD8016D917C91F801E2
:1022E0003497A080B18080E090E04CD46D8B7E8BE1
:1022F0008F8B988FB50180E090E044D44B015C0156
:102300002DEC3CEC4CE45FE39ED49B01AC016D8969
:102310007E898F89988D32D487FD17C02DEC3CECD7
:102320004CE45FE36D897E898F89988D8CD49B0105
:10233000AC01C501B40122D4E82F880FFF0BEE27B2
:10234000FF0FEE1FFF27319602C0E0E0F0E0A7018B
:10235000960163E971E080E091E040D66F01FF0FE4
:10236000EE08FF08C626D726E826F926BFEF2B1A67
:102370003B0A0E5F1F4FEB89FC892E163F0609F0C2
:10238000ABCFC0923D04D0923E04E0923F04F09265
:10239000400480E290E09093420480934104AFEFC8
:1023A000BFEFB0933A04A09339041ACD20914E06A2
:1023B000CF01820F911D820F911DDC0112978D912B
:1023C0009C910A97099708F04FCF109242041092FF
:1023D000410440923D0450923E0460923F0470924A
:1023E000400447C0D90112966D917C9113976651B4
:1023F00071096131710568F5D701C601880F991F10
:10240000AA1FBB1F6C017D016894C0F84E5F5F4F2F
:102410002C5F3F4F4332510509F03ECF9F012A5BAD
:102420003F4FD9012D913C912A5031092930310576
:1024300008F03BCFE0E1F0E0F0934204E093410488
:10244000C0923D04D0923E04E0923F04F0924004DA
:1024500010C0D90112966D917C9113976650710945
:102460006730710508F021CFCC0CDD1CEE1CFF1C81
:10247000CDCF88E090E0E9CE87E796E00E94DF09C3
:102480008DE796E00C94DF09CF92DF92EF92FF92F6
:10249000E7E4F4E01382128288EEC82E83E0D82E9F
:1024A000E12CF12CC482D582E682F78286E093E0AB
:1024B000918380832DEC30E0358724872CEC30E04D
:1024C0003787268728EC30E0318B208B29EC30E0F1
:1024D000338B228B2AEC30E0358B248B2EEC30E0D2
:1024E000378B268B118E128E138E148EE4EEF4E051
:1024F00013821282C482D582E682F782918380831E
:1025000085EC90E09587848784EC90E097878687B8
:1025100080EC90E0918B808B81EC90E0938B828BB0
:1025200082EC90E0958B848B86EC90E0978B868B89
:10253000118E128E138E148EE1E8F5E082E0808316
:10254000128261E373E08DE796E00E94E4096FE197
:1025500074E087E796E00E94E40984EF91E0A0E050
:10256000B0E08093730690937406A0937506B093C1
:10257000760685E090E0A0E0B0E080936B06909353
:102580006C06A0936D06B0936E06C0926306D0925F
:102590006406E0926506F092660680935B0690936F
:1025A0005C06A0935D06B0935E068AEF90E0A0E023
:1025B000B0E08093530690935406A0935506B093D1
:1025C0005606FF90EF90DF90CF900895EF920F9313
:1025D0001F93CF93DF93E80147FD02C034E001C0B1
:1025E00034E1E42F440FFF0BF7FF03C0F195E195B1
:1025F000F109E32E022F2E2FAE014BD0CE01DF9139
:10260000CF911F910F91EF900895BB274A3031F47D
:10261000992322F4BDE2909581959F4F22C0BB275C
:10262000FA01A62F6217710581059105330B30FB66
:1026300066F0AA27660F771F881F991FAA1FA21787
:1026400010F0A21B63953850A9F7A05DAA3308F0DB
:10265000A95DA19336F7B111B1931082CA017EC270
:10266000BB27FB015527AA27880F991FAA1FA4176C
:1026700010F0A41B83955051B9F7A05DAA3308F060
:10268000A95DA193009779F7B111B1931192CB0194
:1026900065C24F925F926F927F929F92AF92BF926C
:1026A000CF92DF92EF92FF920F931F93CF93DF931E
:1026B000CDB7DEB729970FB6F894DEBF0FBECDBFFA
:1026C0006A01122FB02E2BE3201720F0FF24F39481
:1026D000F00E02C0BCE3FB2E0F2D27E0AE014F5FD2
:1026E0005F4F64D1AC018981982F9970913031F09E
:1026F000E1FC06C0E0FE06C090E205C09DE203C01A
:102700009BE201C090E0EE2DE07183FF3CC091118F
:1027100002C083E001C084E0811718F4212F281B38
:1027200001C020E0E1110BC0F601822F30E28823C6
:1027300019F031938150FBCFC20ED11C20E09923B8
:1027400029F0D6019C93F60131966F01C6010396DC
:10275000E2FE0AC03EE4D6013C9341E411964C935C
:10276000119712963C9306C03EE6F601308341E68F
:1027700041833283FC01322F40E2332309F442C00B
:1027800041933150FACF82FF44C0911102C083E0DF
:1027900001C084E0811718F4212F281B01C020E01C
:1027A000E1110BC0F601822F30E2882319F031933A
:1027B0008150FBCFC20ED11C20E0992329F0D60115
:1027C0009C93F60131966F01C6010396E2FE0BC0A1
:1027D00039E4D6013C933EE411963C93119736E4DC
:1027E00012963C9307C039E6F60130833EE631830A
:1027F00036E63283FC01322F40E2332319F0419355
:102800003150FBCFFC01E20FF11D10828EEF9FEFE4
:10281000B7C0F1E0911101C0F0E06F2F70E0141625
:10282000150624F49A012F5F3F4F02C021E030E0EB
:10283000260F371FBB2029F06B2D70E06F5F7F4F95
:1028400002C060E070E0260F371F612F70E026178E
:1028500037071CF4121B212F01C020E03E2D3871D8
:1028600059F4D601322F60E2332319F06D933150C1
:10287000FBCFC20ED11C20E0FF2331F0D6019C9388
:10288000B6016F5F7F4F6B01E1110BC0F601922F14
:1028900030E3992319F031939150FBCFC20ED11C34
:1028A00020E09F2D940F3A81782F7071A72E84FF1E
:1028B00003C0313309F49150191624F4993018F0FB
:1028C00098E001C091E0E42F852F57FF02C0E0E0BF
:1028D00080E06E2F782FE0E0F0E0AEE29A2E3A0131
:1028E000691A71082A01461A570A0B2D10E0119532
:1028F000019511096F3F8FEF780729F4D6019C925B
:10290000C60101966C014617570784F066167706D4
:102910006CF47F01E40CF51CA1E0B0E0AC0FBD1F2E
:10292000EA0EFB1ED7011196BC9002C090E3B92EAF
:10293000615071093196C60101967C0160177107DB
:1029400024F0D601BC926C01D5CF6417750741F411
:10295000363320F4353321F4A11002C081E3B82EC0
:10296000F601B082F701822F90E2882319F091934B
:102970008150FBCFF701E20FF11D108280E090E063
:1029800029960FB6F894DEBF0FBECDBFDF91CF9171
:102990001F910F91FF90EF90DF90CF90BF90AF907D
:1029A0009F907F906F905F904F900895283008F02F
:1029B00027E03327DA01990F311D87FD91600096DA
:1029C0006105710539F432602E5F3D9330E32A953D
:1029D000E1F708959F3F30F080387105610509F0F7
:1029E0003C5F3C5F3D93913008F08068911DDF9320
:1029F000CF931F930F93FF92EF92192F987F969585
:102A0000E92F96959695E90FFF27EE59FE4F9927E6
:102A10003327EE24FF24A701E701059008940794CB
:102A200028F4360FE71EF81E491F511D660F771F49
:102A3000881F991F0694A1F70590079428F4E70EC4
:102A4000F81E491F561FC11D770F881F991F661F4B
:102A50000694A1F70590079428F4F80E491F561F15
:102A6000C71FD11D880F991F661F771F0694A1F7F6
:102A70000590079420F4490F561FC71FD81F990FC0
:102A8000661F771F881F0694A9F784911095177009
:102A900041F0D695C79557954795F794E7941A95C1
:102AA000C1F7E8E0F1E068941590159135916591D2
:102AB000959105907FE27395E118F10A430B560B4F
:102AC000C90BD009C0F7E10CF11E431F561FC91FE7
:102AD000D01D7EF4703311F48A95E6CFE89401504E
:102AE00030F0080F0AF40027021708F4202F23956E
:102AF000022F7A3328F079E37D932A95E9F710C005
:102B00007D932A9589F6069497956795379517953D
:102B10001794E118F10A430B560BC90BD00998F032
:102B200023957E9173957A3308F070E37C9320139C
:102B3000B8F77E9170617D9330F0839571E37D935A
:102B400070E32A95E1F71124EF90FF900F911F9108
:102B5000CF91DF91992787FD90950895DC01FC01C5
:102B6000672F71917723E1F7329704C07C916D93C1
:102B700070836291AE17BF07C8F3089540D008F480
:102B800081E00895E89409C097FB3EF49095809504
:102B9000709561957F4F8F4F9F4F9923A9F0F92F23
:102BA00096E9BB279395F695879577956795B795A1
:102BB000F111F8CFFAF4BB0F11F460FF1BC06F5F87
:102BC0007F4F8F4F9F4F16C0882311F096E911C099
:102BD000772321F09EE8872F762F05C0662371F0BA
:102BE00096E8862F70E060E02AF09A95660F771FCE
:102BF000881FDAF7880F9695879597F90895990FAA
:102C00000008550FAA0BE0E8FEEF16161706E807B6
:102C1000F907C0F012161306E407F50798F0621BD7
:102C2000730B840B950B39F40A2661F0232B242BAC
:102C3000252B21F408950A2609F4A140A6958FEFCB
:102C4000811D811D08950BD078C069D028F06ED009
:102C500018F0952309F05AC05FC01124A2C07ED09D
:102C6000A0F3959FD1F3950F50E0551F629FF0019F
:102C7000729FBB27F00DB11D639FAA27F00DB11DF8
:102C8000AA1F649F6627B00DA11D661F829F222781
:102C9000B00DA11D621F739FB00DA11D621F839F08
:102CA000A00D611D221F749F3327A00D611D231FDE
:102CB000849F600D211D822F762F6A2F11249F572C
:102CC00050408AF0E1F088234AF0EE0FFF1FBB1F4F
:102CD000661F771F881F91505040A9F79E3F5105EE
:102CE00070F014C05EC05F3FECF3983EDCF3869555
:102CF00077956795B795F795E7959F5FC1F7FE2B99
:102D0000880F911D9695879597F9089597F99F6774
:102D100080E870E060E008959FEF80EC0895002463
:102D20000A941616170618060906089500240A9430
:102D300012161306140605060895092E0394000CB6
:102D400011F4882352F0BB0F40F4BF2B11F460FF45
:102D500004C06F5F7F4F8F4F9F4F089557FD90586E
:102D6000440F551F59F05F3F71F04795880F97FB4F
:102D7000991F61F09F3F79F0879508951216130609
:102D80001406551FF2CF4695F1DF08C01616170638
:102D90001806991FF1CF869571056105089408956D
:102DA000E894BB2766277727CB0197F9089509D0C8
:102DB000A59F900DB49F900DA49F800D911D11248F
:102DC0000895A29FB001B39FC001A39F700D811D04
:102DD0001124911DB29F700D811D1124911D089524
:102DE0005058BB27AA270ED0A8CF99DF30F09EDF1E
:102DF00020F031F49F3F11F41EF48ECF0EF4E095D5
:102E0000E7FB84CFE92FAADF80F3BA1762077307C5
:102E10008407950718F071F49EF5C2CF0EF4E09583
:102E20000B2EBA2FA02D0B01B90190010C01CA0184
:102E3000A0011124FF27591B99F0593F50F4503E2F
:102E400068F11A16F040A22F232F342F4427585F21
:102E5000F3CF469537952795A795F0405395C9F739
:102E60007EF41F16BA0B620B730B840BBAF09150F1
:102E7000A1F0FF0FBB1F661F771F881FC2F70EC090
:102E8000BA0F621F731F841F48F487957795679563
:102E9000B795F7959E3F08F0B3CF9395880F08F04C
:102EA0009927EE0F9795879508950CD046CF3EDF72
:102EB00040F035DF30F021F45F3F19F027CF51119A
:102EC00070CF2ACF4BDF98F39923C9F35523B1F381
:102ED000951B550BBB27AA2762177307840738F089
:102EE0009F5F5F4F220F331F441FAA1FA9F333D0E8
:102EF0000E2E3AF0E0E830D091505040E695001C9C
:102F0000CAF729D0FE2F27D0660F771F881FBB1F57
:102F1000261737074807AB07B0E809F0BB0B802D31
:102F2000BF01FF2793585F4F2AF09E3F510568F07D
:102F3000EDCE37CF5F3FECF3983EDCF38695779587
:102F40006795B795F7959F5FC9F7880F911D96957F
:102F5000879597F90895E1E0660F771F881FBB1FDB
:102F6000621773078407BA0720F0621B730B840B88
:102F7000BA0BEE1F88F7E095089504D06894B1115C
:102F800010CF0895F3DE88F09F5790F0B92F99275E
:102F9000B751A0F0D1F0660F771F881F991F1AF064
:102FA000BA95C9F712C0B13081F0FADEB1E00895E8
:102FB000F7CE672F782F8827B85F39F0B93FCCF369
:102FC000869577956795B395D9F73EF4909580955A
:102FD000709561957F4F8F4F9F4F0895DB018F93C1
:102FE0009F93E5DEBF91AF91A29F800D911DA39F9E
:102FF000900DB29F900D11240895A1E21A2EAA1BE4
:10300000BB1BFD010DC0AA1FBB1FEE1FFF1FA21798
:10301000B307E407F50720F0A21BB30BE40BF50B95
:10302000661F771F881F991F1A9469F7609570951E
:10303000809590959B01AC01BD01CF010895EE0FE5
:10304000FF1F881F8BBF0790F691E02D19940F93F7
:10305000083090F0982F872F762F652F542F432F0D
:10306000322F22270850F4CF220F331F441F551F41
:10307000661F771F881F991F0A95B2F70F91089551
:1030800097FB10F8169400080F93083098F008503A
:10309000232F342F452F562F672F782F892F902DD0
:1030A000F4CF0594979587957795679557954795AC
:1030B000379527950A95AAF70F910895CF93DF9337
:1030C0008230910510F482E090E0E0918606F09164
:1030D000870620E030E0C0E0D0E0309711F1408179
:1030E000518148175907C0F04817590761F4828188
:1030F0009381209719F09B838A832BC09093870636
:103100008093860626C02115310519F04217530712
:1031100018F49A01BE01DF01EF010280F381E02D76
:10312000DCCF2115310509F1281B390B243031057D
:1031300090F412968D919C9113976115710521F071
:10314000FB019383828304C0909387068093860655
:10315000FD01329644C0FD01E20FF31F819391936C
:10316000225031092D933C933AC02091840630912E
:103170008506232B41F42091F4023091F50230931F
:103180008506209384062091F2023091F3022115E6
:10319000310541F42DB73EB74091F6025091F70248
:1031A000241B350BE0918406F0918506E217F307A6
:1031B000A0F42E1B3F0B2817390778F0AC014E5FA7
:1031C0005F4F2417350748F04E0F5F1F5093850659
:1031D000409384068193919302C0E0E0F0E0CF0138
:1031E000DF91CF9108950F931F93CF93DF930097B3
:1031F00009F48CC0FC01329713821282009186067A
:10320000109187060115110581F420813181820F0B
:10321000931F20918406309185062817390779F588
:10322000F0938506E093840671C0D80140E050E039
:10323000AE17BF0750F412962D913C911397AD0134
:103240002115310509F1D901F3CF9D01DA0133834D
:10325000228360817181860F971F8217930769F41B
:10326000EC0128813981260F371F2E5F3F4F3183B4
:1032700020838A819B8193838283452B29F4F09359
:103280008706E093860642C01396FC93EE9312974E
:10329000ED01499159919E01240F351FE217F30763
:1032A00071F480819181840F951F029611969C93F1
:1032B0008E938281938113969C938E931297E0E074
:1032C000F0E0D80112968D919C911397009719F018
:1032D000F8018C01F6CF8D919C9198012E5F3F4FA4
:1032E000820F931F20918406309185062817390795
:1032F00069F4309729F4109287061092860602C06E
:10330000138212821093850600938406DF91CF9179
:103310001F910F9108956F927F928F929F92AF921B
:10332000BF92CF92DF92EF92FF920F931F93CF93B2
:10333000DF93EC01009781F4CB01DF91CF911F91D6
:103340000F91FF90EF90DF90CF90BF90AF909F9044
:103350008F907F906F90B2CEFC01E60FF71F9C011B
:1033600022503109E217F30708F4A8C0D9010D91E2
:103370001C91119706171707A8F00530110508F4DE
:103380009BC0C80104978617970708F495C00250A0
:103390001109061B170B019311936D937C93CF01B9
:1033A00022DF8AC05B01A01AB10A4C01800E911E77
:1033B000A0918606B091870640E050E0E12CF12C08
:1033C000109709F44AC0A815B905D1F56D907C9005
:1033D0001197630182E0C80ED11CCA14DB0480F18E
:1033E000A3014A195B096A0182E0C80ED11C12963A
:1033F000BC9012971396AC91B5E0CB16D10440F077
:10340000B282A38351834083D9016D937C930AC018
:103410000E5F1F4FC301800F911FF90191838083BD
:10342000EB2DFA2FE114F10431F0D7011396FC9340
:10343000EE93129741C0F0938706E09386063CC056
:103440008D919C9111974817590708F4AC017D01A3
:1034500012960D90BC91A02DB3CF809184069091CF
:10346000850688159905E1F446175707C8F4809139
:10347000F2029091F302009741F48DB79EB740910C
:10348000F6025091F702841B950BE817F907B0F488
:10349000F0938506E0938406F901718360830CC084
:1034A000CB010CDE7C01009749F0A801BE011BD0C6
:1034B000CE0199DEC70104C0CE0102C080E090E0D9
:1034C000DF91CF911F910F91FF90EF90DF90CF9000
:1034D000BF90AF909F908F907F906F90089581E004
:1034E00090E0F89427C0FB01DC0102C001900D922E
:1034F00041505040D8F70895FB01DC018D910190B7
:1035000080190110D9F3990B0895FB01DC0101909A
:103510000D920020E1F70895FB01DC01415050407D
:1035200030F08D910190801919F40020B9F7881BB3
:10353000990B089511E0C2E9D1E000E005C0802FA9
:10354000FE017DDD2196011DC339D10780E008070A
:06355000B1F7F894FFCF73
:1035560029002B000000D743000000005585004BD2
:103566000000000000000000000000000000000055
:103576000000000000000000000000000000000045
:103586000000000000000000000000000000000035
:103596000000000000000000000000000000000025
:1035A6000000000000000000000000000000000015
:1035B6000000000000000000000000000000000005
:1035C60000000000000000000000000000000000F5
:1035D60000000000000000000000000000000000E5
:1035E60000000000000000000000000000000000D5
:1035F60000000000000000000000000000000000C5
:1036060000000000000000000000000000000000B4
:1036160000000000000000000000000000000000A4
:103626000000000000000000000000000000000094
:103636000000000000000000000000000000000084
:103646000200000088068000C0F9A4B0999282F8B2
:1036560080900000000052025307E2019802130214
:10366600F10105020200E6AF9BE79AAEE8B4A8E9CD
:10367600878F3D00696E697448583731313A000DBD
:103686000A00E6ACA2E8BF8EE4BDBFE794A800231B
:1036960000436F6D6D616E643D0044657461696CD5
:1036A6003D0023544350434F4E4E00235443504451
:1036B6004F4E450023474554494E464F0023414C43
:1036C6004C494E464F3D7B002C224E4D223A22005D
:1036D600222C224D4953223A002C224D4F44223AA5
:1036E600002C22434F223A002C225353223A5B00ED
:1036F6007B224454223A002C2253434B223A002C7C
:10370600224F4646223A002C224756223A002C22C5
:10371600524553223A007D5D7D0023555044415465
:1037260045583D7B224944223A002C224D696C6C57
:1037360073223A002C224D6F6465223A002C2253E4
:10374600656E736F7273223A5B002C225265737535
:103756006C74223A0048583731315F4454203D207A
:10376600545255450023544F4D4F4445583D00E4AF
:0A377600B8BBE69699E58CBA000096
:020000023000CC
:10E000000D9489F10D94B2F10D94B2F10D94B2F129
:10E010000D94B2F10D94B2F10D94B2F10D94B2F1F0
:10E020000D94B2F10D94B2F10D94B2F10D94B2F1E0
:10E030000D94B2F10D94B2F10D94B2F10D94B2F1D0
:10E040000D94B2F10D94B2F10D94B2F10D94B2F1C0
:10E050000D94B2F10D94B2F10D94B2F10D94B2F1B0
:10E060000D94B2F10D94B2F10D94B2F10D94B2F1A0
:10E070000D94B2F10D94B2F10D94B2F10D94B2F190
:10E080000D94B2F10D94B2F10D94B2F10D94B2F180
:10E090000D94B2F10D94B2F10D94B2F10D94B2F170
:10E0A0000D94B2F10D94B2F10D94B2F10D94B2F160
:10E0B0000D94B2F10D94B2F10D94B2F10D94B2F150
:10E0C0000D94B2F10D94B2F10D94B2F10D94B2F140
:10E0D0000D94B2F10D94B2F10D94B2F10D94B2F130
:10E0E0000D94B2F141546D656761323536300041AF
:10E0F000726475696E6F206578706C6F72657220DE
:10E1000073746B3530305632206279204D4C530099
:10E11000426F6F746C6F616465723E004875683F52
:10E1200000436F6D70696C6564206F6E203D200048
:10E130004350552054797065202020203D20005FF9
:10E140005F4156525F415243485F5F3D2000415658
:10E1500052204C696243205665723D20004743437C
:10E160002056657273696F6E203D20004350552024
:10E1700049442020202020203D20004C6F7720663D
:10E18000757365202020203D20004869676820665F
:10E190007573652020203D200045787420667573D6
:10E1A00065202020203D20004C6F636B2066757336
:10E1B000652020203D20004D617220203720323024
:10E1C000313300312E362E3800342E332E350056A2
:10E1D00023202020414444522020206F7020636F70
:10E1E00064652020202020696E73747275637469E1
:10E1F0006F6E2061646472202020496E74657272B3
:10E20000757074006E6F20766563746F7200726A49
:10E210006D702020006A6D70200057686174207056
:10E220006F72743A00506F7274206E6F7420737541
:10E2300070706F72746564004D7573742062652030
:10E2400061206C6574746572002000577269747483
:10E25000696E672045450052656164696E672045B7
:10E26000450045452065727220636E743D00504F35
:10E27000525400303D5A65726F2061646472003FF1
:10E280003D43505520737461747300403D454550C3
:10E29000524F4D207465737400423D426C696E6B41
:10E2A000204C454400453D44756D70204545505215
:10E2B0004F4D00463D44756D7020464C415348001B
:10E2C000483D48656C70004C3D4C69737420492F83
:10E2D0004F20506F72747300513D51756974005234
:10E2E0003D44756D702052414D00563D73686F7707
:10E2F00020696E7465727275707420566563746FF0
:10E30000727300593D506F727420626C696E6B00BD
:10E310002A0011241FBECFEFD1E2DEBFCDBF01E046
:10E320000CBF12E0A0E0B2E0EEE1FDEF03E00BBFB6
:10E3300002C007900D92A030B107D9F712E0A0E01B
:10E34000B2E001C01D92AE30B107E1F70F9460F367
:10E350000D948DFE01E20EBF0FEF0DBF11241FBE05
:10E360000D9460F30D9400F020E030E040ED57E0B4
:10E3700005C0FA013197F1F72F5F3F4F2817390792
:10E38000C0F308959C01260F311DC901A0E0B0E043
:10E390002F5F3F4FABBFFC018791882361F08093D3
:10E3A000C6008091C00086FFFCCF8091C0008064D1
:10E3B0008093C000EACF08958DE08093C6008091DD
:10E3C000C00086FFFCCF8091C00080648093C000B5
:10E3D0008AE08093C6008091C00086FFFCCF8091C8
:10E3E000C00080648093C00008950F94C2F10F9420
:10E3F000DCF10895FC019081992359F09093C600B7
:10E400008091C00086FFFCCF8091C0008064809323
:10E41000C0003196992379F70895282F982F929567
:10E420009F70892F805D8A3308F0895F8093C600D2
:10E430008091C00086FFFCCF8091C00080648093F3
:10E44000C000822F8F70982F905D9A3308F0995FEB
:10E450009093C6008091C00086FFFCCF8091C000E1
:10E4600080648093C00008959C01FB01853691056E
:10E470001CF46330710594F0C90164E670E00F94F8
:10E480002EFE605D7F4F6093C6008091C00086FFC6
:10E49000FCCF8091C00080648093C0002B30310598
:10E4A00014F43297B4F0C90164E670E00F942EFEC4
:10E4B0006AE070E00F942EFE605D7F4F6093C600AF
:10E4C0008091C00086FFFCCF8091C0008064809363
:10E4D000C000C9016AE070E00F942EFEC0968093E0
:10E4E000C6008091C00086FFFCCF8091C000806490
:10E4F0008093C00008951F93182F8EE692EE60E07F
:10E500000F94C2F11093C6008091C00086FFFCCF2B
:10E510008091C00080648093C0000F94DCF11F9153
:10E5200008952F923F924F925F926F927F928F92B7
:10E530009F92AF92BF92CF92DF92EF92FF920F9392
:10E540001F93DF93CF93CDB7DEB762970FB6F894E2
:10E55000DEBF0FBECDBF382E622ECA01DB015C01CB
:10E560006D01772420E2222E2E010894411C511CBB
:10E570008BC081E0A81680E0B80681E0C80680E084
:10E58000D80628F0C601AA27BB270F940DF2BB2797
:10E59000AD2D9C2D8B2D0F940DF28A2D0F940DF225
:10E5A0002092C6008091C00086FFFCCF8091C00001
:10E5B00080648093C0009DE29093C6008091C0006B
:10E5C00086FFFCCF8091C00080648093C0002092C1
:10E5D000C6008091C00086FFFCCF8091C00080649F
:10E5E0008093C00019828601750188249924A1E0D6
:10E5F0003A1651F03A1620F0B2E03B1661F409C029
:10E600000BBFF701779007C0C7010F9477FE782EF4
:10E6100002C0F7017080872D0F940DF22092C60082
:10E620008091C00086FFFCCF8091C0008064809301
:10E63000C000872D8052F401EF70F0708F3520F408
:10E64000E40DF51D708204C0E40DF51D8EE280839B
:10E650000894E11CF11C011D111D0894811C911CE2
:10E6600090E18916910409F0C2CF80E190E0A0E02A
:10E67000B0E0A80EB91ECA1EDB1E198AC2010F9493
:10E68000FAF10F94DCF16A94662009F072CF629679
:10E690000FB6F894DEBF0FBECDBFCF91DF911F91B3
:10E6A0000F91FF90EF90DF90CF90BF90AF909F9031
:10E6B0008F907F906F905F904F903F902F90089534
:10E6C0002F923F924F925F926F927F928F929F9282
:10E6D000AF92BF92CF92DF92EF92FF920F931F9370
:10E6E000DF93CF93CDB7DEB7CD53D1400FB6F894BB
:10E6F000DEBF0FBECDBF01E20EBF0FEF0DBF94B75F
:10E70000F894A89514BE80916000886180936000A1
:10E7100010926000789493FF05C0E0910002F091A0
:10E7200001021995279A2F9A8091C00082608093E8
:10E73000C00080E18093C40088E18093C1000000A4
:10E74000EE24FF24870144E0A42EB12CCC24DD2448
:10E7500024C0C5010197F1F70894E11CF11C011DCB
:10E76000111D21E2E2162EE4F20620E0020720E06D
:10E77000120718F031E0C32ED12CC801B70127ECE5
:10E780003BE140E050E00F9441FE611571058105C9
:10E79000910519F485B1805885B98091C00087FD35
:10E7A00003C0C114D104A9F2A6014F5F5F4FC25E3E
:10E7B000DE4F59834883CE51D140C25EDE4F8881FF
:10E7C0009981CE51D140019711F00D9410FEC05D9A
:10E7D000DE4F19821882C053D14060E0C15DDE4F28
:10E7E0001882CF52D14088249924C35DDE4F19820C
:10E7F0001882CD52D140C05EDE4F188219821A8233
:10E800001B82C052D140CE5CDE4F188219821A8220
:10E810001B82C253D140EE24FF2487010BBFF701B6
:10E8200007911691C45CDE4F19830883CC53D14005
:10E830000D940BFEC25EDE4F28813981CE51D1404E
:10E840002130310509F52091C600C25EDE4F1982E4
:10E850001882CE51D14022C02F5F3F4F4F4F5F4FA4
:10E86000213082E138078AE7480780E0580780F0C6
:10E87000C45CDE4FE881F981CC53D140EF5FFF4F9C
:10E8800019F0EE27FF27099420E030E040E050E047
:10E890008091C00087FFE0CF2091C600C35DDE4FAE
:10E8A00048815981CD52D1404F5F5F4FC35DDE4FEC
:10E8B00059834883CD52D140213209F063C64A3092
:10E8C000510508F05FC60894811C911C53E0851621
:10E8D000910409F059C600E010E018C081E280936D
:10E8E000C6008091C00086FFFCCF8091C00080648C
:10E8F0008093C0002F5F3F4F2931310579F70F9486
:10E90000DCF10F5F1F4F0530110519F020E030E0FA
:10E91000E5CF10920A0210920B0210920C02109294
:10E920000D02109206021092070210920802109235
:10E930000902109202021092030210920402109235
:10E9400005028FEE90EE60E00F94F5F180E191EE1C
:10E9500060E00F94C2F18091C00087FFFCCF9091DE
:10E96000C600903608F09F759032B8F09093C600BC
:10E970008091C00086FFFCCF8091C00080648093AE
:10E98000C000A0E2A093C6008091C00086FFFCCF2B
:10E990008091C00080648093C000983409F4D7C18E
:10E9A0009934B8F4923409F459C1933458F490333B
:10E9B00019F1903308F4E3C59F33A1F1903409F0C5
:10E9C000DEC5BDC0953409F470C1963409F0D7C5D1
:10E9D00098C1923509F42BC2933538F49C3409F46C
:10E9E000F5C1913509F0CBC518C2963509F445C279
:10E9F000993509F0C4C567C483E792EE62E00F94CD
:10EA0000F5F110920602109207021092080210927D
:10EA1000090210920A0210920B0210920C0210923C
:10EA20000D0213C18FE792EE62E00F94F5F18FEEC5
:10EA300090EE60E00F94F5F181E291EE60E00F94CA
:10EA4000C2F187EB91EE60E00F94F5F180E391EE77
:10EA500060E00F94C2F184EE90EE60E00F94F5F167
:10EA60008FE391EE60E00F94C2F186E090E061E008
:10EA700070E00F9434F20F94DCF18DE591EE60E0DC
:10EA80000F94C2F189EC91EE60E00F94F5F18EE401
:10EA900091EE60E00F94C2F183EC91EE60E00F9490
:10EAA000F5F18CE691EE60E00F94C2F18EE10F94E7
:10EAB0000DF288E90F940DF281E00F940DF20F949E
:10EAC000DCF18BE791EE60E00F94C2F119E0E0E039
:10EAD000F0E010935700E4918E2F0F940DF20F94F5
:10EAE000DCF18AE891EE60E00F94C2F1E3E0F0E03F
:10EAF00010935700E4918E2F0F940DF20F94DCF1D8
:10EB000089E991EE60E00F94C2F1E2E0F0E0109349
:10EB10005700E4918E2F0F940DF20F94DCF188EAE8
:10EB200091EE60E00F94C2F1E1E0F0E01093570045
:10EB30001491812F0F940DF20F94DCF107CF8BE825
:10EB400092EE62E00F94F5F18BE492EE60E00F94A8
:10EB5000F5F10F94DCF100E010E019C0C8016F2D51
:10EB60000F947FFEFF2031F489E492EE60E00F9471
:10EB7000C2F10BC0F092C6008091C00086FFFCCFAE
:10EB80008091C00080648093C0000F5F1F4FC80158
:10EB900081519F41A0E0B0E0ABBFFC01F790BAE229
:10EBA000FB1621F0E2E000301E07C1F60F94DCF105
:10EBB0000F94DCF187E592EE60E00F94F5F10F948D
:10EBC000DCF1CC24DD2400E010E01EC0C8010F946D
:10EBD00077FEF82E882331F489E492EE60E00F94FA
:10EBE000C2F10BC08093C6008091C00086FFFCCFAD
:10EBF0008091C00080648093C000FE1419F00894D6
:10EC0000C11CD11C0F5F1F4FC80181519F41A0E063
:10EC1000B0E0ABBFFC01E790FAE2EF1621F022E092
:10EC20000030120799F60F94DCF10F94DCF182E6C4
:10EC300092EE60E00F94C2F1C60161E070E00F94C3
:10EC400034F20F94DCF10F94DCF110920202109276
:10EC50000302109204021092050278CE89E992EE26
:10EC600062E00F94F5F1279A2F9A16C02F9880E052
:10EC700090E0E0EDF7E03197F1F7019684369105E9
:10EC8000C1F72F9A80E090E0E0EDF7E03197F1F7DF
:10EC9000019684369105C1F78091C00087FFE6CFC9
:10ECA0008091C00087FFFCCF64C485EA92EE62E0E9
:10ECB0000F94F5F140910202509103026091040219
:10ECC0007091050281E020E10F9491F2809102029F
:10ECD00090910302A0910402B091050280509F4FD1
:10ECE000AF4FBF4F8093020290930302A0930402A0
:10ECF000B093050280509041A040B04008F426CE69
:10ED0000A4CF83EB92EE62E00F94F5F140910602FE
:10ED100050910702609108027091090280E020E1A1
:10ED20000F9491F28091060290910702A09108023F
:10ED3000B091090280509F4FAF4FBF4F80930602A2
:10ED400090930702A0930802B0930902FFCD80ECD4
:10ED500092EE62E00F94F5F183E792EE60E00F949B
:10ED6000F5F18FE792EE60E00F94F5F18BE892EE0B
:10ED700060E00F94F5F189E992EE60E00F94F5F10F
:10ED800085EA92EE60E00F94F5F183EB92EE60E09D
:10ED90000F94F5F180EC92EE60E00F94F5F187ECC2
:10EDA00092EE60E00F94F5F188ED92EE60E00F9442
:10EDB000F5F18FED92EE60E00F94F5F18AEE92EEB0
:10EDC00060E00F94F5F183E093EEBDCD87EC92EE19
:10EDD00062E00F94F5F181E40F947BF282E40F94EA
:10EDE0007BF283E40F947BF284E40F947BF285E45E
:10EDF0000F947BF286E40F947BF287E40F947BF20E
:10EE000088E40F947BF28AE40F947BF28BE40F94F6
:10EE10007BF28CE40F947BF299CD88ED92EE62E068
:10EE20000F94F5F1772473948824992409C48FED05
:10EE300092EE62E00F94F5F140910A0250910B02BC
:10EE400060910C0270910D0282E020E10F9491F22A
:10EE500080910A0290910B02A0910C02B0910D02D8
:10EE600080509F4FAF4FBF4F80930A0290930B0289
:10EE7000A0930C02B0930D0269CD8AEE92EE62E08F
:10EE80000F94F5F184EE90EE60E00F94F5F18FECC5
:10EE900091EE60E00F94F5F1662477244301CC5D98
:10EEA000DE4F19821882C452D140D401C301B695F5
:10EEB000A79597958795CA5DDE4F88839983AA8326
:10EEC000BB83C652D140CC5DDE4FA881B981C4520C
:10EED000D1401196CC5DDE4FB983A883C452D14096
:10EEE000CD0162E070E00F9434F2B0E2B093C6005E
:10EEF0008091C00086FFFCCF8091C0008064809329
:10EF0000C000EDE2E093C6008091C00086FFFCCF18
:10EF10008091C00080648093C000F0E2F093C6004E
:10EF20008091C00086FFFCCF8091C00080648093F8
:10EF3000C000CA5DDE4FE880F9800A811B81C6529D
:10EF4000D140BB27A12F902F8F2D0F940DF2CA5DBA
:10EF5000DE4F8881C652D1400F940DF2B0E2FB2EF5
:10EF6000F092C6008091C00086FFFCCF8091C00067
:10EF700080648093C0000DE30093C6008091C000C0
:10EF800086FFFCCF8091C00080648093C00010E2B7
:10EF90001093C6008091C00086FFFCCF8091C00016
:10EFA00080648093C0008BBEF3012791C65DDE4F65
:10EFB0002883CA52D140A22EBB24CC24DD2408943D
:10EFC000611C711C811C911C8BBEF3018791282E42
:10EFD0003324442455240894611C711C811C911C09
:10EFE0008BBEF3013791C55DDE4F3883CB52D140E4
:10EFF0000894611C711C811C911C8BBEF30147910C
:10F00000C45DDE4F4883CC52D140ADEFEA2EAFEF66
:10F01000FA2EAFEF0A2FAFEF1A2F6E0C7F1C801E57
:10F02000911E142D032DF22CEE24EA0CFB1C0C1D5A
:10F030001D1D0F940DF220E22093C6008091C000A8
:10F0400086FFFCCF8091C00080648093C000C65DC5
:10F05000DE4F8881CA52D1400F940DF230E23093D6
:10F06000C6008091C00086FFFCCF8091C000806404
:10F070008093C000C45DDE4F8881CC52D1400F9494
:10F080000DF240E24093C6008091C00086FFFCCFA5
:10F090008091C00080648093C000C55DDE4F888190
:10F0A000CB52D1400F940DF250E25093C6008091A4
:10F0B000C00086FFFCCF8091C00080648093C000B8
:10F0C0008FEFE8168FEFF80680E0080780E018075A
:10F0D00031F484E092EE60E00F94C2F1DFC0D80119
:10F0E000C7018070907CA070B0708050904CA040A0
:10F0F000B040D1F52FEF3FE340E050E0E222F322B1
:10F1000004231523CA5DDE4FA880B980CA80DB8046
:10F11000C652D140AE0CBF1CC01ED11EAA0CBB1CD7
:10F12000CC1CDD1C8EE092EE60E00F94C2F1BB2798
:10F13000A12F902F8F2D0F940DF28E2D0F940DF285
:10F1400030E23093C6008091C00086FFFCCF8091F2
:10F15000C00080648093C0004EE34093C60080915D
:10F16000C00086FFFCCF87C08EE09EEFA0E0B0E03D
:10F17000E822F9220A231B239CE0E91694E9F90608
:10F1800090E0090790E0190709F088C0C45DDE4FE0
:10F19000A881CC52D140EA2EFF2400E010E0102FCD
:10F1A0000F2DFE2CEE24C55DDE4FB881CB52D14031
:10F1B000EB0EF11C011D111DD601C501817090706F
:10F1C000A070B070DC0199278827E80EF91E0A1F8D
:10F1D0001B1F20EF30E040E050E0A222B322C42207
:10F1E000D52241E1AA0CBB1CCC1CDD1C4A95D1F7F1
:10F1F000EA0CFB1C0C1D1D1D81E090E0A0E0B0E0BE
:10F20000282239224A225B2235E1220C331C441C7D
:10F21000551C3A95D1F7E20CF31C041D151D57013E
:10F220006801AA0CBB1CCC1CDD1C85E192EE60E0E1
:10F230000F94C2F1C801AA27BB270F940DF2BB2778
:10F24000A12F902F8F2D0F940DF28E2D0F940DF274
:10F2500090E29093C6008091C00086FFFCCF809121
:10F26000C00080648093C000AEE3A093C60080918C
:10F27000C00086FFFCCF8091C00080648093C000F6
:10F28000C601AA27BB270F940DF2BB27AD2D9C2DDD
:10F290008B2D0F940DF28A2D0F940DF20F94DCF14B
:10F2A000CC5DDE4FE881F981C452D140F99709F471
:10F2B0004DCBF4E0EF2EF12C012D112D6E0C7F1CA7
:10F2C000801E911EF2CD83E093EE62E00F94F5F183
:10F2D0008AE192EE60E00F94C2F18091C00087FF56
:10F2E000FCCF1091C6001F751093C6008091C0001E
:10F2F00086FFFCCF8091C00080648093C0000F9493
:10F30000DCF1812F81548A3108F036C1163409F4BA
:10F3100095C0173490F4133409F44EC0143430F40B
:10F320001134F1F0123409F01DC130C0143409F465
:10F3300059C0153409F016C16BC01A3409F4C4C0A1
:10F340001B3438F4173409F48FC0183409F00AC19B
:10F35000A1C01B3409F4D2C01C3409F003C1E8C0B9
:10F360008FEF81B90DC082B1809582B980E090E0C5
:10F37000E0EDF7E03197F1F70196883C9105C1F790
:10F380008091C00087FFEFCF12B8EFC08FEF84B934
:10F390000DC085B1809585B980E090E0E0EDF7E0A3
:10F3A0003197F1F70196883C9105C1F78091C00033
:10F3B00087FFEFCF15B8D9C08FEF87B90DC088B1DF
:10F3C000809588B980E090E0E0EDF7E03197F1F7C3
:10F3D0000196883C9105C1F78091C00087FFEFCF6F
:10F3E00018B8C3C08FEF8AB90DC08BB180958BB9A7
:10F3F00080E090E0E0EDF7E03197F1F70196883C8E
:10F400009105C1F78091C00087FFEFCF1BB8ADC059
:10F410008FEF8DB90DC08EB180958EB980E090E0F0
:10F42000E0EDF7E03197F1F70196883C9105C1F7DF
:10F430008091C00087FFEFCF1EB897C08FEF80BBD1
:10F440000DC081B3809581BB80E090E0E0EDF7E0F6
:10F450003197F1F70196883C9105C1F78091C00082
:10F4600087FFEFCF11BA81C08FEF83BB0DC084B38C
:10F47000809584BB80E090E0E0EDF7E03197F1F714
:10F480000196883C9105C1F78091C00087FFEFCFBE
:10F4900014BA6BC08FEF809301010FC080910201FD
:10F4A00080958093020180E090E0E0EDF7E03197F5
:10F4B000F1F70196883C9105C1F78091C00087FF64
:10F4C000EDCF1092020151C08FEF809304010FC065
:10F4D0008091050180958093050180E090E0E0ED4A
:10F4E000F7E03197F1F70196883C9105C1F78091DB
:10F4F000C00087FFEDCF1092050137C08FEF8093DA
:10F5000007010FC08091080180958093080180E079
:10F5100090E0E0EDF7E03197F1F70196883C910536
:10F52000C1F78091C00087FFEDCF109208011DC088
:10F530008FEF80930A010FC080910B01809580931B
:10F540000B0180E090E0E0EDF7E03197F1F70196F4
:10F55000883C9105C1F78091C00087FFEDCF1092E4
:10F560000B0103C085E292EEEEC98091C00087FFD7
:10F57000FCCF8091C600EAC988E392EEE4C98CE131
:10F5800091EEE1C988249924933011F1943028F444
:10F59000913089F09230B8F408C0953061F195301F
:10F5A000F0F0963009F048C043C02B3109F042C951
:10F5B00091E06BE13FC96227C15DDE4F2883CF52E6
:10F5C000D14092E037C9B22FA0E0622793E032C960
:10F5D000822F90E0A82BB92B622794E02BC92E3004
:10F5E00009F039C3622795E0C05DDE4F19821882A9
:10F5F000C053D1401FC9E1E0F0E0EC0FFD1FC05D3A
:10F60000DE4F08811981C053D140E00FF11F2083E4
:10F610000F5F1F4FC05DDE4F19830883C053D14079
:10F6200062270A171B0709F005C9D80196E002C92D
:10F63000261709F010C303C0973009F0FBC87724E0
:10F640009981933109F412C19431C8F4963009F4C8
:10F65000D8C0973050F4923009F406C1933009F4C1
:10F660006DC0913009F059C253C0913109F477C08F
:10F67000923108F0BBC0903109F04FC2F5C098310B
:10F6800009F487C0993150F4953109F4EFC09531F0
:10F6900008F4C6C1963109F040C2C2C19A3109F4DA
:10F6A0006CC09A3108F491C09B3109F45BC09D3164
:10F6B00009F033C29D81903359F48F81882311F46E
:10F6C0009EE11CC0813011F091E018C098E916C08D
:10F6D000892F807591F0903539F4E0E0F0E089E011
:10F6E0008093570094910AC0983539F4E3E0F0E034
:10F6F00089E080935700949101C090E01A821B82A8
:10F700008D818C831D829E831F8227E030E009C299
:10F710001A8288E08B8381E48C8386E58D8382E581
:10F720008E8389E48F8383E5888780E589878FE5E9
:10F730008A8782E38B872BE030E0F3C18A818139AD
:10F7400041F0823941F0803911F48FE005C080E04A
:10F7500003C082E001C08AE01A828B8344C0772410
:10F76000739482C08D81882311F48EE12CC0813086
:10F7700011F081E028C088E926C01A82E1E0F0E0BB
:10F7800089E08093570084918B831C8224E030E0D1
:10F79000C8C18B81803589F48C81883039F4E2E0EE
:10F7A000F0E089E08093570084910DC0E0E0F0E044
:10F7B00089E080935700849106C0E3E0F0E089E09F
:10F7C0008093570084911A82DFCF8D81836C99E0FA
:10F7D000E1E0F0E0082E90935700E89507B600FCB2
:10F7E000FDCF1A821B8223E030E09BC180EC8A832C
:10F7F000CE5CDE4F188219821A821B82C253D1401E
:10F800008EC18A8190E0A0E0B0E0582F44273327D2
:10F8100022278B8190E0A0E0B0E0DC0199278827C7
:10F82000282B392B4A2B5B2B8D8190E0A0E0B0E098
:10F83000282B392B4A2B5B2B8C8190E0A0E0B0E089
:10F84000BA2FA92F982F8827282B392B4A2B5B2BCF
:10F85000220F331F441F551FC05EDE4F288339839C
:10F860004A835B83C052D1401A8259C13A81C95C34
:10F87000DE4F3883C753D140CA5CDE4F1882C6536F
:10F88000D1408B81C82EDD24CA5CDE4F488159816E
:10F89000C653D140C42AD52A933109F082C0CE5C28
:10F8A000DE4F88819981AA81BB81C253D1408050AB
:10F8B000904CA340B04030F583E0CE5CDE4FE88052
:10F8C000F9800A811B81C253D140F70100935B008C
:10F8D00080935700E89507B600FCFDCFCE5CDE4F65
:10F8E000088119812A813B81C253D14000501F4FAA
:10F8F0002F4F3F4FCE5CDE4F088319832A833B8313
:10F90000C253D140C05EDE4F488159816A817B81FC
:10F91000C052D140DE011B9631E08C9111962C91A2
:10F9200011971296C75CDE4F2883C953D140C85C3B
:10F93000DE4F1882C853D14090E0C85CDE4FE881AA
:10F94000F981C853D1408E2B9F2B0C01FA01609393
:10F950005B0030935700E89511244E5F5F4F6F4F67
:10F960007F4F0EEFE02E0FEFF02ECE0CDF1CC114F8
:10F97000D10499F685E0C05EDE4F088119812A81A5
:10F980003B81C052D140F80120935B008093570027
:10F99000E89507B600FCFDCF81E180935700E8951C
:10F9A00035C0C05EDE4F88819981AA81BB81C0527B
:10F9B000D140B695A795979587957C018601ABE0D8
:10F9C000AA2EB12CAC0EBD1E0BC0D5016D915D01F0
:10F9D000C7010F947FFE0894E11CF11C01501040F8
:10F9E0000115110591F7A60160E070E0440F551F65
:10F9F000661F771FC05EDE4FE880F9800A811B8199
:10FA0000C052D1404E0D5F1D601F711F1A82C05E33
:10FA1000DE4F488359836A837B83C052D1407FC0C5
:10FA2000FA80C55CDE4FF882CB53D140C65CDE4F16
:10FA30001882CA53D1408B81C82EDD24C65CDE4FAC
:10FA400008811981CA53D140C02AD12A1A828981DA
:10FA5000BE016D5F7F4F843121F59601C05EDE4FA0
:10FA6000E880F9800A811B81C052D1400BBFF701A9
:10FA700087919691DB018C9311969C936E5F7F4FDB
:10FA8000D801C7010296A11DB11DC05EDE4F88835B
:10FA90009983AA83BB83C052D14022503040F1F6F3
:10FAA00036C0C05EDE4F288139814A815B81C052F9
:10FAB000D1400894C108D108760100E010E0089414
:10FAC000C11CD11C0894E11CF11C011D111DE20E8A
:10FAD000F31E041F151F21BDBB27A52F942F832FB5
:10FAE00082BD2F5F3F4F4F4F5F4FF89A80B5DB01CC
:10FAF0008D93BD012E153F054007510761F7C05E8C
:10FB0000DE4F288339834A835B83C052D1409601FC
:10FB10002D5F3F4FFB01108204C080EC8A8322E0FE
:10FB200030E08BE18093C6008091C00086FFFCCF5F
:10FB30008091C00080648093C000C15DDE4FF88179
:10FB4000CF52D140F093C6008091C00086FFFCCF19
:10FB50008091C00080648093C000432F3093C60022
:10FB60008091C00086FFFCCF8091C00080648093AC
:10FB7000C000922F2093C6008091C00086FFFCCF6A
:10FB80008091C00080648093C0008EE08093C600A6
:10FB90008091C00086FFFCCF8091C000806480937C
:10FBA000C00065E1C15DDE4FE880CF52D1406E25D7
:10FBB00069276427FE01319610C090819093C6009A
:10FBC0008091C00086FFFCCF31968091C000806498
:10FBD0008093C0006927215030402115310569F715
:10FBE0006093C6008091C00086FFFCCF8091C0006A
:10FBF00080648093C00085B1805885B9772081F4F6
:10FC0000C15DDE4F0881CF52D1400F5FC15DDE4F35
:10FC10000883CF52D14090E0A0E0B0E00D941AF4F8
:10FC200027982F9880E090E020ED37E0F901319798
:10FC3000F1F7019684369105C9F700008091C00064
:10FC40008D7F8093C00081E180935700E895EE2777
:10FC5000FF270994FFCF90E00D941AF497FB092E2B
:10FC600007260AD077FD04D02ED006D000201AF443
:10FC7000709561957F4F0895F6F7909581959F4F08
:10FC80000895A1E21A2EAA1BBB1BFD010DC0AA1FDD
:10FC9000BB1FEE1FFF1FA217B307E407F50720F0F5
:10FCA000A21BB30BE40BF50B661F771F881F991F70
:10FCB0001A9469F760957095809590959B01AC01B9
:10FCC000BD01CF010895AA1BBB1B51E107C0AA1FAC
:10FCD000BB1FA617B70710F0A61BB70B881F991FED
:10FCE0005A95A9F780959095BC01CD010895F99991
:10FCF000FECF92BD81BDF89A992780B50895262F31
:10FD0000F999FECF1FBA92BD81BD20BD0FB6F89400
:0EFD1000FA9AF99A0FBE01960895F894FFCF63
:040000033000E000E9
:00000001FF