:1000000015C1000044C1000042C1000040C1000011
:100010003EC100003CC100003AC1000038C10000F0
:1000200036C1000034C1000032C1000030C1000000
:100030002EC10000F4C400002AC1000028C1000045
:1000400026C1000024C1000022C1000020C1000020
:100050001EC100001CC100001AC1000059C40000EC
:1000600016C100007DC3000052C3000010C1000093
:100070000EC100000CC100000AC1000008C1000050
:1000800006C1000004C1000002C1000000C1000060
:1000900015C30000EAC20000FAC00000F8C000006A
:1000A000F6C00000F4C00000F2C00000F0C0000084
:1000B000EEC00000ECC00000EAC00000E8C0000094
:1000C000E6C00000E4C00000E2C00000E0C00000A4
:1000D000DEC00000DCC00000DAC00000D8C00000B4
:1000E000D6C0000057025A0249024D025302910243
:1000F0005E02620268026C02700276027A027E027E
:100100009102840288028C02000021002400270052
:100110002A002D0030003300010100000401070116
:100120000A0100002200250028002B002E003100CB
:10013000340002010000050108010B01000020004D
:100140002300260029002C002F00320000010000AF
:10015000030106010901050505050705080808084A
:10016000020202020A0A080804040404010101014F
:10017000010101010303030303030303040707074A
:100180000C0C0C0C0C0C0C0C0202020206060606EF
:10019000060606060B0B0B0B0B0B0B0B01021020BC
:1001A00020080810204010204080020102010804AD
:1001B0000201010204081020408080402010080441
:1001C000020180040201804020100804020108049A
:1001D00002010102040810204080010204081020DE
:1001E000408000000A0B02090C0D0E0807030401F1
:1001F00000000000000000000000000000000000FF
:1002000000000000000000000000000000001211CB
:1002100010000000000000000000000000000000CE
:100220000000000000000000D711CF1111241FBEF4
:10023000CFEFD1E2DEBFCDBF00E00CBF26E0A6EEDF
:10024000B3E001C01D92A434B207E1F713E0A0E0CF
:10025000B2E0E0E9FFE200E00BBF02C007900D92C0
:10026000A63EB107D9F711E0C5E1D1E000E006C034
:1002700021970109802FFE010E943C15C431D1074E
:1002800080E00807A9F70E94E3090C94B717B8CEDD
:10029000FC01A089B1898C91A689B78982FD0FC024
:1002A0009C91818D8F5F8F73228D821749F0218DF4
:1002B000DF01A20FB11D5D969C93818F08958C91F3
:1002C0000895089580E090E00895FC01538D448DD9
:1002D000252F30E0842F90E0821B930B541710F0F1
:1002E000CF96089501970895FC01918D828D9817FE
:1002F00061F0828DDF01A80FB11D5D968C91928D0A
:100300009F5F9F73928F90E008958FEF9FEF089506
:10031000FC01918D828D981731F0828DE80FF11DCF
:10032000858D90E008958FEF9FEF0895FC01918DEA
:10033000228D892F90E0805C9F4F821B91098F73E3
:100340009927089583E094E0F1DF21E0892B09F4F7
:1003500020E0822F089580EA94E0E8DF21E0892BF5
:1003600009F420E0822F0895FC01848DDF01A80F9D
:10037000B11DA35ABF4F2C91848D90E001968F73CD
:100380009927848FA689B7892C93A089B1898C91EC
:1003900080648C93938D848D981306C00288F389B2
:1003A000E02D80818F7D80830895EF92FF920F93DF
:1003B0001F93CF93DF93EC0181E0888F9B8D8C8D11
:1003C000981305C0E889F989808185FD23C0F62E40
:1003D0000B8D10E00F5F1F4F0F731127E02E8C8DD8
:1003E000E8120BC00FB607FCFACFE889F9898081C3
:1003F00085FFF5CFCE01B8DFF2CF8B8DFE01E80F80
:10040000F11DE35AFF4FF0820B8FEA89FB8980814F
:10041000806207C0EE89FF896083E889F98980815D
:100420008064808381E090E0DF91CF911F910F91F4
:10043000FF90EF900895CF93DF93EC01888D882390
:10044000C1F0EA89FB89808185FD05C0A889B98949
:100450008C9186FD0EC00FB607FCF5CF808185FF1D
:10046000F2CFA889B9898C9185FFEDCFCE017CDFD1
:10047000E8CFDF91CF91089590E0FC013197E23110
:10048000F10508F04EC08827EE58FF4F8F4F0C94AF
:100490003C15809180008F7703C0809180008F7D14
:1004A00080938000089580918000877FF9CF84B584
:1004B0008F7702C084B58F7D84BD08958091B00090
:1004C0008F7703C08091B0008F7D8093B000089536
:1004D000809190008F7707C0809190008F7D03C03E
:1004E00080919000877F8093900008958091A00074
:1004F0008F7707C08091A0008F7D03C08091A000FE
:10050000877F8093A0000895809120018F7707C096
:10051000809120018F7D03C080912001877F80938F
:1005200020010895CF93DF93282F30E0F901EE5199
:10053000FE4F8491F901E456FE4FD491F901EA5A35
:10054000FE4FC491CC2389F0811196DFEC2FF0E0AF
:10055000EE0FFF1FE45CFE4FA591B491EC91ED23EB
:1005600081E090E021F480E002C080E090E0DF9143
:10057000CF9108953FB7F8948091F1039091F203E1
:10058000A091F303B091F40326B5A89B05C02F3FBB
:1005900019F00196A11DB11D3FBFBA2FA92F982FA9
:1005A0008827820F911DA11DB11DBC01CD0142E024
:1005B000660F771F881F991F4A95D1F708950F93EB
:1005C0001F93CF93DF931F921F92CDB7DEB701E049
:1005D00080EA94E0ABDE892B99F080EA94E084DE37
:1005E000182F89831A8241E050E0BE016F5F7F4F70
:1005F00089E396E064D51A3059F70093E603E8CF13
:100600000F900F90DF91CF911F910F910895A3DE6E
:10061000811120C080E090E0892B19F093DE8111D8
:100620001BC080E090E0892B41F080E090E0892BB6
:1006300021F00E940000811112C080E090E0892B1F
:1006400099F080E090E0892B79F00E940000811100
:1006500009C00895B4DFDECF0E940000E2CF0E94FF
:100660000000EBCF0C94000008951F920F920FB67C
:100670000F9211240BB60F922F933F934F935F93DA
:100680006F937F938F939F93AF93BF93EF93FF935A
:1006900083E094E069DEFF91EF91BF91AF919F916C
:1006A0008F917F916F915F914F913F912F910F901B
:1006B0000BBE0F900FBE0F901F9018951F920F92B8
:1006C0000FB60F9211240BB60F922F933F934F93B7
:1006D0005F936F937F938F939F93AF93BF93EF93AA
:1006E000FF9383E094E0D4DDFF91EF91BF91AF9150
:1006F0009F918F917F916F915F914F913F912F913A
:100700000F900BBE0F900FBE0F901F9018951F9269
:100710000F920FB60F9211240BB60F922F933F93A7
:100720004F935F936F937F938F939F93AF93BF93F9
:10073000EF93FF9380EA94E017DEFF91EF91BF9172
:10074000AF919F918F917F916F915F914F913F9169
:100750002F910F900BBE0F900FBE0F901F9018950A
:100760001F920F920FB60F9211240BB60F922F9378
:100770003F934F935F936F937F938F939F93AF9329
:10078000BF93EF93FF9380EA94E082DDFF91EF91B6
:10079000BF91AF919F918F917F916F915F914F9199
:1007A0003F912F910F900BBE0F900FBE0F901F9097
:1007B00018951F93CF93DF93282F30E0F901EE5166
:1007C000FE4F8491F901E456FE4FD491F901EA5AA3
:1007D000FE4FC491CC23C1F0162F81114DDEEC2FBA
:1007E000F0E0EE0FFF1FEE5DFE4FA591B4918FB7C5
:1007F000F894111105C09C91ED2FE095E92302C0FA
:10080000EC91ED2BEC938FBFDF91CF911F91089569
:10081000CF93DF9390E0FC01E456FE4F2491FC015E
:10082000EA5AFE4F8491882361F190E0880F991F66
:10083000FC01E85FFE4FC591D491FC01EE5DFE4FD7
:10084000A591B491611109C09FB7F8948881209552
:1008500082238883EC912E230BC0623061F49FB712
:10086000F8943881822F809583238883EC912E2BF6
:100870002C939FBF06C08FB7F894E8812E2B288356
:100880008FBFDF91CF9108958F929F92AF92BF92C9
:10089000CF92DF92EF92FF926B017C016BDE4B01F6
:1008A0005C01C114D104E104F104E9F063DEDC0170
:1008B000CB0188199909AA09BB09883E9340A10573
:1008C000B10578F321E0C21AD108E108F10888EEF9
:1008D000880E83E0981EA11CB11CC114D104E10450
:1008E000F10421F7DECFFF90EF90DF90CF90BF9023
:1008F000AF909F908F9008952FB7F8946091ED037B
:100900007091EE038091EF039091F0032FBF089553
:100910001F920F920FB60F9211242F933F938F9334
:100920009F93AF93BF938091ED039091EE03A091BD
:10093000EF03B091F0033091EC0323E0230F2D3748
:1009400020F40196A11DB11D05C026E8230F0296D3
:10095000A11DB11D2093EC038093ED039093EE0352
:10096000A093EF03B093F0038091F1039091F20311
:10097000A091F303B091F4030196A11DB11D8093E2
:10098000F1039093F203A093F303B093F403BF91A8
:10099000AF919F918F913F912F910F900FBE0F902C
:1009A0001F901895CF92DF92EF92FF920F931F93B3
:1009B000CF93DF93EC01A0DFCC80DD80EE80FF8061
:1009C000C114D104E104F10429F4688379838A8392
:1009D0009B8319C0088119812A813B81DC01CB01ED
:1009E000801B910BA20BB30B8C159D05AE05BF05AB
:1009F00060F0B901A8014C0D5D1D6E1D7F1D48837F
:100A000059836A837B8381E001C080E0DF91CF91CD
:100A10001F910F91FF90EF90DF90CF9008951F925C
:100A20000F920FB60F9211240BB60F922F933F9394
:100A30004F935F936F937F938F939F93AF93BF93E6
:100A4000EF93FF9380913D056DDD2091400530913E
:100A500041052F5F3F4F3093410520934005909112
:100A60000A06943618F095E090933E0590913E0565
:100A70009330B9F018F4923039F057C0943059F1EE
:100A8000953009F44CC051C081114FC020914005F0
:100A9000309141052436310508F443C010920A060E
:100AA0001CC0813009F041C0E0910A0691E09E0F20
:100AB00090930A06F0E02091400530914105EE0F39
:100AC000FF1FE35CFA4F3683258310924105109295
:100AD000400594E021C0811117C0E0910A0691E021
:100AE0009E0F90930A06F0E0209140053091410559
:100AF000EE0FFF1FE35CFA4F36832583109241050A
:100B00001092400593E008C02091400530914105C6
:100B10002536310550F095E090933E0506C08111D1
:100B200004C0109241051092400590913F05992311
:100B300029F0811102C02F9A01C02F98FF91EF91E7
:100B4000BF91AF919F918F917F916F915F914F91E5
:100B50003F912F910F900BBE0F900FBE0F901F90E3
:100B60001895CF92DF92EF92FF92CF93DF93EC0133
:100B7000072E000C880B990B0E94E1126B017C017F
:100B800020E030E040E45FE30E94401320E030E0EA
:100B900048E452E40E9472140E94DA14C617D70780
:100BA000D4F020E030E040EA5FE3C701B6010E94E4
:100BB000401320E030E048E452E40E94721420E048
:100BC00030E040E85FE30E940E140E94DA1421E056
:100BD0006C177D070CF420E0822F90E0DF91CF911D
:100BE000FF90EF90DF90CF9008958F929F92AF92F9
:100BF000BF92CF92DF92EF92FF920F931F93CF930A
:100C0000DF93EC0194E0CC0FDD1F9A95E1F78E01A4
:100C100000501E4F61E0F8018281CBDD60E0F801F9
:100C20008081C7DD0E5F1F4FF80180817BDC892B3F
:100C3000D9F718E1C12CD12C7601CE0180509E4FFE
:100C40005C014C0192E0890E911C61E0F50180810C
:100C5000B0DDCC0CDD1CEE1CFF1C60E0F5018081DA
:100C6000A8DDF40180815EDC892B29F0FFEFCF1A2B
:100C7000DF0AEF0AFF0A115041F7C050DE4F61E072
:100C8000888197DD60E0888194DDC701B6018058D6
:100C9000DF91CF911F910F91FF90EF90DF90CF9058
:100CA000BF90AF909F908F9008950F931F93CF9315
:100CB000DF93EC0160E088E07CDDC850DD4F088107
:100CC000C7E0D0E010E0B8010C2E02C07595679522
:100CD0000A94E2F76170772789E06BDD61E083E0D9
:100CE00068DD60E083E065DD219768F761E088E01A
:100CF000DF91CF911F910F915CCD0F931F93CF93F5
:100D0000DF9300D000D0CDB7DEB78C0162ED73E089
:100D1000CE010196DFD2B801CE0101965DD2CE019F
:100D2000019622D11093F1020093F002C801BDDFB9
:100D3000E3DD60932B0670932C0680932D06909331
:100D40002E06DADD60931B0670931C0680931D0649
:100D500090931E06D1DD60930B0670930C06809372
:100D60000D0690930E06C8DD60932306709324064B
:100D70008093250690932606BFDD6093130670933B
:100D800014068093150690931606CE0101969DD207
:100D900026960FB6F894DEBF0FBECDBFDF91CF9180
:100DA0001F910F9108950895CF92DF92EF92FF92D5
:100DB0000F931F93CF93DF936C017A018B01C0E0F7
:100DC000D0E0CE15DF0589F0D8016D918D01D601F7
:100DD000ED91FC910190F081E02DC6011995892BD0
:100DE00011F47E0102C02196ECCFC701DF91CF91B3
:100DF0001F910F91FF90EF90DF90CF9008950E9488
:100E00008C17009761F0FC0101900020E9F7319701
:100E1000AF01481B590BBC0180EA94E0C5CF80E0CC
:100E200090E00895FC01A089B18982E08C93A485AB
:100E3000B5851C92A685B78580E18C93108EA48918
:100E4000B58986E08C93A289B3898C9180618C935B
:100E5000A289B3898C9188608C93A289B3898C9183
:100E600080688C930288F389E02D80818F7D808358
:100E700008958F929F92AF92BF920F931F93CF933B
:100E8000DF93CDB7DEB7A1970FB6F894DEBF0FBEE4
:100E9000CDBF19A2423008F44AE08E010F5D1F4F0A
:100EA000842E912CA12CB12CA50194010E941A151D
:100EB000E62FB901CA0101501109EA3014F4E05DCE
:100EC00001C0E95CD801EC93232B242B252B61F77F
:100ED000C80197DFA1960FB6F894DEBF0FBECDBF55
:100EE000DF91CF911F910F91BF90AF909F908F9006
:100EF0000895CF92DF92EF92FF92CF93DF936B0131
:100F00007C01E091A004F091A1040190F081E02D1A
:100F10006DE280EA94E01995EC0166277727CB0112
:100F20006C197D098E099F094AE0A3DF8C0F9D1F74
:100F3000DF91CF91FF90EF90DF90CF900895CF9306
:100F4000DF93BC01990F880B990B97FF02C0D1DF8B
:100F500002C04AE08EDFEC0181E693E052DF8C0FA5
:100F60009D1FDF91CF910895CF93DF93FC014481C2
:100F700055816081718180EA94E016DFEC0181E6A1
:100F800093E03FDF8C0F9D1FDF91CF9108958F92EB
:100F90009F92AF92BF92CF92DF92EF92FF920F9308
:100FA0001F93CF93DF93FC01C081D1812091010475
:100FB00030910204C217D3070CF048C09E01220FE3
:100FC000331FE091FF03F0910004E20FF31F8080D4
:100FD0009180C170DD27F1E0CF27209719F404E656
:100FE00010E002C00CE91FEF7A015B016C01040FF5
:100FF000151FB801C401B5DD892B89F40E0D1F1D25
:10100000B801C401AEDD892B69F4B8016E0D7F1DF6
:10101000C401A7DD892BE9F023E030E005C021E021
:1010200030E002C022E030E0F5018081918101963C
:10103000821793073CF0F50111821082F60180813E
:101040009181019691838083CE0105C081E090E07B
:1010500002C08FEF9FEFDF91CF911F910F91FF9013
:10106000EF90DF90CF90BF90AF909F908F900895BA
:101070000F931F93CF93DF93EC01888199810097A1
:1010800029F02A813B812617370788F48B016F5F8F
:101090007F4F0E94A816009761F0998388831B8375
:1010A0000A832C813D81232B11F4FC01108281E005
:1010B00001C080E0DF91CF911F910F910895EF92D1
:1010C000FF920F931F93CF93DF93FC01248135810F
:1010D0006115710511F480E018C041155105A1F0AA
:1010E0007B01EC018A01020F131FB801C1DF8823C5
:1010F00091F3288139818C819D81B701820F931FE3
:101100000E94A2171D830C8381E0DF91CF911F9174
:101110000F91FF90EF900895EF92FF920F931F931E
:10112000CF93DF93CDB7DEB72D970FB6F894DEBF20
:101130000FBECDBF7C01CB01BA012AE08E010F5F4B
:101140001F4FA8010E949112F80101900020E9F7B9
:101150003197AF01401B510BB801C701B0DF2D968D
:101160000FB6F894DEBF0FBECDBFDF91CF911F91B8
:101170000F91FF90EF900895EF92FF920F931F93BE
:10118000CF93DF93CDB7DEB72E970FB6F894DEBFBF
:101190000FBECDBF7C01CB01BA012AE08E010F5FEB
:1011A0001F4FA8010E948312F80101900020E9F767
:1011B0003197AF01401B510BB801C70180DF2E965C
:1011C0000FB6F894DEBF0FBECDBFDF91CF911F9158
:1011D0000F91FF90EF900895EF92FF920F931F935E
:1011E000CF93DF93CDB7DEB728970FB6F894DEBF65
:1011F0000FBECDBF7C01CB014AE08E010F5F1F4FB8
:10120000B8010E947912F80101900020E9F73197A6
:10121000AF01401B510BB801C70151DF28960FB633
:10122000F894DEBF0FBECDBFDF91CF911F910F911C
:10123000FF90EF9008956115710549F0FB01019051
:101240000020E9F73197AF01461B570B38CF80E0FC
:101250000895CF93DF93EC0188819981009711F075
:101260000E941016198218821D821C821B821A820B
:10127000DF91CF910895EF92FF920F931F93CF9339
:10128000DF938C017B016115710561F0FB01019019
:101290000020E9F73197EF01C61BD70BBE01E8DE4E
:1012A000811103C0C801D5DF08C0F801D583C4830C
:1012B000B701808191810E94A217C801DF91CF916F
:1012C0001F910F91FF90EF900895FC018081918113
:1012D0000C941016EF92FF920F931F93CF93DF930E
:1012E000EC01198218821B821A821D821C826115F0
:1012F000710511F18B01FB0101900020E9F7319795
:101300007F01E61AF70AB701B3DE811108C0CE01EA
:10131000DF91CF911F910F91FF90EF909ACFFD82B7
:10132000EC82B80188819981DF91CF911F910F9153
:10133000FF90EF900C94A217DF91CF911F910F9126
:10134000FF90EF900895DF92EF92FF920F931F931B
:10135000CF93DF937C018B01EA014617570720F4F6
:10136000812F8A01C62FD82F63E673E0C701B2DF51
:1013700080913D0690913E0608171907D8F48C1706
:101380009D0708F4EC01E0913906F0913A06EC0F64
:10139000FD1FD08010826091390670913A06600F6F
:1013A000711FC70168DFE0913906F0913A06EC0F32
:1013B000FD1FD082C701DF91CF911F910F91FF9048
:1013C000EF90DF900895CF93DF93CDB7DEB76897A6
:1013D0000FB6F894DEBF0FBECDBF789484B582609F
:1013E00084BD84B5816084BD85B5826085BD85B5C9
:1013F000816085BD80916E00816080936E00109247
:1014000081008091810082608093810080918100C1
:101410008160809381008091800081608093800052
:101420008091B10084608093B1008091B0008160B0
:101430008093B000809191008260809391008091B0
:1014400091008160809391008091900081608093F1
:1014500090008091A10082608093A1008091A10002
:1014600081608093A1008091A00081608093A000A2
:10147000809121018260809321018091210181600E
:1014800080932101809120018160809320018091CF
:101490007A00846080937A0080917A0082608093E1
:1014A0007A0080917A00816080937A0080917A003E
:1014B000806880937A001092C10080EA94E0B2DCE8
:1014C00083E094E0AFDC86E193E09BDC8091020254
:1014D0009091030234DD84E293E093DC81E090E0BC
:1014E0002EDD61E08091000293D960E080910202DC
:1014F0008FD9F89482E08093B0008093B10094E695
:101500009093B3001092B20080937000789480930F
:101510003E0510920A0680913D0560E079D961E0B0
:1015200088E076D961E089E073D961E083E070D921
:1015300061E08DE06DD968EE73E080E090E0A4D9C1
:1015400080E090E052DB60930C0270930D02809378
:101550000E0290930F0268EC70E089E396E088DD5C
:101560008FE293E04EDC44244A94542C3201809163
:10157000E603882309F44CC16CE373E0CE010196C5
:10158000A9DE4D815E8180913D0690913E068417D3
:10159000950780F08091390690913A06009751F0B6
:1015A00069817A816115710529F00E94A91711E0FE
:1015B000892B09F010E0CE01019687DE112309F492
:1015C00020C148E050E060E070E0CE010D96BBDE47
:1015D00063E673E0CE0107967DDE6EE373E0CE0135
:1015E000019678DE49895A896D857E85CE010196FE
:1015F00066DD811103C0CE0101962BDECE0101967E
:10160000B3DCCE01019661DE40913D0650913E066D
:101610004930510508F44AC069E070E0CE010196F6
:1016200092DE8F8198850097A9F069817A81611592
:10163000710571F049855A852D813E814217530706
:1016400038F00E94A2178D819E819C878B8712C0E3
:101650000E94101689819A8198878F838B819C8143
:101660009A8789878D819E819C878B871A821982B0
:101670001C821B821E821D82CE01019626DE67E43B
:1016800073E0CE01019626DE4B855C856F817885FF
:10169000CE01019614DD811103C0CE010196D9DD82
:1016A000CE01019661DCCE0101960FDE89899A890F
:1016B000892B09F4A0C00D851E856FE473E0C80175
:1016C0000E949917892B39F488E593E09ADB81E62B
:1016D00093E097DB90C064E673E0C8010E9499171D
:1016E000892B09F088C06DE673E0CE010196F2DD2A
:1016F0006CEC73E0CE0101969EDD69EE73E0CE01E5
:1017000001966ADD68E773E0CE01019694DDF4D8B6
:10171000AB01BC01CE010196FFDC60E873E0CE01B5
:10172000019689DD6091F0027091F102CE0101967F
:1017300053DD68E873E0CE0101967DDD6CE070E07A
:10174000CE01019649DD6FE873E0CE01019673DDAD
:1017500067E973E0CE0101966EDD6091020270913F
:101760000302CE01019638DD6EE973E0CE010196E9
:1017700062DD6091000270910102CE0101962CDDC4
:1017800066EA73E0CE01019656DD40910C0250915D
:101790000D0260910E0270910F02CE010196ECDCF9
:1017A0006EEA73E0CE01019646DD4091040250914D
:1017B00005026091060270910702CE010196DCDC01
:1017C00065EB73E0CE01019636DD40910802509141
:1017D000090260910A0270910B02CE010196CCDCE5
:1017E0006EEB73E0CE01019626DDCE010196BCDBE7
:1017F000CE0101966ADDCE01079667DDCE010D961A
:1018000064DD63E673E089E396E035DD1092E6037C
:1018100082E495E0909300048093FF0380910A0690
:1018200090E0909302048093010480913E058530FE
:1018300009F079C280914405909145058858910935
:101840008D35910588F480910A06843041F48091A9
:101850004605909147058097479708F470C380919B
:101860000A06843408F052C380910A068A3108F4CB
:101870004EC08091420590914305843F914068F4A9
:101880001092FE031092FD034092F9035092FA0366
:101890006092FB037092FC0358C0809144059091C4
:1018A000450585974B9798F5E8E4F5E082E090E0F0
:1018B000C12CD12C760120910A0630E0AC014F5F9B
:1018C0005F4F4217530754F4DF0112972D913C915B
:1018D000275031092730310508F475C301979595D4
:1018E00087959093FE038093FD030C972CF4109240
:1018F000FE031092FD030BC0C092F903D092FA03CD
:10190000E092FB03F092FC0382E090E031C480910E
:101910000A068A3108F44BC0809142059091430534
:101920008032934008F4ACCF8091440590914505F6
:10193000C697869708F464C33AC0C092F903D09260
:10194000FA03E092FB03F092FC0389E090E010C4FC
:1019500020813181255231092B31310508F060C3D6
:10196000CC0CDD1CEE1CFF1C6894C0F8029634966B
:1019700020910A0630E0AC014F5F5F4F42175307DA
:101980004CF4DF0112972D913C912C5031092B30F2
:101990003105F0F20197959587959093FE0380931A
:1019A000FD030C9754F61092FE031092FD038091F4
:1019B0000A06823208F44DC0809144059091450595
:1019C0000697079708F045C0E8E4F5E022E030E02C
:1019D000C12CD12C7601C901019640910A0650E034
:1019E00084179507E4F4DF0112974D915C911197EC
:1019F0004E5151094731510508F01FC3CC0CDD1C75
:101A0000EE1CFF1C6894C0F840815181349643500D
:101A100051094530510520F42E5F3F4FDCCFC901FD
:101A20000197959587959093FE038093FD034097CA
:101A30002CF41092FE031092FD030BC0C092F90328
:101A4000D092FA03E092FB03F092FC038AE090E06C
:101A50008FC380910A068D3048F4809101049091E3
:101A60000204181619060CF47EC08AC081E090E0CA
:101A700098878F831A82198249E753E0BE016F5F0E
:101A80007F4FCE01079683DA892B21F080E090E02A
:101A9000DC0163C049E753E0BE016F5F7F4FCE01B9
:101AA000079675DA019791F749E753E0BE016F5F3A
:101AB0007F4FCE0107966BDA892B41F700E010E0EB
:101AC000812C912C540180910A0690E02F81388559
:101AD0002817390764F549E753E0BE016F5F7F4F70
:101AE000CE01079654DA7C0149E753E0BE016F5FEF
:101AF0007F4FCE0107964BDAF1E0EF16F10451F477
:101B0000892B09F0C3CF880C991CAA1CBB1C6894B4
:101B100080F80AC0EF2809F0B9CF019709F0B6CFD5
:101B2000880C991CAA1CBB1C0F5F1F4FCCCF1093B5
:101B3000FE030093FD038092F9039092FA03A092B2
:101B4000FB03B092FC0383E090E09093F603809354
:101B5000F50381E090E0A0E0B0E0892B8A2B8B2B8D
:101B600009F0B5C07ACF81E090E098878F83E0914B
:101B7000FF03F09100048281938189974E9720F0B2
:101B800080E090E0DC0148C082E090E098878F839D
:101B9000848195810B970A9798F783E090E0988766
:101BA0008F831A8219824CEB51E0BE016F5F7F4F29
:101BB000CE010796ECD9892B19F74CEB51E0BE0109
:101BC0006F5F7F4FCE010796E2D90197C9F600E01B
:101BD00010E0812C912C54012F81388580910104D3
:101BE00090910204281739070CF434C21093FE03B5
:101BF0000093FD038092F9039092FA03A092FB03F5
:101C0000B092FC0384E090E09093F6038093F50398
:101C100081E090E0A0E0B0E0892B8A2B8B2B09F0CB
:101C200056C0E091FF03F091000482819381C69732
:101C3000869708F0A2C2848195814B97459708F05A
:101C40009CC2DF0116967F0116ECE10EF11C20E02C
:101C500030E040E050E060E070E080E090E0CD9067
:101C6000DC90119719E0C11AD10818E0C116D1040F
:101C700008F083C21296CD90DC90139711E1C11A3F
:101C8000D1081DE0C116D10408F035C201E0FCD630
:101C900021601496AE15BF0511F72093F903309318
:101CA000FA034093FB035093FC0300E208D7209310
:101CB000F7033093F80387E090E09093F603809366
:101CC000F50380E390E09093FE038093FD03609121
:101CD000F9037091FA038091FB039091FC0340E1BA
:101CE000C8D881E693E08DD84091F9035091FA036A
:101CF0006091FB037091FC038091F0029091F102DE
:101D00004F3CF0E35F07FDEF6F07710509F001C27B
:101D1000892B21F080E090E00E947D0682E0809394
:101D20003E0510920A068091F0029091F1028130F6
:101D30009105C1F18330910509F4D9C0892B09F0CF
:101D4000E2C080EA94E00E949601892B51F080EA7B
:101D500094E00E947401682F83E094E00E94D50112
:101D6000F0CF83E094E00E949601892B51F083E04C
:101D700094E00E947401682F80EA94E00E94D501EB
:101D8000F0CF8BE196E00E94D204882309F4BBC017
:101D90006091EB0381E068276093EB038DE00E9484
:101DA000D903B1C08BE296E00E94D204882309F4E3
:101DB000AAC062EC73E0CE0101968CDA69EE73E0A2
:101DC000CE01019609DA68E773E0CE01019633DAB5
:101DD0000E947C04AB01BC01CE0101969DD960E854
:101DE00073E0CE01019627DA6091F0027091F10262
:101DF000CE010196F1D96FE873E0CE0101961BDAAE
:101E000080E090E00E94F5056093E7037093E8039B
:101E10008093E9039093EA0397FF02C06AD802C057
:101E20004AE027D881E693E00E9401078091E7030A
:101E30009091E803A091E903B091EA0300910C02AC
:101E400010910D0220910E0230910F02BC01CD01C4
:101E5000601B710B820B930BB4D36B017C016091FF
:101E60000402709105028091060290910702A9D3A5
:101E70009B01AC01C701B60135D59CD56093080222
:101E80007093090280930A0290930B0267E973E052
:101E9000CE010196D0D96091020270910302CE0169
:101EA00001969AD965EB73E0CE010196C4D94091B1
:101EB00008025091090260910A0270910B02CE0152
:101EC00001965AD96EEB73E0CE010196B4D9CE01DA
:101ED00001964AD86091EB0381E068276093EB0399
:101EE0008DE00E94D903CE010196EFD90CC083E1A9
:101EF00096E00E94D204882331F065E070E080E033
:101F000090E00E9444040E94070331CB8091460573
:101F100090914705825491098E9708F0A5CC80E0F6
:101F200090E040E050E0BA01FC01E85BFA4F20810C
:101F300031812950310929303105B0F095CC80919B
:101F40004805909149050997099708F088CC1092A7
:101F5000FE031092FD034092F9035092FA0360923F
:101F6000FB037092FC0302C1FC01E65BFA4F208187
:101F700031812651310921313105C0F4440F551FFB
:101F8000661F771F416004968038910569F6A0E2CC
:101F9000B0E0B093FE03A093FD034093F903509388
:101FA000FA036093FB037093FC03E0C0208131814E
:101FB000265031092730310508F056CC440F551F03
:101FC000661F771FE0CF20813181235131092F30E7
:101FD000310548F4CC0CDD1CEE1CFF1C6894C0F8E5
:101FE0000296349668CC208131812A5031092930FB
:101FF000310508F08CCCCC0CDD1CEE1CFF1CF0CFA6
:102000008091460590914705C697869708F0CFCCFA
:10201000EAE4F5E083E090E0C12CD12C7601A8CC75
:10202000208131812C5031092A30310508F0BFCC94
:10203000CC0CDD1CEE1CFF1C99CC4D915C914C50DE
:1020400051094B30510508F004CDCC0CDD1CEE1CC1
:10205000FF1CDACC4CEB51E0BE016F5F7F4FCE012D
:1020600007960E94C7076C010330110571F04CEB15
:1020700051E0BE016F5F7F4FCE0107960E94C707F8
:102080007C0103301105D9F40DC04CEB51E0BE01C9
:102090006F5F7F4FCE0107960E94C707C816D9060B
:1020A00031F36ECD4CEB51E0BE016F5F7F4FCE013F
:1020B00007960E94C707E816F90609F061CDC1141A
:1020C000D10459F4EA94EF2809F05ACD880C991CF0
:1020D000AA1CBB1C689480F80BC0CA94CD2809F0D8
:1020E0004FCDEF2809F04CCD880C991CAA1CBB1CC5
:1020F0000F5F1F4F71CD1296CD90DC90139714E0B7
:10210000C11AD10815E0C116D104B8F501E0BCD45C
:10211000C0CD403D10E351071DEF6107710558F434
:10212000473F58406D4F710591F4019709F4F6CD82
:1021300081E090E0F1CD473BA8E45A07ADEF6A0794
:10214000710541F0473758486D4F710549F00E94BD
:102150005506E4CD039709F4E1CD83E090E0DCCDB2
:10216000029709F4DBCD82E090E0D6CD81E090E0EB
:102170009093F6038093F503AACD80910A068232EC
:1021800031F4828193810A97099708F4A2C0828171
:1021900093818957910983359105D0F480910A067E
:1021A0008132B0F084819581CA97899788F49F0124
:1021B0002A5F3F4FC12CD12C760143E050E0D9017A
:1021C0006D917C916A5071096930710508F49DC068
:1021D00080910104909102049C8B8B8B06970CF4E8
:1021E0009DCD8F010A5F1F4FB5ECCB2EBDE9DB2ED5
:1021F000BCE1EB2EB1E8FB2E83E0282E312CD80178
:102200006D917C91F8013497A080B18080E090E0DE
:10221000D6D16D8B7E8B8F8B988FB50180E090E04F
:10222000CED14B015C012DEC3CEC4CE45FE328D2B9
:102230009B01AC016D897E898F89988DBCD187FD0A
:1022400017C02DEC3CEC4CE45FE36D897E898F89EF
:10225000988D16D29B01AC01C501B401ACD1E82F19
:10226000880FFF0BEE27FF0FEE1FFF27319602C0EE
:10227000E0E0F0E0A701960163E971E080E091E021
:10228000CAD36F01FF0FEE08FF08C626D726E8263F
:10229000F926BFEF2B1A3B0A0E5F1F4FEB89FC8913
:1022A0002E163F0609F0ABCFC092F903D092FA0385
:1022B000E092FB03F092FC0380E290E09093FE0337
:1022C0008093FD03AFEFBFEFB093F603A093F50348
:1022D000FECC20910A06CF01820F911D820F911D25
:1022E000DC0112978D919C910A97099708F04FCFC6
:1022F0001092FE031092FD034092F9035092FA03EC
:102300006092FB037092FC0347C0D90112966D9155
:102310007C911397665171096131710568F5D70198
:10232000C601880F991FAA1FBB1F6C017D0168940D
:10233000C0F84E5F5F4F2C5F3F4F4332510509F0AD
:102340003ECF9F012A5B3F4FD9012D913C912A50EE
:1023500031092930310508F03BCFE0E1F0E0F0939E
:10236000FE03E093FD03C092F903D092FA03E092DA
:10237000FB03F092FC0310C0D90112966D917C9181
:102380001397665071096730710508F021CFCC0CA6
:10239000DD1CEE1CFF1CCDCF88E090E0E9CE83E38E
:1023A00096E00E94650989E396E00C946509CF9256
:1023B000DF92EF92FF92E3E0F4E01382128288EE64
:1023C000C82E83E0D82EE12CF12CC482D582E6827F
:1023D000F78286E093E0918380832DEC30E03587AF
:1023E00024872CEC30E03787268728EC30E0318BCF
:1023F000208B29EC30E0338B228B2AEC30E0358BBC
:10240000248B2EEC30E0378B268B118E128E138EA0
:10241000148EE0EAF4E013821282C482D582E6824E
:10242000F7829183808385EC90E09587848784ECA4
:1024300090E09787868780EC90E0918B808B81EC91
:1024400090E0938B828B82EC90E0958B848B86EC72
:1024500090E0978B868B118E128E138E148EEDE387
:10246000F5E082E08083128263E673E089E396E020
:102470000E946A096CED73E083E396E00E946A09AA
:1024800084EF91E0A0E0B0E080932F0690933006B7
:10249000A0933106B093320685E090E0A0E0B0E072
:1024A0008093270690932806A0932906B0932A06C6
:1024B000C0921F06D0922006E0922106F0922206DA
:1024C0008093170690931806A0931906B0931A06E6
:1024D0008AEF90E0A0E0B0E080930F0690931006A2
:1024E000A0931106B0931206FF90EF90DF90CF906B
:1024F0000895BB274A3031F4992322F4BDE2909528
:1025000081959F4F30C0BB272A3051F4992342F464
:10251000BDE290958095709561957F4F8F4F9F4F4D
:1025200001C0BB27FA01A62F62177105810591052D
:10253000330B30FB66F0AA27660F771F881F991FA1
:10254000AA1FA21710F0A21B63953850A9F7A05D2F
:10255000AA3308F0A95DA19336F7B111B1931082A7
:10256000CA0119C0BB27FB015527AA27880F991F4D
:10257000AA1FA41710F0A41B83955051B9F7A05DB2
:10258000AA3308F0A95DA193009779F7B111B1932F
:102590001192CB0100C0DC01FC01672F7191772300
:1025A000E1F7329704C07C916D9370836291AE170E
:1025B000BF07C8F3089540D008F481E00895E89477
:1025C00009C097FB3EF490958095709561957F4F7B
:1025D0008F4F9F4F9923A9F0F92F96E9BB27939529
:1025E000F695879577956795B795F111F8CFFAF439
:1025F000BB0F11F460FF1BC06F5F7F4F8F4F9F4F6A
:1026000016C0882311F096E911C0772321F09EE8C7
:10261000872F762F05C0662371F096E8862F70E02D
:1026200060E02AF09A95660F771F881FDAF7880F07
:102630009695879597F90895990F0008550FAA0B5D
:10264000E0E8FEEF16161706E807F907C0F01216C5
:102650001306E407F50798F0621B730B840B950BC8
:1026600039F40A2661F0232B242B252B21F408951D
:102670000A2609F4A140A6958FEF811D811D0895BA
:102680000BD078C069D028F06ED018F0952309F0EF
:102690005AC05FC01124A2C07ED0A0F3959FD1F391
:1026A000950F50E0551F629FF001729FBB27F00D00
:1026B000B11D639FAA27F00DB11DAA1F649F662755
:1026C000B00DA11D661F829F2227B00DA11D621FA4
:1026D000739FB00DA11D621F839FA00D611D221F5E
:1026E000749F3327A00D611D231F849F600D211D42
:1026F000822F762F6A2F11249F5750408AF0E1F0E5
:1027000088234AF0EE0FFF1FBB1F661F771F881F2D
:1027100091505040A9F79E3F510570F014C05EC023
:102720005F3FECF3983EDCF3869577956795B79518
:10273000F795E7959F5FC1F7FE2B880F911D969542
:10274000879597F9089597F99F6780E870E060E0B2
:1027500008959FEF80EC089500240A94161617063A
:1027600018060906089500240A9412161306140682
:1027700005060895092E0394000C11F4882352F0E5
:10278000BB0F40F4BF2B11F460FF04C06F5F7F4F9D
:102790008F4F9F4F089557FD9058440F551F59F084
:1027A0005F3F71F04795880F97FB991F61F09F3F3E
:1027B00079F087950895121613061406551FF2CF67
:1027C0004695F1DF08C0161617061806991FF1CFB7
:1027D00086957105610508940895E894BB276627DE
:1027E0007727CB0197F9089509D0A59F900DB49F45
:1027F000900DA49F800D911D11240895A29FB001FA
:10280000B39FC001A39F700D811D1124911DB29F24
:10281000700D811D1124911D08955058BB27AA27C2
:102820000ED0A8CF99DF30F09EDF20F031F49F3F2B
:1028300011F41EF48ECF0EF4E095E7FB84CFE92F60
:10284000AADF80F3BA17620773078407950718F0A9
:1028500071F49EF5C2CF0EF4E0950B2EBA2FA02D89
:102860000B01B90190010C01CA01A0011124FF273D
:10287000591B99F0593F50F4503E68F11A16F04038
:10288000A22F232F342F4427585FF3CF4695379537
:102890002795A795F0405395C9F77EF41F16BA0BFC
:1028A000620B730B840BBAF09150A1F0FF0FBB1FAA
:1028B000661F771F881FC2F70EC0BA0F621F731FF3
:1028C000841F48F4879577956795B795F7959E3F50
:1028D00008F0B3CF9395880F08F09927EE0F9795DE
:1028E000879508950CD046CF3EDF40F035DF30F0BD
:1028F00021F45F3F19F027CF511170CF2ACF4BDF62
:1029000098F39923C9F35523B1F3951B550BBB27B6
:10291000AA2762177307840738F09F5F5F4F220F63
:10292000331F441FAA1FA9F333D00E2E3AF0E0E85C
:1029300030D091505040E695001CCAF729D0FE2FA8
:1029400027D0660F771F881FBB1F2617370748073A
:10295000AB07B0E809F0BB0B802DBF01FF279358F0
:102960005F4F2AF09E3F510568F0EDCE37CF5F3FB5
:10297000ECF3983EDCF3869577956795B795F795D8
:102980009F5FC9F7880F911D9695879597F90895D0
:10299000E1E0660F771F881FBB1F6217730784076C
:1029A000BA0720F0621B730B840BBA0BEE1F88F77B
:1029B000E095089504D06894B11110CF0895F3DE26
:1029C00088F09F5790F0B92F9927B751A0F0D1F018
:1029D000660F771F881F991F1AF0BA95C9F712C0A2
:1029E000B13081F0FADEB1E00895F7CE672F782F8D
:1029F0008827B85F39F0B93FCCF38695779567950E
:102A0000B395D9F73EF490958095709561957F4F79
:102A10008F4F9F4F0895DB018F939F93E5DEBF910A
:102A2000AF91A29F800D911DA39F900DB29F900D1D
:102A300011240895A1E21A2EAA1BBB1BFD010DC093
:102A4000AA1FBB1FEE1FFF1FA217B307E407F5075E
:102A500020F0A21BB30BE40BF50B661F771F881F3A
:102A6000991F1A9469F760957095809590959B01D0
:102A7000AC01BD01CF010895EE0FFF1F881F8BBF72
:102A80000790F691E02D19940F93083090F0982F4D
:102A9000872F762F652F542F432F322F2227085050
:102AA000F4CF220F331F441F551F661F771F881F47
:102AB000991F0A95B2F70F91089597FB10F8169495
:102AC00000080F93083098F00850232F342F452F1B
:102AD000562F672F782F892F902DF4CF0594979537
:102AE00087957795679557954795379527950A95D3
:102AF000AAF70F910895CF93DF938230910510F4D8
:102B000082E090E0E0914206F091430620E030E060
:102B1000C0E0D0E0309711F140815181481759074A
:102B2000C0F04817590761F482819381209719F00A
:102B30009B838A832BC0909343068093420626C0D2
:102B40002115310519F04217530718F49A01BE01F7
:102B5000DF01EF010280F381E02DDCCF211531058B
:102B600009F1281B390B2430310590F412968D9110
:102B70009C9113976115710521F0FB01938382836A
:102B800004C09093430680934206FD01329644C0F0
:102B9000FD01E20FF31F81939193225031092D9390
:102BA0003C933AC02091400630914106232B41F4DA
:102BB0002091F4023091F5023093410620934006B3
:102BC0002091F2023091F3022115310541F42DB725
:102BD0003EB74091F6025091F702241B350BE0916D
:102BE0004006F0914106E217F307A0F42E1B3F0BBD
:102BF0002817390778F0AC014E5F5F4F241735076F
:102C000048F04E0F5F1F509341064093400681935A
:102C1000919302C0E0E0F0E0CF01DF91CF91089501
:102C20000F931F93CF93DF93009709F48CC0FC019F
:102C300032971382128200914206109143060115C9
:102C4000110581F420813181820F931F209140066C
:102C5000309141062817390779F5F0934106E09342
:102C6000400671C0D80140E050E0AE17BF0750F4F5
:102C700012962D913C911397AD012115310509F163
:102C8000D901F3CF9D01DA01338322836081718101
:102C9000860F971F8217930769F4EC012881398109
:102CA000260F371F2E5F3F4F318320838A819B8100
:102CB00093838283452B29F4F0934306E0934206E5
:102CC00042C01396FC93EE931297ED0149915991EE
:102CD0009E01240F351FE217F30771F48081918163
:102CE000840F951F029611969C938E9382819381F7
:102CF00013969C938E931297E0E0F0E0D801129621
:102D00008D919C911397009719F0F8018C01F6CFE3
:102D10008D919C9198012E5F3F4F820F931F2091C0
:102D20004006309141062817390769F4309729F495
:102D3000109243061092420602C013821282109330
:102D4000410600934006DF91CF911F910F910895A6
:102D50006F927F928F929F92AF92BF92CF92DF92AB
:102D6000EF92FF920F931F93CF93DF93EC010097A5
:102D700081F4CB01DF91CF911F910F91FF90EF90E4
:102D8000DF90CF90BF90AF909F908F907F906F908B
:102D9000B2CEFC01E60FF71F9C0122503109E21769
:102DA000F30708F4A8C0D9010D911C9111970617DB
:102DB0001707A8F00530110508F49BC0C801049757
:102DC0008617970708F495C002501109061B170BC8
:102DD000019311936D937C93CF0122DF8AC05B0135
:102DE000A01AB10A4C01800E911EA0914206B0912A
:102DF000430640E050E0E12CF12C109709F44AC062
:102E0000A815B905D1F56D907C901197630182E00A
:102E1000C80ED11CCA14DB0480F1A3014A195B0956
:102E20006A0182E0C80ED11C1296BC9012971396CC
:102E3000AC91B5E0CB16D10440F0B282A3835183AC
:102E40004083D9016D937C930AC00E5F1F4FC3016D
:102E5000800F911FF90191838083EB2DFA2FE114EC
:102E6000F10431F0D7011396FC93EE93129741C011
:102E7000F0934306E09342063CC08D919C911197DC
:102E80004817590708F4AC017D0112960D90BC91CA
:102E9000A02DB3CF809140069091410688159905E9
:102EA000E1F446175707C8F48091F2029091F302BB
:102EB000009741F48DB79EB74091F6025091F7020A
:102EC000841B950BE817F907B0F4F0934106E093E3
:102ED0004006F901718360830CC0CB010CDE7C01DC
:102EE000009749F0A801BE011BD0CE0199DEC701B1
:102EF00004C0CE0102C080E090E0DF91CF911F912D
:102F00000F91FF90EF90DF90CF90BF90AF909F9088
:102F10008F907F906F90089581E090E0F89427C0A3
:102F2000FB01DC0102C001900D9241505040D8F7E6
:102F30000895FB01DC018D91019080190110D9F3F6
:102F4000990B0895FB01DC0101900D920020E1F73F
:102F50000895FB01DC014150504030F08D9101900B
:102F6000801919F40020B9F7881B990B089511E016
:102F7000C5E1D1E000E005C0802FFE017DDD219696
:102F8000011DC631D10780E00807B1F7F894FFCFE3
:102F900029002B006100000000000000000000007C
:102FA0000000000000000000000000000000000021
:102FB0000000000000000000000000000000000011
:102FC0000000000000000000000000000000000001
:102FD00000000000000000000000000000000000F1
:102FE00000000000000000000000000000000000E1
:102FF00000000000000000000000000000000000D1
:1030000000000000000000000000000000000000C0
:1030100000000000000000000000000000000000B0
:1030200000000000000000000000000000000000A0
:103030000000000000000000000000000000000090
:103040000000000000000000000000000000000080
:103050000000000000000000000000000000000070
:103060000000000000000000000000000000000060
:103070000000000000000000000000000000000050
:103080000100000044068000C0F9A4B0999282F8C3
:10309000809000000000D501D40665011B02960156
:1030A000740188010200E6AF9BE79AAEE8B4A8E994
:1030B000878F3D00696E697448583731313A00E6B0
:1030C000ACA2E8BF8EE4BDBFE794A8002300436F25
:1030D0006D6D616E643D0044657461696C3D0023F3
:1030E000544350434F4E4E0023544350444F4E459B
:1030F000000D0A0023474554494E464F0023414CDA
:103100004C494E464F3D7B002C224D4953223A00FC
:103110002C224D4F44223A002C22434F223A002CBD
:10312000225353223A5B007B224454223A002C2241
:1031300053434B223A002C224F4646223A002C227F
:103140004756223A002C2252454144223A007D5DE6
:103150007D0023555044415445583D7B224944222B
:103160003A0023544F4D4F4445583D00E4B8BBE668
:063170009699E58CBA00FF
:020000023000CC
:10E000000D9489F10D94B2F10D94B2F10D94B2F129
:10E010000D94B2F10D94B2F10D94B2F10D94B2F1F0
:10E020000D94B2F10D94B2F10D94B2F10D94B2F1E0
:10E030000D94B2F10D94B2F10D94B2F10D94B2F1D0
:10E040000D94B2F10D94B2F10D94B2F10D94B2F1C0
:10E050000D94B2F10D94B2F10D94B2F10D94B2F1B0
:10E060000D94B2F10D94B2F10D94B2F10D94B2F1A0
:10E070000D94B2F10D94B2F10D94B2F10D94B2F190
:10E080000D94B2F10D94B2F10D94B2F10D94B2F180
:10E090000D94B2F10D94B2F10D94B2F10D94B2F170
:10E0A0000D94B2F10D94B2F10D94B2F10D94B2F160
:10E0B0000D94B2F10D94B2F10D94B2F10D94B2F150
:10E0C0000D94B2F10D94B2F10D94B2F10D94B2F140
:10E0D0000D94B2F10D94B2F10D94B2F10D94B2F130
:10E0E0000D94B2F141546D656761323536300041AF
:10E0F000726475696E6F206578706C6F72657220DE
:10E1000073746B3530305632206279204D4C530099
:10E11000426F6F746C6F616465723E004875683F52
:10E1200000436F6D70696C6564206F6E203D200048
:10E130004350552054797065202020203D20005FF9
:10E140005F4156525F415243485F5F3D2000415658
:10E1500052204C696243205665723D20004743437C
:10E160002056657273696F6E203D20004350552024
:10E1700049442020202020203D20004C6F7720663D
:10E18000757365202020203D20004869676820665F
:10E190007573652020203D200045787420667573D6
:10E1A00065202020203D20004C6F636B2066757336
:10E1B000652020203D20004D617220203720323024
:10E1C000313300312E362E3800342E332E350056A2
:10E1D00023202020414444522020206F7020636F70
:10E1E00064652020202020696E73747275637469E1
:10E1F0006F6E2061646472202020496E74657272B3
:10E20000757074006E6F20766563746F7200726A49
:10E210006D702020006A6D70200057686174207056
:10E220006F72743A00506F7274206E6F7420737541
:10E2300070706F72746564004D7573742062652030
:10E2400061206C6574746572002000577269747483
:10E25000696E672045450052656164696E672045B7
:10E26000450045452065727220636E743D00504F35
:10E27000525400303D5A65726F2061646472003FF1
:10E280003D43505520737461747300403D454550C3
:10E29000524F4D207465737400423D426C696E6B41
:10E2A000204C454400453D44756D70204545505215
:10E2B0004F4D00463D44756D7020464C415348001B
:10E2C000483D48656C70004C3D4C69737420492F83
:10E2D0004F20506F72747300513D51756974005234
:10E2E0003D44756D702052414D00563D73686F7707
:10E2F00020696E7465727275707420566563746FF0
:10E30000727300593D506F727420626C696E6B00BD
:10E310002A0011241FBECFEFD1E2DEBFCDBF01E046
:10E320000CBF12E0A0E0B2E0EEE1FDEF03E00BBFB6
:10E3300002C007900D92A030B107D9F712E0A0E01B
:10E34000B2E001C01D92AE30B107E1F70F9460F367
:10E350000D948DFE01E20EBF0FEF0DBF11241FBE05
:10E360000D9460F30D9400F020E030E040ED57E0B4
:10E3700005C0FA013197F1F72F5F3F4F2817390792
:10E38000C0F308959C01260F311DC901A0E0B0E043
:10E390002F5F3F4FABBFFC018791882361F08093D3
:10E3A000C6008091C00086FFFCCF8091C0008064D1
:10E3B0008093C000EACF08958DE08093C6008091DD
:10E3C000C00086FFFCCF8091C00080648093C000B5
:10E3D0008AE08093C6008091C00086FFFCCF8091C8
:10E3E000C00080648093C00008950F94C2F10F9420
:10E3F000DCF10895FC019081992359F09093C600B7
:10E400008091C00086FFFCCF8091C0008064809323
:10E41000C0003196992379F70895282F982F929567
:10E420009F70892F805D8A3308F0895F8093C600D2
:10E430008091C00086FFFCCF8091C00080648093F3
:10E44000C000822F8F70982F905D9A3308F0995FEB
:10E450009093C6008091C00086FFFCCF8091C000E1
:10E4600080648093C00008959C01FB01853691056E
:10E470001CF46330710594F0C90164E670E00F94F8
:10E480002EFE605D7F4F6093C6008091C00086FFC6
:10E49000FCCF8091C00080648093C0002B30310598
:10E4A00014F43297B4F0C90164E670E00F942EFEC4
:10E4B0006AE070E00F942EFE605D7F4F6093C600AF
:10E4C0008091C00086FFFCCF8091C0008064809363
:10E4D000C000C9016AE070E00F942EFEC0968093E0
:10E4E000C6008091C00086FFFCCF8091C000806490
:10E4F0008093C00008951F93182F8EE692EE60E07F
:10E500000F94C2F11093C6008091C00086FFFCCF2B
:10E510008091C00080648093C0000F94DCF11F9153
:10E5200008952F923F924F925F926F927F928F92B7
:10E530009F92AF92BF92CF92DF92EF92FF920F9392
:10E540001F93DF93CF93CDB7DEB762970FB6F894E2
:10E55000DEBF0FBECDBF382E622ECA01DB015C01CB
:10E560006D01772420E2222E2E010894411C511CBB
:10E570008BC081E0A81680E0B80681E0C80680E084
:10E58000D80628F0C601AA27BB270F940DF2BB2797
:10E59000AD2D9C2D8B2D0F940DF28A2D0F940DF225
:10E5A0002092C6008091C00086FFFCCF8091C00001
:10E5B00080648093C0009DE29093C6008091C0006B
:10E5C00086FFFCCF8091C00080648093C0002092C1
:10E5D000C6008091C00086FFFCCF8091C00080649F
:10E5E0008093C00019828601750188249924A1E0D6
:10E5F0003A1651F03A1620F0B2E03B1661F409C029
:10E600000BBFF701779007C0C7010F9477FE782EF4
:10E6100002C0F7017080872D0F940DF22092C60082
:10E620008091C00086FFFCCF8091C0008064809301
:10E63000C000872D8052F401EF70F0708F3520F408
:10E64000E40DF51D708204C0E40DF51D8EE280839B
:10E650000894E11CF11C011D111D0894811C911CE2
:10E6600090E18916910409F0C2CF80E190E0A0E02A
:10E67000B0E0A80EB91ECA1EDB1E198AC2010F9493
:10E68000FAF10F94DCF16A94662009F072CF629679
:10E690000FB6F894DEBF0FBECDBFCF91DF911F91B3
:10E6A0000F91FF90EF90DF90CF90BF90AF909F9031
:10E6B0008F907F906F905F904F903F902F90089534
:10E6C0002F923F924F925F926F927F928F929F9282
:10E6D000AF92BF92CF92DF92EF92FF920F931F9370
:10E6E000DF93CF93CDB7DEB7CD53D1400FB6F894BB
:10E6F000DEBF0FBECDBF01E20EBF0FEF0DBF94B75F
:10E70000F894A89514BE80916000886180936000A1
:10E7100010926000789493FF05C0E0910002F091A0
:10E7200001021995279A2F9A8091C00082608093E8
:10E73000C00080E18093C40088E18093C1000000A4
:10E74000EE24FF24870144E0A42EB12CCC24DD2448
:10E7500024C0C5010197F1F70894E11CF11C011DCB
:10E76000111D21E2E2162EE4F20620E0020720E06D
:10E77000120718F031E0C32ED12CC801B70127ECE5
:10E780003BE140E050E00F9441FE611571058105C9
:10E79000910519F485B1805885B98091C00087FD35
:10E7A00003C0C114D104A9F2A6014F5F5F4FC25E3E
:10E7B000DE4F59834883CE51D140C25EDE4F8881FF
:10E7C0009981CE51D140019711F00D9410FEC05D9A
:10E7D000DE4F19821882C053D14060E0C15DDE4F28
:10E7E0001882CF52D14088249924C35DDE4F19820C
:10E7F0001882CD52D140C05EDE4F188219821A8233
:10E800001B82C052D140CE5CDE4F188219821A8220
:10E810001B82C253D140EE24FF2487010BBFF701B6
:10E8200007911691C45CDE4F19830883CC53D14005
:10E830000D940BFEC25EDE4F28813981CE51D1404E
:10E840002130310509F52091C600C25EDE4F1982E4
:10E850001882CE51D14022C02F5F3F4F4F4F5F4FA4
:10E86000213082E138078AE7480780E0580780F0C6
:10E87000C45CDE4FE881F981CC53D140EF5FFF4F9C
:10E8800019F0EE27FF27099420E030E040E050E047
:10E890008091C00087FFE0CF2091C600C35DDE4FAE
:10E8A00048815981CD52D1404F5F5F4FC35DDE4FEC
:10E8B00059834883CD52D140213209F063C64A3092
:10E8C000510508F05FC60894811C911C53E0851621
:10E8D000910409F059C600E010E018C081E280936D
:10E8E000C6008091C00086FFFCCF8091C00080648C
:10E8F0008093C0002F5F3F4F2931310579F70F9486
:10E90000DCF10F5F1F4F0530110519F020E030E0FA
:10E91000E5CF10920A0210920B0210920C02109294
:10E920000D02109206021092070210920802109235
:10E930000902109202021092030210920402109235
:10E9400005028FEE90EE60E00F94F5F180E191EE1C
:10E9500060E00F94C2F18091C00087FFFCCF9091DE
:10E96000C600903608F09F759032B8F09093C600BC
:10E970008091C00086FFFCCF8091C00080648093AE
:10E98000C000A0E2A093C6008091C00086FFFCCF2B
:10E990008091C00080648093C000983409F4D7C18E
:10E9A0009934B8F4923409F459C1933458F490333B
:10E9B00019F1903308F4E3C59F33A1F1903409F0C5
:10E9C000DEC5BDC0953409F470C1963409F0D7C5D1
:10E9D00098C1923509F42BC2933538F49C3409F46C
:10E9E000F5C1913509F0CBC518C2963509F445C279
:10E9F000993509F0C4C567C483E792EE62E00F94CD
:10EA0000F5F110920602109207021092080210927D
:10EA1000090210920A0210920B0210920C0210923C
:10EA20000D0213C18FE792EE62E00F94F5F18FEEC5
:10EA300090EE60E00F94F5F181E291EE60E00F94CA
:10EA4000C2F187EB91EE60E00F94F5F180E391EE77
:10EA500060E00F94C2F184EE90EE60E00F94F5F167
:10EA60008FE391EE60E00F94C2F186E090E061E008
:10EA700070E00F9434F20F94DCF18DE591EE60E0DC
:10EA80000F94C2F189EC91EE60E00F94F5F18EE401
:10EA900091EE60E00F94C2F183EC91EE60E00F9490
:10EAA000F5F18CE691EE60E00F94C2F18EE10F94E7
:10EAB0000DF288E90F940DF281E00F940DF20F949E
:10EAC000DCF18BE791EE60E00F94C2F119E0E0E039
:10EAD000F0E010935700E4918E2F0F940DF20F94F5
:10EAE000DCF18AE891EE60E00F94C2F1E3E0F0E03F
:10EAF00010935700E4918E2F0F940DF20F94DCF1D8
:10EB000089E991EE60E00F94C2F1E2E0F0E0109349
:10EB10005700E4918E2F0F940DF20F94DCF188EAE8
:10EB200091EE60E00F94C2F1E1E0F0E01093570045
:10EB30001491812F0F940DF20F94DCF107CF8BE825
:10EB400092EE62E00F94F5F18BE492EE60E00F94A8
:10EB5000F5F10F94DCF100E010E019C0C8016F2D51
:10EB60000F947FFEFF2031F489E492EE60E00F9471
:10EB7000C2F10BC0F092C6008091C00086FFFCCFAE
:10EB80008091C00080648093C0000F5F1F4FC80158
:10EB900081519F41A0E0B0E0ABBFFC01F790BAE229
:10EBA000FB1621F0E2E000301E07C1F60F94DCF105
:10EBB0000F94DCF187E592EE60E00F94F5F10F948D
:10EBC000DCF1CC24DD2400E010E01EC0C8010F946D
:10EBD00077FEF82E882331F489E492EE60E00F94FA
:10EBE000C2F10BC08093C6008091C00086FFFCCFAD
:10EBF0008091C00080648093C000FE1419F00894D6
:10EC0000C11CD11C0F5F1F4FC80181519F41A0E063
:10EC1000B0E0ABBFFC01E790FAE2EF1621F022E092
:10EC20000030120799F60F94DCF10F94DCF182E6C4
:10EC300092EE60E00F94C2F1C60161E070E00F94C3
:10EC400034F20F94DCF10F94DCF110920202109276
:10EC50000302109204021092050278CE89E992EE26
:10EC600062E00F94F5F1279A2F9A16C02F9880E052
:10EC700090E0E0EDF7E03197F1F7019684369105E9
:10EC8000C1F72F9A80E090E0E0EDF7E03197F1F7DF
:10EC9000019684369105C1F78091C00087FFE6CFC9
:10ECA0008091C00087FFFCCF64C485EA92EE62E0E9
:10ECB0000F94F5F140910202509103026091040219
:10ECC0007091050281E020E10F9491F2809102029F
:10ECD00090910302A0910402B091050280509F4FD1
:10ECE000AF4FBF4F8093020290930302A0930402A0
:10ECF000B093050280509041A040B04008F426CE69
:10ED0000A4CF83EB92EE62E00F94F5F140910602FE
:10ED100050910702609108027091090280E020E1A1
:10ED20000F9491F28091060290910702A09108023F
:10ED3000B091090280509F4FAF4FBF4F80930602A2
:10ED400090930702A0930802B0930902FFCD80ECD4
:10ED500092EE62E00F94F5F183E792EE60E00F949B
:10ED6000F5F18FE792EE60E00F94F5F18BE892EE0B
:10ED700060E00F94F5F189E992EE60E00F94F5F10F
:10ED800085EA92EE60E00F94F5F183EB92EE60E09D
:10ED90000F94F5F180EC92EE60E00F94F5F187ECC2
:10EDA00092EE60E00F94F5F188ED92EE60E00F9442
:10EDB000F5F18FED92EE60E00F94F5F18AEE92EEB0
:10EDC00060E00F94F5F183E093EEBDCD87EC92EE19
:10EDD00062E00F94F5F181E40F947BF282E40F94EA
:10EDE0007BF283E40F947BF284E40F947BF285E45E
:10EDF0000F947BF286E40F947BF287E40F947BF20E
:10EE000088E40F947BF28AE40F947BF28BE40F94F6
:10EE10007BF28CE40F947BF299CD88ED92EE62E068
:10EE20000F94F5F1772473948824992409C48FED05
:10EE300092EE62E00F94F5F140910A0250910B02BC
:10EE400060910C0270910D0282E020E10F9491F22A
:10EE500080910A0290910B02A0910C02B0910D02D8
:10EE600080509F4FAF4FBF4F80930A0290930B0289
:10EE7000A0930C02B0930D0269CD8AEE92EE62E08F
:10EE80000F94F5F184EE90EE60E00F94F5F18FECC5
:10EE900091EE60E00F94F5F1662477244301CC5D98
:10EEA000DE4F19821882C452D140D401C301B695F5
:10EEB000A79597958795CA5DDE4F88839983AA8326
:10EEC000BB83C652D140CC5DDE4FA881B981C4520C
:10EED000D1401196CC5DDE4FB983A883C452D14096
:10EEE000CD0162E070E00F9434F2B0E2B093C6005E
:10EEF0008091C00086FFFCCF8091C0008064809329
:10EF0000C000EDE2E093C6008091C00086FFFCCF18
:10EF10008091C00080648093C000F0E2F093C6004E
:10EF20008091C00086FFFCCF8091C00080648093F8
:10EF3000C000CA5DDE4FE880F9800A811B81C6529D
:10EF4000D140BB27A12F902F8F2D0F940DF2CA5DBA
:10EF5000DE4F8881C652D1400F940DF2B0E2FB2EF5
:10EF6000F092C6008091C00086FFFCCF8091C00067
:10EF700080648093C0000DE30093C6008091C000C0
:10EF800086FFFCCF8091C00080648093C00010E2B7
:10EF90001093C6008091C00086FFFCCF8091C00016
:10EFA00080648093C0008BBEF3012791C65DDE4F65
:10EFB0002883CA52D140A22EBB24CC24DD2408943D
:10EFC000611C711C811C911C8BBEF3018791282E42
:10EFD0003324442455240894611C711C811C911C09
:10EFE0008BBEF3013791C55DDE4F3883CB52D140E4
:10EFF0000894611C711C811C911C8BBEF30147910C
:10F00000C45DDE4F4883CC52D140ADEFEA2EAFEF66
:10F01000FA2EAFEF0A2FAFEF1A2F6E0C7F1C801E57
:10F02000911E142D032DF22CEE24EA0CFB1C0C1D5A
:10F030001D1D0F940DF220E22093C6008091C000A8
:10F0400086FFFCCF8091C00080648093C000C65DC5
:10F05000DE4F8881CA52D1400F940DF230E23093D6
:10F06000C6008091C00086FFFCCF8091C000806404
:10F070008093C000C45DDE4F8881CC52D1400F9494
:10F080000DF240E24093C6008091C00086FFFCCFA5
:10F090008091C00080648093C000C55DDE4F888190
:10F0A000CB52D1400F940DF250E25093C6008091A4
:10F0B000C00086FFFCCF8091C00080648093C000B8
:10F0C0008FEFE8168FEFF80680E0080780E018075A
:10F0D00031F484E092EE60E00F94C2F1DFC0D80119
:10F0E000C7018070907CA070B0708050904CA040A0
:10F0F000B040D1F52FEF3FE340E050E0E222F322B1
:10F1000004231523CA5DDE4FA880B980CA80DB8046
:10F11000C652D140AE0CBF1CC01ED11EAA0CBB1CD7
:10F12000CC1CDD1C8EE092EE60E00F94C2F1BB2798
:10F13000A12F902F8F2D0F940DF28E2D0F940DF285
:10F1400030E23093C6008091C00086FFFCCF8091F2
:10F15000C00080648093C0004EE34093C60080915D
:10F16000C00086FFFCCF87C08EE09EEFA0E0B0E03D
:10F17000E822F9220A231B239CE0E91694E9F90608
:10F1800090E0090790E0190709F088C0C45DDE4FE0
:10F19000A881CC52D140EA2EFF2400E010E0102FCD
:10F1A0000F2DFE2CEE24C55DDE4FB881CB52D14031
:10F1B000EB0EF11C011D111DD601C501817090706F
:10F1C000A070B070DC0199278827E80EF91E0A1F8D
:10F1D0001B1F20EF30E040E050E0A222B322C42207
:10F1E000D52241E1AA0CBB1CCC1CDD1C4A95D1F7F1
:10F1F000EA0CFB1C0C1D1D1D81E090E0A0E0B0E0BE
:10F20000282239224A225B2235E1220C331C441C7D
:10F21000551C3A95D1F7E20CF31C041D151D57013E
:10F220006801AA0CBB1CCC1CDD1C85E192EE60E0E1
:10F230000F94C2F1C801AA27BB270F940DF2BB2778
:10F24000A12F902F8F2D0F940DF28E2D0F940DF274
:10F2500090E29093C6008091C00086FFFCCF809121
:10F26000C00080648093C000AEE3A093C60080918C
:10F27000C00086FFFCCF8091C00080648093C000F6
:10F28000C601AA27BB270F940DF2BB27AD2D9C2DDD
:10F290008B2D0F940DF28A2D0F940DF20F94DCF14B
:10F2A000CC5DDE4FE881F981C452D140F99709F471
:10F2B0004DCBF4E0EF2EF12C012D112D6E0C7F1CA7
:10F2C000801E911EF2CD83E093EE62E00F94F5F183
:10F2D0008AE192EE60E00F94C2F18091C00087FF56
:10F2E000FCCF1091C6001F751093C6008091C0001E
:10F2F00086FFFCCF8091C00080648093C0000F9493
:10F30000DCF1812F81548A3108F036C1163409F4BA
:10F3100095C0173490F4133409F44EC0143430F40B
:10F320001134F1F0123409F01DC130C0143409F465
:10F3300059C0153409F016C16BC01A3409F4C4C0A1
:10F340001B3438F4173409F48FC0183409F00AC19B
:10F35000A1C01B3409F4D2C01C3409F003C1E8C0B9
:10F360008FEF81B90DC082B1809582B980E090E0C5
:10F37000E0EDF7E03197F1F70196883C9105C1F790
:10F380008091C00087FFEFCF12B8EFC08FEF84B934
:10F390000DC085B1809585B980E090E0E0EDF7E0A3
:10F3A0003197F1F70196883C9105C1F78091C00033
:10F3B00087FFEFCF15B8D9C08FEF87B90DC088B1DF
:10F3C000809588B980E090E0E0EDF7E03197F1F7C3
:10F3D0000196883C9105C1F78091C00087FFEFCF6F
:10F3E00018B8C3C08FEF8AB90DC08BB180958BB9A7
:10F3F00080E090E0E0EDF7E03197F1F70196883C8E
:10F400009105C1F78091C00087FFEFCF1BB8ADC059
:10F410008FEF8DB90DC08EB180958EB980E090E0F0
:10F42000E0EDF7E03197F1F70196883C9105C1F7DF
:10F430008091C00087FFEFCF1EB897C08FEF80BBD1
:10F440000DC081B3809581BB80E090E0E0EDF7E0F6
:10F450003197F1F70196883C9105C1F78091C00082
:10F4600087FFEFCF11BA81C08FEF83BB0DC084B38C
:10F47000809584BB80E090E0E0EDF7E03197F1F714
:10F480000196883C9105C1F78091C00087FFEFCFBE
:10F4900014BA6BC08FEF809301010FC080910201FD
:10F4A00080958093020180E090E0E0EDF7E03197F5
:10F4B000F1F70196883C9105C1F78091C00087FF64
:10F4C000EDCF1092020151C08FEF809304010FC065
:10F4D0008091050180958093050180E090E0E0ED4A
:10F4E000F7E03197F1F70196883C9105C1F78091DB
:10F4F000C00087FFEDCF1092050137C08FEF8093DA
:10F5000007010FC08091080180958093080180E079
:10F5100090E0E0EDF7E03197F1F70196883C910536
:10F52000C1F78091C00087FFEDCF109208011DC088
:10F530008FEF80930A010FC080910B01809580931B
:10F540000B0180E090E0E0EDF7E03197F1F70196F4
:10F55000883C9105C1F78091C00087FFEDCF1092E4
:10F560000B0103C085E292EEEEC98091C00087FFD7
:10F57000FCCF8091C600EAC988E392EEE4C98CE131
:10F5800091EEE1C988249924933011F1943028F444
:10F59000913089F09230B8F408C0953061F195301F
:10F5A000F0F0963009F048C043C02B3109F042C951
:10F5B00091E06BE13FC96227C15DDE4F2883CF52E6
:10F5C000D14092E037C9B22FA0E0622793E032C960
:10F5D000822F90E0A82BB92B622794E02BC92E3004
:10F5E00009F039C3622795E0C05DDE4F19821882A9
:10F5F000C053D1401FC9E1E0F0E0EC0FFD1FC05D3A
:10F60000DE4F08811981C053D140E00FF11F2083E4
:10F610000F5F1F4FC05DDE4F19830883C053D14079
:10F6200062270A171B0709F005C9D80196E002C92D
:10F63000261709F010C303C0973009F0FBC87724E0
:10F640009981933109F412C19431C8F4963009F4C8
:10F65000D8C0973050F4923009F406C1933009F4C1
:10F660006DC0913009F059C253C0913109F477C08F
:10F67000923108F0BBC0903109F04FC2F5C098310B
:10F6800009F487C0993150F4953109F4EFC09531F0
:10F6900008F4C6C1963109F040C2C2C19A3109F4DA
:10F6A0006CC09A3108F491C09B3109F45BC09D3164
:10F6B00009F033C29D81903359F48F81882311F46E
:10F6C0009EE11CC0813011F091E018C098E916C08D
:10F6D000892F807591F0903539F4E0E0F0E089E011
:10F6E0008093570094910AC0983539F4E3E0F0E034
:10F6F00089E080935700949101C090E01A821B82A8
:10F700008D818C831D829E831F8227E030E009C299
:10F710001A8288E08B8381E48C8386E58D8382E581
:10F720008E8389E48F8383E5888780E589878FE5E9
:10F730008A8782E38B872BE030E0F3C18A818139AD
:10F7400041F0823941F0803911F48FE005C080E04A
:10F7500003C082E001C08AE01A828B8344C0772410
:10F76000739482C08D81882311F48EE12CC0813086
:10F7700011F081E028C088E926C01A82E1E0F0E0BB
:10F7800089E08093570084918B831C8224E030E0D1
:10F79000C8C18B81803589F48C81883039F4E2E0EE
:10F7A000F0E089E08093570084910DC0E0E0F0E044
:10F7B00089E080935700849106C0E3E0F0E089E09F
:10F7C0008093570084911A82DFCF8D81836C99E0FA
:10F7D000E1E0F0E0082E90935700E89507B600FCB2
:10F7E000FDCF1A821B8223E030E09BC180EC8A832C
:10F7F000CE5CDE4F188219821A821B82C253D1401E
:10F800008EC18A8190E0A0E0B0E0582F44273327D2
:10F8100022278B8190E0A0E0B0E0DC0199278827C7
:10F82000282B392B4A2B5B2B8D8190E0A0E0B0E098
:10F83000282B392B4A2B5B2B8C8190E0A0E0B0E089
:10F84000BA2FA92F982F8827282B392B4A2B5B2BCF
:10F85000220F331F441F551FC05EDE4F288339839C
:10F860004A835B83C052D1401A8259C13A81C95C34
:10F87000DE4F3883C753D140CA5CDE4F1882C6536F
:10F88000D1408B81C82EDD24CA5CDE4F488159816E
:10F89000C653D140C42AD52A933109F082C0CE5C28
:10F8A000DE4F88819981AA81BB81C253D1408050AB
:10F8B000904CA340B04030F583E0CE5CDE4FE88052
:10F8C000F9800A811B81C253D140F70100935B008C
:10F8D00080935700E89507B600FCFDCFCE5CDE4F65
:10F8E000088119812A813B81C253D14000501F4FAA
:10F8F0002F4F3F4FCE5CDE4F088319832A833B8313
:10F90000C253D140C05EDE4F488159816A817B81FC
:10F91000C052D140DE011B9631E08C9111962C91A2
:10F9200011971296C75CDE4F2883C953D140C85C3B
:10F93000DE4F1882C853D14090E0C85CDE4FE881AA
:10F94000F981C853D1408E2B9F2B0C01FA01609393
:10F950005B0030935700E89511244E5F5F4F6F4F67
:10F960007F4F0EEFE02E0FEFF02ECE0CDF1CC114F8
:10F97000D10499F685E0C05EDE4F088119812A81A5
:10F980003B81C052D140F80120935B008093570027
:10F99000E89507B600FCFDCF81E180935700E8951C
:10F9A00035C0C05EDE4F88819981AA81BB81C0527B
:10F9B000D140B695A795979587957C018601ABE0D8
:10F9C000AA2EB12CAC0EBD1E0BC0D5016D915D01F0
:10F9D000C7010F947FFE0894E11CF11C01501040F8
:10F9E0000115110591F7A60160E070E0440F551F65
:10F9F000661F771FC05EDE4FE880F9800A811B8199
:10FA0000C052D1404E0D5F1D601F711F1A82C05E33
:10FA1000DE4F488359836A837B83C052D1407FC0C5
:10FA2000FA80C55CDE4FF882CB53D140C65CDE4F16
:10FA30001882CA53D1408B81C82EDD24C65CDE4FAC
:10FA400008811981CA53D140C02AD12A1A828981DA
:10FA5000BE016D5F7F4F843121F59601C05EDE4FA0
:10FA6000E880F9800A811B81C052D1400BBFF701A9
:10FA700087919691DB018C9311969C936E5F7F4FDB
:10FA8000D801C7010296A11DB11DC05EDE4F88835B
:10FA90009983AA83BB83C052D14022503040F1F6F3
:10FAA00036C0C05EDE4F288139814A815B81C052F9
:10FAB000D1400894C108D108760100E010E0089414
:10FAC000C11CD11C0894E11CF11C011D111DE20E8A
:10FAD000F31E041F151F21BDBB27A52F942F832FB5
:10FAE00082BD2F5F3F4F4F4F5F4FF89A80B5DB01CC
:10FAF0008D93BD012E153F054007510761F7C05E8C
:10FB0000DE4F288339834A835B83C052D1409601FC
:10FB10002D5F3F4FFB01108204C080EC8A8322E0FE
:10FB200030E08BE18093C6008091C00086FFFCCF5F
:10FB30008091C00080648093C000C15DDE4FF88179
:10FB4000CF52D140F093C6008091C00086FFFCCF19
:10FB50008091C00080648093C000432F3093C60022
:10FB60008091C00086FFFCCF8091C00080648093AC
:10FB7000C000922F2093C6008091C00086FFFCCF6A
:10FB80008091C00080648093C0008EE08093C600A6
:10FB90008091C00086FFFCCF8091C000806480937C
:10FBA000C00065E1C15DDE4FE880CF52D1406E25D7
:10FBB00069276427FE01319610C090819093C6009A
:10FBC0008091C00086FFFCCF31968091C000806498
:10FBD0008093C0006927215030402115310569F715
:10FBE0006093C6008091C00086FFFCCF8091C0006A
:10FBF00080648093C00085B1805885B9772081F4F6
:10FC0000C15DDE4F0881CF52D1400F5FC15DDE4F35
:10FC10000883CF52D14090E0A0E0B0E00D941AF4F8
:10FC200027982F9880E090E020ED37E0F901319798
:10FC3000F1F7019684369105C9F700008091C00064
:10FC40008D7F8093C00081E180935700E895EE2777
:10FC5000FF270994FFCF90E00D941AF497FB092E2B
:10FC600007260AD077FD04D02ED006D000201AF443
:10FC7000709561957F4F0895F6F7909581959F4F08
:10FC80000895A1E21A2EAA1BBB1BFD010DC0AA1FDD
:10FC9000BB1FEE1FFF1FA217B307E407F50720F0F5
:10FCA000A21BB30BE40BF50B661F771F881F991F70
:10FCB0001A9469F760957095809590959B01AC01B9
:10FCC000BD01CF010895AA1BBB1B51E107C0AA1FAC
:10FCD000BB1FA617B70710F0A61BB70B881F991FED
:10FCE0005A95A9F780959095BC01CD010895F99991
:10FCF000FECF92BD81BDF89A992780B50895262F31
:10FD0000F999FECF1FBA92BD81BD20BD0FB6F89400
:0EFD1000FA9AF99A0FBE01960895F894FFCF63
:040000033000E000E9
:00000001FF