:1000000015C1000043C1000041C100003FC1000014
:100010003DC100003BC1000039C1000037C10000F4
:1000200035C1000033C1000031C100002FC1000004
:100030002DC1000087C4000029C1000027C10000B5
:1000400025C1000023C1000021C100001FC1000024
:100050001DC100001BC1000019C1000029C400001F
:1000600015C1000059C300002EC300000FC10000DD
:100070000DC100000BC1000009C1000007C1000054
:1000800005C1000003C1000001C10000FFC0000065
:10009000F1C20000C6C20000F9C00000F7C00000B5
:1000A000F5C00000F3C00000F1C00000EFC0000088
:1000B000EDC00000EBC00000E9C00000E7C0000098
:1000C000E5C00000E3C00000E1C00000DFC00000A8
:1000D000DDC00000DBC00000D9C00000D7C00000B8
:1000E000D5C0000089028C027B027F028502C30218
:1000F000900294029A029E02A202A802AC02B002EE
:10010000C302B602BA02BE0200002100240027008A
:100110002A002D0030003300010100000401070116
:100120000A0100002200250028002B002E003100CB
:10013000340002010000050108010B01000020004D
:100140002300260029002C002F00320000010000AF
:10015000030106010901050505050705080808084A
:10016000020202020A0A080804040404010101014F
:10017000010101010303030303030303040707074A
:100180000C0C0C0C0C0C0C0C0202020206060606EF
:10019000060606060B0B0B0B0B0B0B0B01021020BC
:1001A00020080810204010204080020102010804AD
:1001B0000201010204081020408080402010080441
:1001C000020180040201804020100804020108049A
:1001D00002010102040810204080010204081020DE
:1001E000408000000A0B02090C0D0E0807030401F1
:1001F00000000000000000000000000000000000FF
:1002000000000000000000000000000000001211CB
:1002100010000000000000000000000000000000CE
:100220000000000000000000E90FE40F11241FBED1
:10023000CFEFD1E2DEBFCDBF00E00CBF25E0A8EDDF
:10024000B2E001C01D92A731B207E1F712E0A0E0D1
:10025000B2E0ECE6FAE200E00BBF02C007900D92BC
:10026000A83DB107D9F711E0C5E1D1E000E006C033
:1002700021970109802FFE010E94B812C431D107D5
:1002800080E00807A9F765D70C942515B9CEFC01C5
:10029000A089B1898C91A689B78982FD0FC09C91F4
:1002A000818D8F5F8F73228D821749F0218DDF0141
:1002B000A20FB11D5D969C93818F08958C91089536
:1002C000089580E090E00895FC01538D448D252F22
:1002D00030E0842F90E0821B930B541710F0CF96E0
:1002E000089501970895FC01918D828D981761F012
:1002F000828DDF01A80FB11D5D968C91928D9F5F5D
:100300009F73928F90E008958FEF9FEF0895FC0107
:10031000918D828D981731F0828DE80FF11D858DBA
:1003200090E008958FEF9FEF0895FC01918D228D4D
:10033000892F90E0805C9F4F821B91098F739927D2
:10034000089584E093E0F1DF21E0892B09F420E0B7
:10035000822F089581EA93E0E8DF21E0892B09F4F8
:1003600020E0822F0895FC01848DDF01A80FB11DCC
:10037000A35ABF4F2C91848D90E001968F739927DB
:10038000848FA689B7892C93A089B1898C918064C8
:100390008C93938D848D981306C00288F389E02D89
:1003A00080818F7D80830895EF92FF920F931F933A
:1003B000CF93DF93EC0181E0888F9B8D8C8D981318
:1003C00005C0E889F989808185FD23C0F62E0B8D53
:1003D00010E00F5F1F4F0F731127E02E8C8DE81276
:1003E0000BC00FB607FCFACFE889F989808185FF39
:1003F000F5CFCE01B8DFF2CF8B8DFE01E80FF11DF6
:10040000E35AFF4FF0820B8FEA89FB89808180627B
:1004100007C0EE89FF896083E889F989808180645B
:10042000808381E090E0DF91CF911F910F91FF9049
:10043000EF900895CF93DF93EC01888D8823C1F06E
:10044000EA89FB89808185FD05C0A889B9898C91DD
:1004500086FD0EC00FB607FCF5CF808185FFF2CF79
:10046000A889B9898C9185FFEDCFCE017CDFE8CFDB
:10047000DF91CF91089580E090E0892B19F06ADF39
:10048000811120C080E090E0892B19F05ADF8111A2
:100490001CC080E090E0892B41F080E090E0892B47
:1004A00021F00E940000811113C080E090E0892BB0
:1004B000A1F080E090E0892B81F00E940000811182
:1004C0000AC008950E940000DDCF0E940000E1CF25
:1004D0000E940000EACF0C940000089590E0FC0117
:1004E0003197E231F10508F04EC08827EE58FF4FF2
:1004F0008F4F0C94B812809180008F7703C0809149
:1005000080008F7D80938000089580918000877F98
:10051000F9CF84B58F7702C084B58F7D84BD0895EF
:100520008091B0008F7703C08091B0008F7D809361
:10053000B0000895809190008F7707C0809190005F
:100540008F7D03C080919000877F809390000895F5
:100550008091A0008F7707C08091A0008F7D03C09D
:100560008091A000877F8093A00008958091200152
:100570008F7707C0809120018F7D03C0809120017B
:10058000877F809320010895CF93DF93282F30E059
:10059000F901EE51FE4F8491F901E456FE4FD491DA
:1005A000F901EA5AFE4FC491CC2389F0811196DFFC
:1005B000EC2FF0E0EE0FFF1FE45CFE4FA591B4912D
:1005C000EC91ED2381E090E021F480E002C080E036
:1005D00090E0DF91CF9108953FB7F8948091EE02BB
:1005E0009091EF02A091F002B091F10226B5A89B84
:1005F00005C02F3F19F00196A11DB11D3FBFBA2FB5
:10060000A92F982F8827820F911DA11DB11DBC0114
:10061000CD0142E0660F771F881F991F4A95D1F7D9
:1006200008951F920F920FB60F9211240BB60F92DE
:100630002F933F934F935F936F937F938F939F93EA
:10064000AF93BF93EF93FF9384E093E08CDEFF9131
:10065000EF91BF91AF919F918F917F916F915F913A
:100660004F913F912F910F900BBE0F900FBE0F90A7
:100670001F9018951F920F920FB60F9211240BB670
:100680000F922F933F934F935F936F937F938F932B
:100690009F93AF93BF93EF93FF9384E093E0F7DDD5
:1006A000FF91EF91BF91AF919F918F917F916F914A
:1006B0005F914F913F912F910F900BBE0F900FBE06
:1006C0000F901F9018951F920F920FB60F92112442
:1006D0000BB60F922F933F934F935F936F937F933C
:1006E0008F939F93AF93BF93EF93FF9381EA93E030
:1006F0003ADEFF91EF91BF91AF919F918F917F91E2
:100700006F915F914F913F912F910F900BBE0F9082
:100710000FBE0F901F9018951F920F920FB60F9259
:1007200011240BB60F922F933F934F935F936F93C8
:100730007F938F939F93AF93BF93EF93FF9381EA40
:1007400093E0A5DDFF91EF91BF91AF919F918F91C4
:100750007F916F915F914F913F912F910F900BBEC1
:100760000F900FBE0F901F9018951F93CF93DF939C
:10077000282F30E0F901EE51FE4F8491F901E45643
:10078000FE4FD491F901EA5AFE4FC491CC23C1F037
:10079000162F8111A3DEEC2FF0E0EE0FFF1FEE5DB0
:1007A000FE4FA591B4918FB7F894111105C09C919B
:1007B000ED2FE095E92302C0EC91ED2BEC938FBF78
:1007C000DF91CF911F910895CF93DF9390E0FC01CB
:1007D000E456FE4F2491FC01EA5AFE4F849188238F
:1007E00061F190E0880F991FFC01E85FFE4FC59111
:1007F000D491FC01EE5DFE4FA591B491611109C049
:100800009FB7F8948881209582238883EC912E23CA
:100810000BC0623061F49FB7F8943881822F8095C5
:1008200083238883EC912E2B2C939FBF06C08FB718
:10083000F894E8812E2B28838FBFDF91CF91089504
:100840008F929F92AF92BF92CF92DF92EF92FF92E0
:100850006B017C01C1DE4B015C01C114D104E104D8
:10086000F104E9F0B9DEDC01CB0188199909AA0984
:10087000BB09883E9340A105B10578F321E0C21A77
:10088000D108E108F10888EE880E83E0981EA11CCB
:10089000B11CC114D104E104F10421F7DECFFF90B3
:1008A000EF90DF90CF90BF90AF909F908F90089582
:1008B0001F920F920FB60F9211242F933F938F9395
:1008C0009F93AF93BF938091F2029091F302A09116
:1008D000F402B091F5023091ED0223E0230F2D37A1
:1008E00020F40196A11DB11D05C026E8230F029634
:1008F000A11DB11D2093ED028093F2029093F302AB
:10090000A093F402B093F5028091EE029091EF0271
:10091000A091F002B091F1020196A11DB11D80934A
:10092000EE029093EF02A093F002B093F102BF9118
:10093000AF919F918F913F912F910F900FBE0F908C
:100940001F9018951F920F920FB60F9211240BB69D
:100950000F922F933F934F935F936F937F938F9358
:100960009F93AF93BF93EF93FF9380913E040CDE70
:1009700020914104309142042F5F3F4F3093420455
:100980002093410490910B05943618F095E09093D4
:100990003F0490913F049330B9F018F4923039F04D
:1009A00057C0943059F1953009F44CC051C08111B1
:1009B0004FC020914104309142042436310508F49F
:1009C00043C010920B051CC0813009F041C0E0917A
:1009D0000B0591E09E0F90930B05F0E020914104F0
:1009E00030914204EE0FFF1FE25CFB4F36832583FC
:1009F000109242041092410494E021C0811117C06A
:100A0000E0910B0591E09E0F90930B05F0E0209193
:100A1000410430914204EE0FFF1FE25CFB4F36832E
:100A20002583109242041092410493E008C0209163
:100A30004104309142042536310550F095E0909301
:100A40003F0406C0811104C0109242041092410478
:100A500090914004992329F0811102C02F9A01C07E
:100A60002F98FF91EF91BF91AF919F918F917F91BF
:100A70006F915F914F913F912F910F900BBE0F900F
:100A80000FBE0F901F901895CF92DF92EF92FF92BA
:100A9000CF93DF93EC01072E000C880B990B0E947B
:100AA00055106B017C0120E030E040E45FE30E94E0
:100AB000B41020E030E048E452E40E94E6110E94C5
:100AC0004E12C617D707D4F020E030E040EA5FE3CB
:100AD000C701B6010E94B41020E030E048E452E4BF
:100AE0000E94E61120E030E040E85FE30E948211BE
:100AF0000E944E1221E06C177D070CF420E0822F3B
:100B000090E0DF91CF91FF90EF90DF90CF9008952C
:100B1000CF92DF92EF92FF92CF9361E08BE225DEDE
:100B200060E089E222DE8BE22FDD892B51F06CEB55
:100B300072E081EA93E0FBD260E070E080E090E058
:100B400023C0C8E1C12CD12C760161E089E20DDE21
:100B5000CC0CDD1CEE1CFF1C60E089E206DE8BE2A3
:100B600013DD892B29F08FEFC81AD80AE80AF80A92
:100B7000C15059F761E089E2F8DD80E8E82660E0DD
:100B800089E2F3DDB601C701CF91FF90EF90DF90CE
:100B9000CF9008950F931F93CF93DF93EC0160E004
:100BA00088E0E3DDCA5FDD4F0881C7E0D0E010E0F8
:100BB000B8010C2E02C0759567950A94E2F7617032
:100BC000772789E0D2DD61E083E0CFDD60E083E07C
:100BD000CCDD219768F761E088E0C7DD60E570E073
:100BE00080E090E0DF91CF911F910F9129CE6115A8
:100BF000710579F0FB0101900020E9F73197AF0111
:100C0000461B570BDC01ED91FC910280F381E02D36
:100C1000199480E090E008950895CF92DF92EF92CA
:100C2000FF920F931F93CF93DF936C017A018B0197
:100C3000C0E0D0E0CE15DF0589F0D8016D918D01BF
:100C4000D601ED91FC910190F081E02DC60119953E
:100C5000892B11F47E0102C02196ECCFC701DF91F0
:100C6000CF911F910F91FF90EF90DF90CF9008955B
:100C70000E940815FC01A089B18982E08C93A485AB
:100C8000B5851C92A685B78580E18C93108EA489CA
:100C9000B58986E08C93A289B3898C9180618C930D
:100CA000A289B3898C9188608C93A289B3898C9135
:100CB00080688C930288F389E02D80818F7D80830A
:100CC00008958F929F92AF92BF92CF92DF92EF9250
:100CD000FF920F931F93CF93DF93FC01C081D181CB
:100CE0002091020330910303C217D3070CF048C0D0
:100CF0009E01220F331FE0910003F0910103E20FE8
:100D0000F31F80809180C170DD27F1E0CF2720970D
:100D100019F404E610E002C00CE91FEF7A015B0150
:100D20006C01040F151FB801C401AEDE892B89F4D4
:100D30000E0D1F1DB801C401A7DE892B69F4B8018F
:100D40006E0D7F1DC401A0DE892BE9F023E030E0A9
:100D500005C021E030E002C022E030E0F5018081F2
:100D600091810196821793073CF0F5011182108260
:100D7000F60180819181019691838083CE0105C027
:100D800081E090E002C08FEF9FEFDF91CF911F9144
:100D90000F91FF90EF90DF90CF90BF90AF909F901A
:100DA0008F9008952FB7F8948091F2029091F302FA
:100DB000A091F402B091F5022FBF80930C039093A1
:100DC0000D03A0930E03B0930F03E0910403F09181
:100DD00005030284F385E02D84E093E0199597FFE5
:100DE00026C02FB7F8948091F2029091F302A0915F
:100DF000F402B091F5022FBF40910C0350910D0306
:100E000060910E0370910F03841B950BA60BB70B1B
:100E1000409108035091090360910A0370910B03FC
:100E200084179507A607B70780F28FEF9FEF089505
:100E30000F931F93CF93DF93EC01888199810097E3
:100E400029F02A813B812617370788F48B016F5FD1
:100E50007F4F0E942414009761F0998388831B833D
:100E60000A832C813D81232B11F4FC01108281E047
:100E700001C080E0DF91CF911F910F910895EF9213
:100E8000FF920F931F93CF93DF93EC017B018A01B5
:100E9000BA01CEDF2881398181110DC021153105BC
:100EA00019F0C9010E948C13198218821D821C82BC
:100EB0001B821A8206C01D830C83B701C9010E94E0
:100EC0001E15CE01DF91CF911F910F91FF90EF90F2
:100ED00008954F925F926F927F92EF92FF920F93DD
:100EE0001F93CF93DF93CDB7DEB7A1970FB6F894DA
:100EF000DEBF0FBECDBF7C01FA01CB0119A22230AB
:100F000008F42AE08E010F5D1F4F422E512C612CF8
:100F1000712CBF01A30192010E949612F901CA012E
:100F2000015011096A3014F4605D01C0695CD80198
:100F30006C93232B242B252B61F7B801C70157DEB7
:100F4000A1960FB6F894DEBF0FBECDBFDF91CF9153
:100F50001F910F91FF90EF907F906F905F904F9057
:100F600008954F925F926F927F928F929F92AF926D
:100F7000BF92CF92DF92EF92FF92CF93DF93EC017B
:100F80006A017B01B22E9A01AB01C701B6010E9432
:100F90008312882319F06CEC72E027C02601370118
:100FA000E89477F82FEF3FEF4FE75FE7C301B20117
:100FB0000E94831281110DC02FEF3FEF4FE75FE7D3
:100FC000C301B2010E944F1018161CF460ED72E0CC
:100FD0000CC02FEF3FEF4FE75FE4C701B6010E945F
:100FE0007F12181694F464ED72E0CE01DF91CF9178
:100FF000FF90EF90DF90CF90BF90AF909F908F9039
:101000007F906F905F904F90F2CD2FEF3FEF4FE7C3
:101010005FECC701B6010E944F1087FDE4CF20E0CE
:1010200030E0A901C701B6010E944F1087FF0EC032
:10103000E881F9810190F081E02D6DE2CE011995F2
:101040004C01F7FAF094F7F8F09402C0812C912C3F
:10105000A12C60E070E080E09FE3AB1441F020E061
:1010600030E040E251E40E94E611A394F6CF9B01E8
:10107000AC01C701B6010E9482112B013C010E9404
:1010800053126B017C010E9453109B01AC01C30100
:10109000B2010E9481112B013C012AE0B701A60197
:1010A000CE0117DF7C01E80CF91CBB2051F0E88170
:1010B000F9810190F081E02D6EE2CE011995E80EE4
:1010C000F91EDB2CDD2019F120E030E040E251E494
:1010D000C301B2010E94B4102B013C010E945312C3
:1010E0004B01A12CB12C2AE0B501A401CE01F1DE07
:1010F000E80EF91EC501B401D6D79B01AC01C301AE
:10110000B2010E9481112B013C01DA94DBCFC701AF
:10111000DF91CF91FF90EF90DF90CF90BF90AF9095
:101120009F908F907F906F905F904F9008950F9356
:101130001F93CF93DF93EC015ADD8C0163EB72E0D8
:10114000CE0155DD800F911FDF91CF911F910F913F
:101150000895CF93DF93CDB7DEB760970FB6F894BD
:10116000DEBF0FBECDBF789484B5826084BD84B5E8
:10117000816084BD85B5826085BD85B5816085BD92
:1011800080916E00816080936E001092810080914A
:1011900081008260809381008091810081608093D2
:1011A0008100809180008160809380008091B100F7
:1011B00084608093B1008091B00081608093B00022
:1011C0008091910082608093910080919100816074
:1011D0008093910080919000816080939000809135
:1011E000A10082608093A1008091A1008160809322
:1011F000A1008091A00081608093A00080912101D6
:10120000826080932101809121018160809321017E
:101210008091200181608093200180917A00846018
:1012200080937A0080917A00826080937A00809126
:101230007A00816080937A0080917A008068809340
:101240007A001092C10081EA93E014DD84E093E01B
:1012500011DD61E089E2B8DA60E08BE2B5DAF8949A
:1012600082E08093B0008093B10094E69093B30045
:101270001092B20080937000789480933F04109293
:101280000B0580913E0460E09FDA61E088E09CDA23
:1012900061E089E099DA61E083E096DA61E08DE06F
:1012A00093DA68EE73E080E090E0CADA31DC6093B4
:1012B000D8027093D9028093DA029093DB0261E046
:1012C0008DE053DA64E272E081EA93E090DC22245C
:1012D0002394312C44244A94542C320123E434E0E6
:1012E000309301032093000380910B0590E09093CD
:1012F00003038093020380913F04853009F092C27A
:101300008091450490914604885891098D35910546
:1013100088F480910B05843041F4809147049091CA
:1013200048048097479708F433C280910B058434B2
:1013300008F000C480910B058A3108F44EC08091FA
:10134000430490914404843F914068F41092FF025A
:101350001092FE024092FA025092FB026092FC024E
:101360007092FD0258C08091450490914604859783
:101370004B9798F5E9E4F4E082E090E0C12CD12CA1
:10138000760120910B0530E0AC014F5F5F4F4217B3
:10139000530754F4DF0112972D913C9127503109E6
:1013A0002730310508F40EC40197959587959093E1
:1013B000FF028093FE020C972CF41092FF02109211
:1013C000FE020BC0C092FA02D092FB02E092FC0235
:1013D000F092FD0222E030E0D6C180910B058A3107
:1013E00008F44BC0809143049091440480329340B0
:1013F00008F4ACCF8091450490914604C697869737
:1014000008F4FDC33AC0C092FA02D092FB02E09207
:10141000FC02F092FD0289E090E027C52081318135
:10142000255231092B31310508F0F9C3CC0CDD1CF4
:10143000EE1CFF1C6894C0F80296349620910B05B0
:1014400030E0AC014F5F5F4F421753074CF4DF01B0
:1014500012972D913C912C5031092B303105F0F22F
:101460000197959587959093FF028093FE020C97C4
:1014700054F61092FF021092FE0280910B05823208
:1014800008F44DC080914504909146040697079753
:1014900008F045C0E9E4F4E082E090E0C12CD12CF2
:1014A00076019C012F5F3F4F40910B0550E02417C0
:1014B0003507E4F4DF0112974D915C9111974E517D
:1014C00051094731510508F0B7C3CC0CDD1CEE1CA7
:1014D000FF1C6894C0F840815181349643505109F3
:1014E0004530510510F40296DCCFC901019795955E
:1014F00087959093FF028093FE0240972CF4109200
:10150000FF021092FE020BC0C092FA02D092FB02C0
:10151000E092FC02F092FD028AE090E0A6C4809185
:101520000B058D3048F48091020390910303181647
:1015300019060CF47CC086C038862F821A82198264
:1015400049E753E0BE016F5F7F4FCE010796B9DBDD
:10155000892B21F080E090E0DC0163C049E753E093
:10156000BE016F5F7F4FCE010796ABDB019791F70E
:1015700049E753E0BE016F5F7F4FCE010796A1DBC5
:10158000892B41F700E010E0812C912C54018091CF
:101590000B0590E02F8138852817390764F549E756
:1015A00053E0BE016F5F7F4FCE0107968ADB7C015F
:1015B00049E753E0BE016F5F7F4FCE01079681DBA5
:1015C000E1E0EE16F10451F4892B09F0C3CF880C49
:1015D000991CAA1CBB1C689480F80AC0EF2809F06B
:1015E000B9CF019709F0B6CF880C991CAA1CBB1C77
:1015F0000F5F1F4FCCCF1093FF020093FE0280922B
:10160000FA029092FB02A092FC02B092FD0223E04B
:1016100030E03093F7022093F60281E090E0A0E002
:10162000B0E0892B8A2B8B2B09F0CAC07CCF38867F
:101630002F82E0910003F0910103828193818997C9
:101640004E9720F080E090E0DC0148C022E030E0DE
:1016500038872F83848195810B970A9798F783E0C9
:1016600090E098878F831A8219824CEB51E0BE017B
:101670006F5F7F4FCE01079624DB892B19F74CEB68
:1016800051E0BE016F5F7F4FCE0107961ADB0197D5
:10169000C9F600E010E0812C912C54012F8138858F
:1016A0008091020390910303281739070CF4D1C2EB
:1016B0001093FF020093FE028092FA029092FB02C6
:1016C000A092FC02B092FD0284E090E09093F702B9
:1016D0008093F60281E090E0A0E0B0E0892B8A2BB5
:1016E0008B2B09F06DC0C0900003D0900103F60170
:1016F00082819381C6978697E8F4F601848195816B
:101700004B974597B8F4D60116967601F6ECEF0E96
:10171000F11C20E030E040E050E060E070E080E06C
:1017200090E00D911C911197095011090830110595
:1017300008F4DCC280910B05823209F010C3F60177
:10174000828193810A97099708F009C320910B05BC
:10175000C601820F911D820F911DDC0112978D91A0
:101760009C910A97099708F0FAC21092FF02109212
:10177000FE024092FA025092FB026092FC027092CA
:10178000FD0228E030E03093F7022093F60218C003
:101790008091490490914A040997099708F0C5CDB2
:1017A0001092FF021092FE024092FA025092FB0247
:1017B0006092FC027092FD023092F7022092F602D3
:1017C0004091FA025091FB026091FC027091FD027F
:1017D00020E181EA93E07DDB63EB72E081EA93E054
:1017E00006DA8091FA029091FB02A091FC02B0917E
:1017F000FD028F3CE0E39E07EDEFAE07B10509F077
:1018000039C364E372E081EA93E091DC1092EC0268
:101810001092EB0280E090E0BDD982E080933F041B
:1018200010920B058091EB029091EC0281309105B2
:1018300069F11CF4892B49F07AC18230910509F4D1
:101840008CC0039709F469C172C181EA93E00E94D8
:101850009501892B51F081EA93E00E947301682F72
:1018600084E093E00E94D401F0CF84E093E00E94F2
:101870009501892B09F45BC184E093E00E94730118
:10188000682F81EA93E00E94D401EFCF41D96093A1
:10189000E0027093E1028093E2029093E3020091F0
:1018A000D8021091D9022091DA023091DB02601B3C
:1018B000710B820B930BF9D320E030E047ED53E43A
:1018C00085D5ECD56093DC027093DD028093DE0257
:1018D0009093DF02EAD36B017C016093E402709382
:1018E000E5028093E6029093E70220E030E04AE7C9
:1018F00054E46CD52AED38E34EE850E435D4AB011E
:10190000BC0123E081EA93E02CDB60E572E081EA30
:1019100093E06DD964EB72E081EA93E068D92AED37
:1019200038E34EE850E4C701B6011ED4AB01BC0158
:1019300022E084E093E015DB65E572E084E093E06B
:1019400056D969E572E084E093E0F1DB68EE73E07C
:1019500080E090E00E942004EAC08091EA028111B8
:1019600026C08091E8029091E902892B01F560E799
:1019700072E081EA93E03BD96EE772E084E093E0A5
:1019800036D968EE73E080E090E00E94200462E8BF
:1019900072E084E093E02BD964E670E080E090E0B0
:1019A0000E94200463EA72E084E093E020D98091F1
:1019B000EA02811114C08091E8029091E9020A972D
:1019C00074F46BEA72E084E093E0B1DB8091E802AA
:1019D0009091E90201969093E9028093E802DD2458
:1019E000D39484E093E00E949501892B09F49FC071
:1019F00084E093E00E9473017C0193E2E916F10414
:101A000009F085C01A8219821C821B821E821D82E7
:101A100040E050E065EB72E0CE01019630DAC2D9C9
:101A200097FD1CC08B339105C9F08F8318860D81FB
:101A30001E810F5F1F4FB801CE010196F9D988238F
:101A400071F329813A818D819E81BE01695F7F4F4B
:101A5000820F931FF3D71E830D83E1CF80910C0576
:101A600090910D05009781F069817A81611571056A
:101A700051F040910E0550910F052D813E81421786
:101A8000530708F03AC248D689819A8190930D0590
:101A900080930C058B819C8190930F0580930E059C
:101AA0008D819E8190931105809310051A82198271
:101AB0001C821B821E821D8289819A812DD64091B3
:101AC00010055091110560910C0570910D0581EA8A
:101AD00093E0A3D863EB72E081EA93E088D8809129
:101AE000100590911105892B91F066EB72E08091C1
:101AF0000C0590910D0599D7892B49F4D092EA02F3
:101B00003092EC022092EB0281E090E043D86E2DFF
:101B100081EA93E00E94D40164CF8091EA02882395
:101B200031F01092EA021092E9021092E8020E944B
:101B30003B02D4CB80914704909148048254910990
:101B40008E9708F0F7CB80E090E040E050E0BA01DB
:101B5000FC01E75BFB4F208131812950310929309D
:101B6000310508F0E7CBFC01E55BFB4F20813181BB
:101B70002651310921313105C0F4440F551F661F2C
:101B8000771F416004968038910511F780E290E05C
:101B90009093FF028093FE024093FA025093FB025F
:101BA0006093FC027093FD0207CE208131812650A4
:101BB00031092730310508F0BDCB440F551F661F92
:101BC000771FE0CF20813181235131092F3031053A
:101BD00048F4CC0CDD1CEE1CFF1C6894C0F8029687
:101BE0003496CFCB208131812A50310929303105FB
:101BF00008F0F3CBCC0CDD1CEE1CFF1CF0CF809169
:101C0000470490914804C697869708F036CCEBE4D9
:101C1000F4E083E090E0C12CD12C76010FCC208140
:101C200031812C5031092A30310508F026CCCC0CFA
:101C3000DD1CEE1CFF1C00CC4D915C914C505109F9
:101C40004B30510508F06BCCCC0CDD1CEE1CFF1C9E
:101C500042CC4CEB51E0BE016F5F7F4FCE01079647
:101C600030D86C010330110569F04CEB51E0BE0136
:101C70006F5F7F4FCE01079624D87C01033011059A
:101C8000C9F40CC04CEB51E0BE016F5F7F4FCE0139
:101C9000079617D8C816D90641F3D4CC4CEB51E0BF
:101CA000BE016F5F7F4FCE0107960BD8E816F9068D
:101CB00009F0C8CCC114D10459F4EA94EF2809F012
:101CC000C1CC880C991CAA1CBB1C689480F80BC062
:101CD000CA94CD2809F0B6CCEF2809F0B3CC880C13
:101CE000991CAA1CBB1C0F5F1F4FD8CC12960D91DC
:101CF0001C911397015111090D30110518F501E0E0
:101D00003FD421601496AE15BF0509F00ACD20938B
:101D1000FA023093FB024093FC025093FD0200E272
:101D20004AD42093F8023093F90287E090E0909330
:101D3000F7028093F60280E390E09093FF02809395
:101D4000FE023ECD12960D911C911397045011097D
:101D50000530110508F0EECC01E012D4D3CFF60126
:101D600082819381895791098335910508F4D0C008
:101D700020910203309103033C872B8726303105E5
:101D80000CF44BCD86010A5F1F4F83E090E09A87E9
:101D90008987B5ECCB2EBDE9DB2EBCE1EB2EB1E89B
:101DA000FB2EF801608171813497A080B18080E0C2
:101DB00090E079D16D877E878F87988BB50180E021
:101DC00090E071D14B015C012DEC3CEC4CE45FE305
:101DD000CBD19B01AC016D857E858F8598895FD1C4
:101DE00087FD93C02DEC3CEC4CE45FE36D857E8574
:101DF0008F859889B9D19B01AC01C501B4014FD140
:101E0000E82F880FFF0BEE27FF0FEE1FFF273196FD
:101E1000A701960163E971E080E091E078D36F015A
:101E2000FF0FEE08FF08C626D726E826F9262985E3
:101E30003A852F5F3F4F3A8729870E5F1F4F8B856B
:101E40009C852817390709F0ACCFC092FA02D092CE
:101E5000FB02E092FC02F092FD02E0E2F0E0F0937F
:101E6000FF02E093FE028FEF9FEF9093F7028093C3
:101E7000F602A6CC803DF0E39F07FDEFAF07B1056A
:101E8000B0F4873F9840AD4FB10561F46BE372E069
:101E900081EA93E04CD93092EC022092EB0281E08F
:101EA00090E0BACC8091EB029091EC02B5CC873BEC
:101EB00038E493073DEFA307B10561F469E472E0EC
:101EC00081EA93E034D983E090E09093EC02809330
:101ED000EB02A2CC87379848AD4FB10519F762E401
:101EE00072E081EA93E023D922E030E03093EC0203
:101EF0002093EB0282E090E08FCCA0D58D819E8173
:101F00009093110580931005D5CDE0E0F0E080CFEF
:101F100080910B05813208F42BCFF60184819581E5
:101F2000CA97899708F024CF96012A5F3F4F80E037
:101F300090E0DC0143E050E0F901608171816A507A
:101F400071096930710508F013CFF901628173815D
:101F5000665171096131710548F5880F991FAA1FF3
:101F6000BB1F81604E5F5F4F2C5F3F4F4332510577
:101F700019F796012A5B3F4FF901208131812A50E0
:101F800031092930310508F0F3CE20E130E03093FB
:101F9000FF022093FE028093FA029093FB02A0932B
:101FA000FC02B093FD0288E090E05FCFF90162810E
:101FB0007381665071096730710508F0D9CE880FBA
:101FC000991FAA1FBB1FCECF80910C0590910D05C4
:101FD000A3C3E4E0F3E01382128248EE53E060E032
:101FE00070E0448355836683778384E192E0918334
:101FF00080832DEC30E0358724872CEC30E0378768
:10200000268728EC30E0318B208B29EC30E0338BB5
:10201000228B2AEC30E0358B248B2EEC30E0378B92
:10202000268B118E128E138E148EE1EAF3E013824A
:10203000128244835583668377839183808385EC02
:1020400090E09587848784EC90E09787868780EC82
:1020500090E0918B808B81EC90E0938B828B82EC73
:1020600090E0958B848B86EC90E0978B868B118E1D
:10207000128E138E148EEEE3F4E082E080831282DF
:10208000ECE0F5E011821082138212821582148234
:1020900040E050E065EB72E0CF010C943F0740D088
:1020A00008F481E00895E89409C097FB3EF4909508
:1020B0008095709561957F4F8F4F9F4F9923A9F021
:1020C000F92F96E9BB279395F695879577956795B0
:1020D000B795F111F8CFFAF4BB0F11F460FF1BC0F4
:1020E0006F5F7F4F8F4F9F4F16C0882311F096E987
:1020F00011C0772321F09EE8872F762F05C0662335
:1021000071F096E8862F70E060E02AF09A95660FED
:10211000771F881FDAF7880F9695879597F90895A6
:10212000990F0008550FAA0BE0E8FEEF16161706E8
:10213000E807F907C0F012161306E407F50798F050
:10214000621B730B840B950B39F40A2661F0232B69
:10215000242B252B21F408950A2609F4A140A695E5
:102160008FEF811D811D08950BD078C069D028F0B4
:102170006ED018F0952309F05AC05FC01124A2C098
:102180007ED0A0F3959FD1F3950F50E0551F629F2D
:10219000F001729FBB27F00DB11D639FAA27F00DC0
:1021A000B11DAA1F649F6627B00DA11D661F829FE7
:1021B0002227B00DA11D621F739FB00DA11D621FCC
:1021C000839FA00D611D221F749F3327A00D611DE9
:1021D000231F849F600D211D822F762F6A2F1124CB
:1021E0009F5750408AF0E1F088234AF0EE0FFF1F1E
:1021F000BB1F661F771F881F91505040A9F79E3F55
:10220000510570F014C05EC05F3FECF3983EDCF304
:10221000869577956795B795F795E7959F5FC1F791
:10222000FE2B880F911D9695879597F9089597F93C
:102230009F6780E870E060E008959FEF80EC08956C
:1022400000240A9416161706180609060895002495
:102250000A9412161306140605060895092E03940F
:10226000000C11F4882352F0BB0F40F4BF2B11F483
:1022700060FF04C06F5F7F4F8F4F9F4F089557FDE2
:102280009058440F551F59F05F3F71F04795880FE4
:1022900097FB991F61F09F3F79F08795089512167B
:1022A00013061406551FF2CF4695F1DF08C0161627
:1022B00017061806991FF1CF8695710561050894D8
:1022C0000895E894BB2766277727CB0197F90895EF
:1022D00009D0A59F900DB49F900DA49F800D911DD6
:1022E00011240895A29FB001B39FC001A39F700D58
:1022F000811D1124911DB29F700D811D1124911D0E
:1023000008955058BB27AA270ED0A8CF99DF30F0E8
:102310009EDF20F031F49F3F11F41EF48ECF0EF4B7
:10232000E095E7FB84CFE92FAADF80F3BA176207B5
:1023300073078407950718F071F49EF5C2CF0EF469
:10234000E0950B2EBA2FA02D0B01B90190010C01C5
:10235000CA01A0011124FF27591B99F0593F50F4DD
:10236000503E68F11A16F040A22F232F342F442735
:10237000585FF3CF469537952795A795F04053952D
:10238000C9F77EF41F16BA0B620B730B840BBAF0FD
:102390009150A1F0FF0FBB1F661F771F881FC2F768
:1023A0000EC0BA0F621F731F841F48F4879577957C
:1023B0006795B795F7959E3F08F0B3CF9395880F33
:1023C00008F09927EE0F9795879508950CD046CF82
:1023D0003EDF40F035DF30F021F45F3F19F027CFCA
:1023E000511170CF2ACF4BDF98F39923C9F35523AE
:1023F000B1F3951B550BBB27AA27621773078407F8
:1024000038F09F5F5F4F220F331F441FAA1FA9F3AD
:1024100033D00E2E3AF0E0E830D091505040E6959F
:10242000001CCAF729D0FE2F27D0660F771F881F00
:10243000BB1F261737074807AB07B0E809F0BB0BEF
:10244000802DBF01FF2793585F4F2AF09E3F510513
:1024500068F0EDCE37CF5F3FECF3983EDCF3869526
:1024600077956795B795F7959F5FC9F7880F911D89
:102470009695879597F90895E1E0660F771F881F75
:10248000BB1F621773078407BA0720F0621B730B28
:10249000840BBA0BEE1F88F7E095089504D068947A
:1024A000B11110CF0895F3DE88F09F5790F0B92F47
:1024B0009927B751A0F0D1F0660F771F881F991F99
:1024C0001AF0BA95C9F712C0B13081F0FADEB1E066
:1024D0000895F7CE672F782F8827B85F39F0B93F76
:1024E000CCF3869577956795B395D9F73EF490959B
:1024F0008095709561957F4F8F4F9F4F089510DEA7
:1025000008F48FEF08950CDE880B990B0895DB011A
:102510008F939F93DDDEBF91AF91A29F800D911DA0
:10252000A39F900DB29F900D11240895A1E21A2E41
:10253000AA1BBB1BFD010DC0AA1FBB1FEE1FFF1F67
:10254000A217B307E407F50720F0A21BB30BE40BB7
:10255000F50B661F771F881F991F1A9469F76095FE
:102560007095809590959B01AC01BD01CF010895B8
:10257000EE0FFF1F881F8BBF0790F691E02D199477
:102580000F93083090F0982F872F762F652F542FB8
:10259000432F322F22270850F4CF220F331F441F1E
:1025A000551F661F771F881F991F0A95B2F70F9155
:1025B000089597FB10F8169400080F93083098F0D0
:1025C0000850232F342F452F562F672F782F892F10
:1025D000902DF4CF059497958795779567955795A6
:1025E0004795379527950A95AAF70F910895CF93A8
:1025F000DF938230910510F482E090E0E0911505C0
:10260000F091160520E030E0C0E0D0E0309711F105
:102610004081518148175907C0F04817590761F4A4
:1026200082819381209719F09B838A832BC090939A
:1026300016058093150526C02115310519F042179E
:10264000530718F49A01BE01DF01EF010280F38104
:10265000E02DDCCF2115310509F1281B390B243081
:10266000310590F412968D919C9113976115710527
:1026700021F0FB019383828304C09093160580931D
:102680001505FD01329644C0FD01E20FF31F819351
:102690009193225031092D933C933AC02091130518
:1026A00030911405232B41F4209102023091030252
:1026B00030931405209313052091000230910102FC
:1026C0002115310541F42DB73EB7409104025091D8
:1026D0000502241B350BE0911305F0911405E21758
:1026E000F307A0F42E1B3F0B2817390778F0AC0135
:1026F0004E5F5F4F2417350748F04E0F5F1F509312
:102700001405409313058193919302C0E0E0F0E03B
:10271000CF01DF91CF9108950F931F93CF93DF9354
:10272000009709F48CC0FC01329713821282009149
:102730001505109116050115110581F420813181CF
:10274000820F931F20911305309114052817390724
:1027500079F5F0931405E093130571C0D80140E0BA
:1027600050E0AE17BF0750F412962D913C9113978D
:10277000AD012115310509F1D901F3CF9D01DA0130
:102780003383228360817181860F971F821793079D
:1027900069F4EC0128813981260F371F2E5F3F4FE6
:1027A000318320838A819B8193838283452B29F403
:1027B000F0931605E093150542C01396FC93EE9333
:1027C0001297ED01499159919E01240F351FE2178F
:1027D000F30771F480819181840F951F0296119601
:1027E0009C938E938281938113969C938E931297E0
:1027F000E0E0F0E0D80112968D919C91139700973C
:1028000019F0F8018C01F6CF8D919C9198012E5F03
:102810003F4F820F931F2091130530911405281705
:10282000390769F4309729F41092160510921505AE
:1028300002C0138212821093140500931305DF91D6
:10284000CF911F910F9108956F927F928F929F92D7
:10285000AF92BF92CF92DF92EF92FF920F931F93AE
:10286000CF93DF93EC01009781F4CB01DF91CF91FF
:102870001F910F91FF90EF90DF90CF90BF90AF909E
:102880009F908F907F906F90B2CEFC01E60FF71F64
:102890009C0122503109E217F30708F4A8C0D901BE
:1028A0000D911C91119706171707A8F00530110517
:1028B00008F49BC0C80104978617970708F495C0D1
:1028C00002501109061B170B019311936D937C9312
:1028D000CF0122DF8AC05B01A01AB10A4C01800E31
:1028E000911EA0911505B091160540E050E0E12C35
:1028F000F12C109709F44AC0A815B905D1F56D90CF
:102900007C901197630182E0C80ED11CCA14DB04CD
:1029100080F1A3014A195B096A0182E0C80ED11C4B
:102920001296BC9012971396AC91B5E0CB16D104D9
:1029300040F0B282A38351834083D9016D937C938D
:102940000AC00E5F1F4FC301800F911FF9019183D1
:102950008083EB2DFA2FE114F10431F0D7011396A7
:10296000FC93EE93129741C0F0931605E093150582
:102970003CC08D919C9111974817590708F4AC0100
:102980007D0112960D90BC91A02DB3CF80911305BF
:102990009091140588159905E1F446175707C8F476
:1029A0008091000290910102009741F48DB79EB78B
:1029B0004091040250910502841B950BE817F9071A
:1029C000B0F4F0931405E0931305F901718360836B
:1029D0000CC0CB010CDE7C01009749F0A801BE01C0
:1029E0001BD0CE0199DEC70104C0CE0102C080E039
:1029F00090E0DF91CF911F910F91FF90EF90DF90CA
:102A0000CF90BF90AF909F908F907F906F900895E0
:102A100081E090E0F89419C0FB01DC0102C0019054
:102A20000D9241505040D8F70895FB01DC018D9183
:102A3000019080190110D9F3990B0895FB01DC0175
:102A400001900D920020E1F7089511E0C5E1D1E079
:102A500000E005C0802FFE018BDD2196011DC631EF
:0C2A6000D10780E00807B1F7F894FFCF21
:102A6C00000017058000C0F9A4B0999282F88090FC
:102A7C0000000000D4010D0664011A0295017301D7
:102A8C008701020057656C636F6D6520746F20754C
:102A9C00736521004D6F64653A30004D6F64653A83
:102AAC0031004D6F64653A32004D6F64653A330006
:102ABC00206B670A0020670A002A2A2A2A2A2A2A57
:102ACC002A2A2A2A2A2A2A2A2A2A2A2A2A2A2A0084
:102ADC00424547494E20544350434F4E4E002B2BFA
:102AEC002B0041542B544350434C49434F4E4E3DC5
:102AFC003139322E3136382E322E3139333A383094
:102B0C0038300041542B4558495400235443504FFE
:102B1C004B3F000D0A005443504F4B00485837317F
:102B2C00315F4454203D2054525545006E616E0077
:082B3C00696E66006F76660009
:020000023000CC
:10E000000D9489F10D94B2F10D94B2F10D94B2F129
:10E010000D94B2F10D94B2F10D94B2F10D94B2F1F0
:10E020000D94B2F10D94B2F10D94B2F10D94B2F1E0
:10E030000D94B2F10D94B2F10D94B2F10D94B2F1D0
:10E040000D94B2F10D94B2F10D94B2F10D94B2F1C0
:10E050000D94B2F10D94B2F10D94B2F10D94B2F1B0
:10E060000D94B2F10D94B2F10D94B2F10D94B2F1A0
:10E070000D94B2F10D94B2F10D94B2F10D94B2F190
:10E080000D94B2F10D94B2F10D94B2F10D94B2F180
:10E090000D94B2F10D94B2F10D94B2F10D94B2F170
:10E0A0000D94B2F10D94B2F10D94B2F10D94B2F160
:10E0B0000D94B2F10D94B2F10D94B2F10D94B2F150
:10E0C0000D94B2F10D94B2F10D94B2F10D94B2F140
:10E0D0000D94B2F10D94B2F10D94B2F10D94B2F130
:10E0E0000D94B2F141546D656761323536300041AF
:10E0F000726475696E6F206578706C6F72657220DE
:10E1000073746B3530305632206279204D4C530099
:10E11000426F6F746C6F616465723E004875683F52
:10E1200000436F6D70696C6564206F6E203D200048
:10E130004350552054797065202020203D20005FF9
:10E140005F4156525F415243485F5F3D2000415658
:10E1500052204C696243205665723D20004743437C
:10E160002056657273696F6E203D20004350552024
:10E1700049442020202020203D20004C6F7720663D
:10E18000757365202020203D20004869676820665F
:10E190007573652020203D200045787420667573D6
:10E1A00065202020203D20004C6F636B2066757336
:10E1B000652020203D20004D617220203720323024
:10E1C000313300312E362E3800342E332E350056A2
:10E1D00023202020414444522020206F7020636F70
:10E1E00064652020202020696E73747275637469E1
:10E1F0006F6E2061646472202020496E74657272B3
:10E20000757074006E6F20766563746F7200726A49
:10E210006D702020006A6D70200057686174207056
:10E220006F72743A00506F7274206E6F7420737541
:10E2300070706F72746564004D7573742062652030
:10E2400061206C6574746572002000577269747483
:10E25000696E672045450052656164696E672045B7
:10E26000450045452065727220636E743D00504F35
:10E27000525400303D5A65726F2061646472003FF1
:10E280003D43505520737461747300403D454550C3
:10E29000524F4D207465737400423D426C696E6B41
:10E2A000204C454400453D44756D70204545505215
:10E2B0004F4D00463D44756D7020464C415348001B
:10E2C000483D48656C70004C3D4C69737420492F83
:10E2D0004F20506F72747300513D51756974005234
:10E2E0003D44756D702052414D00563D73686F7707
:10E2F00020696E7465727275707420566563746FF0
:10E30000727300593D506F727420626C696E6B00BD
:10E310002A0011241FBECFEFD1E2DEBFCDBF01E046
:10E320000CBF12E0A0E0B2E0EEE1FDEF03E00BBFB6
:10E3300002C007900D92A030B107D9F712E0A0E01B
:10E34000B2E001C01D92AE30B107E1F70F9460F367
:10E350000D948DFE01E20EBF0FEF0DBF11241FBE05
:10E360000D9460F30D9400F020E030E040ED57E0B4
:10E3700005C0FA013197F1F72F5F3F4F2817390792
:10E38000C0F308959C01260F311DC901A0E0B0E043
:10E390002F5F3F4FABBFFC018791882361F08093D3
:10E3A000C6008091C00086FFFCCF8091C0008064D1
:10E3B0008093C000EACF08958DE08093C6008091DD
:10E3C000C00086FFFCCF8091C00080648093C000B5
:10E3D0008AE08093C6008091C00086FFFCCF8091C8
:10E3E000C00080648093C00008950F94C2F10F9420
:10E3F000DCF10895FC019081992359F09093C600B7
:10E400008091C00086FFFCCF8091C0008064809323
:10E41000C0003196992379F70895282F982F929567
:10E420009F70892F805D8A3308F0895F8093C600D2
:10E430008091C00086FFFCCF8091C00080648093F3
:10E44000C000822F8F70982F905D9A3308F0995FEB
:10E450009093C6008091C00086FFFCCF8091C000E1
:10E4600080648093C00008959C01FB01853691056E
:10E470001CF46330710594F0C90164E670E00F94F8
:10E480002EFE605D7F4F6093C6008091C00086FFC6
:10E49000FCCF8091C00080648093C0002B30310598
:10E4A00014F43297B4F0C90164E670E00F942EFEC4
:10E4B0006AE070E00F942EFE605D7F4F6093C600AF
:10E4C0008091C00086FFFCCF8091C0008064809363
:10E4D000C000C9016AE070E00F942EFEC0968093E0
:10E4E000C6008091C00086FFFCCF8091C000806490
:10E4F0008093C00008951F93182F8EE692EE60E07F
:10E500000F94C2F11093C6008091C00086FFFCCF2B
:10E510008091C00080648093C0000F94DCF11F9153
:10E5200008952F923F924F925F926F927F928F92B7
:10E530009F92AF92BF92CF92DF92EF92FF920F9392
:10E540001F93DF93CF93CDB7DEB762970FB6F894E2
:10E55000DEBF0FBECDBF382E622ECA01DB015C01CB
:10E560006D01772420E2222E2E010894411C511CBB
:10E570008BC081E0A81680E0B80681E0C80680E084
:10E58000D80628F0C601AA27BB270F940DF2BB2797
:10E59000AD2D9C2D8B2D0F940DF28A2D0F940DF225
:10E5A0002092C6008091C00086FFFCCF8091C00001
:10E5B00080648093C0009DE29093C6008091C0006B
:10E5C00086FFFCCF8091C00080648093C0002092C1
:10E5D000C6008091C00086FFFCCF8091C00080649F
:10E5E0008093C00019828601750188249924A1E0D6
:10E5F0003A1651F03A1620F0B2E03B1661F409C029
:10E600000BBFF701779007C0C7010F9477FE782EF4
:10E6100002C0F7017080872D0F940DF22092C60082
:10E620008091C00086FFFCCF8091C0008064809301
:10E63000C000872D8052F401EF70F0708F3520F408
:10E64000E40DF51D708204C0E40DF51D8EE280839B
:10E650000894E11CF11C011D111D0894811C911CE2
:10E6600090E18916910409F0C2CF80E190E0A0E02A
:10E67000B0E0A80EB91ECA1EDB1E198AC2010F9493
:10E68000FAF10F94DCF16A94662009F072CF629679
:10E690000FB6F894DEBF0FBECDBFCF91DF911F91B3
:10E6A0000F91FF90EF90DF90CF90BF90AF909F9031
:10E6B0008F907F906F905F904F903F902F90089534
:10E6C0002F923F924F925F926F927F928F929F9282
:10E6D000AF92BF92CF92DF92EF92FF920F931F9370
:10E6E000DF93CF93CDB7DEB7CD53D1400FB6F894BB
:10E6F000DEBF0FBECDBF01E20EBF0FEF0DBF94B75F
:10E70000F894A89514BE80916000886180936000A1
:10E7100010926000789493FF05C0E0910002F091A0
:10E7200001021995279A2F9A8091C00082608093E8
:10E73000C00080E18093C40088E18093C1000000A4
:10E74000EE24FF24870144E0A42EB12CCC24DD2448
:10E7500024C0C5010197F1F70894E11CF11C011DCB
:10E76000111D21E2E2162EE4F20620E0020720E06D
:10E77000120718F031E0C32ED12CC801B70127ECE5
:10E780003BE140E050E00F9441FE611571058105C9
:10E79000910519F485B1805885B98091C00087FD35
:10E7A00003C0C114D104A9F2A6014F5F5F4FC25E3E
:10E7B000DE4F59834883CE51D140C25EDE4F8881FF
:10E7C0009981CE51D140019711F00D9410FEC05D9A
:10E7D000DE4F19821882C053D14060E0C15DDE4F28
:10E7E0001882CF52D14088249924C35DDE4F19820C
:10E7F0001882CD52D140C05EDE4F188219821A8233
:10E800001B82C052D140CE5CDE4F188219821A8220
:10E810001B82C253D140EE24FF2487010BBFF701B6
:10E8200007911691C45CDE4F19830883CC53D14005
:10E830000D940BFEC25EDE4F28813981CE51D1404E
:10E840002130310509F52091C600C25EDE4F1982E4
:10E850001882CE51D14022C02F5F3F4F4F4F5F4FA4
:10E86000213082E138078AE7480780E0580780F0C6
:10E87000C45CDE4FE881F981CC53D140EF5FFF4F9C
:10E8800019F0EE27FF27099420E030E040E050E047
:10E890008091C00087FFE0CF2091C600C35DDE4FAE
:10E8A00048815981CD52D1404F5F5F4FC35DDE4FEC
:10E8B00059834883CD52D140213209F063C64A3092
:10E8C000510508F05FC60894811C911C53E0851621
:10E8D000910409F059C600E010E018C081E280936D
:10E8E000C6008091C00086FFFCCF8091C00080648C
:10E8F0008093C0002F5F3F4F2931310579F70F9486
:10E90000DCF10F5F1F4F0530110519F020E030E0FA
:10E91000E5CF10920A0210920B0210920C02109294
:10E920000D02109206021092070210920802109235
:10E930000902109202021092030210920402109235
:10E9400005028FEE90EE60E00F94F5F180E191EE1C
:10E9500060E00F94C2F18091C00087FFFCCF9091DE
:10E96000C600903608F09F759032B8F09093C600BC
:10E970008091C00086FFFCCF8091C00080648093AE
:10E98000C000A0E2A093C6008091C00086FFFCCF2B
:10E990008091C00080648093C000983409F4D7C18E
:10E9A0009934B8F4923409F459C1933458F490333B
:10E9B00019F1903308F4E3C59F33A1F1903409F0C5
:10E9C000DEC5BDC0953409F470C1963409F0D7C5D1
:10E9D00098C1923509F42BC2933538F49C3409F46C
:10E9E000F5C1913509F0CBC518C2963509F445C279
:10E9F000993509F0C4C567C483E792EE62E00F94CD
:10EA0000F5F110920602109207021092080210927D
:10EA1000090210920A0210920B0210920C0210923C
:10EA20000D0213C18FE792EE62E00F94F5F18FEEC5
:10EA300090EE60E00F94F5F181E291EE60E00F94CA
:10EA4000C2F187EB91EE60E00F94F5F180E391EE77
:10EA500060E00F94C2F184EE90EE60E00F94F5F167
:10EA60008FE391EE60E00F94C2F186E090E061E008
:10EA700070E00F9434F20F94DCF18DE591EE60E0DC
:10EA80000F94C2F189EC91EE60E00F94F5F18EE401
:10EA900091EE60E00F94C2F183EC91EE60E00F9490
:10EAA000F5F18CE691EE60E00F94C2F18EE10F94E7
:10EAB0000DF288E90F940DF281E00F940DF20F949E
:10EAC000DCF18BE791EE60E00F94C2F119E0E0E039
:10EAD000F0E010935700E4918E2F0F940DF20F94F5
:10EAE000DCF18AE891EE60E00F94C2F1E3E0F0E03F
:10EAF00010935700E4918E2F0F940DF20F94DCF1D8
:10EB000089E991EE60E00F94C2F1E2E0F0E0109349
:10EB10005700E4918E2F0F940DF20F94DCF188EAE8
:10EB200091EE60E00F94C2F1E1E0F0E01093570045
:10EB30001491812F0F940DF20F94DCF107CF8BE825
:10EB400092EE62E00F94F5F18BE492EE60E00F94A8
:10EB5000F5F10F94DCF100E010E019C0C8016F2D51
:10EB60000F947FFEFF2031F489E492EE60E00F9471
:10EB7000C2F10BC0F092C6008091C00086FFFCCFAE
:10EB80008091C00080648093C0000F5F1F4FC80158
:10EB900081519F41A0E0B0E0ABBFFC01F790BAE229
:10EBA000FB1621F0E2E000301E07C1F60F94DCF105
:10EBB0000F94DCF187E592EE60E00F94F5F10F948D
:10EBC000DCF1CC24DD2400E010E01EC0C8010F946D
:10EBD00077FEF82E882331F489E492EE60E00F94FA
:10EBE000C2F10BC08093C6008091C00086FFFCCFAD
:10EBF0008091C00080648093C000FE1419F00894D6
:10EC0000C11CD11C0F5F1F4FC80181519F41A0E063
:10EC1000B0E0ABBFFC01E790FAE2EF1621F022E092
:10EC20000030120799F60F94DCF10F94DCF182E6C4
:10EC300092EE60E00F94C2F1C60161E070E00F94C3
:10EC400034F20F94DCF10F94DCF110920202109276
:10EC50000302109204021092050278CE89E992EE26
:10EC600062E00F94F5F1279A2F9A16C02F9880E052
:10EC700090E0E0EDF7E03197F1F7019684369105E9
:10EC8000C1F72F9A80E090E0E0EDF7E03197F1F7DF
:10EC9000019684369105C1F78091C00087FFE6CFC9
:10ECA0008091C00087FFFCCF64C485EA92EE62E0E9
:10ECB0000F94F5F140910202509103026091040219
:10ECC0007091050281E020E10F9491F2809102029F
:10ECD00090910302A0910402B091050280509F4FD1
:10ECE000AF4FBF4F8093020290930302A0930402A0
:10ECF000B093050280509041A040B04008F426CE69
:10ED0000A4CF83EB92EE62E00F94F5F140910602FE
:10ED100050910702609108027091090280E020E1A1
:10ED20000F9491F28091060290910702A09108023F
:10ED3000B091090280509F4FAF4FBF4F80930602A2
:10ED400090930702A0930802B0930902FFCD80ECD4
:10ED500092EE62E00F94F5F183E792EE60E00F949B
:10ED6000F5F18FE792EE60E00F94F5F18BE892EE0B
:10ED700060E00F94F5F189E992EE60E00F94F5F10F
:10ED800085EA92EE60E00F94F5F183EB92EE60E09D
:10ED90000F94F5F180EC92EE60E00F94F5F187ECC2
:10EDA00092EE60E00F94F5F188ED92EE60E00F9442
:10EDB000F5F18FED92EE60E00F94F5F18AEE92EEB0
:10EDC00060E00F94F5F183E093EEBDCD87EC92EE19
:10EDD00062E00F94F5F181E40F947BF282E40F94EA
:10EDE0007BF283E40F947BF284E40F947BF285E45E
:10EDF0000F947BF286E40F947BF287E40F947BF20E
:10EE000088E40F947BF28AE40F947BF28BE40F94F6
:10EE10007BF28CE40F947BF299CD88ED92EE62E068
:10EE20000F94F5F1772473948824992409C48FED05
:10EE300092EE62E00F94F5F140910A0250910B02BC
:10EE400060910C0270910D0282E020E10F9491F22A
:10EE500080910A0290910B02A0910C02B0910D02D8
:10EE600080509F4FAF4FBF4F80930A0290930B0289
:10EE7000A0930C02B0930D0269CD8AEE92EE62E08F
:10EE80000F94F5F184EE90EE60E00F94F5F18FECC5
:10EE900091EE60E00F94F5F1662477244301CC5D98
:10EEA000DE4F19821882C452D140D401C301B695F5
:10EEB000A79597958795CA5DDE4F88839983AA8326
:10EEC000BB83C652D140CC5DDE4FA881B981C4520C
:10EED000D1401196CC5DDE4FB983A883C452D14096
:10EEE000CD0162E070E00F9434F2B0E2B093C6005E
:10EEF0008091C00086FFFCCF8091C0008064809329
:10EF0000C000EDE2E093C6008091C00086FFFCCF18
:10EF10008091C00080648093C000F0E2F093C6004E
:10EF20008091C00086FFFCCF8091C00080648093F8
:10EF3000C000CA5DDE4FE880F9800A811B81C6529D
:10EF4000D140BB27A12F902F8F2D0F940DF2CA5DBA
:10EF5000DE4F8881C652D1400F940DF2B0E2FB2EF5
:10EF6000F092C6008091C00086FFFCCF8091C00067
:10EF700080648093C0000DE30093C6008091C000C0
:10EF800086FFFCCF8091C00080648093C00010E2B7
:10EF90001093C6008091C00086FFFCCF8091C00016
:10EFA00080648093C0008BBEF3012791C65DDE4F65
:10EFB0002883CA52D140A22EBB24CC24DD2408943D
:10EFC000611C711C811C911C8BBEF3018791282E42
:10EFD0003324442455240894611C711C811C911C09
:10EFE0008BBEF3013791C55DDE4F3883CB52D140E4
:10EFF0000894611C711C811C911C8BBEF30147910C
:10F00000C45DDE4F4883CC52D140ADEFEA2EAFEF66
:10F01000FA2EAFEF0A2FAFEF1A2F6E0C7F1C801E57
:10F02000911E142D032DF22CEE24EA0CFB1C0C1D5A
:10F030001D1D0F940DF220E22093C6008091C000A8
:10F0400086FFFCCF8091C00080648093C000C65DC5
:10F05000DE4F8881CA52D1400F940DF230E23093D6
:10F06000C6008091C00086FFFCCF8091C000806404
:10F070008093C000C45DDE4F8881CC52D1400F9494
:10F080000DF240E24093C6008091C00086FFFCCFA5
:10F090008091C00080648093C000C55DDE4F888190
:10F0A000CB52D1400F940DF250E25093C6008091A4
:10F0B000C00086FFFCCF8091C00080648093C000B8
:10F0C0008FEFE8168FEFF80680E0080780E018075A
:10F0D00031F484E092EE60E00F94C2F1DFC0D80119
:10F0E000C7018070907CA070B0708050904CA040A0
:10F0F000B040D1F52FEF3FE340E050E0E222F322B1
:10F1000004231523CA5DDE4FA880B980CA80DB8046
:10F11000C652D140AE0CBF1CC01ED11EAA0CBB1CD7
:10F12000CC1CDD1C8EE092EE60E00F94C2F1BB2798
:10F13000A12F902F8F2D0F940DF28E2D0F940DF285
:10F1400030E23093C6008091C00086FFFCCF8091F2
:10F15000C00080648093C0004EE34093C60080915D
:10F16000C00086FFFCCF87C08EE09EEFA0E0B0E03D
:10F17000E822F9220A231B239CE0E91694E9F90608
:10F1800090E0090790E0190709F088C0C45DDE4FE0
:10F19000A881CC52D140EA2EFF2400E010E0102FCD
:10F1A0000F2DFE2CEE24C55DDE4FB881CB52D14031
:10F1B000EB0EF11C011D111DD601C501817090706F
:10F1C000A070B070DC0199278827E80EF91E0A1F8D
:10F1D0001B1F20EF30E040E050E0A222B322C42207
:10F1E000D52241E1AA0CBB1CCC1CDD1C4A95D1F7F1
:10F1F000EA0CFB1C0C1D1D1D81E090E0A0E0B0E0BE
:10F20000282239224A225B2235E1220C331C441C7D
:10F21000551C3A95D1F7E20CF31C041D151D57013E
:10F220006801AA0CBB1CCC1CDD1C85E192EE60E0E1
:10F230000F94C2F1C801AA27BB270F940DF2BB2778
:10F24000A12F902F8F2D0F940DF28E2D0F940DF274
:10F2500090E29093C6008091C00086FFFCCF809121
:10F26000C00080648093C000AEE3A093C60080918C
:10F27000C00086FFFCCF8091C00080648093C000F6
:10F28000C601AA27BB270F940DF2BB27AD2D9C2DDD
:10F290008B2D0F940DF28A2D0F940DF20F94DCF14B
:10F2A000CC5DDE4FE881F981C452D140F99709F471
:10F2B0004DCBF4E0EF2EF12C012D112D6E0C7F1CA7
:10F2C000801E911EF2CD83E093EE62E00F94F5F183
:10F2D0008AE192EE60E00F94C2F18091C00087FF56
:10F2E000FCCF1091C6001F751093C6008091C0001E
:10F2F00086FFFCCF8091C00080648093C0000F9493
:10F30000DCF1812F81548A3108F036C1163409F4BA
:10F3100095C0173490F4133409F44EC0143430F40B
:10F320001134F1F0123409F01DC130C0143409F465
:10F3300059C0153409F016C16BC01A3409F4C4C0A1
:10F340001B3438F4173409F48FC0183409F00AC19B
:10F35000A1C01B3409F4D2C01C3409F003C1E8C0B9
:10F360008FEF81B90DC082B1809582B980E090E0C5
:10F37000E0EDF7E03197F1F70196883C9105C1F790
:10F380008091C00087FFEFCF12B8EFC08FEF84B934
:10F390000DC085B1809585B980E090E0E0EDF7E0A3
:10F3A0003197F1F70196883C9105C1F78091C00033
:10F3B00087FFEFCF15B8D9C08FEF87B90DC088B1DF
:10F3C000809588B980E090E0E0EDF7E03197F1F7C3
:10F3D0000196883C9105C1F78091C00087FFEFCF6F
:10F3E00018B8C3C08FEF8AB90DC08BB180958BB9A7
:10F3F00080E090E0E0EDF7E03197F1F70196883C8E
:10F400009105C1F78091C00087FFEFCF1BB8ADC059
:10F410008FEF8DB90DC08EB180958EB980E090E0F0
:10F42000E0EDF7E03197F1F70196883C9105C1F7DF
:10F430008091C00087FFEFCF1EB897C08FEF80BBD1
:10F440000DC081B3809581BB80E090E0E0EDF7E0F6
:10F450003197F1F70196883C9105C1F78091C00082
:10F4600087FFEFCF11BA81C08FEF83BB0DC084B38C
:10F47000809584BB80E090E0E0EDF7E03197F1F714
:10F480000196883C9105C1F78091C00087FFEFCFBE
:10F4900014BA6BC08FEF809301010FC080910201FD
:10F4A00080958093020180E090E0E0EDF7E03197F5
:10F4B000F1F70196883C9105C1F78091C00087FF64
:10F4C000EDCF1092020151C08FEF809304010FC065
:10F4D0008091050180958093050180E090E0E0ED4A
:10F4E000F7E03197F1F70196883C9105C1F78091DB
:10F4F000C00087FFEDCF1092050137C08FEF8093DA
:10F5000007010FC08091080180958093080180E079
:10F5100090E0E0EDF7E03197F1F70196883C910536
:10F52000C1F78091C00087FFEDCF109208011DC088
:10F530008FEF80930A010FC080910B01809580931B
:10F540000B0180E090E0E0EDF7E03197F1F70196F4
:10F55000883C9105C1F78091C00087FFEDCF1092E4
:10F560000B0103C085E292EEEEC98091C00087FFD7
:10F57000FCCF8091C600EAC988E392EEE4C98CE131
:10F5800091EEE1C988249924933011F1943028F444
:10F59000913089F09230B8F408C0953061F195301F
:10F5A000F0F0963009F048C043C02B3109F042C951
:10F5B00091E06BE13FC96227C15DDE4F2883CF52E6
:10F5C000D14092E037C9B22FA0E0622793E032C960
:10F5D000822F90E0A82BB92B622794E02BC92E3004
:10F5E00009F039C3622795E0C05DDE4F19821882A9
:10F5F000C053D1401FC9E1E0F0E0EC0FFD1FC05D3A
:10F60000DE4F08811981C053D140E00FF11F2083E4
:10F610000F5F1F4FC05DDE4F19830883C053D14079
:10F6200062270A171B0709F005C9D80196E002C92D
:10F63000261709F010C303C0973009F0FBC87724E0
:10F640009981933109F412C19431C8F4963009F4C8
:10F65000D8C0973050F4923009F406C1933009F4C1
:10F660006DC0913009F059C253C0913109F477C08F
:10F67000923108F0BBC0903109F04FC2F5C098310B
:10F6800009F487C0993150F4953109F4EFC09531F0
:10F6900008F4C6C1963109F040C2C2C19A3109F4DA
:10F6A0006CC09A3108F491C09B3109F45BC09D3164
:10F6B00009F033C29D81903359F48F81882311F46E
:10F6C0009EE11CC0813011F091E018C098E916C08D
:10F6D000892F807591F0903539F4E0E0F0E089E011
:10F6E0008093570094910AC0983539F4E3E0F0E034
:10F6F00089E080935700949101C090E01A821B82A8
:10F700008D818C831D829E831F8227E030E009C299
:10F710001A8288E08B8381E48C8386E58D8382E581
:10F720008E8389E48F8383E5888780E589878FE5E9
:10F730008A8782E38B872BE030E0F3C18A818139AD
:10F7400041F0823941F0803911F48FE005C080E04A
:10F7500003C082E001C08AE01A828B8344C0772410
:10F76000739482C08D81882311F48EE12CC0813086
:10F7700011F081E028C088E926C01A82E1E0F0E0BB
:10F7800089E08093570084918B831C8224E030E0D1
:10F79000C8C18B81803589F48C81883039F4E2E0EE
:10F7A000F0E089E08093570084910DC0E0E0F0E044
:10F7B00089E080935700849106C0E3E0F0E089E09F
:10F7C0008093570084911A82DFCF8D81836C99E0FA
:10F7D000E1E0F0E0082E90935700E89507B600FCB2
:10F7E000FDCF1A821B8223E030E09BC180EC8A832C
:10F7F000CE5CDE4F188219821A821B82C253D1401E
:10F800008EC18A8190E0A0E0B0E0582F44273327D2
:10F8100022278B8190E0A0E0B0E0DC0199278827C7
:10F82000282B392B4A2B5B2B8D8190E0A0E0B0E098
:10F83000282B392B4A2B5B2B8C8190E0A0E0B0E089
:10F84000BA2FA92F982F8827282B392B4A2B5B2BCF
:10F85000220F331F441F551FC05EDE4F288339839C
:10F860004A835B83C052D1401A8259C13A81C95C34
:10F87000DE4F3883C753D140CA5CDE4F1882C6536F
:10F88000D1408B81C82EDD24CA5CDE4F488159816E
:10F89000C653D140C42AD52A933109F082C0CE5C28
:10F8A000DE4F88819981AA81BB81C253D1408050AB
:10F8B000904CA340B04030F583E0CE5CDE4FE88052
:10F8C000F9800A811B81C253D140F70100935B008C
:10F8D00080935700E89507B600FCFDCFCE5CDE4F65
:10F8E000088119812A813B81C253D14000501F4FAA
:10F8F0002F4F3F4FCE5CDE4F088319832A833B8313
:10F90000C253D140C05EDE4F488159816A817B81FC
:10F91000C052D140DE011B9631E08C9111962C91A2
:10F9200011971296C75CDE4F2883C953D140C85C3B
:10F93000DE4F1882C853D14090E0C85CDE4FE881AA
:10F94000F981C853D1408E2B9F2B0C01FA01609393
:10F950005B0030935700E89511244E5F5F4F6F4F67
:10F960007F4F0EEFE02E0FEFF02ECE0CDF1CC114F8
:10F97000D10499F685E0C05EDE4F088119812A81A5
:10F980003B81C052D140F80120935B008093570027
:10F99000E89507B600FCFDCF81E180935700E8951C
:10F9A00035C0C05EDE4F88819981AA81BB81C0527B
:10F9B000D140B695A795979587957C018601ABE0D8
:10F9C000AA2EB12CAC0EBD1E0BC0D5016D915D01F0
:10F9D000C7010F947FFE0894E11CF11C01501040F8
:10F9E0000115110591F7A60160E070E0440F551F65
:10F9F000661F771FC05EDE4FE880F9800A811B8199
:10FA0000C052D1404E0D5F1D601F711F1A82C05E33
:10FA1000DE4F488359836A837B83C052D1407FC0C5
:10FA2000FA80C55CDE4FF882CB53D140C65CDE4F16
:10FA30001882CA53D1408B81C82EDD24C65CDE4FAC
:10FA400008811981CA53D140C02AD12A1A828981DA
:10FA5000BE016D5F7F4F843121F59601C05EDE4FA0
:10FA6000E880F9800A811B81C052D1400BBFF701A9
:10FA700087919691DB018C9311969C936E5F7F4FDB
:10FA8000D801C7010296A11DB11DC05EDE4F88835B
:10FA90009983AA83BB83C052D14022503040F1F6F3
:10FAA00036C0C05EDE4F288139814A815B81C052F9
:10FAB000D1400894C108D108760100E010E0089414
:10FAC000C11CD11C0894E11CF11C011D111DE20E8A
:10FAD000F31E041F151F21BDBB27A52F942F832FB5
:10FAE00082BD2F5F3F4F4F4F5F4FF89A80B5DB01CC
:10FAF0008D93BD012E153F054007510761F7C05E8C
:10FB0000DE4F288339834A835B83C052D1409601FC
:10FB10002D5F3F4FFB01108204C080EC8A8322E0FE
:10FB200030E08BE18093C6008091C00086FFFCCF5F
:10FB30008091C00080648093C000C15DDE4FF88179
:10FB4000CF52D140F093C6008091C00086FFFCCF19
:10FB50008091C00080648093C000432F3093C60022
:10FB60008091C00086FFFCCF8091C00080648093AC
:10FB7000C000922F2093C6008091C00086FFFCCF6A
:10FB80008091C00080648093C0008EE08093C600A6
:10FB90008091C00086FFFCCF8091C000806480937C
:10FBA000C00065E1C15DDE4FE880CF52D1406E25D7
:10FBB00069276427FE01319610C090819093C6009A
:10FBC0008091C00086FFFCCF31968091C000806498
:10FBD0008093C0006927215030402115310569F715
:10FBE0006093C6008091C00086FFFCCF8091C0006A
:10FBF00080648093C00085B1805885B9772081F4F6
:10FC0000C15DDE4F0881CF52D1400F5FC15DDE4F35
:10FC10000883CF52D14090E0A0E0B0E00D941AF4F8
:10FC200027982F9880E090E020ED37E0F901319798
:10FC3000F1F7019684369105C9F700008091C00064
:10FC40008D7F8093C00081E180935700E895EE2777
:10FC5000FF270994FFCF90E00D941AF497FB092E2B
:10FC600007260AD077FD04D02ED006D000201AF443
:10FC7000709561957F4F0895F6F7909581959F4F08
:10FC80000895A1E21A2EAA1BBB1BFD010DC0AA1FDD
:10FC9000BB1FEE1FFF1FA217B307E407F50720F0F5
:10FCA000A21BB30BE40BF50B661F771F881F991F70
:10FCB0001A9469F760957095809590959B01AC01B9
:10FCC000BD01CF010895AA1BBB1B51E107C0AA1FAC
:10FCD000BB1FA617B70710F0A61BB70B881F991FED
:10FCE0005A95A9F780959095BC01CD010895F99991
:10FCF000FECF92BD81BDF89A992780B50895262F31
:10FD0000F999FECF1FBA92BD81BD20BD0FB6F89400
:0EFD1000FA9AF99A0FBE01960895F894FFCF63
:040000033000E000E9
:00000001FF