:1000000092C10000C0C10000BEC10000BCC1000020
:10001000BAC10000B8C10000B6C10000B4C1000000
:10002000B2C10000B0C10000AEC10000ACC1000010
:10003000AAC1000004C50000A6C10000A4C10000C0
:10004000A2C10000A0C100009EC100009CC1000030
:100050009AC1000098C1000096C10000A6C400002B
:1000600092C10000D6C30000ABC300008CC10000E9
:100070008AC1000088C1000086C1000084C1000060
:1000800082C1000080C100007EC100007CC1000070
:100090006EC3000043C3000076C1000074C10000BD
:1000A00072C1000070C100006EC100006CC1000090
:1000B0006AC1000068C1000066C1000064C10000A0
:1000C00062C1000060C100005EC100005CC10000B0
:1000D0005AC1000058C1000056C1000054C10000C0
:1000E00052C1000006030903F802FC0202034003A8
:1000F0000D03110317031B031F03250329032D03FE
:100100004003330337033B0300407A10F35A00A047
:10011000724E18090010A5D4E80000E876481700D0
:1001200000E40B54020000CA9A3B000000E1F50510
:10013000000080969800000040420F000000A0865A
:1001400001000000102700000000E803000000008C
:100150006400000000000A00000000000100000030
:1001600000002C76D888DC674F0823DFC1DFAE594A
:10017000E1B1B796E5E3E453C63AE651997696E8DD
:10018000E6C28426EB898C9B62ED407C6FFCEFBC61
:100190009C9F40F2BAA56FA5F490055A2AF75C938C
:1001A0006B6CF9676DC11BFCE0E40D47FEF520E6C2
:1001B000B500D0ED902E0300943577050080841EA5
:1001C000080000204E0A000000C80C333333330F00
:1001D000986E12831141EF8D2114893BE65516CF9D
:1001E000FEE6DB18D1844B381BF77C1D901DA4BBA9
:1001F000E424203284725E228100C9F124ECA1E55E
:100200003D2700002100240027002A002D00300097
:10021000330001010000040107010A01000022006F
:10022000250028002B002E003100340002010000C0
:10023000050108010B010000200023002600290011
:100240002C002F003200000100000301060109010B
:1002500005050505070508080808020202020A0A42
:100260000808040404040101010101010101030360
:10027000030303030303040707070C0C0C0C0C0C0B
:100280000C0C0202020206060606060606060B0B08
:100290000B0B0B0B0B0B0102102020080810204049
:1002A000102040800201020108040201010204083A
:1002B00010204080804020100804020180040201C8
:1002C0008040201008040201080402010102040811
:1002D00010204080010204081020408000000A0B1A
:1002E00002090C0D0E0807030401000000000000C5
:1002F00000000000000000000000000000000000FE
:1003000000000000000000001211100000000000BA
:1003100000000000000000000000000000000000DD
:100320000000D410CF1011241FBECFEFD1E2DEBFEA
:10033000CDBF00E00CBF26E0A0E0B4E001C01D92FC
:10034000A333B207E1F714E0A0E0B2E0E0EDF1E39F
:1003500000E00BBF02C007900D92A030B107D9F7A3
:1003600011E0C2E9D1E000E006C021970109802F29
:10037000FE010E946A16C139D10780E00807A9F77B
:100380009BD70C94D7183CCEFC01A089B1898C91E5
:10039000A689B78982FD0FC09C91818D8F5F8F7375
:1003A000228D821749F0218DDF01A20FB11D5D96CC
:1003B0009C93818F08958C910895089580E090E03A
:1003C0000895FC01538D448D252F30E0842F90E05B
:1003D000821B930B541710F0CF9608950197089540
:1003E000FC01918D828D981761F0828DDF01A80F3D
:1003F000B11D5D968C91928D9F5F9F73928F90E05F
:1004000008958FEF9FEF0895FC01918D828D9817CD
:1004100031F0828DE80FF11D858D90E008958FEF0A
:100420009FEF0895FC01918D228D892F90E0805CD3
:100430009F4F821B91098F739927089580E294E062
:10044000F1DF21E0892B09F420E0822F08958DEB64
:1004500094E0E8DF21E0892B09F420E0822F089561
:10046000FC01848DDF01A80FB11DA35ABF4F2C9151
:10047000848D90E001968F739927848FA689B78920
:100480002C93A089B1898C9180648C93938D848DF9
:10049000981306C00288F389E02D80818F7D8083C8
:1004A0000895EF92FF920F931F93CF93DF93EC0188
:1004B00081E0888F9B8D8C8D981305C0E889F98920
:1004C000808185FD23C0F62E0B8D10E00F5F1F4F3E
:1004D0000F731127E02E8C8DE8120BC00FB607FCAE
:1004E000FACFE889F989808185FFF5CFCE01B8DFA1
:1004F000F2CF8B8DFE01E80FF11DE35AFF4FF08222
:100500000B8FEA89FB898081806207C0EE89FF89B1
:100510006083E889F98980818064808381E090E04C
:10052000DF91CF911F910F91FF90EF900895CF939E
:10053000DF93EC01888D8823C1F0EA89FB898081F3
:1005400085FD05C0A889B9898C9186FD0EC00FB6BE
:1005500007FCF5CF808185FFF2CFA889B9898C91FE
:1005600085FFEDCFCE017CDFE8CFDF91CF910895FD
:1005700080E090E0892B19F06ADF811120C080E0D3
:1005800090E0892B19F05ADF81111CC080E090E0C7
:10059000892B41F080E090E0892B21F00E9400003F
:1005A000811113C080E090E0892BA1F080E090E001
:1005B000892B81F00E94000081110AC008950E94D9
:1005C0000000DDCF0E940000E1CF0E940000EACFD2
:1005D0000C940000089590E0FC013197E231F105A0
:1005E00008F04EC08827EE58FF4F8F4F0C946A16C4
:1005F000809180008F7703C0809180008F7D8093F1
:100600008000089580918000877FF9CF84B58F772F
:1006100002C084B58F7D84BD08958091B0008F772E
:1006200003C08091B0008F7D8093B00008958091C9
:1006300090008F7707C0809190008F7D03C08091DC
:100640009000877F8093900008958091A0008F771D
:1006500007C08091A0008F7D03C08091A000877F9C
:100660008093A0000895809120018F7707C080912A
:1006700020018F7D03C080912001877F809320011E
:100680000895CF93DF93282F30E0F901E452FD4F16
:100690008491F901EA56FD4FD491F901E05BFD4FD9
:1006A000C491CC2389F0811196DFEC2FF0E0EE0F9E
:1006B000FF1FEA5CFD4FA591B491EC91ED2381E021
:1006C00090E021F480E002C080E090E0DF91CF91E3
:1006D00008953FB7F89480910A0490910B04A0917B
:1006E0000C04B0910D0426B5A89B05C02F3F19F04E
:1006F0000196A11DB11D3FBFBA2FA92F982F8827A2
:10070000820F911DA11DB11DBC01CD0142E0660FFC
:10071000771F881F991F4A95D1F708951F920F924E
:100720000FB60F9211240BB60F922F933F934F9356
:100730005F936F937F938F939F93AF93BF93EF9349
:10074000FF9380E294E08CDEFF91EF91BF91AF9137
:100750009F918F917F916F915F914F913F912F91D9
:100760000F900BBE0F900FBE0F901F9018951F9209
:100770000F920FB60F9211240BB60F922F933F9347
:100780004F935F936F937F938F939F93AF93BF9399
:10079000EF93FF9380E294E0F7DDFF91EF91BF913B
:1007A000AF919F918F917F916F915F914F913F9109
:1007B0002F910F900BBE0F900FBE0F901F901895AA
:1007C0001F920F920FB60F9211240BB60F922F9318
:1007D0003F934F935F936F937F938F939F93AF93C9
:1007E000BF93EF93FF938DEB94E03ADEFF91EF918F
:1007F000BF91AF919F918F917F916F915F914F9139
:100800003F912F910F900BBE0F900FBE0F901F9036
:1008100018951F920F920FB60F9211240BB60F92DC
:100820002F933F934F935F936F937F938F939F93F8
:10083000AF93BF93EF93FF938DEB94E0A5DDFF9112
:10084000EF91BF91AF919F918F917F916F915F9148
:100850004F913F912F910F900BBE0F900FBE0F90B5
:100860001F9018951F93CF93DF93282F30E0F90145
:10087000E452FD4F8491F901EA56FD4FD491F901FC
:10088000E05BFD4FC491CC23C1F0162F8111A3DE94
:10089000EC2FF0E0EE0FFF1FE45EFD4FA591B49149
:1008A0008FB7F894111105C09C91ED2FE095E923C5
:1008B00002C0EC91ED2BEC938FBFDF91CF911F9194
:1008C0000895CF93DF9390E0FC01EA56FD4F249109
:1008D000FC01E05BFD4F8491882361F190E0880F7B
:1008E000991FFC01EE5FFD4FC591D491FC01E45EC0
:1008F000FD4FA591B491611109C09FB7F89488810B
:10090000209582238883EC912E230BC0623061F402
:100910009FB7F8943881822F809583238883EC9148
:100920002E2B2C939FBF06C08FB7F894E8812E2BF7
:1009300028838FBFDF91CF9108958F929F92AF92BE
:10094000BF92CF92DF92EF92FF926B017C01C1DEEA
:100950004B015C01C114D104E104F104E9F0B9DEFA
:10096000DC01CB0188199909AA09BB09883E93408B
:10097000A105B10578F321E0C21AD108E108F10818
:1009800088EE880E83E0981EA11CB11CC114D1040E
:10099000E104F10421F7DECFFF90EF90DF90CF90DC
:1009A000BF90AF909F908F9008951F920F920FB6B7
:1009B0000F9211242F933F938F939F93AF93BF93E5
:1009C00080910E0490910F04A0911004B091110435
:1009D0003091090423E0230F2D3720F40196A11D47
:1009E000B11D05C026E8230F0296A11DB11D20935D
:1009F000090480930E0490930F04A0931004B09305
:100A0000110480910A0490910B04A0910C04B09100
:100A10000D040196A11DB11D80930A0490930B044F
:100A2000A0930C04B0930D04BF91AF919F918F914F
:100A30003F912F910F900FBE0F901F9018951F920E
:100A40000F920FB60F9211240BB60F922F933F9374
:100A50004F935F936F937F938F939F93AF93BF93C6
:100A6000EF93FF9380915A050CDE20915D05309144
:100A70005E052F5F3F4F30935E0520935D0590919B
:100A80002706943618F095E090935B0590915B05EE
:100A90009330B9F018F4923039F057C0943059F1CE
:100AA000953009F44CC051C081114FC020915D05B3
:100AB00030915E052436310508F443C010922706B4
:100AC0001CC0813009F041C0E091270691E09E0FE3
:100AD00090932706F0E020915D0530915E05EE0FC2
:100AE000FF1FE65AFA4F3683258310925E05109257
:100AF0005D0594E021C0811117C0E091270691E0C7
:100B00009E0F90932706F0E020915D0530915E05E1
:100B1000EE0FFF1FE65AFA4F3683258310925E05CB
:100B200010925D0593E008C020915D0530915E054F
:100B30002536310550F095E090935B0506C0811194
:100B400004C010925E0510925D0590915C0599239A
:100B500029F0811102C02F9A01C02F98FF91EF91C7
:100B6000BF91AF919F918F917F916F915F914F91C5
:100B70003F912F910F900BBE0F900FBE0F901F90C3
:100B80001895CF92DF92EF92FF92CF93DF93EC0113
:100B9000072E000C880B990B0E940F146B017C012F
:100BA00020E030E040E45FE30E946E1420E030E09B
:100BB00048E452E40E94A0150E940816C617D70701
:100BC000D4F020E030E040EA5FE3C701B6010E94C4
:100BD0006E1420E030E048E452E40E94A01520E0CA
:100BE00030E040E85FE30E943C150E94081621E0D7
:100BF0006C177D070CF420E0822F90E0DF91CF91FD
:100C0000FF90EF90DF90CF9008958F929F92BF92C8
:100C1000CF92DF92EF92FF920F931F93CF93DF93C8
:100C2000EC016FED73E08DEB94E045D3CE019CD1E8
:100C300064EE73E08DEB94E03ED324E0CC0FDD1F37
:100C40002A95E1F7FE01E050FE4F62817381072E85
:100C5000000C880B990B97FF02C060D102C04AE0DC
:100C60001BD169EE73E08DEB94E025D38E0100502B
:100C70001E4FF8018081918177D161E0F801828176
:100C8000F1DD60E0F8018081EDDDF8018281F9DCC1
:100C9000892B51F06FEE73E08DEB94E0DCD260E0D5
:100CA00070E080E090E02EC098E1B92EC12CD12CEC
:100CB00076014801F2E08F0E911C61E0F80180811D
:100CC000D1DDCC0CDD1CEE1CFF1C60E0F801808146
:100CD000C9DDF4018081D5DC892B29F0FFEFCF1A23
:100CE000DF0AEF0AFF0ABA94B110E7CFC050DE4F17
:100CF00061E08881B7DD80E8E82660E08881B2DDC8
:100D0000B601C701DF91CF911F910F91FF90EF9036
:100D1000DF90CF90BF909F908F9008950F931F9377
:100D2000CF93DF93EC0160E088E09CDDCA50DD4F9B
:100D30000881C7E0D0E010E0B8010C2E02C0759524
:100D400067950A94E2F76170772789E08BDD61E0AF
:100D500083E088DD60E083E085DD219768F761E06E
:100D600088E080DD60E570E080E090E0DF91CF9189
:100D70001F910F91E2CD6115710579F0FB01019092
:100D80000020E9F73197AF01461B570BDC01ED91CD
:100D9000FC910280F381E02D199480E090E00895A9
:100DA0000895CF92DF92EF92FF920F931F93CF930C
:100DB000DF936C017A018B01C0E0D0E0CE15DF0536
:100DC00089F0D8016D918D01D601ED91FC910190D2
:100DD000F081E02DC6011995892B11F47E0102C026
:100DE0002196ECCFC701DF91CF911F910F91FF901A
:100DF000EF90DF90CF9008950E94BA180F931F9341
:100E0000CF93DF93EC0188819981009729F02A81A3
:100E10003B812617370788F48B016F5F7F4F0E9455
:100E2000D617009761F0998388831B830A832C81EE
:100E30003D81232B11F4FC01108281E001C080E090
:100E4000DF91CF911F910F910895FC01A089B18985
:100E500082E08C93A485B5851C92A685B78580E138
:100E60008C93108EA489B58986E08C93A289B3896E
:100E70008C9180618C93A289B3898C9188608C93CA
:100E8000A289B3898C9180688C930288F389E02DC4
:100E900080818F7D808308958F929F92AF92BF92C1
:100EA0000F931F93CF93DF93CDB7DEB7A1970FB604
:100EB000F894DEBF0FBECDBF19A2423008F44AE05D
:100EC0008E010F5D1F4F842E912CA12CB12CA501FA
:100ED00094010E944816E62FB901CA010150110978
:100EE000EA3014F4E05D01C0E95CD801EC93232BF7
:100EF000242B252B61F7B8018DEB94E03CDFA19604
:100F00000FB6F894DEBF0FBECDBFDF91CF911F911A
:100F10000F91BF90AF909F908F900895CF92DF92E6
:100F2000EF92FF92CF93DF936B017C01E091BD04C0
:100F3000F091BE040190F081E02D6DE28DEB94E024
:100F40001995EC0166277727CB016C197D098E096D
:100F50009F094AE0A1DF8C0F9D1FDF91CF91FF9089
:100F6000EF90DF90CF900895CF93DF93BC01990F5E
:100F7000880B990B97FF02C0D1DF02C04AE08CDFDB
:100F8000EC0165E273E08DEB94E0F5DE8C0F9D1FC4
:100F9000DF91CF9108958F929F92AF92BF92CF929F
:100FA000DF92EF92FF920F931F93CF93DF93FC0199
:100FB000C081D18120911E0430911F04C217D30734
:100FC0000CF048C09E01220F331FE0911C04F091E9
:100FD0001D04E20FF31F80809180C170DD27F1E0D6
:100FE000CF27209719F404E610E002C00CE91FEFA8
:100FF0007A015B016C01040F151FB801C401C1DD4A
:10100000892B89F40E0D1F1DB801C401BADD892B8F
:1010100069F4B8016E0D7F1DC401B3DD892BE9F0C1
:1010200023E030E005C021E030E002C022E030E003
:10103000F501808191810196821793073CF0F501BB
:1010400011821082F60180819181019691838083C3
:10105000CE0105C081E090E002C08FEF9FEFDF91ED
:10106000CF911F910F91FF90EF90DF90CF90BF90A5
:10107000AF909F908F9008952FB7F89480910E04B1
:1010800090910F04A0911004B09111042FBF809390
:10109000280490932904A0932A04B0932B04E09190
:1010A0002004F09121040284F385E02D80E294E095
:1010B000199597FF26C02FB7F89480910E04909150
:1010C0000F04A0911004B09111042FBF4091280487
:1010D0005091290460912A0470912B04841B950B74
:1010E000A60BB70B4091240450912504609126046F
:1010F0007091270484179507A607B70780F28FEF32
:101100009FEF0895EF92FF920F931F93CF93DF937A
:10111000FC01248135816115710511F480E018C04E
:1011200041155105A1F07B01EC018A01020F131F4B
:10113000B80164DE882391F3288139818C819D81F7
:10114000B701820F931F0E94D0181D830C8381E08A
:10115000DF91CF911F910F91FF90EF900895EF9243
:10116000FF920F931F93CF93DF93CDB7DEB72897EE
:101170000FB6F894DEBF0FBECDBF7C01CB014AE0B5
:101180008E010F5F1F4FB8010E945011F8010190AE
:101190000020E9F73197AF01401B510BB801C7019F
:1011A000B1DF28960FB6F894DEBF0FBECDBFDF913A
:1011B000CF911F910F91FF90EF90089561157105E8
:1011C00049F0FB0101900020E9F73197AF01461B80
:1011D000570B98CF80E00895EF92FF920F931F93E3
:1011E000CF93DF93EC01198218821B821A821D8231
:1011F0001C826115710541F18B01FB0101900020FA
:10120000E9F731977F01E61AF70AB701F7DD288180
:10121000398181110DC02115310519F0C9010E94D4
:101220003E17198218821D821C821B821A820CC0F2
:10123000FD82EC82B801C901DF91CF911F910F911E
:10124000FF90EF900C94D018DF91CF911F910F91E8
:10125000FF90EF9008950F931F93CF93DF93EC01CE
:101260008ADD8C0165E273E0CE0185DD800F911F80
:10127000DF91CF911F910F9108950F931F93CF93FB
:10128000DF93EC01E881F981DB0114964D915C91CB
:1012900015976D917C910280F381E02D19958C0159
:1012A00065E273E0CE0167DD800F911FDF91CF9182
:1012B0001F910F9108955FCDCF93DF93CDB7DEB728
:1012C000A0970FB6F894DEBF0FBECDBF789484B55B
:1012D000826084BD84B5816084BD85B5826085BD32
:1012E00085B5816085BD80916E00816080936E00C0
:1012F00010928100809181008260809381008091B2
:101300008100816080938100809180008160809362
:1013100080008091B10084608093B1008091B00022
:1013200081608093B00080919100826080939100F1
:101330008091910081608093910080919000816004
:10134000809390008091A10082608093A1008091A1
:10135000A10081608093A1008091A00081608093B2
:10136000A000809121018260809321018091210160
:101370008160809321018091200181608093200110
:1013800080917A00846080937A0080917A008260F4
:1013900080937A0080917A00816080937A008091B6
:1013A0007A00806880937A001092C1008DEB94E0FF
:1013B0004CDD80E294E049DD64E670E080E090E09E
:1013C000BCDA64E173E08DEB94E075DF809102029A
:1013D00090910302C9DD6AE173E08DEB94E06BDF6D
:1013E00081E090E0C1DD61E0809100026ADA60E0B6
:1013F0008091020266DAF89482E08093B0008093D4
:10140000B10094E69093B3001092B2008093700004
:10141000789480935B051092270680915A0560E0CE
:1014200050DA61E088E04DDA61E089E04ADA61E0B3
:1014300083E047DA61E08DE044DA68EE73E080E053
:1014400090E07BDA80E090E0E0DB4AE025DD65E2D9
:1014500073E08DEB94E08FDC61E08DE003DA68E20D
:1014600073E08DEB94E087DC22242394312C9E01E1
:101470002F5F3F4F79018FE595E090931D04809396
:101480001C048091270690E090931F0480931E0413
:1014900080915B05853009F025C3809161059091AD
:1014A0006205885891098D35910588F48091270649
:1014B000843041F48091630590916405809747974B
:1014C00008F4D7C480912706843408F0B9C4809109
:1014D00027068A3108F451C080915F05909160051C
:1014E000843F914080F410921B0410921A048FEFF5
:1014F0009FEFDC018093160490931704A0931804C7
:10150000B093190458C08091610590916205859748
:101510004B9798F5E5E6F5E082E090E0812C912C80
:1015200054012091270630E0AC014F5F5F4F421716
:10153000530754F4DF0112972D913C912750310944
:101540002730310508F4DCC4019795958795909371
:101550001B0480931A040C972CF410921B04109215
:101560001A040BC08092160490921704A0921804DB
:10157000B0921904A2E0B0E0C9C1809127068A3177
:1015800008F44BC080915F059091600580329340D4
:1015900008F4A9CF8091610590916205C69786975E
:1015A00008F4CBC43AC08092160490921704A0921B
:1015B0001804B092190489E090E031C22081318191
:1015C000255231092B31310508F0C7C4880C991C0C
:1015D000AA1CBB1C689480F80296349620912706BA
:1015E00030E0AC014F5F5F4F421753074CF4DF010F
:1015F00012972D913C912C5031092B303105F0F28E
:1016000001979595879590931B0480931A040C97E6
:1016100054F610921B0410921A048091270682320D
:1016200008F44CC080916105909162050697079778
:1016300008F044C0E5E6F5E082E090E040E050E0EC
:10164000BA018C010F5F1F4F2091270630E002176F
:101650001307DCF4DF0112972D913C9111972E5165
:1016600031092731310508F085C4440F551F661F25
:10167000771F416020813181349623503109253014
:10168000310510F40296DDCFC80101979595879535
:1016900090931B0480931A0440972CF410921B041F
:1016A00010921A040BC040931604509317046093D1
:1016B0001804709319048AE090E0B1C18091270664
:1016C0008D3048F480911E0490911F04181619065D
:1016D0000CF471C07BC03E8A2D8A1A82198249E7B8
:1016E00053E0B701CE01459656DC892B21F080E00E
:1016F00090E0DC015AC049E753E0B701CE014596BE
:101700004ADC0197A1F749E753E0B701CE014596BE
:1017100042DC892B61F700E010E0812C912C540110
:101720008091270690E02D893E89281739073CF5DE
:1017300049E753E0B701CE0145962DDC6C0149E73E
:1017400053E0B701CE01459626DCE1E0CE16D10488
:1017500049F4892B61F6880C991CAA1CBB1C68945F
:1017600080F80AC0CD2809F0C2CF019709F0BFCF99
:10177000880C991CAA1CBB1C0F5F1F4FD1CF109364
:101780001B0400931A048092160490921704A092EE
:101790001804B092190423E030E03093130420932E
:1017A000120481E090E0A0E0B0E0892B8A2B8B2B23
:1017B00009F068C187CF3E8A2D8AE0911C04F09120
:1017C0001D048281938189974E9720F080E090E0FC
:1017D000DC0144C022E030E03E8B2D8B848195817A
:1017E0000B970A9798F783E090E09E8B8D8B1A8277
:1017F00019824CEB51E0B701CE014596CCDB892B29
:1018000029F74CEB51E0B701CE014596C4DB0197B7
:10181000E9F600E010E0412C512C32012D893E897F
:1018200080911E0490911F04281739070CF4AFC350
:1018300010931B0400931A0440921604509217044C
:10184000609218047092190484E090E0909313045D
:101850008093120481E090E0A0E0B0E0892B8A2B15
:101860008B2B09F00FC1A0901C04B0901D04D50172
:1018700012968D919C911397C6978697F0F4D50197
:1018800014968D919C9115974B974597B0F41696A9
:101890006501E6ECCE0ED11C20E030E040E050E0E7
:1018A00060E070E080E090E00D911C91119709508C
:1018B00011090830110508F4B7C08091270682325B
:1018C00051F5F501828193810A97099720F52091BE
:1018D0002706C501820F911D820F911DDC01129711
:1018E0008D919C910A970997B0F410921B04109265
:1018F0001A048FEF9FEFDC01809316049093170476
:10190000A0931804B0931904A8E0B0E0B0931304B6
:10191000A0931204B7C0F501828193818957910980
:101920008335910508F4DDC320911E0430911F0416
:101930003C8F2B8F263031050CF4CFC085010A5F18
:101940001F4FB3E0CB2ED12C85EC882E8DE9982E3D
:101950008CE1A82E81E8B82ED8016D917C91F80118
:1019600034976080718080E090E057D76D8F7E8FD4
:101970008F8F98A3B30180E090E04FD72B013C01FB
:101980002DEC3CEC4CE45FE3A9D79B01AC016D8DE1
:101990007E8D8F8D98A13DD787FDA0C32DEC3CECAB
:1019A0004CE45FE36D8D7E8D8F8D98A197D79B0161
:1019B000AC01C301B2012DD7E82F880FFF0BEE2732
:1019C000FF0FEE1FFF273196A501940163E971E037
:1019D00080E091E00E9439164F01FF0FAA08BB0872
:1019E00086269726A826B926BFEFCB1ADB0A0E5FFC
:1019F0001F4FEB8DFC8DCE16DF0609F0ADCF809228
:101A0000160490921704A0921804B092190420E2D0
:101A100030E030931B0420931A048FEF9FEF9093D4
:101A20001304809312042EC012960D911C911397EB
:101A3000015111090D30110508F0F2C201E00E94B8
:101A4000721621601496AC15BD0509F02DCF2093B8
:101A5000160430931704409318045093190400E2BD
:101A60000E948D16209314043093150487E090E0B3
:101A7000909313048093120480E390E090931B04EE
:101A800080931A04609116047091170480911804D1
:101A90009091190440E100DA65E273E08DEB94E087
:101AA0006AD98091160490911704A0911804B091FE
:101AB00019048F3CE0E39E07EDEFAE07B10509F096
:101AC000BCC268E373E08DEB94E0C5DB10920804C0
:101AD0001092070480E090E021D982E080935B05BA
:101AE0001092270680910704909108048130910597
:101AF00069F11CF4892B49F0A0C18230910509F4E9
:101B0000CDC0039709F489C198C18DEB94E00E9480
:101B10001202892B51F08DEB94E00E94F001682FA6
:101B200080E294E00E945102F0CF80E294E00E94B3
:101B30001202892B09F481C180E294E00E94F00135
:101B4000682F8DEB94E00E945102EFCF60E673E0C6
:101B5000CE01459641DB6AE070E0CE014596FFDAA2
:101B600067E673E0CE01459629DB2FB7F8946091C4
:101B70000E0470910F0480911004909111042FBFF6
:101B80002AE0A70197D3F70101900020E9F73197E8
:101B9000AF014E195F09B701CE014596B3DA61E78F
:101BA00073E0CE0145960ADB60910704709108044A
:101BB000CE014596D4DA6AE773E0CE014596FEDAA7
:101BC00080E090E022D86093000470930104809339
:101BD00002049093030423D620910C0230910D024D
:101BE00040910E0250910F0246D72091040230918D
:101BF00005024091060250910702A2D70E940816E2
:101C00000ED6609308027093090280930A029093A3
:101C10000B0260E673E0CE014596D0DA60910002D7
:101C200070910102CE0145969ADA67E873E0CE0121
:101C30004596C4DA609108027091090280910A0207
:101C400090910B02870122E044E00BD3FC0101904C
:101C50000020E9F73197AF01481B590BBC01CE01B9
:101C6000459650DA62E973E0CE014596A7DABE01E7
:101C70006B5E7F4F8DEB94E000DBBE016B5E7F4FB0
:101C800080E294E0FADA68EE73E080E090E00E948F
:101C90009D048D899E890E943E17CFC080910604C5
:101CA000811126C08091040490910504892B01F5CF
:101CB00066E973E08DEB94E0FEDA64EA73E080E2BB
:101CC00094E0F9DA68EE73E080E090E00E949D0411
:101CD00068EA73E080E294E0EEDA64E670E080E0C7
:101CE00090E00E949D0469EC73E080E294E0E3DA06
:101CF00080910604811114C0809104049091050420
:101D00000A9774F461ED73E080E294E0A4DA8091C4
:101D100004049091050401969093050480930404B3
:101D2000DD24D39480E294E00E941202892B09F40E
:101D300084C080E294E00E94F0018C01839709F056
:101D400066C067E273E0C70147DA96D997FD0DC018
:101D50008B33910551F08D8B1E8A41E050E0BE011E
:101D60006B5E7F4FC701CED9F0CF8091280690914E
:101D70002906009789F069817A816115710551F012
:101D800040912A0650912B062D813E814217530720
:101D900008F096C10E943E1789819A819093290686
:101DA000809328068B819C8190932B0680932A0632
:101DB0008D819E8190932D0680932C061A82198224
:101DC0001C821B821E821D8289819A810E943E177D
:101DD00068E276E08DEB94E050DA80912C069091E9
:101DE0002D06892BA1F069ED73E080912806909172
:101DF00029060E94C718892B51F4D092060430920C
:101E000008042092070481E090E00E948E06602F73
:101E10008DEB94E00E94510285CF809106048111E0
:101E200006C08091040490910504892B31F0109232
:101E3000060410920504109204040E94B8021BCB01
:101E40008091630590916405825491098E9708F002
:101E50003ECB80E090E040E050E0BA01FC01EB595D
:101E6000FA4F208131812950310929303105C8F0DC
:101E70002ECB80916505909166050997099708F02A
:101E800021CB10921B0410921A048FEF9FEFDC01FC
:101E90008093160490931704A0931804B093190428
:101EA00018C1FC01E959FA4F2081318126513109CD
:101EB00021313105C0F4440F551F661F771F416063
:101EC00004968038910551F6A0E2B0E0B0931B046F
:101ED000A0931A04409316045093170460931804B7
:101EE00070931904F6C020813181265031092730C2
:101EF000310508F0ECCA440F551F661F771FE0CF6D
:101F000020813181235131092F30310548F4880C6B
:101F1000991CAA1CBB1C689480F80296349601CBCD
:101F2000208131812A5031092930310508F025CB33
:101F3000880C991CAA1CBB1CF0CF80916305909162
:101F40006405C697869708F068CBE7E6F5E083E07E
:101F500090E0812C912C540141CB208131812C5077
:101F600031092A30310508F058CB880C991CAA1C7D
:101F7000BB1C32CB2D913C912C5031092B303105BB
:101F800008F09CCB440F551F661F771F73CB4CEB9B
:101F900051E0B701CE0145960E94CB075C010330AA
:101FA000110561F04CEB51E0B701CE0145960E945E
:101FB000CB076C0103301105B9F40BC04CEB51E0B9
:101FC000B701CE0145960E94CB07A816B90651F37A
:101FD000FDCB4CEB51E0B701CE0145960E94CB07FB
:101FE000C816D90609F0F2CBA114B10459F4CA9469
:101FF000CD2809F0EBCB440C551C661C771C68946B
:1020000040F80BC0AA94AB2809F0E0CBCD2809F02A
:10201000DDCB440C551C661C771C0F5F1F4FFECB9D
:1020200012960D911C91139704501109053011055A
:1020300008F043CC01E056D605CD803DF0E39F0784
:10204000FDEFAF07B105B0F4873F9840AD4FB10544
:1020500061F462E473E08DEB94E0FDD83092080403
:102060002092070481E090E037CD809107049091A1
:10207000080432CD873B38E493073DEFA307B10551
:1020800071F466E573E08DEB94E0E5D8A3E0B0E091
:10209000B0930804A093070483E090E01DCD873738
:1020A0009848AD4FB10509F76CE473E08DEB94E00F
:1020B000D2D882E090E090930804809307040CCD7E
:1020C0000E94D0188D819E8190932D0680932C06BE
:1020D00079CE3092130420921204D4CCE0E0F0E0E8
:1020E00073CC80912706813208F41ECCD50114965A
:1020F0008D919C911597CA97899708F015CC9501F9
:102100002A5F3F4F80E090E0DC0143E050E0F901BE
:10211000608171816A5071096930710508F004CCE1
:10212000F90162817381665171096131710548F568
:10213000880F991FAA1FBB1F81604E5F5F4F2C5FE6
:102140003F4F4332510519F795012A5B3F4FF90183
:10215000208131812A5031092930310508F0E4CB42
:1021600020E130E030931B0420931A04809316047E
:1021700090931704A0931804B093190488E090E09A
:102180004ECCF90162817381665071096730710527
:1021900008F0CACB880F991FAA1FBB1FCECF809112
:1021A0002806909129066AC6E0E2F4E013821282C2
:1021B00048EE53E060E070E04483558366837783A4
:1021C00084E093E0918380832DEC30E03587248791
:1021D0002CEC30E03787268728EC30E0318B208BE1
:1021E00029EC30E0338B228B2AEC30E0358B248BCA
:1021F0002EEC30E0378B268B118E128E138E148EC0
:10220000EDEBF4E013821282448355836683778377
:102210009183808385EC90E09587848784EC90E0BF
:102220009787868780EC90E0918B808B81EC90E0A3
:10223000938B828B82EC90E0958B848B86EC90E084
:10224000978B868B118E128E138E148EEAE5F5E035
:1022500082E08083128267E273E088E296E00C9469
:10226000EC08EF920F931F93CF93DF93E80147FDA4
:1022700002C034E001C034E1E42F440FFF0BF7FF4C
:1022800003C0F195E195F109E32E022F2E2FAE0147
:102290004BD0CE01DF91CF911F910F91EF90089518
:1022A000BB274A3031F4992322F4BDE29095819501
:1022B0009F4F22C0BB27FA01A62F62177105810527
:1022C0009105330B30FB66F0AA27660F771F881F36
:1022D000991FAA1FA21710F0A21B63953850A9F7E7
:1022E000A05DAA3308F0A95DA19336F7B111B193AF
:1022F0001082CA017EC2BB27FB015527AA27880F7F
:10230000991FAA1FA41710F0A41B83955051B9F769
:10231000A05DAA3308F0A95DA193009779F7B111E8
:10232000B1931192CB0165C24F925F926F927F92EF
:102330009F92AF92BF92CF92DF92EF92FF920F9354
:102340001F93CF93DF93CDB7DEB729970FB6F894DD
:10235000DEBF0FBECDBF6A01122FB02E2BE32017B8
:1023600020F0FF24F394F00E02C0BCE3FB2E0F2DEF
:1023700027E0AE014F5F5F4F64D1AC018981982F98
:102380009970913031F0E1FC06C0E0FE06C090E2A9
:1023900005C09DE203C09BE201C090E0EE2DE0711C
:1023A00083FF3CC0911102C083E001C084E081172B
:1023B00018F4212F281B01C020E0E1110BC0F60109
:1023C000822F30E2882319F031938150FBCFC20E67
:1023D000D11C20E0992329F0D6019C93F601319677
:1023E0006F01C6010396E2FE0AC03EE4D6013C93AB
:1023F00041E411964C93119712963C9306C03EE629
:10240000F601308341E641833283FC01322F40E202
:10241000332309F442C041933150FACF82FF44C0C4
:10242000911102C083E001C084E0811718F4212FCC
:10243000281B01C020E0E1110BC0F601822F30E221
:10244000882319F031938150FBCFC20ED11C20E0BC
:10245000992329F0D6019C93F60131966F01C601AC
:102460000396E2FE0BC039E4D6013C933EE411969C
:102470003C93119736E412963C9307C039E6F60177
:1024800030833EE6318336E63283FC01322F40E270
:10249000332319F041933150FBCFFC01E20FF11DC2
:1024A00010828EEF9FEFB7C0F1E0911101C0F0E014
:1024B0006F2F70E01416150624F49A012F5F3F4F1A
:1024C00002C021E030E0260F371FBB2029F06B2D22
:1024D00070E06F5F7F4F02C060E070E0260F371F33
:1024E000612F70E0261737071CF4121B212F01C043
:1024F00020E03E2D387159F4D601322F60E23323AB
:1025000019F06D933150FBCFC20ED11C20E0FF2398
:1025100031F0D6019C93B6016F5F7F4F6B01E111E3
:102520000BC0F601922F30E3992319F031939150AB
:10253000FBCFC20ED11C20E09F2D940F3A81782F43
:102540007071A72E84FF03C0313309F4915019161E
:1025500024F4993018F098E001C091E0E42F852F21
:1025600057FF02C0E0E080E06E2F782FE0E0F0E05F
:10257000AEE29A2E3A01691A71082A01461A570AE0
:102580000B2D10E01195019511096F3F8FEF780722
:1025900029F4D6019C92C60101966C014617570793
:1025A00084F0661677066CF47F01E40CF51CA1E05C
:1025B000B0E0AC0FBD1FEA0EFB1ED7011196BC9018
:1025C00002C090E3B92E615071093196C60101969F
:1025D0007C016017710724F0D601BC926C01D5CF45
:1025E0006417750741F4363320F4353321F4A11014
:1025F00002C081E3B82EF601B082F701822F90E28B
:10260000882319F091938150FBCFF701E20FF11D60
:10261000108280E090E029960FB6F894DEBF0FBEDE
:10262000CDBFDF91CF911F910F91FF90EF90DF9081
:10263000CF90BF90AF909F907F906F905F904F90A2
:102640000895283008F027E03327DA01990F311D6B
:1026500087FD916000966105710539F432602E5F47
:102660003D9330E32A95E1F708959F3F30F080389D
:102670007105610509F03C5F3C5F3D93913008F0C6
:102680008068911DDF93CF931F930F93FF92EF927A
:10269000192F987F9695E92F96959695E90FFF2724
:1026A000EE59FE4F99273327EE24FF24A701E701B7
:1026B00005900894079428F4360FE71EF81E491F6A
:1026C000511D660F771F881F991F0694A1F705906B
:1026D000079428F4E70EF81E491F561FC11D770FF7
:1026E000881F991F661F0694A1F70590079428F488
:1026F000F80E491F561FC71FD11D880F991F661F4F
:10270000771F0694A1F70590079420F4490F561FF0
:10271000C71FD81F990F661F771F881F0694A9F738
:1027200084911095177041F0D695C79557954795A8
:10273000F794E7941A95C1F7E8E0F1E068941590F2
:10274000159135916591959105907FE27395E1180A
:10275000F10A430B560BC90BD009C0F7E10CF11E6F
:10276000431F561FC91FD01D7EF4703311F48A9584
:10277000E6CFE894015030F0080F0AF40027021762
:1027800008F4202F2395022F7A3328F079E37D93E4
:102790002A95E9F710C07D932A9589F606949795B6
:1027A0006795379517951794E118F10A430B560B67
:1027B000C90BD00998F023957E9173957A3308F070
:1027C00070E37C932013B8F77E9170617D9330F0B5
:1027D000839571E37D9370E32A95E1F71124EF90DF
:1027E000FF900F911F91CF91DF91992787FD9095D1
:1027F0000895DC01FC01672F71917723E1F732978F
:1028000004C07C916D9370836291AE17BF07C8F3CB
:10281000089540D008F481E00895E89409C097FB3A
:102820003EF490958095709561957F4F8F4F9F4FA7
:102830009923A9F0F92F96E9BB279395F6958795EB
:1028400077956795B795F111F8CFFAF4BB0F11F4AE
:1028500060FF1BC06F5F7F4F8F4F9F4F16C0882355
:1028600011F096E911C0772321F09EE8872F762F8B
:1028700005C0662371F096E8862F70E060E02AF0CC
:102880009A95660F771F881FDAF7880F96958795B8
:1028900097F90895990F0008550FAA0BE0E8FEEF8D
:1028A00016161706E807F907C0F012161306E40714
:1028B000F50798F0621B730B840B950B39F40A260D
:1028C00061F0232B242B252B21F408950A2609F4EB
:1028D000A140A6958FEF811D811D08950BD078C072
:1028E00069D028F06ED018F0952309F05AC05FC067
:1028F0001124A2C07ED0A0F3959FD1F3950F50E094
:10290000551F629FF001729FBB27F00DB11D639FA1
:10291000AA27F00DB11DAA1F649F6627B00DA11D47
:10292000661F829F2227B00DA11D621F739FB00DED
:10293000A11D621F839FA00D611D221F749F33275D
:10294000A00D611D231F849F600D211D822F762FF6
:102950006A2F11249F5750408AF0E1F088234AF0F3
:10296000EE0FFF1FBB1F661F771F881F915050403F
:10297000A9F79E3F510570F014C05EC05F3FECF3B5
:10298000983EDCF3869577956795B795F795E7952B
:102990009F5FC1F7FE2B880F911D9695879597F93C
:1029A000089597F99F6780E870E060E008959FEFD1
:1029B00080EC089500240A941616170618060906D6
:1029C000089500240A9412161306140605060895A5
:1029D000092E0394000C11F4882352F0BB0F40F42D
:1029E000BF2B11F460FF04C06F5F7F4F8F4F9F4F6D
:1029F000089557FD9058440F551F59F05F3F71F0EF
:102A00004795880F97FB991F61F09F3F79F0879555
:102A10000895121613061406551FF2CF4695F1DFDE
:102A200008C0161617061806991FF1CF869571056E
:102A3000610508940895E894BB2766277727CB01A2
:102A400097F9089509D0A59F900DB49F900DA49F6C
:102A5000800D911D11240895A29FB001B39FC00164
:102A6000A39F700D811D1124911DB29F700D811DBA
:102A70001124911D08955058BB27AA270ED0A8CF26
:102A800099DF30F09EDF20F031F49F3F11F41EF407
:102A90008ECF0EF4E095E7FB84CFE92FAADF80F319
:102AA000BA17620773078407950718F071F49EF54B
:102AB000C2CF0EF4E0950B2EBA2FA02D0B01B90159
:102AC00090010C01CA01A0011124FF27591B99F0A4
:102AD000593F50F4503E68F11A16F040A22F232FB0
:102AE000342F4427585FF3CF469537952795A79500
:102AF000F0405395C9F77EF41F16BA0B620B730BA7
:102B0000840BBAF09150A1F0FF0FBB1F661F771F17
:102B1000881FC2F70EC0BA0F621F731F841F48F4CC
:102B2000879577956795B795F7959E3F08F0B3CF52
:102B30009395880F08F09927EE0F9795879508953C
:102B40000CD046CF3EDF40F035DF30F021F45F3F60
:102B500019F027CF511170CF2ACF4BDF98F399236B
:102B6000C9F35523B1F3951B550BBB27AA27621751
:102B70007307840738F09F5F5F4F220F331F441F96
:102B8000AA1FA9F333D00E2E3AF0E0E830D09150CE
:102B90005040E695001CCAF729D0FE2F27D0660FBB
:102BA000771F881FBB1F261737074807AB07B0E8FA
:102BB00009F0BB0B802DBF01FF2793585F4F2AF010
:102BC0009E3F510568F0EDCE37CF5F3FECF3983E66
:102BD000DCF3869577956795B795F7959F5FC9F76D
:102BE000880F911D9695879597F90895E1E0660FF6
:102BF000771F881FBB1F621773078407BA0720F06F
:102C0000621B730B840BBA0BEE1F88F7E0950895D7
:102C100004D06894B11110CF0895F3DE88F09F5767
:102C200090F0B92F9927B751A0F0D1F0660F771F18
:102C3000881F991F1AF0BA95C9F712C0B13081F0F8
:102C4000FADEB1E00895F7CE672F782F8827B85FB6
:102C500039F0B93FCCF3869577956795B395D9F759
:102C60003EF490958095709561957F4F8F4F9F4F63
:102C70000895DB018F939F93E5DEBF91AF91A29FF3
:102C8000800D911DA39F900DB29F900D112408956A
:102C9000A1E21A2EAA1BBB1BFD010DC0AA1FBB1F60
:102CA000EE1FFF1FA217B307E407F50720F0A21BD2
:102CB000B30BE40BF50B661F771F881F991F1A943F
:102CC00069F760957095809590959B01AC01BD0169
:102CD000CF010895EE0FFF1F881F8BBF0790F6915D
:102CE000E02D19940F93083090F0982F872F762FAE
:102CF000652F542F432F322F22270850F4CF220F55
:102D0000331F441F551F661F771F881F991F0A9581
:102D1000B2F70F91089597FB10F8169400080F93DF
:102D2000083098F00850232F342F452F562F672F47
:102D3000782F892F902DF4CF0594979587957795C7
:102D4000679557954795379527950A95AAF70F9157
:102D50000895CF93DF938230910510F482E090E0E4
:102D6000E0913106F091320620E030E0C0E0D0E0A2
:102D7000309711F14081518148175907C0F0481729
:102D8000590761F482819381209719F09B838A838C
:102D90002BC0909332068093310626C02115310551
:102DA00019F04217530718F49A01BE01DF01EF0131
:102DB0000280F381E02DDCCF2115310509F1281BBC
:102DC000390B2430310590F412968D919C91139714
:102DD0006115710521F0FB019383828304C09093F8
:102DE000320680933106FD01329644C0FD01E20FA8
:102DF000F31F81939193225031092D933C933AC054
:102E000020912F0630913006232B41F42091F202BD
:102E10003091F3023093300620932F062091F00278
:102E20003091F1022115310541F42DB73EB74091A3
:102E3000F4025091F502241B350BE0912F06F0911E
:102E40003006E217F307A0F42E1B3F0B28173907B3
:102E500078F0AC014E5F5F4F2417350748F04E0FF6
:102E60005F1F5093300640932F068193919302C0C9
:102E7000E0E0F0E0CF01DF91CF9108950F931F9331
:102E8000CF93DF93009709F48CC0FC013297138233
:102E9000128200913106109132060115110581F45C
:102EA00020813181820F931F20912F0630913006AF
:102EB0002817390779F5F0933006E0932F0671C093
:102EC000D80140E050E0AE17BF0750F412962D91A4
:102ED0003C911397AD012115310509F1D901F3CFCB
:102EE0009D01DA013383228360817181860F971FF0
:102EF0008217930769F4EC0128813981260F371F67
:102F00002E5F3F4F318320838A819B81938382830D
:102F1000452B29F4F0933206E093310642C0139614
:102F2000FC93EE931297ED01499159919E01240F64
:102F3000351FE217F30771F480819181840F951F8B
:102F4000029611969C938E938281938113969C9303
:102F50008E931297E0E0F0E0D80112968D919C914B
:102F60001397009719F0F8018C01F6CF8D919C9181
:102F700098012E5F3F4F820F931F20912F063091B3
:102F800030062817390769F4309729F41092320671
:102F90001092310602C01382128210933006009301
:102FA0002F06DF91CF911F910F9108956F927F921D
:102FB0008F929F92AF92BF92CF92DF92EF92FF9249
:102FC0000F931F93CF93DF93EC01009781F4CB0114
:102FD000DF91CF911F910F91FF90EF90DF90CF90F5
:102FE000BF90AF909F908F907F906F90B2CEFC017A
:102FF000E60FF71F9C0122503109E217F30708F48E
:10300000A8C0D9010D911C91119706171707A8F0B8
:103010000530110508F49BC0C8010497861797076F
:1030200008F495C002501109061B170B0193119368
:103030006D937C93CF0122DF8AC05B01A01AB10A95
:103040004C01800E911EA0913106B091320640E0F5
:1030500050E0E12CF12C109709F44AC0A815B905ED
:10306000D1F56D907C901197630182E0C80ED11C60
:10307000CA14DB0480F1A3014A195B096A0182E0EA
:10308000C80ED11C1296BC9012971396AC91B5E065
:10309000CB16D10440F0B282A38351834083D9017F
:1030A0006D937C930AC00E5F1F4FC301800F911F69
:1030B000F90191838083EB2DFA2FE114F10431F0B3
:1030C000D7011396FC93EE93129741C0F09332060A
:1030D000E09331063CC08D919C9111974817590798
:1030E00008F4AC017D0112960D90BC91A02DB3CFD8
:1030F00080912F069091300688159905E1F44617C6
:103100005707C8F48091F0029091F102009741F4C2
:103110008DB79EB74091F4025091F502841B950B38
:10312000E817F907B0F4F0933006E0932F06F901A1
:10313000718360830CC0CB010CDE7C01009749F0E9
:10314000A801BE011BD0CE0199DEC70104C0CE018B
:1031500002C080E090E0DF91CF911F910F91FF902E
:10316000EF90DF90CF90BF90AF909F908F907F9027
:103170006F90089581E090E0F89419C0FB01DC01A4
:1031800002C001900D9241505040D8F70895FB01C4
:10319000DC018D91019080190110D9F3990B0895EC
:1031A000FB01DC0101900D920020E1F7089511E090
:1031B000C2E9D1E000E005C0802FFE018BDD219641
:1031C000011DC339D10780E00807B1F7F894FFCF9C
:1031D00029002B000000D743000000005585004B5C
:1031E00000000000000000000000000000000000DF
:1031F00000000000000000000000000000000000CF
:1032000000000000000000000000000000000000BE
:1032100000000000000000000000000000000000AE
:10322000000000000000000000000000000000009E
:10323000000000000000000000000000000000008E
:10324000000000000000000000000000000000007E
:10325000000000000000000000000000000000006E
:10326000000000000000000000000000000000005E
:10327000000000000000000000000000000000004E
:10328000000000000000000000000000000000003E
:10329000000000000000000000000000000000002E
:1032A000000000000000000000000000000000001E
:1032B000000000000000000000000000000000000E
:1032C000000033068000C0F9A4B0999282F8809083
:1032D000000000005102D106E10197021202F00144
:1032E00004020200585844543D00696E69744858FD
:1032F0003731313A000D0A0057656C636F6D6520F8
:10330000746F207573652100546F204D6F64653AAA
:103310003000546F204D6F64653A3100546F204D7A
:103320006F64653A3200546F204D6F64653A330024
:103330007B224944223A002C224D696C6C73223A5C
:10334000002C224D6F6465223A002C2253656E7367
:103350006F7273223A5B002C22526573756C742273
:103360003A007D5D7D00424547494E20544350431D
:103370004F4E4E002B2B2B0041542B544350434CAB
:1033800049434F4E4E3D3139322E3136382E322E92
:103390003139333A383038300041542B455849548C
:1033A00000235443504F4B3F005443504F4B004E6B
:1033B000554D3D003B44543D003B53434B3D00487D
:1033C000583731315F4454203D2054525545000058
:00000001FF
