:1000000014C1000040C100003EC100003CC100001E
:100010003AC1000038C1000036C1000034C1000000
:1000200032C1000030C100002EC100002CC1000010
:100030002AC10000CEC4000026C1000024C1000077
:1000400022C1000020C100001EC100001CC1000030
:100050001AC1000018C1000016C1000070C40000E1
:1000600012C1000043C4000018C400000CC100000D
:100070000AC1000008C1000006C1000004C1000060
:1000800002C1000000C10000FEC00000FCC0000072
:10009000DBC30000B0C30000F6C00000F4C00000E5
:1000A000F2C00000F0C00000EEC00000ECC0000094
:1000B000EAC00000E8C00000E6C00000E4C00000A4
:1000C000E2C00000E0C00000DEC00000DCC00000B4
:1000D000DAC00000D8C00000D6C00000D4C00000C4
:1000E000D2C00000D702DA02C902CD02D302110346
:1000F000DE02E202E802EC02F002F602FA02FE027E
:100100001103040308030C03000020002300260051
:1001100029002C002F00320000010000030106011D
:10012000090100002100240027002A002D003000D2
:10013000330001010000040107010A010000220050
:10014000250028002B002E003100340002010000A1
:10015000050108010B010505050507050808080844
:10016000020202020A0A080804040404010101014F
:10017000010101010303030303030303040707074A
:100180000C0C0C0C0C0C0C0C0202020206060606EF
:10019000060606060B0B0B0B0B0B0B0B01021020BC
:1001A00020080810204010204080020102010804AD
:1001B0000201010204081020408080402010080441
:1001C000020180040201804020100804020108049A
:1001D00002010102040810204080010204081020DE
:1001E000408000000A0B02090C0D0E0807030401F1
:1001F00000000000000000000000000000000000FF
:1002000000000000000000000000000000001211CB
:1002100010000000000000000000000000000000CE
:100220000000000000000000B40511241FBECFEF45
:10023000D1E2DEBFCDBF00E00CBF12E0A0E0B2E033
:10024000E8ECFDE000E00BBF02C007900D92A23386
:10025000B107D9F724E0A2E3B2E001C01D92A334B4
:10026000B207E1F711E0C5E1D1E000E005C0219758
:100270000109802FFE019AD5C431D10780E008071B
:10028000B1F7CAD49FC5BCCEFC01A089B18982E078
:100290008C93A485B5851C92A685B78580E18C9347
:1002A000108EA489B58986E08C93A289B3898C913C
:1002B00080618C93A289B3898C9188608C93A28988
:1002C000B3898C9180688C930288F389E02D8081BA
:1002D0008F7D80830895CF92DF92EF92FF920F93EC
:1002E0001F93CF93DF936C017A018B01C0E0D0E0C4
:1002F000CE15DF0589F0D8016D918D01D601ED9104
:10030000FC910190F081E02DC6011995892B11F423
:100310007E0102C02196ECCFC701DF91CF911F91E2
:100320000F91FF90EF90DF90CF900895FC01A0898E
:10033000B1898C91A689B78982FD0FC09C91818D6E
:100340008F5F8F73228D821749F0218DDF01A20FFD
:10035000B11D5D969C93818F08958C9108950895A9
:1003600080E090E00895FC01538D448D252F30E00E
:10037000842F90E0821B930B541710F0CF960895B2
:1003800001970895FC01918D828D981761F0828DFF
:10039000DF01A80FB11D5D968C91928D9F5F9F73B9
:1003A000928F90E008958FEF9FEF0895FC01918D5B
:1003B000828D981731F0828DE80FF11D858D90E0C8
:1003C00008958FEF9FEF0895FC01918D228D892F65
:1003D00090E0805C9F4F821B91098F73992708954D
:1003E0008BE392E0F1DF21E0892B09F420E0822FFA
:1003F000089588ED92E0E8DF21E0892B09F420E000
:10040000822F0895FC01848DDF01A80FB11DA35A2E
:10041000BF4F2C91848D90E001968F739927848F24
:10042000A689B7892C93A089B1898C9180648C931B
:10043000938D848D981306C00288F389E02D808106
:100440008F7D80830895EF92FF920F931F93CF9338
:10045000DF93EC0181E0888F9B8D8C8D981305C014
:10046000E889F989808185FD23C0F62E0B8D10E087
:100470000F5F1F4F0F731127E02E8C8DE8120BC0FA
:100480000FB607FCFACFE889F989808185FFF5CF9F
:10049000CE01B8DFF2CF8B8DFE01E80FF11DE35ADC
:1004A000FF4FF0820B8FEA89FB898081806207C051
:1004B000EE89FF896083E889F9898081806480837F
:1004C00081E090E0DF91CF911F910F91FF90EF902D
:1004D0000895CF93DF93EC01888D8823C1F0EA89DA
:1004E000FB89808185FD05C0A889B9898C9186FD2D
:1004F0000EC00FB607FCF5CF808185FFF2CFA8892B
:10050000B9898C9185FFEDCFCE017CDFE8CFDF91FB
:10051000CF91089580E090E0892B19F06ADF811176
:1005200020C080E090E0892B19F05ADF81111CC0B7
:1005300080E090E0892B41F080E090E0892B21F071
:100540000E940000811113C080E090E0892BA1F08F
:1005500080E090E0892B81F00E94000081110AC0A8
:1005600008950E940000DDCF0E940000E1CF0E94AC
:100570000000EACF0C940000089590E0FC01319750
:10058000E231F10508F04DC08827EE58FF4F8F4F3C
:100590000DC4809180008F7703C0809180008F7D93
:1005A00080938000089580918000877FF9CF84B583
:1005B0008F7702C084B58F7D84BD08958091B0008F
:1005C0008F7703C08091B0008F7D8093B000089535
:1005D000809190008F7707C0809190008F7D03C03D
:1005E00080919000877F8093900008958091A00073
:1005F0008F7707C08091A0008F7D03C08091A000FD
:10060000877F8093A0000895809120018F7707C095
:10061000809120018F7D03C080912001877F80938E
:10062000200108951F93CF93DF93282F30E0F90125
:10063000EE51FE4F8491F901E456FE4FD491F90139
:10064000EA5AFE4FC491CC23C1F0162F811195DFD9
:10065000EC2FF0E0EE0FFF1FE45CFE4FA591B4918C
:100660008FB7F894111105C09C91ED2FE095E92307
:1006700002C0EC91ED2BEC938FBFDF91CF911F91D6
:100680000895CF93DF9390E0FC01E456FE4F249150
:10069000FC01EA5AFE4F8491882361F190E0880FB3
:1006A000991FFC01EE5DFE4FC591D491FC01E45C05
:1006B000FE4FA591B491611109C09FB7F89488814C
:1006C000209582238883EC912E230BC0623061F445
:1006D0009FB7F8943881822F809583238883EC918B
:1006E0002E2B2C939FBF06C08FB7F894E8812E2B3A
:1006F00028838FBFDF91CF9108953FB7F894809101
:10070000370290913802A0913902B0913A0226B591
:10071000A89B05C02F3F19F00196A11DB11D3FBF39
:10072000BA2FA92F982F8827820F911DA11DB11DC7
:10073000BC01CD0142E0660F771F881F991F4A95C3
:10074000D1F708958F929F92AF92BF92CF92DF928E
:10075000EF92FF926B017C01D0DF4B015C01C11471
:10076000D104E104F104E9F0C8DFDC01CB01881910
:100770009909AA09BB09883E9340A105B10578F300
:1007800021E0C21AD108E108F10888EE880E83E062
:10079000981EA11CB11CC114D104E104F10421F77D
:1007A000DECFFF90EF90DF90CF90BF90AF909F9003
:1007B0008F900895CF93DF93009771F0FC01019023
:1007C0000020E9F73197AF01481B590BBC0188EDB8
:1007D00092E081DDEC0102C0C0E0D0E042E050E0F8
:1007E00062E172E088ED92E076DD8C0F9D1FDF9173
:1007F000CF910895E3D21F920F920FB60F9211245A
:100800000BB60F922F933F934F935F936F937F930A
:100810008F939F93AF93BF93EF93FF938BE392E0FC
:10082000F1DDFF91EF91BF91AF919F918F917F91FA
:100830006F915F914F913F912F910F900BBE0F9051
:100840000FBE0F901F9018951F920F920FB60F9228
:1008500011240BB60F922F933F934F935F936F9397
:100860007F938F939F93AF93BF93EF93FF938BE30C
:1008700092E05CDDFF91EF91BF91AF919F918F91DD
:100880007F916F915F914F913F912F910F900BBE90
:100890000F900FBE0F901F9018951F920F920FB6DA
:1008A0000F9211240BB60F922F933F934F935F93A8
:1008B0006F937F938F939F93AF93BF93EF93FF9328
:1008C00088ED92E09FDDFF91EF91BF91AF919F91F5
:1008D0008F917F916F915F914F913F912F910F90E9
:1008E0000BBE0F900FBE0F901F9018951F920F9286
:1008F0000FB60F9211240BB60F922F933F934F9385
:100900005F936F937F938F939F93AF93BF93EF9377
:10091000FF9388ED92E00ADDFF91EF91BF91AF91D7
:100920009F918F917F916F915F914F913F912F9107
:100930000F900BBE0F900FBE0F901F9018951F9237
:100940000F920FB60F9211242F933F938F939F9383
:10095000AF93BF938091330290913402A0913502FE
:10096000B09136023091320223E0230F2D3720F46C
:100970000196A11DB11D05C026E8230F0296A11DF9
:10098000B11D209332028093330290933402A093DE
:100990003502B09336028091370290913802A091CF
:1009A0003902B0913A020196A11DB11D8093370220
:1009B00090933802A0933902B0933A02BF91AF915D
:1009C0009F918F913F912F910F900FBE0F901F908D
:1009D00018951F920F920FB60F9211240BB60F921B
:1009E0002F933F934F935F936F937F938F939F9337
:1009F000AF93BF93CF93DF93EF93FF932091750352
:100A000030E0F901EE51FE4F8491F901E456FE4FBA
:100A1000D491F901EA5AFE4FC491CC2399F0811187
:100A2000ACDDEC2FF0E0EE0FFF1FE85FFE4FA5916D
:100A3000B491EC91ED2331E020E009F430E0832F14
:100A4000922F02C080E090E02091780330917903EA
:100A50002F5F3F4F30937903209378032091420416
:100A6000243618F025E02093760320917603233076
:100A7000C1F018F4223039F059C0243069F1253022
:100A800009F44EC053C0009709F050C0209178037C
:100A9000309179032436310508F444C010924204A1
:100AA0001DC08130910509F041C0E091420421E070
:100AB0002E0F20934204F0E02091780330917903C7
:100AC000EE0FFF1FEB58FC4F3683258310927903FE
:100AD0001092780324E021C00097B9F4E091420419
:100AE00021E02E0F20934204F0E020917803309112
:100AF0007903EE0FFF1FEB58FC4F368325831092CE
:100B000079031092780323E008C020917803309194
:100B100079032536310550F025E02093760306C091
:100B2000009721F4109279031092780320917703B3
:100B3000222329F0892B11F42F9A01C02F98FF91BD
:100B4000EF91DF91CF91BF91AF919F918F917F9165
:100B50006F915F914F913F912F910F900BBE0F902E
:100B60000FBE0F901F901895EBE3F2E013821282F4
:100B700048EE53E060E070E04483558366837783FA
:100B800084E092E0918380832DEC30E035872487E8
:100B90002CEC30E03787268728EC30E0318B208B37
:100BA00029EC30E0338B228B2AEC30E0358B248B20
:100BB0002EEC30E0378B268B118E128E138E148E16
:100BC000E8EDF2E0138212824483558366837783D3
:100BD0009183808385EC90E09587848784EC90E016
:100BE0009787868780EC90E0918B808B81EC90E0FA
:100BF000938B828B82EC90E0958B848B86EC90E0DB
:100C0000978B868B118E128E138E148EE5E7F3E090
:100C100082E0808312820895789484B5826084BDD6
:100C200084B5816084BD85B5826085BD85B58160F0
:100C300085BD80916E00816080936E00109281006E
:100C40008091810082608093810080918100816029
:100C500080938100809180008160809380008091EA
:100C6000B10084608093B1008091B0008160809376
:100C7000B0008091910082608093910080919100FA
:100C800081608093910080919000816080939000BA
:100C90008091A10082608093A1008091A100816079
:100CA0008093A1008091A00081608093A00080913A
:100CB00021018260809321018091210181608093D4
:100CC00021018091200181608093200180917A0030
:100CD000846080937A0080917A00826080937A00A9
:100CE00080917A00816080937A0080917A00806898
:100CF00080937A001092C10088ED92E0C5DA8BE310
:100D000092E0C2DA85E192E055DD61E089E2B9DC8A
:100D100060E08BE2B6DCF89482E08093B0008093D0
:100D2000B10094E69093B3001092B20080937000EB
:100D3000789480937603109242048091750360E06A
:100D4000A0DC61E088E09DDC61E089E09ADC61E0A4
:100D500083E097DC60ED77E080E090E0F3DC85E213
:100D600092E028DD09EF10E060E088E05BDCC7E09E
:100D7000D0E0B8010C2E02C0759567950A94E2F791
:100D80006170772789E04EDC61E083E04BDC60E056
:100D900083E048DC219768F761E088E043DC60E5A8
:100DA00070E080E090E0CEDCB5DBDECFEE0FFF1F21
:100DB000881F8BBF0790F691E02D199481E090E099
:080DC000F89400C0F894FFCF85
:100DC8000000000023026B01B3016902E401C201C3
:100DD800D6010D0A0057656C636F6D6520746F202E
:100DE800757365210073657475702829204F4B2130
:020DF8000000F9
:00000001FF
