:1000000014C1000042C1000040C100003EC1000018
:100010003CC100003AC1000038C1000036C10000F8
:1000200034C1000032C1000030C100002EC1000008
:100030002CC1000026C4000028C1000026C1000019
:1000400024C1000022C1000020C100001EC1000028
:100050001CC100001AC1000018C10000C8C3000084
:1000600014C100005FC3000034C300000EC10000D3
:100070000CC100000AC1000008C1000006C1000058
:1000800004C1000002C1000000C10000FEC0000069
:10009000F7C20000CCC20000F8C00000F6C00000AB
:1000A000F4C00000F2C00000F0C00000EEC000008C
:1000B000ECC00000EAC00000E8C00000E6C000009C
:1000C000E4C00000E2C00000E0C00000DEC00000AC
:1000D000DCC00000DAC00000D8C00000D6C00000BC
:1000E000D4C0000088028B027A027E028402C2021F
:1000F0008F02930299029D02A102A702AB02AF02F6
:10010000C202B502B902BD02000020002300260091
:1001100029002C002F00320000010000030106011D
:10012000090100002100240027002A002D003000D2
:10013000330001010000040107010A010000220050
:10014000250028002B002E003100340002010000A1
:10015000050108010B010505050507050808080844
:10016000020202020A0A080804040404010101014F
:10017000010101010303030303030303040707074A
:100180000C0C0C0C0C0C0C0C0202020206060606EF
:10019000060606060B0B0B0B0B0B0B0B01021020BC
:1001A00020080810204010204080020102010804AD
:1001B0000201010204081020408080402010080441
:1001C000020180040201804020100804020108049A
:1001D00002010102040810204080010204081020DE
:1001E000408000000A0B02090C0D0E0807030401F1
:1001F00000000000000000000000000000000000FF
:1002000000000000000000000000000000001211CB
:1002100010000000000000000000000000000000CE
:100220000000000000000000420C11241FBECFEFB0
:10023000D1E2DEBFCDBF00E00CBF12E0A0E0B2E033
:10024000ECE3FEE100E00BBF02C007900D92A43288
:10025000B107D9F724E0A4E2B2E001C01D92A634B0
:10026000B207E1F711E0C5E1D1E000E006C0219757
:100270000109802FFE010E94C00EC431D10780E029
:100280000807A9F739D50C941C0FBACEFC01A08938
:10029000B1898C91A689B78982FD0FC09C91818D0F
:1002A0008F5F8F73228D821749F0218DDF01A20F9E
:1002B000B11D5D969C93818F08958C91089508954A
:1002C00080E090E00895FC01538D448D252F30E0AF
:1002D000842F90E0821B930B541710F0CF96089553
:1002E00001970895FC01918D828D981761F0828DA0
:1002F000DF01A80FB11D5D968C91928D9F5F9F735A
:10030000928F90E008958FEF9FEF0895FC01918DFB
:10031000828D981731F0828DE80FF11D858D90E068
:1003200008958FEF9FEF0895FC01918D228D892F05
:1003300090E0805C9F4F821B91098F7399270895ED
:100340008DE392E0F1DF21E0892B09F420E0822F98
:1003500008958AED92E0E8DF21E0892B09F420E09E
:10036000822F0895FC01848DDF01A80FB11DA35ACF
:10037000BF4F2C91848D90E001968F739927848FC5
:10038000A689B7892C93A089B1898C9180648C93BC
:10039000938D848D981306C00288F389E02D8081A7
:1003A0008F7D80830895EF92FF920F931F93CF93D9
:1003B000DF93EC0181E0888F9B8D8C8D981305C0B5
:1003C000E889F989808185FD23C0F62E0B8D10E028
:1003D0000F5F1F4F0F731127E02E8C8DE8120BC09B
:1003E0000FB607FCFACFE889F989808185FFF5CF40
:1003F000CE01B8DFF2CF8B8DFE01E80FF11DE35A7D
:10040000FF4FF0820B8FEA89FB898081806207C0F1
:10041000EE89FF896083E889F9898081806480831F
:1004200081E090E0DF91CF911F910F91FF90EF90CD
:100430000895CF93DF93EC01888D8823C1F0EA897A
:10044000FB89808185FD05C0A889B9898C9186FDCD
:100450000EC00FB607FCF5CF808185FFF2CFA889CB
:10046000B9898C9185FFEDCFCE017CDFE8CFDF919C
:10047000CF91089580E090E0892B19F06ADF811117
:1004800020C080E090E0892B19F05ADF81111CC058
:1004900080E090E0892B41F080E090E0892B21F012
:1004A0000E940000811113C080E090E0892BA1F030
:1004B00080E090E0892B81F00E94000081110AC049
:1004C00008950E940000DDCF0E940000E1CF0E944D
:1004D0000000EACF0C940000089590E0FC013197F1
:1004E000E231F10508F04EC08827EE58FF4F8F4FDC
:1004F0000C94C00E809180008F7703C080918000A3
:100500008F7D80938000089580918000877FF9CF50
:1005100084B58F7702C084B58F7D84BD08958091A6
:10052000B0008F7703C08091B0008F7D8093B000C2
:100530000895809190008F7707C0809190008F7D03
:1005400003C080919000877F8093900008958091F0
:10055000A0008F7707C08091A0008F7D03C080919D
:10056000A000877F8093A0000895809120018F775D
:1005700007C0809120018F7D03C080912001877F7B
:100580008093200108951F93CF93DF93282F30E0AD
:10059000F901EE51FE4F8491F901E456FE4FD491DA
:1005A000F901EA5AFE4FC491CC23C1F0162F8111F4
:1005B00094DFEC2FF0E0EE0FFF1FE45CFE4FA591FF
:1005C000B4918FB7F894111105C09C91ED2FE0956F
:1005D000E92302C0EC91ED2BEC938FBFDF91CF911B
:1005E0001F9108953FB7F89480912B0290912C02AF
:1005F000A0912D02B0912E0226B5A89B05C02F3FD9
:1006000019F00196A11DB11D3FBFBA2FA92F982F38
:100610008827820F911DA11DB11DBC01CD0142E0B3
:10062000660F771F881F991F4A95D1F708951F926B
:100630000F920FB60F9211240BB60F922F933F9388
:100640004F935F936F937F938F939F93AF93BF93DA
:10065000EF93FF938DE392E085DEFF91EF91BF91E1
:10066000AF919F918F917F916F915F914F913F914A
:100670002F910F900BBE0F900FBE0F901F901895EB
:100680001F920F920FB60F9211240BB60F922F9359
:100690003F934F935F936F937F938F939F93AF930A
:1006A000BF93EF93FF938DE392E0F0DDFF91EF9125
:1006B000BF91AF919F918F917F916F915F914F917A
:1006C0003F912F910F900BBE0F900FBE0F901F9078
:1006D00018951F920F920FB60F9211240BB60F921E
:1006E0002F933F934F935F936F937F938F939F933A
:1006F000AF93BF93EF93FF938AED92E033DEFF91C8
:10070000EF91BF91AF919F918F917F916F915F9189
:100710004F913F912F910F900BBE0F900FBE0F90F6
:100720001F9018951F920F920FB60F9211240BB6BF
:100730000F922F933F934F935F936F937F938F937A
:100740009F93AF93BF93EF93FF938AED92E09EDD6B
:10075000FF91EF91BF91AF919F918F917F916F9199
:100760005F914F913F912F910F900BBE0F900FBE55
:100770000F901F901895CF93DF9390E0FC01E45603
:10078000FE4F2491FC01EA5AFE4F8491882361F1C7
:1007900090E0880F991FFC01EE5DFE4FC591D4914A
:1007A000FC01E45CFE4FA591B491611109C09FB7B3
:1007B000F8948881209582238883EC912E230BC0A6
:1007C000623061F49FB7F8943881822F809583233B
:1007D0008883EC912E2B2C939FBF06C08FB7F89483
:1007E000E8812E2B28838FBFDF91CF9108951F9230
:1007F0000F920FB60F9211242F933F938F939F93D5
:10080000AF93BF938091270290912802A091290273
:10081000B0912A023091260223E0230F2D3720F4D5
:100820000196A11DB11D05C026E8230F0296A11D4A
:10083000B11D209326028093270290932802A09353
:100840002902B0932A0280912B0290912C02A09150
:100850002D02B0912E020196A11DB11D80932B0295
:1008600090932C02A0932D02B0932E02BF91AF91D2
:100870009F918F913F912F910F900FBE0F901F90DE
:1008800018951F920F920FB60F9211240BB60F926C
:100890002F933F934F935F936F937F938F939F9388
:1008A000AF93BF93CF93DF93EF93FF9320917703A1
:1008B00030E0F901EE51FE4F8491F901E456FE4F0C
:1008C000D491F901EA5AFE4FC491CC2399F08111D9
:1008D00004DEEC2FF0E0EE0FFF1FE85FFE4FA59166
:1008E000B491EC91ED2331E020E009F430E0832F66
:1008F000922F02C080E090E020917A0330917B0338
:100900002F5F3F4F30937B0320937A032091440461
:10091000243618F025E020937803209178032330C3
:10092000C1F018F4223039F059C0243069F1253073
:1009300009F44EC053C0009709F050C020917A03CB
:1009400030917B032436310508F444C010924404EE
:100950001DC08130910509F041C0E091440421E0BF
:100960002E0F20934404F0E020917A0330917B0312
:10097000EE0FFF1FE958FC4F3683258310927B034F
:1009800010927A0324E021C00097B9F4E091440466
:1009900021E02E0F20934404F0E020917A0330915F
:1009A0007B03EE0FFF1FE958FC4F3683258310921F
:1009B0007B0310927A0323E008C020917A033091E0
:1009C0007B032536310550F025E02093780306C0DF
:1009D000009721F410927B0310927A0320917903FF
:1009E000222329F0892B11F42F9A01C02F98FF910F
:1009F000EF91DF91CF91BF91AF919F918F917F91B7
:100A00006F915F914F913F912F910F900BBE0F907F
:100A10000FBE0F901F901895CF92DF92EF92FF922A
:100A2000CF93DF93EC01072E000C880B990B0E94EB
:100A30009E0D6B017C0120E030E040E45FE30E940A
:100A40004E0E20E030E048E452E4DDD70E946B0D0A
:100A5000C617D707C4F020E030E040EA5FE3C701E3
:100A6000B6010E944E0E20E030E048E452E4CBD7BD
:100A700020E030E040E85FE35ED70E946B0D21E0AC
:100A80006C177D070CF420E0822F90E0DF91CF916E
:100A9000FF90EF90DF90CF9008958F929F92AF924A
:100AA000BF92CF92DF92EF92FF92CF93DF93EC0150
:100AB00060E088E068DDC050DE4FE880C7E0D0E04D
:100AC000F12CB7010C2E02C0759567950A94E2F7D8
:100AD0006170772789E057DD61E083E054DD60E0F5
:100AE00083E051DD219768F761E088E04CDD7ADD35
:100AF0004B015C0180E5C82ED12CE12CF12C72DD7C
:100B0000DC01CB0188199909AA09BB09883E9340E9
:100B1000A105B10558F021E0C21AD108E108F10899
:100B200088EE880E83E0981EA11CB11CC114D1046C
:100B3000E104F10421F7DF91CF91FF90EF90DF9076
:100B4000CF90BF90AF909F908F900895CF92DF92FB
:100B5000EF92FF920F931F93CF93DF936C017A0173
:100B60008B01C0E0D0E0CE15DF0589F0D8016D9192
:100B70008D01D601ED91FC910190F081E02DC6012F
:100B80001995892B11F47E0102C02196ECCFC70183
:100B9000DF91CF911F910F91FF90EF90DF90CF9059
:100BA00008950E94180FFC01A089B18982E08C93FE
:100BB000A485B5851C92A685B78580E18C93108E9F
:100BC000A489B58986E08C93A289B3898C918061D0
:100BD0008C93A289B3898C9188608C93A289B38904
:100BE0008C9180688C930288F389E02D80818F7DC1
:100BF00080830895009761F0FC0101900020E9F7DF
:100C00003197AF01481B590BBC018AED92E09ECF92
:100C100080E090E008958F929F92AF92BF92CF9222
:100C2000DF92EF92FF920F931F93CF93DF93FC011C
:100C3000C081D18120913B0230913C02C217D30781
:100C40000CF048C09E01220F331FE0913902F09151
:100C50003A02E20FF31F80809180C170DD27F1E03E
:100C6000CF27209719F404E610E002C00CE91FEF2B
:100C70007A015B016C01040F151FB801C401CCDEC1
:100C8000892B89F40E0D1F1DB801C401C5DE892B07
:100C900069F4B8016E0D7F1DC401BEDE892BE9F039
:100CA00023E030E005C021E030E002C022E030E087
:100CB000F501808191810196821793073CF0F5013F
:100CC00011821082F6018081918101969183808347
:100CD000CE0105C081E090E002C08FEF9FEFDF9171
:100CE000CF911F910F91FF90EF90DF90CF90BF9029
:100CF000AF909F908F900895CF93DF93CDB7DEB7DD
:100D0000AB970FB6F894DEBF0FBECDBF789484B515
:100D1000826084BD84B5816084BD85B5826085BDF7
:100D200085B5816085BD80916E00816080936E0085
:100D30001092810080918100826080938100809177
:100D40008100816080938100809180008160809328
:100D500080008091B10084608093B1008091B000E8
:100D600081608093B00080919100826080939100B7
:100D700080919100816080939100809190008160CA
:100D8000809390008091A10082608093A100809167
:100D9000A10081608093A1008091A0008160809378
:100DA000A000809121018260809321018091210126
:100DB00081608093210180912001816080932001D6
:100DC00080917A00846080937A0080917A008260BA
:100DD00080937A0080917A00816080937A0080917C
:100DE0007A00806880937A001092C1008AED92E0C8
:100DF000DADE8DE392E0D7DEF89482E08093B000F3
:100E00008093B10094E69093B3001092B200809367
:100E10007000789480937803109244048091770353
:100E200060E0A9DC61E088E0A6DC61E089E0A3DCA9
:100E300061E083E0A0DC22242394312C44244A94F2
:100E4000542C32012CE733E030933A0220933902DC
:100E50008091440490E090933C0280933B02809107
:100E60007803853009F061C280917E0390917F0301
:100E7000885891098D35910588F480914404843017
:100E800041F480918003909181038097479708F403
:100E9000EDC180914404843408F076C2809144040A
:100EA0008A3108F452C080917C0390917D03843F85
:100EB000914068F410923802109237024092330247
:100EC0005092340260923502709236025CC080917A
:100ED0007E0390917F0385974B97B8F5E2E8F3E0A6
:100EE00082E090E0C12CD12C76012091440430E0C6
:100EF000AC014F5F5F4F4217530754F4DF01129765
:100F00002D913C91275031092730310508F484C2D6
:100F100001979595879590933802809337020C97A7
:100F20002CF410923802109237020FC0C092330294
:100F3000D0923402E0923502F092360222E030E0A4
:100F40003093300220932F02A9C1809144048A314A
:100F500008F44BC080917C0390917D0380329340D4
:100F600008F4A8CF80917E0390917F03C69786975F
:100F700008F46FC23AC0C0923302D0923402E092B9
:100F80003502F092360289E090E0C5C320813181BC
:100F9000255231092B31310508F06BC2CC0CDD1C18
:100FA000EE1CFF1C6894C0F802963496209144040D
:100FB00030E0AC014F5F5F4F421753074CF4DF0145
:100FC00012972D913C912C5031092B303105F0F2C4
:100FD00001979595879590933802809337020C97E7
:100FE00054F61092380210923702809144048232F3
:100FF00008F44DC080917E0390917F030697079778
:1010000008F045C0E2E8F3E082E090E0C12CD12C8A
:1010100076019C012F5F3F4F4091440450E024171C
:101020003507E4F4DF0112974D915C9111974E5111
:1010300051094731510508F029C2CC0CDD1CEE1CCA
:10104000FF1C6894C0F84081518134964350510987
:101050004530510510F40296DCCFC90101979595F2
:101060008795909338028093370240972CF4109222
:101070003802109237020BC0C0923302D092340271
:10108000E0923502F09236028AE090E044C380910B
:1010900044048D3048F480913B0290913C02181634
:1010A00019060CF47CC086C03BA22AA21A821982BF
:1010B00049E753E0BE016F5F7F4FCE018296ABDD03
:1010C000892B21F080E090E0DC0163C049E753E028
:1010D000BE016F5F7F4FCE0182969DDD019791F734
:1010E00049E753E0BE016F5F7F4FCE01829693DDEB
:1010F000892B41F700E010E0812C912C5401809164
:10110000440490E02AA13BA12817390764F549E778
:1011100053E0BE016F5F7F4FCE0182967CDD7C0184
:1011200049E753E0BE016F5F7F4FCE01829673DDCA
:10113000E1E0EE16F10451F4892B09F0C3CF880CDD
:10114000991CAA1CBB1C689480F80AC0EF2809F0FF
:10115000B9CF019709F0B6CF880C991CAA1CBB1C0B
:101160000F5F1F4FCCCF109338020093370280924D
:10117000330290923402A0923502B092360223E0FC
:1011800030E03093300220932F0281E090E0A0E025
:10119000B0E0892B8A2B8B2B09F080C07CCF3BA23F
:1011A0002AA2E0913902F0913A02828193818997D3
:1011B0004E9720F080E090E0DC0148C022E030E073
:1011C0003BA32AA3848195810B970A9798F783E024
:1011D00090E09BA38AA31A8219824CEB51E0BE01D6
:1011E0006F5F7F4FCE01829616DD892B19F74CEB8E
:1011F00051E0BE016F5F7F4FCE0182960CDD0197FB
:10120000C9F600E010E0812C912C54012AA13BA1E9
:1012100080913B0290913C02281739070CF443C19E
:101220001093380200933702809233029092340276
:10123000A0923502B092360284E090E090933002A2
:1012400080932F0281E090E0A0E0B0E0892B8A2B10
:101250008B2B21F5A0903902B0903A02F5018281E2
:101260009381C697869708F46BC1C4C180918203AD
:10127000909183030997099708F00BCE10923802DA
:10128000109237024092330250923402609235023B
:10129000709236023092300220922F020091330277
:1012A00010913402209135023091360219A2CE01FC
:1012B0008196B901A8014F70552766277727A4E0CA
:1012C0003695279517950795AA95D1F701974A3036
:1012D00051056105710508F023C2405DFC014083A2
:1012E000011511052105310521F784DC8CE192E01F
:1012F00081DC8091330290913402A0913502B0914B
:1013000036028F3CF0E39F07FDEFAF07B10509F010
:1013100009C2109225021092240280E090E0BDDB09
:1013200082E080937803109244048091240290918B
:101330002502009749F0019729F58FE192E05ADCE8
:101340008CE192E057DC1EC08AED92E00E9494018D
:10135000892B49F08AED92E00E947201682F8DE39B
:1013600092E021D8F1CF8DE392E00E949401892B85
:1013700049F08DE392E00E947201682F8AED92E0BD
:1013800012D8F1CF77D85ECD809180039091810300
:10139000825491098E9708F081CD80E090E040E082
:1013A00050E0BA01FC01EE57FC4F208131812950F9
:1013B00031092930310508F071CDFC01EC57FC4FA3
:1013C000208131812651310921313105C0F4440F8A
:1013D000551F661F771F416004968038910511F7ED
:1013E00080E290E09093380280933702409333027A
:1013F0005093340260933502709336024BCF2081B4
:101400003181265031092730310508F047CD440F8E
:10141000551F661F771FE0CF20813181235131098D
:101420002F30310548F4CC0CDD1CEE1CFF1C6894F9
:10143000C0F80296349659CD208131812A50310965
:101440002930310508F081CDCC0CDD1CEE1CFF1CD1
:10145000F0CF8091800390918103C697869708F022
:10146000C4CDE4E8F3E083E090E0C12CD12C760118
:101470009DCD208131812C5031092A30310508F071
:10148000B4CDCC0CDD1CEE1CFF1C8ECD4D915C91BF
:101490004C5051094B30510508F0F9CDCC0CDD1CF6
:1014A000EE1CFF1CD0CD4CEB51E0BE016F5F7F4FB7
:1014B000CE018296B0DB6C010330110569F04CEB74
:1014C00051E0BE016F5F7F4FCE018296A4DB7C01AD
:1014D00003301105C9F40CC04CEB51E0BE016F5F45
:1014E0007F4FCE01829697DBC816D90641F362CEB4
:1014F0004CEB51E0BE016F5F7F4FCE0182968BDBDC
:10150000E816F90609F056CEC114D10459F4EA944C
:10151000EF2809F04FCE880C991CAA1CBB1C6894BC
:1015200080F80BC0CA94CD2809F044CEEF2809F00A
:1015300041CE880C991CAA1CBB1C0F5F1F4F66CEA6
:10154000F501848195814B97459708F053C0D501EB
:1015500016967501F6ECEF0EF11C20E030E040E04D
:1015600050E060E070E080E090E0CD90DC9011977A
:10157000F9E0CF1AD10818E0C116D104D8F51296B7
:10158000CD90DC90139711E1C11AD108EDE0CE1691
:10159000D10410F501E006D421601496AE15BF0504
:1015A00021F7209333023093340240933502509355
:1015B000360200E212D4209331023093320287E0E7
:1015C00090E09093300280932F0280E390E090931C
:1015D00038028093370262CE1296CD90DC9013973A
:1015E000F4E0CF1AD10815E0C116D10418F401E0D7
:1015F000D9D3D3CF80914404823239F4F50182816A
:1016000093810A97099708F4C4C0F50182819381F8
:10161000895791098335910508F4D7C020913B0281
:1016200030913C023FA32EA3263031050CF478CE36
:1016300085010A5F1F4F85ECC82E8DE9D82E8CE1FD
:10164000E82E81E8F82E83E090E09DA38CA3F801BA
:10165000608171813497A080B18080E090E06CD28D
:1016600068A779A78AA79BA7B50180E090E064D21C
:101670004B015C012DEC3CEC4CE45FE30FD39B0190
:10168000AC0168A579A58AA59BA5B9D187FD7EC0C7
:101690002DEC3CEC4CE45FE368A579A58AA59BA5FD
:1016A000FDD29B01AC01C501B401A9D1E82F880F7F
:1016B000FF0BEE27FF0FEE1FFF273196A7019601C4
:1016C00063E971E080E091E04CD36F01FF0FEE0819
:1016D000FF08C626D726E826F9262CA13DA12F5FB4
:1016E0003F4F3DA32CA30E5F1F4F8EA19FA1281734
:1016F000390709F0ACCFC0923302D0923402E092A5
:101700003502F0923602E0E2F0E0F0933802E09326
:1017100037028FEF9FEF9093300280932F02BECD60
:10172000495CDCCD803D10E391071DEFA107B105B9
:1017300060F4873F9840AD4FB10519F5309225020E
:101740002092240281E090E0EACD873B38E49307C1
:101750003DEFA307B10571F087379848AD4FB1054C
:1017600081F422E030E0309325022093240282E0CD
:1017700090E0D5CD83E090E0909325028093240201
:10178000CECD8091240290912502C9CDE0E0F0E019
:1017900095CF20914404C501820F911D820F911DA8
:1017A000DC0112978D919C910A97099708F02DCF33
:1017B0001092380210923702409233025092340253
:1017C00060923502709236025AC080914404813290
:1017D00008F424CFF50184819581CA97899708F090
:1017E0001DCF95012A5F3F4F80E090E0DC0143E090
:1017F00050E0F901608171816A50710969307105A9
:1018000008F00CCFF9016281738166517109613171
:10181000710538F5880F991FAA1FBB1F81604E5FA5
:101820005F4F2C5F3F4F4332510519F795012A5BFB
:101830003F4FF901208131812A503109293031058A
:1018400008F0ECCE20E130E03093380220933702EC
:101850008093330290933402A0933502B093360202
:101860000EC0F9016281738166507109673071059C
:1018700008F0D4CE880F991FAA1FBB1FD0CF88E0D5
:1018800090E049CFEDE3F2E01382128248EE53E09C
:1018900060E070E044835583668377838EE092E056
:1018A000918380832DEC30E0358724872CEC30E069
:1018B0003787268728EC30E0318B208B29EC30E00D
:1018C000338B228B2AEC30E0358B248B2EEC30E0EE
:1018D000378B268B118E128E138E148EEAEDF2E06A
:1018E0001382128244835583668377839183808336
:1018F00085EC90E09587848784EC90E097878687D5
:1019000080EC90E0918B808B81EC90E0938B828BCC
:1019100082EC90E0958B848B86EC90E0978B868BA5
:10192000118E128E138E148EE7E7F3E082E080832F
:10193000128208955058BB27AA270ED075C166D1D0
:1019400030F06BD120F031F49F3F11F41EF45BC1F5
:101950000EF4E095E7FB51C1E92F77D180F3BA1778
:10196000620773078407950718F071F49EF58FC11D
:101970000EF4E0950B2EBA2FA02D0B01B9019001AA
:101980000C01CA01A0011124FF27591B99F0593FEE
:1019900050F4503E68F11A16F040A22F232F342F36
:1019A0004427585FF3CF469537952795A795F04084
:1019B0005395C9F77EF41F16BA0B620B730B840B99
:1019C000BAF09150A1F0FF0FBB1F661F771F881F51
:1019D000C2F70EC0BA0F621F731F841F48F48795A9
:1019E00077956795B795F7959E3F08F0B3CF939598
:1019F000880F08F09927EE0F979587950895D9D00D
:101A000008F481E008950CD00FC107D140F0FED05A
:101A100030F021F45F3F19F0F0C0511139C1F3C02B
:101A200014D198F39923C9F35523B1F3951B550BA2
:101A3000BB27AA2762177307840738F09F5F5F4FA1
:101A4000220F331F441FAA1FA9F333D00E2E3AF0E2
:101A5000E0E830D091505040E695001CCAF729D0FC
:101A6000FE2F27D0660F771F881FBB1F261737074B
:101A70004807AB07B0E809F0BB0B802DBF01FF277B
:101A800093585F4F2AF09E3F510568F0B6C000C1E1
:101A90005F3FECF3983EDCF3869577956795B795B5
:101AA000F7959F5FC9F7880F911D9695879597F9D0
:101AB0000895E1E0660F771F881FBB1F6217730749
:101AC0008407BA0720F0621B730B840BBA0BEE1F5E
:101AD00088F7E095089504D06894B111D9C00895AD
:101AE000BCD088F09F5790F0B92F9927B751A0F03C
:101AF000D1F0660F771F881F991F1AF0BA95C9F7A2
:101B000012C0B13081F0C3D0B1E00895C0C0672FDA
:101B1000782F8827B85F39F0B93FCCF38695779551
:101B20006795B395D9F73EF490958095709561953A
:101B30007F4F8F4F9F4F0895E89409C097FB3EF465
:101B400090958095709561957F4F8F4F9F4F99230A
:101B5000A9F0F92F96E9BB279395F6958795779588
:101B60006795B795F111F8CFFAF4BB0F11F460FF48
:101B70001BC06F5F7F4F8F4F9F4F16C0882311F0A0
:101B800096E911C0772321F09EE8872F762F05C0B4
:101B9000662371F096E8862F70E060E02AF09A954F
:101BA000660F771F881FDAF7880F9695879597F944
:101BB0000895990F0008550FAA0BE0E8FEEF1616DE
:101BC0001706E807F907C0F012161306E407F50731
:101BD00098F0621B730B840B950B39F40A2661F0A5
:101BE000232B242B252B21F408950A2609F4A14048
:101BF000A6958FEF811D811D089597F99F6780E855
:101C000070E060E008959FEF80EC089500240A944E
:101C10001616170618060906089500240A941216C7
:101C20001306140605060895092E0394000C11F4FA
:101C3000882352F0BB0F40F4BF2B11F460FF04C0A7
:101C40006F5F7F4F8F4F9F4F089557FD9058440F00
:101C5000551F59F05F3F71F04795880F97FB991F0B
:101C600061F09F3F79F087950895121613061406C8
:101C7000551FF2CF4695F1DF08C016161706180655
:101C8000991FF1CF86957105610508940895E89430
:101C9000BB2766277727CB0197F908950BD0C4CFD0
:101CA000B5DF28F0BADF18F0952309F0A6CFABCF47
:101CB0001124EECFCADFA0F3959FD1F3950F50E02A
:101CC000551F629FF001729FBB27F00DB11D639FEE
:101CD000AA27F00DB11DAA1F649F6627B00DA11D94
:101CE000661F829F2227B00DA11D621F739FB00D3A
:101CF000A11D621F839FA00D611D221F749F3327AA
:101D0000A00D611D231F849F600D211D822F762F42
:101D10006A2F11249F5750408AF0E1F088234AF03F
:101D2000EE0FFF1FBB1F661F771F881F915050408B
:101D3000A9F79E3F510570F060CFAACF5F3FECF34B
:101D4000983EDCF3869577956795B795F795E79577
:101D50009F5FC1F7FE2B880F911D9695879597F988
:101D60000895DB018F939F9313D0BF91AF91A29FF2
:101D7000800D911DA39F900DB29F900D1124089589
:101D8000EE0FFF1F881F8BBF0790F691E02D19946F
:101D900040D0A59F900DB49F900DA49F800D911DE4
:101DA000112408950F93083090F0982F872F762FE5
:101DB000652F542F432F322F22270850F4CF220FA4
:101DC000331F441F551F661F771F881F991F0A95D1
:101DD000B2F70F91089597FB10F8169400080F932F
:101DE000083098F00850232F342F452F562F672F97
:101DF000782F892F902DF4CF059497958795779517
:101E0000679557954795379527950A95AAF70F91A6
:101E10000895A29FB001B39FC001A39F700D811DC3
:101E20001124911DB29F700D811D1124911D0895E3
:0C1E300081E090E0F89400C0F894FFCF2F
:101E3C00C0F9A4B0999282F8809000000000D30100
:101E4C00A605630119029401720186010D0A003E78
:041E5C0031313100EF
:00000001FF
