:1000000014C1000042C1000040C100003EC1000018
:100010003CC100003AC1000038C1000036C10000F8
:1000200034C1000032C1000030C100002EC1000008
:100030002CC1000086C4000028C1000026C10000B9
:1000400024C1000022C1000020C100001EC1000028
:100050001CC100001AC1000018C1000028C4000023
:1000600014C1000087C300005CC300000EC1000083
:100070000CC100000AC1000008C1000006C1000058
:1000800004C1000002C1000000C10000FEC0000069
:100090001FC30000F4C20000F8C00000F6C000005A
:1000A000F4C00000F2C00000F0C00000EEC000008C
:1000B000ECC00000EAC00000E8C00000E6C000009C
:1000C000E4C00000E2C00000E0C00000DEC00000AC
:1000D000DCC00000DAC00000D8C00000D6C00000BC
:1000E000D4C0000088028B027A027E028402C2021F
:1000F0008F02930299029D02A102A702AB02AF02F6
:10010000C202B502B902BD0200002100240027008E
:100110002A002D0030003300010100000401070116
:100120000A0100002200250028002B002E003100CB
:10013000340002010000050108010B01000020004D
:100140002300260029002C002F00320000010000AF
:10015000030106010901050505050705080808084A
:10016000020202020A0A080804040404010101014F
:10017000010101010303030303030303040707074A
:100180000C0C0C0C0C0C0C0C0202020206060606EF
:10019000060606060B0B0B0B0B0B0B0B01021020BC
:1001A00020080810204010204080020102010804AD
:1001B0000201010204081020408080402010080441
:1001C000020180040201804020100804020108049A
:1001D00002010102040810204080010204081020DE
:1001E000408000000A0B02090C0D0E0807030401F1
:1001F00000000000000000000000000000000000FF
:1002000000000000000000000000000000001211CB
:1002100010000000000000000000000000000000CE
:100220000000000000000000120E11241FBECFEFDE
:10023000D1E2DEBFCDBF00E00CBF12E0A0E0B2E033
:10024000E0E3F2E200E00BBF02C007900D92AC3594
:10025000B107D9F724E0ACE5B2E001C01D92AE3899
:10026000B207E1F711E0C5E1D1E000E006C0219757
:100270000109802FFE010E94BA10C431D10780E02D
:100280000807A9F7A6D60C941611BACEFC01A089CE
:10029000B1898C91A689B78982FD0FC09C91818D0F
:1002A0008F5F8F73228D821749F0218DDF01A20F9E
:1002B000B11D5D969C93818F08958C91089508954A
:1002C00080E090E00895FC01538D448D252F30E0AF
:1002D000842F90E0821B930B541710F0CF96089553
:1002E00001970895FC01918D828D981761F0828DA0
:1002F000DF01A80FB11D5D968C91928D9F5F9F735A
:10030000928F90E008958FEF9FEF0895FC01918DFB
:10031000828D981731F0828DE80FF11D858D90E068
:1003200008958FEF9FEF0895FC01918D228D892F05
:1003300090E0805C9F4F821B91098F7399270895ED
:1003400085E892E0F1DF21E0892B09F420E0822F9B
:10035000089582E293E0E8DF21E0892B09F420E0B0
:10036000822F0895FC01848DDF01A80FB11DA35ACF
:10037000BF4F2C91848D90E001968F739927848FC5
:10038000A689B7892C93A089B1898C9180648C93BC
:10039000938D848D981306C00288F389E02D8081A7
:1003A0008F7D80830895EF92FF920F931F93CF93D9
:1003B000DF93EC0181E0888F9B8D8C8D981305C0B5
:1003C000E889F989808185FD23C0F62E0B8D10E028
:1003D0000F5F1F4F0F731127E02E8C8DE8120BC09B
:1003E0000FB607FCFACFE889F989808185FFF5CF40
:1003F000CE01B8DFF2CF8B8DFE01E80FF11DE35A7D
:10040000FF4FF0820B8FEA89FB898081806207C0F1
:10041000EE89FF896083E889F9898081806480831F
:1004200081E090E0DF91CF911F910F91FF90EF90CD
:100430000895CF93DF93EC01888D8823C1F0EA897A
:10044000FB89808185FD05C0A889B9898C9186FDCD
:100450000EC00FB607FCF5CF808185FFF2CFA889CB
:10046000B9898C9185FFEDCFCE017CDFE8CFDF919C
:10047000CF91089580E090E0892B19F06ADF811117
:1004800020C080E090E0892B19F05ADF81111CC058
:1004900080E090E0892B41F080E090E0892B21F012
:1004A0000E940000811113C080E090E0892BA1F030
:1004B00080E090E0892B81F00E94000081110AC049
:1004C00008950E940000DDCF0E940000E1CF0E944D
:1004D0000000EACF0C940000089590E0FC013197F1
:1004E000E231F10508F04EC08827EE58FF4F8F4FDC
:1004F0000C94BA10809180008F7703C080918000A7
:100500008F7D80938000089580918000877FF9CF50
:1005100084B58F7702C084B58F7D84BD08958091A6
:10052000B0008F7703C08091B0008F7D8093B000C2
:100530000895809190008F7707C0809190008F7D03
:1005400003C080919000877F8093900008958091F0
:10055000A0008F7707C08091A0008F7D03C080919D
:10056000A000877F8093A0000895809120018F775D
:1005700007C0809120018F7D03C080912001877F7B
:10058000809320010895CF93DF93282F30E0F90165
:10059000EE51FE4F8491F901E456FE4FD491F901DA
:1005A000EA5AFE4FC491CC2389F0811196DFEC2FDB
:1005B000F0E0EE0FFF1FE45CFE4FA591B491EC91CB
:1005C000ED2381E090E021F480E002C080E090E043
:1005D000DF91CF9108951F93CF93DF93282F30E0C1
:1005E000F901EE51FE4F8491F901E456FE4FD4918A
:1005F000F901EA5AFE4FC491CC23C1F0162F8111A4
:100600006CDFEC2FF0E0EE0FFF1FEE5DFE4FA591CB
:10061000B4918FB7F894111105C09C91ED2FE0951E
:10062000E92302C0EC91ED2BEC938FBFDF91CF91CA
:100630001F9108953FB7F8948091730290917402CE
:10064000A0917502B091760226B5A89B05C02F3FF8
:1006500019F00196A11DB11D3FBFBA2FA92F982FE8
:100660008827820F911DA11DB11DBC01CD0142E063
:10067000660F771F881F991F4A95D1F708951F921B
:100680000F920FB60F9211240BB60F922F933F9338
:100690004F935F936F937F938F939F93AF93BF938A
:1006A000EF93FF9385E892E05DDEFF91EF91BF91BC
:1006B000AF919F918F917F916F915F914F913F91FA
:1006C0002F910F900BBE0F900FBE0F901F9018959B
:1006D0001F920F920FB60F9211240BB60F922F9309
:1006E0003F934F935F936F937F938F939F93AF93BA
:1006F000BF93EF93FF9385E892E0C8DDFF91EF9100
:10070000BF91AF919F918F917F916F915F914F9129
:100710003F912F910F900BBE0F900FBE0F901F9027
:1007200018951F920F920FB60F9211240BB60F92CD
:100730002F933F934F935F936F937F938F939F93E9
:10074000AF93BF93EF93FF9382E293E00BDEFF91B1
:10075000EF91BF91AF919F918F917F916F915F9139
:100760004F913F912F910F900BBE0F900FBE0F90A6
:100770001F9018951F920F920FB60F9211240BB66F
:100780000F922F933F934F935F936F937F938F932A
:100790009F93AF93BF93EF93FF9382E293E076DD55
:1007A000FF91EF91BF91AF919F918F917F916F9149
:1007B0005F914F913F912F910F900BBE0F900FBE05
:1007C0000F901F901895CF93DF9390E0FC01E456B3
:1007D000FE4F2491FC01EA5AFE4F8491882361F177
:1007E00090E0880F991FFC01E85FFE4FC591D491FE
:1007F000FC01EE5DFE4FA591B491611109C09FB758
:10080000F8948881209582238883EC912E230BC055
:10081000623061F49FB7F8943881822F80958323EA
:100820008883EC912E2B2C939FBF06C08FB7F89432
:10083000E8812E2B28838FBFDF91CF9108958F926F
:100840009F92AF92BF92CF92DF92EF92FF926B0195
:100850007C01F0DE4B015C01C114D104E104F10420
:10086000E9F0E8DEDC01CB0188199909AA09BB0986
:10087000883E9340A105B10578F321E0C21AD10862
:10088000E108F10888EE880E83E0981EA11CB11CD7
:10089000C114D104E104F10421F7DECFFF90EF9001
:1008A000DF90CF90BF90AF909F908F9008951F9250
:1008B0000F920FB60F9211242F933F938F939F9314
:1008C000AF93BF9380916F0290917002A0917102DB
:1008D000B091720230916E0223E0230F2D3720F485
:1008E0000196A11DB11D05C026E8230F0296A11D8A
:1008F000B11D20936E0280936F0290937002A093BB
:100900007102B09372028091730290917402A0916F
:100910007502B09176020196A11DB11D80937302FC
:1009200090937402A0937502B0937602BF91AF9139
:100930009F918F913F912F910F900FBE0F901F901D
:1009400018951F920F920FB60F9211240BB60F92AB
:100950002F933F934F935F936F937F938F939F93C7
:10096000AF93BF93EF93FF938091BF030CDE209171
:10097000C2033091C3032F5F3F4F3093C3032093D3
:10098000C20390918C04943618F095E09093C003C4
:100990009091C0039330B9F018F4923039F057C0F9
:1009A000943059F1953009F44CC051C081114FC0B9
:1009B0002091C2033091C3032436310508F443C0AB
:1009C00010928C041CC0813009F041C0E0918C046D
:1009D00091E09E0F90938C04F0E02091C20330913F
:1009E000C303EE0FFF1FE154FC4F368325831092A3
:1009F000C3031092C20394E021C0811117C0E0919B
:100A00008C0491E09E0F90938C04F0E02091C2033F
:100A10003091C303EE0FFF1FE154FC4F3683258353
:100A20001092C3031092C20393E008C02091C20346
:100A30003091C3032536310550F095E09093C00303
:100A400006C0811104C01092C3031092C20390919A
:100A5000C103992329F0811102C02F9A01C02F9858
:100A6000FF91EF91BF91AF919F918F917F916F9186
:100A70005F914F913F912F910F900BBE0F900FBE42
:100A80000F901F901895CF92DF92EF92FF92CF9325
:100A9000DF93EC01072E000C880B990B0E946E0F60
:100AA0006B017C0120E030E040E45FE30E94221013
:100AB00020E030E048E452E40E94D30E0E943B0F55
:100AC000C617D707D4F020E030E040EA5FE3C70163
:100AD000B6010E94221020E030E048E452E40E9477
:100AE000D30E20E030E040E85FE30E946B0E0E94EE
:100AF0003B0F21E06C177D070CF420E0822F90E083
:100B0000DF91CF91FF90EF90DF90CF900895CF923B
:100B1000DF92EF92FF92CF9361E08AE25CDD60E0CA
:100B200089E259DD8AE22FDD892BE1F7C8E1C12C8A
:100B3000D12C760161E089E24EDDCC0CDD1CEE1C8F
:100B4000FF1C60E089E247DD8AE21DDD892B29F088
:100B50002FEFC21AD20AE20AF20AC15059F761E035
:100B600089E239DD60E089E236DDC701B6018058EF
:100B7000CF91FF90EF90DF90CF9008950F931F9348
:100B8000CF93DF93EC0160E088E025DDC050DE4FBD
:100B90000881C7E0D0E010E0B8010C2E02C07595C6
:100BA00067950A94E2F76170772789E014DD61E0C8
:100BB00083E011DD60E083E00EDD219768F761E0FE
:100BC00088E009DD60E570E080E090E0DF91CF91A2
:100BD0001F910F9134CE6115710579F0FB010190E1
:100BE0000020E9F73197AF01461B570BDC01ED916F
:100BF000FC910280F381E02D199480E090E008954B
:100C0000CF92DF92EF92FF920F931F93CF93DF93D8
:100C10006C017A018B01C0E0D0E0CE15DF0589F0D0
:100C2000D8016D918D01D601ED91FC910190F0817B
:100C3000E02DC6011995892B11F47E0102C0219681
:100C4000ECCFC701DF91CF911F910F91FF90EF90F3
:100C5000DF90CF9008950E941211FC01A089B18904
:100C600082E08C93A485B5851C92A685B78580E12A
:100C70008C93108EA489B58986E08C93A289B38960
:100C80008C9180618C93A289B3898C9188608C93BC
:100C9000A289B3898C9180688C930288F389E02DB6
:100CA00080818F7D808308958F929F92AF92BF92B3
:100CB000CF92DF92EF92FF920F931F93CF93DF9328
:100CC000FC01C081D1812091830230918402C2173E
:100CD000D3070CF048C09E01220F331FE091810220
:100CE000F0918202E20FF31F80809180C170DD27B6
:100CF000F1E0CF27209719F404E610E002C00CE9D8
:100D00001FEF7A015B016C01040F151FB801C401CC
:100D1000BADE892B89F40E0D1F1DB801C401B3DEA4
:100D2000892B69F4B8016E0D7F1DC401ACDE892BDF
:100D3000E9F023E030E005C021E030E002C022E02D
:100D400030E0F501808191810196821793073CF094
:100D5000F50111821082F6018081918101969183C3
:100D60008083CE0105C081E090E002C08FEF9FEF4D
:100D7000DF91CF911F910F91FF90EF90DF90CF9077
:100D8000BF90AF909F908F9008954F925F926F9217
:100D90007F92EF92FF920F931F93CF93DF93CDB784
:100DA000DEB7A1970FB6F894DEBF0FBECDBF7C01B2
:100DB000FA01CB0119A2223008F42AE08E010F5D5E
:100DC0001F4F422E512C612C712CBF01A3019201A7
:100DD0000E949810F901CA01015011096A3014F4F7
:100DE000605D01C0695CD8016C93232B242B252BFB
:100DF00061F7B801C701EFDEA1960FB6F894DEBF28
:100E00000FBECDBFDF91CF911F910F91FF90EF905B
:100E10007F906F905F904F9008954F925F926F9286
:100E20007F928F929F92AF92BF92CF92DF92EF927A
:100E3000FF92CF93DF93EC016A017B01B22E9A01FE
:100E4000AB01C701B6010E948510882319F06FE439
:100E500072E026C026013701E89477F82FEF3FEFC4
:100E60004FE75FE7C301B2010E94851081110CC0FA
:100E70002FEF3FEF4FE75FE7C301B20190D718169E
:100E80001CF463E572E00CC02FEF3FEF4FE75FE427
:100E9000C701B6010E941E10181694F467E572E0AF
:100EA000CE01DF91CF91FF90EF90DF90CF90BF9078
:100EB000AF909F908F907F906F905F904F908BCE70
:100EC0002FEF3FEF4FE75FECC701B60168D787FD13
:100ED000E5CF20E030E0A901C701B60160D787FF68
:100EE0000EC0E881F9810190F081E02D6DE2CE0124
:100EF00019954C01F7FAF094F7F8F09402C0812CA0
:100F0000912CA12C60E070E080E09FE3AB1439F0FD
:100F100020E030E040E251E446D7A394F7CF9B01B4
:100F2000AC01C701B601D7D62B013C01A9D76B0193
:100F30007C01D2D79B01AC01C301B201CBD62B01FE
:100F40003C012AE0B701A601CE011FDF7C01E80CBD
:100F5000F91CBB2051F0E881F9810190F081E02D6E
:100F60006EE2CE011995E80EF91EDB2CDD2009F1A9
:100F700020E030E040E251E4C301B2010E942210BF
:100F80002B013C017DD74B01A12CB12C2AE0B501EE
:100F9000A401CE01FADEE80EF91EC501B4019CD70A
:100FA0009B01AC01C301B20195D62B013C01DA943F
:100FB000DDCFC701DF91CF91FF90EF90DF90CF9011
:100FC000BF90AF909F908F907F906F905F904F9069
:100FD0000895CF93DF93CDB7DEB72C970FB6F89473
:100FE000DEBF0FBECDBF789484B5826084BD84B56A
:100FF000816084BD85B5826085BD85B5816085BD14
:1010000080916E00816080936E00109281008091CB
:101010008100826080938100809181008160809353
:101020008100809180008160809380008091B10078
:1010300084608093B1008091B00081608093B000A3
:1010400080919100826080939100809191008160F5
:1010500080939100809190008160809390008091B6
:10106000A10082608093A1008091A10081608093A3
:10107000A1008091A00081608093A0008091210157
:101080008260809321018091210181608093210100
:101090008091200181608093200180917A0084609A
:1010A00080937A0080917A00826080937A008091A8
:1010B0007A00816080937A0080917A0080688093C2
:1010C0007A001092C10082E293E0C7DD85E892E0E9
:1010D000C4DD6CE172E082E293E07DDD61E089E2F3
:1010E00072DB60E08AE26FDBF89482E08093B0000C
:1010F0008093B10094E69093B3001092B200809375
:10110000700078948093C00310928C048091BF0388
:1011100060E059DB61E088E056DB61E089E053DBA9
:1011200061E083E050DB60ED77E080E090E087DB1A
:10113000EEDC60935C0270935D0280935E0290939C
:101140005F0222242394312C44244A94542C3201EB
:1011500024EC33E0309382022093810280918C044E
:1011600090E090938402809383028091C003853045
:1011700009F08DC28091C6039091C70388589109E8
:101180008D35910588F480918C04843041F48091F0
:10119000C8039091C9038097479708F433C28091A0
:1011A0008C04843408F00BC380918C048A3108F4D9
:1011B0004EC08091C4039091C503843F914068F470
:1011C0001092800210927F0240927B0250927C0229
:1011D00060927D0270927E0258C08091C603909109
:1011E000C70385974B9798F5EAECF3E082E090E02F
:1011F000C12CD12C760120918C0430E0AC014F5FE2
:101200005F4F4217530754F4DF0112972D913C9121
:10121000275031092730310508F419C301979595F6
:1012200087959093800280937F020C972CF4109204
:10123000800210927F020BC0C0927B02D0927C028F
:10124000E0927D02F0927E0222E030E0D6C18091F1
:101250008C048A3108F44BC08091C4039091C5037B
:101260008032934008F4ACCF8091C6039091C703BD
:10127000C697869708F408C33AC0C0927B02D09202
:101280007C02E0927D02F0927E0289E090E032C41E
:1012900020813181255231092B31310508F004C3F9
:1012A000CC0CDD1CEE1CFF1C6894C0F80296349632
:1012B00020918C0430E0AC014F5F5F4F4217530721
:1012C0004CF4DF0112972D913C912C5031092B30B9
:1012D0003105F0F201979595879590938002809360
:1012E0007F020C9754F61092800210927F02809138
:1012F0008C04823208F44DC08091C6039091C703DC
:101300000697079708F045C0EAECF3E082E090E02A
:10131000C12CD12C76019C012F5F3F4F40918C0452
:1013200050E024173507E4F4DF0112974D915C91EA
:1013300011974E5151094731510508F0C2C2CC0CEA
:10134000DD1CEE1CFF1C6894C0F84081518134966E
:10135000435051094530510510F40296DCCFC901C4
:101360000197959587959093800280937F0240978F
:101370002CF41092800210927F020BC0C0927B026C
:10138000D0927C02E0927D02F0927E028AE090E0B0
:10139000B1C380918C048D3048F480918302909188
:1013A0008402181619060CF47CC086C03C822B827D
:1013B0001A82198249E753E0BE016F5F7F4FCE0169
:1013C000039672DC892B21F080E090E0DC0163C0A1
:1013D00049E753E0BE016F5F7F4FCE01039664DCA7
:1013E000019791F749E753E0BE016F5F7F4FCE0150
:1013F00003965ADC892B41F700E010E0812C912CF8
:10140000540180918C0490E02B813C81281739078E
:1014100064F549E753E0BE016F5F7F4FCE0103964D
:1014200043DC7C0149E753E0BE016F5F7F4FCE0193
:1014300003963ADCE1E0EE16F10451F4892B09F051
:10144000C3CF880C991CAA1CBB1C689480F80AC0E6
:10145000EF2809F0B9CF019709F0B6CF880C991C95
:10146000AA1CBB1C0F5F1F4FCCCF109380020093B0
:101470007F0280927B0290927C02A0927D02B092C9
:101480007E0223E030E0309378022093770281E0FF
:1014900090E0A0E0B0E0892B8A2B8B2B09F0CAC02A
:1014A0007CCF3C822B82E0918102F091820282818A
:1014B000938189974E9720F080E090E0DC0148C04E
:1014C00022E030E03C832B83848195810B970A973F
:1014D00098F783E090E09C838B831A8219824CEB0F
:1014E00051E0BE016F5F7F4FCE010396DDDB892B9C
:1014F00019F74CEB51E0BE016F5F7F4FCE010396B1
:10150000D3DB0197C9F600E010E0812C912C540147
:101510002B813C81809183029091840228173907A6
:101520000CF4DCC11093800200937F0280927B0256
:1015300090927C02A0927D02B0927E0284E090E0C4
:10154000909378028093770281E090E0A0E0B0E091
:10155000892B8A2B8B2B09F06DC0C0908102D09013
:101560008202F60182819381C6978697E8F4F6019C
:10157000848195814B974597B8F4D60116967601EC
:10158000F6ECEF0EF11C20E030E040E050E060E0CF
:1015900070E080E090E00D911C91119709501109C5
:1015A0000830110508F4E7C180918C04823209F0FB
:1015B0001BC2F601828193810A97099708F014C231
:1015C00020918C04C601820F911D820F911DDC01B8
:1015D00012978D919C910A97099708F005C2109275
:1015E000800210927F0240927B0250927C026092B5
:1015F0007D0270927E0228E030E0309378022093E2
:10160000770218C08091CA039091CB03099709977C
:1016100008F0C5CD1092800210927F0240927B02AA
:1016200050927C0260927D0270927E02309278022B
:101630002092770240917B0250917C0260917D0262
:1016400070917E0220E182E293E09FDB6CE472E025
:1016500082E293E0C0DA80917B0290917C02A091BB
:101660007D02B0917E028F3CE0E39E07EDEFAE0776
:10167000B10509F044C210926D0210926C0280E034
:1016800090E07CDA82E08093C00310928C04809119
:101690006C0290916D02009709F46EC0019709F0F9
:1016A0008BC035DA609364027093650280936602A2
:1016B0009093670200915C0210915D0220915E029E
:1016C00030915F02601B710B820B930B07D420E0FB
:1016D00030E047ED53E467D3CED36093600270935C
:1016E00061028093620290936302F8D36B017C01E4
:1016F000609368027093690280936A0290936B0210
:1017000020E030E04AE754E44ED32AED38E34EE8D7
:1017100050E498D4AB01BC0123E082E293E07DDB8E
:101720006CE272E082E293E056DA6DE472E082E20B
:1017300093E051DA2AED38E34EE850E4C701B601F0
:1017400081D4AB01BC0122E085E892E066DB61E375
:1017500072E085E892E03FDA65E372E085E892E0C6
:101760003ADA6CE472E085E892E035DA68EE73E02C
:1017700080E090E064D820C082E293E00E9494016F
:10178000892B51F082E293E00E947201682F85E874
:1017900092E00E94D301F0CF85E892E00E9494018C
:1017A000892B51F085E892E00E947201682F82E255
:1017B00093E00E94D301F0CF0E943A02C9CC8091FD
:1017C000C8039091C903825491098E9708F0ECCC1C
:1017D00080E090E040E050E0BA01FC01E653FC4FAD
:1017E00020813181295031092930310508F0DCCCC4
:1017F000FC01E453FC4F2081318126513109213114
:101800003105C0F4440F551F661F771F41600496D1
:101810008038910511F780E290E0909380028093E8
:101820007F0240937B0250937C0260937D02709311
:101830007E02FCCE208131812650310927303105CE
:1018400008F0B2CC440F551F661F771FE0CF2081F0
:101850003181235131092F30310548F4CC0CDD1C86
:10186000EE1CFF1C6894C0F802963496C4CC20810C
:1018700031812A5031092930310508F0E8CCCC0CEF
:10188000DD1CEE1CFF1CF0CF8091C8039091C903B2
:10189000C697869708F02BCDECECF3E083E090E060
:1018A000C12CD12C760104CD208131812C503109FD
:1018B0002A30310508F01BCDCC0CDD1CEE1CFF1CC2
:1018C000F5CC4D915C914C5051094B30510508F0CD
:1018D00060CDCC0CDD1CEE1CFF1C37CD4CEB51E079
:1018E000BE016F5F7F4FCE010396DED96C010330DE
:1018F000110569F04CEB51E0BE016F5F7F4FCE01E7
:101900000396D2D97C0103301105C9F40CC04CEB0D
:1019100051E0BE016F5F7F4FCE010396C5D9C81657
:10192000D90641F3C9CD4CEB51E0BE016F5F7F4F4B
:10193000CE010396B9D9E816F90609F0BDCDC11458
:10194000D10459F4EA94EF2809F0B6CD880C991C1B
:10195000AA1CBB1C689480F80BC0CA94CD2809F05F
:10196000ABCDEF2809F0A8CD880C991CAA1CBB1C94
:101970000F5F1F4FCDCD12960D911C911397015102
:1019800011090D30110518F501E006D421601496F7
:10199000AE15BF0509F0FFCD20937B0230937C028A
:1019A00040937D0250937E0200E211D4209379028D
:1019B00030937A0287E090E09093780280937702E8
:1019C00080E390E09093800280937F0233CE129662
:1019D0000D911C911397045011090530110508F061
:1019E000E3CD01E0D9D3D3CFF6018281938189572A
:1019F00091098335910508F4B9C020918302309193
:101A0000840238872F83263031050CF43BCE8601C3
:101A10000A5F1F4FB5ECCB2EBDE9DB2EBCE1EB2EF0
:101A2000B1E8FB2E83E090E09E838D83F801608116
:101A300071813497A080B18080E090E04DD26987B9
:101A40007A878B879C87B50180E090E045D24B0177
:101A50005C012DEC3CEC4CE45FE3F4D29B01AC0167
:101A600069857A858B859C859AD187FD7CC02DEC14
:101A70003CEC4CE45FE369857A858B859C85E2D2FA
:101A80009B01AC01C501B4018AD1E82F880FFF0B7F
:101A9000EE27FF0FEE1FFF273196A701960163E99E
:101AA00071E080E091E035D36F01FF0FEE08FF0891
:101AB000C626D726E826F9262D813E812F5F3F4F87
:101AC0003E832D830E5F1F4F8F819885281739071E
:101AD00009F0ACCFC0927B02D0927C02E0927D02F2
:101AE000F0927E02E0E2F0E0F0938002E0937F0269
:101AF0008FEF9FEF90937802809377029BCD803D8C
:101B0000F0E39F07FDEFAF07B10588F4873F9840EA
:101B1000AD4FB10539F430926D0220926C0281E034
:101B200090E0AFCD80916C0290916D02AACD873B81
:101B300038E493073DEFA307B10539F483E090E063
:101B400090936D0280936C029CCD87379848AD4F7F
:101B5000B10541F722E030E030936D0220936C0232
:101B600082E090E08ECDE0E0F0E097CF80918C04B1
:101B7000813208F442CFF60184819581CA97899712
:101B800008F03BCF96012A5F3F4F80E090E0DC01F8
:101B900043E050E0F901608171816A507109693058
:101BA000710508F02ACFF9016281738166517109CC
:101BB0006131710548F5880F991FAA1FBB1F81600D
:101BC0004E5F5F4F2C5F3F4F4332510519F796012F
:101BD0002A5B3F4FF901208131812A503109293098
:101BE000310508F00ACF20E130E0309380022093E5
:101BF0007F0280937B0290937C02A0937D02B0933E
:101C00007E0288E090E076CFF901628173816650B0
:101C100071096730710508F0F0CE880F991FAA1F6F
:101C2000BB1FCECFE5E8F2E01382128248EE53E00C
:101C300060E070E044835583668377838EE092E0B2
:101C4000918380832DEC30E0358724872CEC30E0C5
:101C50003787268728EC30E0318B208B29EC30E069
:101C6000338B228B2AEC30E0358B248B2EEC30E04A
:101C7000378B268B118E128E138E148EE2E2F3E0D8
:101C80001382128244835583668377839183808392
:101C900085EC90E09587848784EC90E09787868731
:101CA00080EC90E0918B808B81EC90E0938B828B29
:101CB00082EC90E0958B848B86EC90E0978B868B02
:101CC000118E128E138E148EEFEBF3E082E0808380
:101CD000128208955058BB27AA270ED075C166D12D
:101CE00030F06BD120F031F49F3F11F41EF45BC152
:101CF0000EF4E095E7FB51C1E92F77D180F3BA17D5
:101D0000620773078407950718F071F49EF58FC179
:101D10000EF4E0950B2EBA2FA02D0B01B901900106
:101D20000C01CA01A0011124FF27591B99F0593F4A
:101D300050F4503E68F11A16F040A22F232F342F92
:101D40004427585FF3CF469537952795A795F040E0
:101D50005395C9F77EF41F16BA0B620B730B840BF5
:101D6000BAF09150A1F0FF0FBB1F661F771F881FAD
:101D7000C2F70EC0BA0F621F731F841F48F4879505
:101D800077956795B795F7959E3F08F0B3CF9395F4
:101D9000880F08F09927EE0F979587950895D9D069
:101DA00008F481E008950CD00FC107D140F0FED0B7
:101DB00030F021F45F3F19F0F0C0511139C1F3C088
:101DC00014D198F39923C9F35523B1F3951B550BFF
:101DD000BB27AA2762177307840738F09F5F5F4FFE
:101DE000220F331F441FAA1FA9F333D00E2E3AF03F
:101DF000E0E830D091505040E695001CCAF729D059
:101E0000FE2F27D0660F771F881FBB1F26173707A7
:101E10004807AB07B0E809F0BB0B802DBF01FF27D7
:101E200093585F4F2AF09E3F510568F0B6C000C13D
:101E30005F3FECF3983EDCF3869577956795B79511
:101E4000F7959F5FC9F7880F911D9695879597F92C
:101E50000895E1E0660F771F881FBB1F62177307A5
:101E60008407BA0720F0621B730B840BBA0BEE1FBA
:101E700088F7E095089504D06894B111D9C0089509
:101E8000BCD088F09F5790F0B92F9927B751A0F098
:101E9000D1F0660F771F881F991F1AF0BA95C9F7FE
:101EA00012C0B13081F0C3D0B1E00895C0C0672F37
:101EB000782F8827B85F39F0B93FCCF386957795AE
:101EC0006795B395D9F73EF4909580957095619597
:101ED0007F4F8F4F9F4F0895E89409C097FB3EF4C2
:101EE00090958095709561957F4F8F4F9F4F992367
:101EF000A9F0F92F96E9BB279395F69587957795E5
:101F00006795B795F111F8CFFAF4BB0F11F460FFA4
:101F10001BC06F5F7F4F8F4F9F4F16C0882311F0FC
:101F200096E911C0772321F09EE8872F762F05C010
:101F3000662371F096E8862F70E060E02AF09A95AB
:101F4000660F771F881FDAF7880F9695879597F9A0
:101F50000895990F0008550FAA0BE0E8FEEF16163A
:101F60001706E807F907C0F012161306E407F5078D
:101F700098F0621B730B840B950B39F40A2661F001
:101F8000232B242B252B21F408950A2609F4A140A4
:101F9000A6958FEF811D811D089597F99F6780E8B1
:101FA00070E060E008959FEF80EC089500240A94AB
:101FB0001616170618060906089500240A94121624
:101FC0001306140605060895092E0394000C11F457
:101FD000882352F0BB0F40F4BF2B11F460FF04C004
:101FE0006F5F7F4F8F4F9F4F089557FD9058440F5D
:101FF000551F59F05F3F71F04795880F97FB991F68
:1020000061F09F3F79F08795089512161306140624
:10201000551FF2CF4695F1DF08C0161617061806B1
:10202000991FF1CF86957105610508940895E8948C
:10203000BB2766277727CB0197F908958ADF08F435
:102040008FEF08950BD0C0CFB1DF28F0B6DF18F0C6
:10205000952309F0A2CFA7CF1124EACFC6DFA0F3C2
:10206000959FD1F3950F50E0551F629FF001729F2D
:10207000BB27F00DB11D639FAA27F00DB11DAA1F4C
:10208000649F6627B00DA11D661F829F2227B00D99
:10209000A11D621F739FB00DA11D621F839FA00D24
:1020A000611D221F749F3327A00D611D231F849F74
:1020B000600D211D822F762F6A2F11249F575040CB
:1020C0008AF0E1F088234AF0EE0FFF1FBB1F661F66
:1020D000771F881F91505040A9F79E3F510570F01F
:1020E0005CCFA6CF5F3FECF3983EDCF38695779507
:1020F0006795B795F795E7959F5FC1F7FE2B880F1A
:10210000911D9695879597F9089523DF880B990B74
:102110000895DB018F939F9335D0BF91AF91A29F1C
:10212000800D911DA39F900DB29F900D11240895D5
:10213000A1E21A2EAA1BBB1BFD010DC0AA1FBB1FCB
:10214000EE1FFF1FA217B307E407F50720F0A21B3D
:10215000B30BE40BF50B661F771F881F991F1A94AA
:1021600069F760957095809590959B01AC01BD01D4
:10217000CF010895EE0FFF1F881F8BBF0790F691C8
:10218000E02D199440D0A59F900DB49F900DA49F71
:10219000800D911D112408950F93083090F0982F11
:1021A000872F762F652F542F432F322F2227085049
:1021B000F4CF220F331F441F551F661F771F881F40
:1021C000991F0A95B2F70F91089597FB10F816948E
:1021D00000080F93083098F00850232F342F452F14
:1021E000562F672F782F892F902DF4CF0594979530
:1021F00087957795679557954795379527950A95CC
:10220000AAF70F910895A29FB001B39FC001A39FA9
:10221000700D811D1124911DB29F700D811D11241F
:10222000911D089581E090E0F89400C0F894FFCFEC
:10223000C0F9A4B0999282F8809000000000D30108
:1022400000066301190294017201860157656C63EF
:102250006F6D6520746F207573652100206B670AB0
:102260000020670A002A2A2A2A2A2A2A2A2A2A2A0F
:102270002A2A2A2A2A2A2A2A2A2A2A000D0A006E0B
:0C228000616E00696E66006F76660000FB
:00000001FF
